:020000040800F2
:10000000904D00209D0100086B330008DD2700089B
:1000100069330008B51500085F35000800000000CE
:1000200000000000000000000000000005010008C2
:100030000516000800000000490100086D330008A3
:10004000B7010008B7010008B7010008B7010008B0
:10005000B7010008B7010008B7010008B7010008A0
:10006000B7010008B7010008B7010008B701000890
:10007000B7010008B7010008B7010008B701000880
:10008000B7010008B7010008B7010008B701000870
:10009000B7010008B7010008B7010008B701000860
:1000A000B7010008B7010008B7010008B701000850
:1000B000B7010008B7010008B7010008B701000840
:1000C000B7010008B7010008B7010008B701000830
:1000D000B7010008B7010008B7010008B701000820
:1000E000B7010008B7010008B7010008DFF810D019
:1000F00000F0FAFC00480047AD410008AFF3008073
:10010000904D0020224B19680868B0E8F00F80F38A
:100110000988BFF36F8F4FF0000080F311884EF015
:100120000D0E70470000000006480068006880F36C
:10013000088862B661B6BFF34F8FBFF36F8F00DFE1
:1001400000BF00BF08ED00E0EFF30980BFF36F8F41
:100150000F4B1A6820E9F00F106008B54FF0BF0090
:1001600080F31188BFF34F8FBFF36F8F04F0F8FB5C
:100170004FF0000080F31188BDE808401968086856
:10018000B0E8F00F80F30988BFF36F8F704700BFAE
:1001900054000020EFF305807047000006488047B8
:1001A00006480047FEE7FEE7FEE7FEE7FEE7FEE75C
:1001B000FEE7FEE7FEE7FEE7E3330008ED00000898
:1001C000202A04DB203A21FA02F00021704721FAAC
:1001D00002F3D040C2F12002914008431946704713
:1001E000D2B201E000F8012B491EFBD27047002279
:1001F000F6E710B513460A4604461946FFF7F0FF26
:10020000204610BD421C10F8011B0029FBD1801AAA
:100210007047F0B480EA0102D40F4200B2EB410F04
:1002200002D20246084611464A0042D0C30DDDB252
:10023000C1F3C752AD1A202D35DAC1F3160141F4CE
:10024000000204B15242C5F1200602FA06F12A4129
:100250001044B3EBD05F23D0C4B1012DA0EBC35049
:1002600009DCF0BC4FF0004202EAC352DBB200F5F9
:10027000000000F044BB400000F1807000EBC35070
:10028000A0F1807040EAD170490009E0490841EAD4
:10029000C071A0EBC35000F50000400800EBC35054
:1002A000F0BC00F023BB6142012202EB4101001BC4
:1002B000F6E7F0BC704781F00041AAE780F000400B
:1002C000A7E780EA010210B502F00043400022D007
:1002D0004A001FD0010E01EB1261C0F35600C2F3B9
:1002E000560240F4000042F40002A0FB0220000489
:1002F0007F39140400D0401C50EA124001D4400061
:10030000491EC2B20C0604EBD010401C4008802AE3
:1003100002D003E0002010BD20F00100002900DA27
:100320000020184310BD30B480EA010202F00045FD
:1003300030F0004221F0004013D090B1C30DD40D35
:10034000C2F31601C0F31600E41A41F4000140F4B0
:1003500000027D34914201D3641C00E04900002C6E
:1003600002DA30BC002070474FF4000000239142B5
:1003700001D3891A034340084FEA4101F7D151B133
:10038000914202D14FF0004105E002D24FF001014D
:1003900001E06FF0010103EBC450284430BC00F0D1
:1003A000A5BA2DE9FE4F804681EA0300C00F0C4636
:1003B000009021F0004123F00045B8EB0200A94174
:1003C00005D24046214690461C460B46024623F085
:1003D0000040104347D0270DC7F30A00C3F30A516A
:1003E0000290401A019040286BDAC3F3130040F4E6
:1003F000801B0098924620B10023D2EB030A63EBE6
:100400000B0B01985946C0F14002504600F04DFADE
:1004100006460D4650465946019A00F055FA10EB33
:1004200008006141002487EA115284EAE7731A4305
:1004300040D0009A62B3019A012A4FEA075215DCB4
:10044000001B61EB02014FF0004202EA0752CDE9C6
:100450000042001C41F5801132462B4600F0AAFAFA
:1004600003B0BDE8F08F40462146F9E7001B61EB81
:100470000201001C41F5801300185B412018A2F511
:10048000001747EB030140EAD570B6196D4111E042
:100490006D084FEA360645EAC0754FEA0752001B61
:1004A00061EB0201001C41F5801149084FEA300060
:1004B0000019514132462B4603B0BDE8F04F00F021
:1004C0006ABA0098012240000023D0EB020263EBDD
:1004D000E073009821464FEAE074B8EB000061EB4E
:1004E0000401E9E783F000435BE781F0004158E74E
:1004F0002DE9FE4F81EA030404F0004421F000419D
:1005000000944FF0000B23F0004350EA01045ED04A
:1005100052EA03045BD0C3F30A54C1F30A552C44D6
:10052000A4F2F3340194A0FB0254C1F3130141F48B
:100530008011C3F3130343F4801301FB024400FB57
:10054000034E840A970A44EA815447EA8357A4FB7E
:10055000076802958D0A05FB07854FEA932C04FB7B
:100560000C542705029D4FEA065847EA1637B5EBAB
:1005700008056EEB070C870E920E47EA811742EAD8
:100580008312A7FB0201B6EB0B0164EB00042B0DF9
:1005900043EA0C335E1844EB1C50DA465146E7FB45
:1005A0000201C5F313044FEA0B3343EA14534FEA35
:1005B0000432019C43EA0603A4F10C040294009C5B
:1005C000CDE900B400F0F6F903B0BDE8F08F0020EB
:1005D0000146F9E72DE9F04D81EA030404F0004BF0
:1005E00021F0004514464FF0000A23F0004150EA84
:1005F000050220D054EA01021DD0C5F30A57024675
:10060000C5F31303C1F31300C1F30A5640F4801578
:1006100043F48013A7EB0608101BD64608F2FD38FA
:1006200073EB050002D308F1010801E092185B4169
:10063000B8F1000F03DA00200146BDE8F08D00207C
:100640004FF48011064684460EE0171B73EB050736
:1006500005D3121B63EB050306434CEA010C490862
:100660004FEA300092185B4150EA0107EDD152EA9F
:10067000030012D082EA040083EA0501084305D092
:10068000101BAB4106D20122002306E000224FF0EE
:10069000004302E06FF0010253101AEB06004CEB2E
:1006A000085110EB0A0041EB0B01BDE8F04D00F0E2
:1006B00072B9C10F80EAE0700844CA07962300218E
:1006C00000F01DB996230022114600F018B90EB5AE
:1006D000C10F80EAE0700844CA07002140F23343AA
:1006E0008DE80E000A460B4600F064F903B000BD29
:1006F0000EB540F2334102910021CDE900110A46C6
:100700000B4600F057F903B000BD00F0004220F0A6
:100710000040C10DC0F3160040F400007F2901DA4B
:1007200000207047962903DCC1F19601C84001E022
:1007300096398840002AF4D04042704720F00040AB
:10074000C10DC0F3160040F400007F2901DA00203B
:100750007047962903DCC1F19601C840704796396D
:1007600088407047C1F30A5210B5C1F3130140F23B
:10077000FF3341F480119A4201DA002010BD40F2AB
:1007800033439A42A2F2334203DC5242FFF718FD90
:1007900010BD904010BD00F0004230F000400AD083
:1007A000C10D01F56071C0F3160042EA0151C208A3
:1007B00040071143704700200146704701F0004395
:1007C00030B421F0004150EA010206D00A0DA2F532
:1007D0006072C1F31301002A02DC30BC00207047B4
:1007E000440F44EAC104C100E01830BC00EBC25021
:1007F00000F07CB8002801DBC0F10040002901DBDB
:10080000C1F1004181427047002801DBC0F1004086
:10081000002901DBC1F100418842704730B50B4629
:10082000014600202022012409E021FA02F59D4220
:1008300005D303FA02F5491B04FA02F52844151EF4
:10084000A2F10102F1DC30BD2DE9F05F0546002088
:1008500092469B4688460646814640241BE0284631
:10086000414647462246FFF7ABFC53465A46C01A5C
:10087000914110D311461846224600F016F82D1A61
:1008800067EB01084F4622460120002100F00DF8D9
:1008900017EB00094E41201EA4F10104DFDC48469D
:1008A00031462A464346BDE8F09F202A04DB203A21
:1008B00000FA02F1002070479140C2F1200320FAB3
:1008C00003F3194390407047202A06DBCB17203AE8
:1008D00041FA02F043EAE07306E041FA02F3D04045
:1008E000C2F1200291400843194670470029A8BF71
:1008F0007047401C490008BF20F00100704710B449
:10090000B0FA80FC00FA0CF050EA010404BF10BCFD
:10091000704749B1CCF1200421FA04F411FA0CF12A
:1009200018BF012121430843A3EB0C01CB1D4FEA63
:1009300000614FEA102042BF002010BC704700EB5E
:10094000C35010440029A4BF10BC7047401C49008C
:1009500008BF20F0010010BC704710B541000CD05A
:10096000C0F3C751962908DC7E2909DC06DB410269
:1009700004D000F0004040F07E5010BD002010BDBB
:10098000C1F19604C4F1200100FA01F1E040FFF743
:10099000ADFFA04010BD10B5141E73F1000408DABD
:1009A000401C41F1000192185B411A4301D120F033
:1009B000010010BD2DE9F04D92469B4611B1B1FAF0
:1009C00081F202E0B0FA80F220329046FFF76DFF2C
:1009D00004460F4640EA0A0041EA0B0153465A46D4
:1009E000084313D0114653EA010019D0C8F1400260
:1009F0005046FFF7E5FB05460E465046594642462F
:100A0000FFF753FF084305D0012004E02046394694
:100A1000BDE8F08D0020054346EAE0762C433743DD
:100A20000A986305E40AA0EB08000022FD0A44EAE4
:100A300047540A3002D500200146E9E701051019A4
:100A40006941DDE9084500196941BDE8F04DA2E7BB
:100A5000C1F30A52C1F3130140F2FF3341F4801194
:100A60009A4202DA00200146704740F233439A422C
:100A7000A2F2334202DC5242FFF7A2BBFFF715BFDE
:100A800030B5041E71F1000404DB4FF00044404215
:100A900064EB0101141E73F1000405DB1C464FF0EA
:100AA0000043524263EB0403994208BF904230BDB9
:100AB000002801DBC0F10040002901DBC1F1004149
:100AC000814202D24FF0004004E04FF0005001D1CB
:100AD0004FF0C0404FEA2062EFF3008162F31F61E4
:100AE00081F3008870470000064C074D06E0E0687F
:100AF00040F0010394E8070098471034AC42F6D365
:100B0000FFF7F8FA686700088867000870B58C1866
:100B100010F8015B15F0070301D110F8013B2A1111
:100B200006D110F8012B03E010F8016B01F8016BFE
:100B30005B1EF9D12B0705D40023521E0DD401F8FA
:100B4000013BFAE710F8013BCB1A921C03E013F8C3
:100B5000015B01F8015B521EF9D5A142D8D30020F8
:100B600070BD000010B5FFF7ADFD044CA169FFF7A3
:100B7000A8FBA168FFF74DFBA06010BD100000208E
:100B800070B5124C05466069FFF79CFD014628468A
:100B9000A26900F023FCE060FFF7FDFD02460B4672
:100BA0000BA002F0DDFC00F0B5F920690F49E06010
:100BB000884201DD0E49E160FFF7EDFDBDE87040C0
:100BC00002460B460BA002F0CBBC00001000002038
:100BD0002066696E616C20736F635F706572636518
:100BE0006E743A25662025250D0A20000000C642B5
:100BF0000000C8422066696E616C20646973706C85
:100C000061795F736F635F70657263656E743A25B7
:100C1000662025250D0A2000F0B5574D87B041F21A
:100C20008837002035F81010B94200D20F46401C1A
:100C30000628F7D3394651A002F092FC554900200E
:100C400040F6B83391F901204FF0010C06466C468E
:100C5000282A0BD835F81010A1EB070EBEF1320F81
:100C600004DB994202D304F800C000E02654401C83
:100C70000628EDD300273946E25D47A002F070FC5C
:100C80007F1C062FF7D30020215C01290DD12118EC
:100C90004A78012A09D105EB400335F810205B881A
:100CA0009A4201D2265400E04E70401C0528EBD336
:100CB00000252946625D40A002F052FC6D1C062D05
:100CC000F7D3444C9DF80000617860F300019DF873
:100CD000010060F341019DF8020060F304116170AE
:100CE0009DF80320A07862F300009DF8042062F3D1
:100CF00041009DF8052062F30410A070012002F06D
:100D000051FAA178022002F04DFA012202A9104600
:100D100002F092F99DF808102FA002F021FC0024A7
:100D20009DF80800E040C00701D032A200E032A2E6
:100D3000214632A002F014FC641C052CF0D30122E1
:100D400002A9022002F078F99DF8081030A002F004
:100D500007FC00249DF80800E040C00701D025A250
:100D600000E025A2A11D31A002F0FAFB641C052CB5
:100D7000F0D307B0F0BD0000D80500206D696E5FAC
:100D8000766F6C746167655F6D763A2564206D7669
:100D90000D0A000010000020636164692063656C27
:100DA0006C5F746F5F62616C616E63655B25645D2F
:100DB0003A2025640A00000063656C6C5F746F5F05
:100DC00062616C616E63655B25645D3A2025640A2F
:100DD000000000001006002063656C6C5F62616CAF
:100DE000616E63655F73746174757331203D202596
:100DF000780A00006F6E00006F6666007663312D22
:100E00003525642062616C616E63653A25730A0062
:100E100063656C6C5F62616C616E63655F73746166
:100E200074757332203D2025780A00007663362DD4
:100E3000313025642062616C616E63653A25730A06
:100E4000000000000EB502F065F903F077F903F039
:100E50004BF803F05DF8082201A9042002F0ECF839
:100E6000FF208DF8000001226946002002F0E4F81E
:100E70009DF8001010A002F073FB4FF4FA6003F02D
:100E800027FD01226946002002F0D6F89DF80010E7
:100E90000EA002F065FB9DF8041010A002F060FBAC
:100EA0009DF8051011A002F05BFB14A002F058FBA6
:100EB00000F080FA0EBD00006669727374207374CE
:100EC0006174653A25303278200A000073746174C9
:100ED000653A25303278200A000000007379736388
:100EE00074726C313A25303278200A00737973635A
:100EF00074726C323A25303278200A00636F6E6665
:100F0000696720696E697420737563636573730A1A
:100F1000000000002DE9F041204D214F1E48AE6930
:100F20004FF07A54BE4200DC04462869804610F037
:100F3000FF4F1A48C0681ED04146FFF7BCF9214652
:100F4000FFF7BFF94146FFF764F90446BE4203DDEF
:100F50004146FFF74FFC0FD3A869B0F5000F04DA44
:100F600020462969FFF750FC06D30E4814F1FF4FC5
:100F700004D3002405E02861BDE8F081844200DD4F
:100F8000044620462C61FFF706FCBDE8F04102460E
:100F90000B4605A002F0E4BA8FC2F53D1000002018
:100FA0000AD7233C0000C84263616E6469646174BF
:100FB000653A25662025250D0A200000F8B5022295
:100FC00069462A2002F038F8BDF800000F4D46BAF5
:100FD00095F9000000EB40004000FFF778FB0F465A
:100FE00004466988B0004843FFF771FB0022084BB4
:100FF000FFF7F0FA22463B46FFF7D3F9FFF7B2FBC3
:101000000146686103A002F0ABFAF8BD10000020B1
:1010100000408F406261745F6D76203A2025642025
:101020006D760A20000000002DE9FF5F00208DF89A
:101030000800012202A901F0FFFF082269460420EE
:1010400001F0FAFF9DF8081025A002F089FA9DF83A
:10105000001027A002F084FA9DF8011028A002F0E9
:101060007FFADFF8ACA0DFF8AC9000244FF00C0B57
:10107000AAF11C081AF8040002220BEB4000C0B2CF
:1010800003A901F0D9FFBDF80C0047BA98F9000098
:10109000FFF71DFB0E46B8F80210054607FB01F0EE
:1010A000FFF715FB00221C4BFFF794FA2A46334644
:1010B000FFF777F9FFF756FB29F81400641C4D463B
:1010C000062CD7D35FF00004214635F8142013A076
:1010D00002F046FA641C062CF6D3BDE8FF9F000020
:1010E00073746174653A25303278200A000000007C
:1010F0007379736374726C313A25303278200A0048
:101100007379736374726C323A25303278200A0036
:101110002C000020D805002000408F4063656C6CD7
:101120005F6D765B25645D3A202564206D760A202C
:101130000000000008B502226946322001F07CFF61
:10114000BDF8000040BA00B2FFF7C1FA0B4A0C4BE1
:10115000FFF7CEF900220B4BFFF73CFAFFF72EFB0F
:101160000949FFF7E0F809498861FFF714FB0246D7
:101170000B4607A002F0F4F908BD0000E17A14AEB6
:1011800047E1204000408F400000A04010000020B8
:1011900063757272656E745F61203A20252E326627
:1011A00020410A2000000000F8B5022269462C20E8
:1011B00001F042FFBDF8000040BAFFF799FA0022A3
:1011C000164BFFF795F90022154BFFF703FAFFF7CF
:1011D000F5FA0546FFF7DFFA4FF06632114BFFF7DD
:1011E00084F906460C4610492846FFF76AF8FFF7CF
:1011F000D2FA32462346FFF7EDF9FFF7B3FA044679
:1012000001460AA002F0ACF9204600F0EDF90A49C7
:101210004870014609A002F0A3F9F8BD00E077404C
:1012200080842E4166660A4000401C467473315F1C
:1012300072203D2025640A001000002074656D7046
:1012400072203D2025642043200A000001F060BD8B
:10125000F8B5002401250827202601E0022C04D837
:10126000E2B207EB0410009503E0E2B206EB0410D3
:101270000095C0B21023082101F05CFE641C052C0F
:10128000ECD3102307A208213820009501F09CFE22
:1012900003F02AFA03F0D6FA01F0B4FDBDE8F840F5
:1012A00003F0DEBA424D53007CB501200024CDE9A5
:1012B000000446022346324610A1134803F0A0FB67
:1012C0000225CDE900540023324610A1134803F053
:1012D00097FBCDE900540023324611A1154803F0D5
:1012E0008FFB0320CDE900040023324612A11648EB
:1012F00003F086FBBDE87C4003F002BB6261746DC5
:10130000616E5F7461736B007D3E00086469737089
:101310006C61795F7461736B000000001940000814
:1013200063656C6C5F62616C616E63655F74617351
:101330006B000000AB3E0008636F756C6F6D625F01
:101340007461736B00000000D93F00080849016018
:1013500008494160062101720749C16007490161DE
:1013600007494161052101830649C16170470000B9
:101370009A99193FCDCC4C3D17B7D1388FC2F53C67
:10138000CDCCCC3D00002041084810B590F820108D
:1013900051B1074C406A2146FEF793FF2246BDE853
:1013A0001040002102F08DBD002010BDE40500209A
:1013B0000000C84200B50748FFF7C8FF0548018B89
:1013C000491E41840021416280F820100249816257
:1013D00000BD0000E40500200BD7233B2DE9F05FA2
:1013E000684E694C91460F464FF07E5500287AD0E2
:1013F000FFF768F9B3463146FEF795FF06466349A5
:101400002068FEF75EFF804631464846FEF759FFEA
:101410004146FEF788FF0146606AFEF7FAFE2A465B
:10142000002102F04EFD60623146E068FEF749FFA0
:10143000A16AFEF7EEFEA062FFF7ADF902460B4689
:1014400053A002F08DF829F000406169FFF7D2F94E
:1014500001D8012000E000204FF400018F4207DB9B
:1014600030B1608C218B884208D2401C608405E03A
:10147000002262848F4236DB00287FD0608C218B73
:1014800088427BD3012084F82000D4E909A848468B
:101490006168FEF716FF5946FEF713FF3946FEF75F
:1014A0000DFF0646207AFFF70DF901463046FEF79C
:1014B0003AFF03F0DFF8FFF741F980B200F07CF863
:1014C0000746FFF7FFF8DFF8D0904946FEF72BFFFD
:1014D000064632493846642F06D3D1F89001D1F838
:1014E0008C11401A06E049E001EB800251F8270018
:1014F0005268101A002800DC0120FFF7DAF849468C
:10150000FEF7DFFE0146E069FEF70DFF01462069A8
:1015100002F09CFD0146FEF7D4FE01464046FEF770
:1015200078FE01464046FEF7FEFE0746FFF733F918
:1015300002460B461AA002F013F851463046FEF759
:10154000BAFE3946FEF7BDFE5146FEF762FE2E4654
:101550002A46002102F0B5FC054639463046FEF722
:10156000AAFE4146FEF7ADFE0646FFF714F9024615
:101570000B460EA001F0F4FFC4E90956BDE8F05F88
:10158000FFF702BF00007A44E40500200000614537
:1015900050203D2025660A000000C8427403002048
:1015A0004B616C6D616E3A25660A0000506E3A25FB
:1015B000660A0000FEE7000038B5074900918B1F5E
:1015C000652201F5367102F089FD0446014603A04B
:1015D00001F0C6FFE0B238BD9C000020696E646572
:1015E000783A25640A00000008B5054900910B1FF0
:1015F000B522083102F072FDC0F17D0040B208BD95
:1016000098000020704772B6FEE770B5040003D062
:1016100094F8200010B104E0012070BD204600F0D5
:1016200081F82068016841F00101016000F0BCF917
:101630000546052604E000F0B7F9401B0A2811D83A
:1016400020684068C007F6D02068016821F00201D8
:10165000016000F0A9F905460BE000F0A5F9401B78
:101660000A2806D9606A40F40030606284F820607D
:10167000D2E7206840688007EFD4207E01282068E8
:1016800001683DD021F080010160607E0128206862
:10169000016838D021F040010160A07E0128206857
:1016A000016833D021F020010160E07E012820682C
:1016B00001682ED041F010010160207F01282068D0
:1016C000016829D021F008010160607F01282068AD
:1016D000016824D021F004010160D4E9020108432B
:1016E000D4E90412114308436168491E0843216884
:1016F000C86100206062012084F82000002070BDD5
:1017000041F08001C0E741F04001C5E741F0200110
:10171000CAE721F01001CFE741F00801D4E741F01A
:101720000401D9E710B586B0002100910191029122
:10173000039100681349884222D11348C16941F0DE
:101740000071C161C16901F000710491816941F0CA
:101750000401816180690D4C00F0040004904FF495
:10176000006000906946204600F024F8A014009024
:1017700002200190032003906946204600F01AF8E9
:1017800006B010BD00640040001002400008014097
:1017900070B5044600F008F90546601C02D0044804
:1017A0000078044400F000F9401BA042FAD370BD59
:1017B000000000202DE9F84FDFF8B8910024A9F1CE
:1017C000040B23460F2709F1040AABF1040EC9E00C
:1017D0000125A5402A40AA427DD1674ED1F804C018
:1017E000ACEB0608B44532D014DCBCF1030F3AD0A0
:1017F00009DCBCF1000F2AD0BCF1010F1CD0BCF1F8
:10180000020F31D11DE0BCF1110F17D0BCF1120F46
:101810002AD119E0B8F5881F19D006DCB8F5803F49
:1018200015D0B8F5801F1FD111E0B8F5001F0ED0FC
:10183000B8F5041F18D10AE0CB6815E0CB681B1D72
:1018400012E0CB6808330FE0CB680C330CE08B68F8
:101850002BB1012B4FF0080303D0456104E00423B2
:1018600002E0056100E00023FF2A01D8064601E0FE
:1018700000F104064FEA840501D9A5F12005D6F848
:10188000008007FA05FC28EA0C0803FA05F548EA87
:101890000508C6F800804D68ED0062D5374DAE6989
:1018A00046F00106AE61AD6924F0030605F00105BE
:1018B0000095334D06EB050CDCF80850A607360FF3
:1018C00007FA06F825EA0805DFF8B880404503D195
:1018D0004FF0000817E044E0DFF8AC80404502D14B
:1018E0004FF001080FE0DFF8A480404502D14FF02F
:1018F000020808E0DFF89880404502D14FF0030865
:1019000001E04FF0040808FA06F848EA0508CCF8A8
:1019100008804D68D9F80060ED024D4601D51643A8
:1019200000E096432E604D68DAF80060AD0255463F
:1019300001D5164300E096432E604D68DBF8006049
:10194000AD035D4601D5164300E096432E604D6819
:10195000DEF80060ED03754601D5164300E09643BE
:101960002E60641C0D682A46E5407FF431AFBDE867
:10197000F88F000008040140000011100010024020
:101980000000014000080140000C0140001001402F
:10199000001401408068084000D0012070470AB15F
:1019A000016170470904FBE7014880687047000047
:1019B0000000002070B5040025D094F83D000025FB
:1019C00020B984F83C50204600F014FB242084F811
:1019D0003D002068016821F0010101602068016874
:1019E00041F4004101602068016821F40041016078
:1019F00000F050FC4D4A6168914201D84C4900E02A
:101A00004C49884201D2012070BD4B492368B0FB8C
:101A1000F1F15E6826F03F060E435E606368934214
:101A200006D94FF4967359434FF47A73B1FBF3F12F
:101A30002368491C1E6A26F03F063143196261681B
:101A4000914210D84900401EB0FBF1F2521CC2F383
:101A50000B02042A01D2042022E0B0FBF1F0401C6A
:101A6000C0F30B001CE0A268F2B301EBC10303EB6F
:101A70000116431EB3FBF6F35B1C43F480431B05C6
:101A800049D092B301EBC10202EB0111401EB0FB41
:101A9000F1F0401CC0F30B0040F4804040F40040E3
:101AA0002168CA694CF6FF739A431043C861D4E9B0
:101AB000071001432068026822F0C0021143016050
:101AC000D4E9030101432068826848F2FF339A4356
:101AD00011438160D4E9050108432168CA6822F0F6
:101AE000FF021043C86001E00EE016E020680168C4
:101AF00041F0010101602564202084F83D00256348
:101B000084F83E50002070BD01EB4106431EB3FB3C
:101B1000F6F35B1CB3E70120C2E701EB4101401E75
:101B2000B0FBF1F0401CC0F30B00B7E7A08601004A
:101B300080841E0000093D0040420F002DE9F84F4F
:101B40001F4690468A460446DDF82890FFF72CFF92
:101B5000054694F83D0020287FD1192301224049F1
:101B60002046009500F09EFF002876D194F83C00B6
:101B7000012872D0012084F83C0020680168C90760
:101B800003D1016841F0010101602068016821F47E
:101B900000610160212084F83D00102084F83E009F
:101BA00000262664C4F824806785608D20852D4832
:101BB000E0622B464A465146204600F027FE90B987
:101BC000206841698069009036E02A4649462046EF
:101BD00001F046F850B1206C042804D12068016857
:101BE00041F4007101600120BDE8F88F606A21684E
:101BF00000780861606A401C6062618D491E6185E1
:101C0000218D491E89B2218522685369DB435B0718
:101C10000BD451B100781061606A401C6062608D25
:101C2000401E6085208D401E20852A46494620465C
:101C300000F00CFF0028CED1208D0028C5D154F82B
:101C40003D0B016841F400710160202004F81E0979
:101C5000E67766770020C7E7FFE70220C4E70000C9
:101C6000020010000000FFFF2DE9FF4F83B00025A8
:101C7000DDE910799A4693460446DDF848800095E0
:101C8000FFF792FE064694F83D0020287CD11923E8
:101C9000012288492046009600F004FF0028F5D173
:101CA00094F83C0001286FD0012084F83C002068A3
:101CB0000168C90703D1016841F001010160206892
:101CC000016821F400610160222084F83D00402079
:101CD00084F83E0025646762A4F82A90608D208510
:101CE0007548E062CDE9008653465A46204604997D
:101CF00000F0DAFD00287CD1208DDFF8C09120278C
:101D000068B1012814D00228206801681ED041F46F
:101D1000806101602068416980690090BCE02068B2
:101D2000416981690091016841F400710160B3E08B
:101D30002068016821F48061016072B62068416901
:101D400081690091016841F400710AE041F4006189
:101D5000016072B62068416981690091016821F4CF
:101D60008061016062B697E0032865D801280CD035
:101D7000022843464FF000024946204600960BD009
:101D800000F090FEA8BB0CE091E0324641462046B0
:101D900000F02EFF68BB72E000F084FE48BB72B614
:101DA00033E02068016821F48061016072B6206828
:101DB0000069616A0870606A401C6062208D401E84
:101DC0002085608D401E60853D4846F2A811006860
:101DD000B0FBF1F0C0EBC00000EB80000090401EB3
:101DE000009007D020684069C04340070DD5009897
:101DF000F5E727E044F8305F6773A573206940F08A
:101E00002000206162B625731CE02068016841F45F
:101E10000071016020680069616A0870606A401C96
:101E20006062218D491E2185618D491E618562B6E2
:101E300021680969017026E032464146204600F0DB
:101E4000D7FE18B1012007B0BDE8F08F2068006907
:101E5000616A0870606A401C6062208D401E81B219
:101E60002185608D401E608520684269D2435207FB
:101E700012D4032903D1016821F480610160206834
:101E80000069616A0870606A401C6062208D401EB3
:101E90002085608D401E6085208D00287FF464AF12
:101EA00084F83D7084F83E5084F83C50CBE7022023
:101EB000C9E70000020010000000FFFF040001005D
:101EC0000C0000202DE9FF4F83B09A46DDE9119701
:101ED00093460446DDF84080FFF766FD054694F81A
:101EE0003D0020287FD1192301224049204600953A
:101EF00000F0D8FD002876D194F83C00012872D07B
:101F0000012084F83C0020680168C90703D10168FA
:101F100041F0010101602068016821F40061016065
:101F2000212084F83D00402084F83E0000262664ED
:101F3000C4F82480A4F82A90608D20852C48E062A3
:101F4000CDE9007553465A462046049900F02AFD13
:101F500070B930E02A463946204600F081FE58B17B
:101F6000206C042804D12068016841F400710160EC
:101F7000012007B0BDE8F08F606A21680078086131
:101F8000606A401C6062218D491E89B22185628D84
:101F9000521E628522685369DB435B070BD469B12B
:101FA00000781061606A401C6062208D401E2085B0
:101FB000608D401E6085208D0028CBD12A46394691
:101FC000204600F043FD0028CAD154F83D0B0168BB
:101FD00041F400710160202004F81E09E67766775D
:101FE0000020C6E7FFE70220C3E700000200100060
:101FF0000000FFFF10B586B0002100910191029111
:1020000003910068104988421BD1104CA06940F030
:102010000800A061A069694600F0080004904FF430
:102020004060009012200190032003900848FFF7C1
:10203000C1FBE06940F48000E061E06900F48000E9
:10204000049006B010BD000000580040001002408F
:10205000000C014002488168027811448160704799
:1020600000000020074810B5016841F01001016030
:10207000032000F067F80F2000F006F800F024F8C5
:10208000002010BD0020024070B50D4D04464FF4F5
:102090007A712878B1FBF0F00A490968B1FBF0F0D9
:1020A00000F0CEFA48B9102C07D200222146501E6B
:1020B00000F028F800206C6070BD012070BD0000A9
:1020C000000000200C0000200C4808B5816941F098
:1020D00001018161816901F001010091C16941F053
:1020E0008051C161C06900F080500090044841688F
:1020F00021F0E06141F00071416008BD0010024034
:1021000000000140F0B40E4B1B680C46C3F30223E1
:10211000C3F10705042D00D90425191D072901D293
:10212000002300E0DB1E012606FA05F1491E2140CE
:1021300099409E40761E16403143F0BC01F034BAFF
:102140000CED00E0064900F0070208684FF6FF03B7
:10215000184040EA0220034A10430860704700001C
:102160000CED00E00000FA052DE9F0470F460500F0
:1021700061D0434E306800F00700B84209D23068A1
:1021800020F0070038433060306800F00700B842A4
:1021900051D128683B4C810712D5400703D56068B0
:1021A00040F4E06060602878000703D5606840F480
:1021B000605060606068A96820F0F00008436060CB
:1021C0002878C00728D06868012810D02168022824
:1021D00010D0890700292EDA616821F0030101433C
:1021E0006160FFF7E1FB804641F288390DE021682C
:1021F0008903EFE78901EDE7FFF7D6FBA0EB0801C4
:10220000494502D90320BDE8F0876068696800F09D
:102210000C00B0EB810FEFD1306800F00700B8423E
:102220000BD9306820F0070038433060306800F088
:102230000700B84201D00120E5E72878400705D51E
:102240006068E96820F4E06008436060287800076F
:1022500006D56068296920F4605040EAC1006060DA
:1022600000F038F86168084AC1F30311515CC840B6
:102270000649086006480068FFF706FF0020C2E72D
:102280000020024000100240C64C00080C00002054
:10229000040000200448054900684968044AC1F365
:1022A0000221515CC84070470C0000200010024021
:1022B000D64C00080448054900684968044AC1F33F
:1022C000C221515CC84070470C0000200010024041
:1022D000D64C00080E4A51680E4801F00C03042B3E
:1022E00011D0082B0FD10C48C1F38343C903C05C44
:1022F0000AD55168084AC1F34041921E515C054A13
:102300005043B0FBF1F07047044948437047000068
:102310000010024000127A00B64C000800093D008F
:102320002DE9F84F040070D02078C04DC00749D087
:102330006868C0F38100012807D06868C0F3810095
:10234000022809D16868C00306D52868800339D5FA
:1023500060680028E7D035E06068B0F5803F0BD0BA
:1023600010B1B0F5A02F11D0286820F4803028607B
:10237000286820F4802002E0286840F4803028603B
:10238000606890B1FFF710FB06460AE0286840F449
:1023900080202860F0E700BFFFF706FB801B642861
:1023A00073D828688003F7D50CE0FFF7FDFA0646DE
:1023B00005E000BFFFF7F8FA801B6428F0D8286812
:1023C0008003F7D420789A4E80074FF001094FF030
:1023D000000839D5686810F00C0F07D06868C0F3A2
:1023E0008100022809D16868C00306D428688007E4
:1023F00014D52069012808D110E02069B0B1C6F8D1
:102400000090FFF7D1FA074605E00AE1FFF7CCFAA2
:10241000C01B0228C4D828688007F7D528686169DE
:1024200020F0F80040EAC10028600DE0C6F8008006
:10243000FFF7BAFA074604E0FFF7B6FAC01B022816
:1024400023D828688007F7D4207800072CD579484E
:10245000A169D9B1C0F80090FFF7A6FA074604E0D9
:10246000FFF7A2FAC01B02280FD8686A8007F7D5C9
:1024700071484FF4FA510068B0FBF1F0009000BFD2
:102480000098411E0091FAD20EE080E0C0F8008072
:10249000FFF78AFA074604E0FFF786FAC01B022816
:1024A00075D8686A8007F7D42078400760D5E86956
:1024B0000027C00008D4E86940F08050E861E8696E
:1024C000012700F0805000905C480168C90513D4D2
:1024D0000168834641F480710160FFF765FA824626
:1024E00006E000BFFFF760FAA0EB0A0064284ED8B0
:1024F000DBF80000C005F5D5E06801280AD008B176
:10250000052813D0286A20F001002862286A20F0EC
:10251000040002E0286A40F001002862E06841F20D
:10252000883B98B1FFF740FA82460BE0286A40F0FA
:1025300004002862EEE700BFFFF736FAA0EB0A01BD
:1025400059455AD8286A8007F6D50CE0FFF72CFACF
:10255000824605E0FFF728FAA0EB0A0159454CD85E
:10256000286A8007F6D41FB1E86920F08050E8613E
:10257000E06988B36968C1F38101022944D0022867
:10258000C6F8608004D0FFF70FFA044638E034E064
:10259000FFF70AFA074604E0FFF706FAC01B022815
:1025A0002BD828688001F7D4206AB0F5803F05D188
:1025B0006868A16820F4003008436860D4E9080125
:1025C0000843696821F4741108436860C6F8609094
:1025D000FFF7EAF9044606E025E000BFFFF7E4F95B
:1025E000001B022809D828688001F7D51BE000BF2E
:1025F000FFF7DAF9001B022802D90320BDE8F88FA3
:1026000028688001F4D40EE00128F7D06868226AB7
:1026100000F48031914204D1616A00F47010884264
:1026200001D00120EAE70020E8E7000000100240A6
:1026300000004242800442420C0000200070004032
:1026400010B5401EB0F1807F01D3012010BD4FF0C6
:10265000E02460610F21601700F0A6FF0020A06158
:1026600007202061002010BD70B5040004D094F84C
:102670004100002510B106E0012070BD84F84050F3
:10268000204600F023F8242084F841002068C16827
:1026900021F40051C160204600F0CCFE20680169A1
:1026A00021F4904101612068416921F02A014161D2
:1026B0002068C16841F40051C1606564202084F83D
:1026C000410084F842006563002070BD30B585B0DC
:1026D00000240094019402940394006814498842F1
:1026E00024D11448816941F480418161816901F4F8
:1026F00080410491816941F00401816180690E4D3E
:1027000000F0040004904FF400700090022001904B
:102710000320039069462846FFF74CF82815CDE9B9
:102720000004694628460294FFF744F805B030BD1E
:102730000038014000100240000801402DE9F84334
:10274000044690F84100984616460D46202802D0CF
:102750000220BDE8F88385B17EB1002060642120AD
:1027600084F84100FFF720F9A6848146E684A0683A
:102770002027B0F5805F02D003E00120E9E720695F
:1027800010B12E4600250EE000260CE080212046E8
:1027900000F0ACFEA8B9C6B116F8010B216848607C
:1027A000E08C401EE084E08C4B464FF00002CDF8F8
:1027B00000800028EAD14FF04001204600F096FE4C
:1027C00040B184F841700320C3E735F8020BC0F331
:1027D0000800E3E784F841700020BAE7FEE70168EB
:1027E0004A69D24352050FD46FF480624A610021D6
:1027F00040F8301F202242738173026942F00402C4
:10280000026101730120704700207047F8B504464B
:10281000C06A1E460D461746082807D0012805D075
:1028200010F5803F02D0206B122804D12068016887
:1028300041F480710160134600224FF001112046DF
:10284000009600F02FF940B120680068C00502D55D
:102850004FF4007020640320F8BD2069B0F5804F6C
:102860000ED00620216800EAD51040F0F000086183
:1028700033463A460B49204600F05CF978B902E04D
:1028800005F0FE0000E0E8B2216808610549334622
:102890003A46891F204600F04DF90028DCD001207F
:1028A000F8BD0000080001002DE9F84F044600685B
:1028B00089460B9D01689846174641F48061016086
:1028C0002068016841F48071016000954FF0011BA0
:1028D0000022594620460A9B00F0E4F84FF4007AA3
:1028E00040B120680068C00501D5C4F840A00320AD
:1028F000BDE8F88F216809F0FE0008612B462849E1
:1029000020460A9A00F016F9F0BB206841698069F8
:1029100000902A4620460A9900F0A2F940B1206CA6
:1029200004283AD12068016841F40071016034E064
:10293000FEB2B8F1010F09D02168380A08612A46B1
:1029400020460A9900F08CF90028E8D12068066139
:102950002A4620460A9900F083F90028DFD1206832
:10296000016841F4807101600095002259462046BB
:102970000A9B00F097F80028B3D1216809F0FF0006
:1029800040F00100086100E007E02B4604492046C2
:102990000A9A00F0CFF80028AAD00120A8E700008A
:1029A000020001002DE9F843044600680D46DDE908
:1029B000089701689846164641F4807101604B46BD
:1029C00000224FF001112046009700F06BF848B14B
:1029D00020680068C00502D54FF400702064032011
:1029E000BDE8F883216805F0FE0008613B464A46D1
:1029F0001549204600F09EF888B920684169806931
:102A000000903A464946204600F02AF948B1206C29
:102A1000042804D12068016841F40071016001209C
:102A2000DEE7F5B2B8F1010F09D02168300A08617C
:102A30003A464946204600F013F90028E7D12068BD
:102A400005610020CCE700000200010070B51646C9
:102A50000D4604461EE02046FFF7C1FE08B10120E6
:102A600070BD681C16D0FEF79FFF801BA84200D8DF
:102A700085B920684069C04340070BD5002044F861
:102A8000300F20216173A073216941F02001216181
:102A90002073E4E720684069C0434007DBD400208E
:102AA00070BD00002DE9F047984617460D460446D4
:102AB000C1F30746DDF820902AE000BFB8F1FF3FE0
:102AC00026D0FEF771FFA0EB0901414502D8B8F10D
:102AD000000F1DD12068012E16D0806925EA000064
:102AE0000004000C12D00020B84211D1002044F89C
:102AF000300F20216173A073216941F02001216111
:102B000020730120BDE8F0874069E7E70120EBE78B
:102B10002068012E0AD0806925EA00000004000C1C
:102B200006D00020B842C9D00020EBE74069F3E7A7
:102B30000120F7E72DE9F047984616460D46044672
:102B40004FF000094FF0200AC1F3074723E0206847
:102B50004069C043400515D42068016841F4007104
:102B6000016021686FF480604861C4F8309084F897
:102B70003DA084F83E90216C41F00401216484F86A
:102B80003C9021E0701C06D0FEF70EFFA0EB080081
:102B9000B04203D816B1012F1FD021E02068012FC9
:102BA00015D0806925EA00000004000C18D000BF91
:102BB00044F8309F84F80DA084F80E90216941F00C
:102BC0002001216184F80C900120BDE8F087406964
:102BD00025EA00000004000CEAD12068406901E009
:102BE0002068806925EA00000004000CAFD1ECE702
:102BF0002DE9F041002590460E460446202728E0A6
:102C00004069C043C0060CD454F8301B6FF010006C
:102C1000486144F810596777A577206A20622577C4
:102C200014E0FEF7C1FEA0EB0800B04200D886B960
:102C300020684069C04340060BD544F8305F677395
:102C4000A573206940F02000206125730120BDE8B4
:102C5000F08120684169C9434906D1D40020F6E7D4
:102C600070B516460D4604461EE02046FFF7B7FD38
:102C700008B1012070BD681C16D0FEF795FE801BC0
:102C8000A84200D885B920684069C04300060BD52A
:102C9000002044F8300F20216173A073216941F0B6
:102CA000200121612073E4E720684069C0430006E9
:102CB000DBD4002070BD000030B40021084B0A4670
:102CC0005FF0000003EBC004401CC0B262548028D7
:102CD000F8D3491CC9B20829F2D330BC00F092B82D
:102CE0004806002030B5CC0801F0070301259D40BF
:102CF000EBB2064D05EBC005C808285C0AB11843C5
:102D000002E063EA0000C043285530BD48060020B9
:102D100010B54FF44870FEF73BFD0021AE2000F0E7
:102D200079F90021084600F075F90021102000F023
:102D300071F90021402000F06DF90021812000F0A0
:102D400069F90021CF2000F065F90021A12000F0F1
:102D500061F90021C82000F05DF90021A62000F0F3
:102D600059F90021A82000F055F900213F2000F07A
:102D700051F90021D32000F04DF90021084600F060
:102D800049F90021D52000F045F90021802000F00C
:102D900041F90021D92000F03DF90021F12000F097
:102DA00039F90021DA2000F035F90021122000F075
:102DB00031F90021DB2000F02DF90021402000F046
:102DC00029F90021202000F025F90021022000F03F
:102DD00021F900218D2000F01DF90021142000F0C0
:102DE00019F90021A42000F015F90021A62000F017
:102DF00011F9FFF761FF0021BDE81040AF2000F09E
:102E000009B9000070B5114E002400BF04F1B000F4
:102E1000C0B2002100F0FEF80021084600F0FAF8E8
:102E20000021102000F0F6F85FF0000506EBC50069
:102E30000121005D00F0EEF86D1CEDB2802DF5D3A0
:102E4000641CE4B2082CE1D370BD000048060020E9
:102E50002DE9FC4F1C460E4682468B460190082BFE
:102E60000DD0600700D0012000EBD400610848437A
:102E7000C0B28146203AD0B2009000204BE006203C
:102E8000F7E7082C13D00C2C18D0102C1BD0182CC2
:102E900044D10098234900EBC00000BF01EB800142
:102EA000002711F80850E80712D00B9A13E0009899
:102EB0001D4900EB400001EB4001F1E700981B4980
:102EC00000EB4000EAE71A49009801EB0011E7E740
:102ED0000B9828B3002231465046FFF703FF761CBB
:102EE0007F1C6D08FFB2F6B2082FDCD30AF1010097
:102EF00000F0FF0A082C0AD00199AAEB0100B0EB00
:102F0000540F04D10BF108008A4600F0FF0B08F1C2
:102F100001005E46C0B280464845B2D3BDE8FC8F92
:102F20000122D8E76A590008DE4C0008064F000865
:102F30007A5300082DE9FF4F81B0824600909846F1
:102F40000C468B46580701D0012100E0002101EB1F
:102F5000D80000FB08F900252DE000BFB8F1100FE4
:102F60002BD118490398002601EB4010475DF80764
:102F700001D00E9A02E00E9810B30022214650466E
:102F8000FFF7B0FE641C761C7F08F6B2E4B2082E90
:102F9000EDD30AF10100009900F0FF0AAAEB01014C
:102FA000414505D10BF10800DDF800A000F0FF0B52
:102FB0006D1C5C46ADB24D45D0D305B0BDE8F08F79
:102FC0000122DBE7C66600082DE9F84F05461E46DC
:102FD00090468A461046DDF82890FDF713F987B22F
:102FE00000240FE0CDF8009018F804203346514635
:102FF0002846FFF72DFF082E08D005EB5600C5B276
:10300000641CA4B2BC42EDD3BDE8F88FAD1DEDB297
:10301000F6E700001CB501B140218DF804108DF8D1
:10302000050064200090022301AA78210148FEF7E0
:1030300085FD1CBD3C050020FEB5044616460F4626
:10304000500001F0F7F8054601F0FCFB4FF6FF7069
:103050004FF47A7100EA46000095CDE901010123A1
:10306000224611211F48FEF7FFFD044601F0F8FB40
:103070001CB121461CA000F073FA0024002E16D8C3
:1030800027E0A4B115F814008DF80000012168466E
:1030900000F0A9FF05EB44014978814213D0214695
:1030A00016A000F05DFA284600F0F0FFFEBD18A063
:1030B00002210068009028788DF80100684600F031
:1030C00092FF6978E9E715F814003855641CB4429A
:1030D000D7D3022001F0FCFB2846BDE8FE4000F0FB
:1030E000D5BF00003C050020493243205265616491
:1030F000204572726F723A25640A000043524320E1
:103100004572726F7220696E6465783A25640A00B0
:103110001100000010B500F005F8BDE8104000F007
:1031200029B8000070B5124C207920F003012171FC
:10313000042000F037F84FF47A75284601F0C8FBF8
:10314000207920F0020040F001012171042000F0FC
:1031500029F8207920F0010141F0020121710420B9
:1031600000F020F82846BDE8704001F0B1BB000037
:103170001006002070B50122094DD40321462846CF
:10318000FEF70DFC0A2001F0A3FB00222146284691
:10319000FEF705FCBDE8704040F6B83001F098BB82
:1031A0000008014030B5054611A085B000680390C5
:1031B0008DF80D500C468DF80E10032103A800F079
:1031C00012FF8DF810408DF8110001F03BFB4FF419
:1031D0007A72022104A88DE8070001232A461021F3
:1031E0000448FEF76FFE01F03BFB05B030BD000068
:1031F000100000003C0500200D4810B50B4901608F
:103200001021416000218160C1600161416101764E
:1032100041768176C17601774177FEF7F6F900288D
:1032200003D0BDE81040FEF7EEB910BD00640040C9
:10323000140500202DE9F04385B0002429480094AE
:10324000019402940394816941F0100181618169C4
:1032500001F010010491816941F0200181618169CF
:1032600001F020010491816941F0040181618169CB
:1032700001F004010491816941F0080181618069D4
:10328000DFF8648000F0080048F240050490002256
:1032900029464046FEF783FB0122DFF85090570392
:1032A00039464846FEF77BFB009503260125039629
:1032B000CDE9015469464046FEF77CFA0097039633
:1032C000CDE9015469464846FEF774FAA803CDE9F2
:1032D0000004694648460294FEF76CFA05B0BDE862
:1032E000F08300000010024000080140000C014083
:1032F0000D4810B50B4901600C49416000214FF4A5
:1033000080428160C0E9031241618161C161016253
:10331000FEF750FB002803D0BDE81040FEF773B95C
:1033200010BD0000005800403C050020A0860100B0
:103330000C4810B50A4901604FF4E13141600021A9
:1033400081600C22C160C0E904128161C161FFF794
:103350008BF9002803D0BDE81040FEF754B910BD2A
:103360000038014090050020FEE7FEE710B5FEF7AB
:1033700071FE01F073FB012803D0BDE8104001F09D
:1033800029BB10BD30B58FB028216846FCF72FFF50
:1033900014210AA8FCF72BFF01210804CDE9001035
:1033A0000024029402250491CDE907504FF4E01067
:1033B00009906846FEF7B4FF08B172B6FEE70F2029
:1033C000CDE90A054FF48060CDE90C4002210AA83E
:1033D0000E94FEF7C9FE002801D072B6FEE70FB0CA
:1033E00030BD704701680C3151E8002F22F4907213
:1033F00041E80023002BF5D10168143151E8002F7A
:1034000022F0010241E80023002BF5D1016B0129D4
:1034100009D101680C3151E8002F22F0100241E877
:103420000023002BF5D1202180F8421000210163F8
:103430007047000070B5044600680169E26821F435
:103440004051114301612169A06808436169084343
:103450002168CA6841F20C639A430243CA6020683B
:103460004169A26921F44071114341611E492068FC
:10347000884202D1FEF71EFF01E0FEF70BFF00EBD2
:10348000C00101EB0012606864218000B2FBF0F320
:10349000B3FBF1F36FF018067343B2FBF0F5B2FB28
:1034A000F0F605EB8305322303EB0515B5FBF1F5CB
:1034B000B6FBF1F605F0F00505EB0615B2FBF0F6EC
:1034C000B2FBF0F0B0FBF1F06FF01802504306EBE6
:1034D000800003EB0010B0FBF1F0216800F00F005A
:1034E0002844886070BD0000003801402DE9F84391
:1034F000984617460D460446089E24E0701C22D0CC
:10350000FEF752FAA0EB0800B0421AD8CEB12068FC
:10351000C168490717D5802D15D0402D13D00168FB
:10352000C94309070FD40168002540680090204670
:10353000FFF758FF0820606484F840500120BDE880
:10354000F8830320FBE72068006835EA000004D018
:103550000020B842D2D00020F1E70120F9E7FEE7D1
:103560000FB4054B10B503A9044A029800F0FEF809
:1035700010BC5DF814FB0000754000080805002031
:103580000FB4084B10B504A902AA039800F0EEF896
:10359000044602A9002000F06CFC204610BC5DF837
:1035A00014FB0000733E00080907090E002804DB25
:1035B00000F1E02080F80014704700F00F0000F1E7
:1035C000E02080F8141D704702E008C8121F08C1EF
:1035D000002AFAD170477047002001E001C1121F94
:1035E000002AFBD1704700002DE9FF5F82B0002167
:1035F000DDE90430020DDDF840B0034318D044F695
:103600001050A2F2FF3242431514119801281FD026
:10361000A5EB0B00401C5FEA000A4FF000064E4F7E
:10362000DFF83891B046504615D5CAF1000413E0D2
:10363000119801244AA3012801D16FEA0B010298D5
:10364000119AC0E90031C0E9024206B0BDE8F09F1E
:10365000CBF10000DFE704460021404A491842EB65
:103660000450CDE9001012E0E00707D032463B4697
:1036700040464946FCF73CFF8046894632463B4679
:1036800010461946FCF734FF06460F466410002C1E
:10369000EAD1DDE90401DDE90023BAF1000F06DA21
:1036A000FCF726FF42464B46FCF722FF05E0FCF7FD
:1036B00091FF42464B46FCF78DFF04460E46002222
:1036C000284BFDF7DDF903D84FF0FF30014607E046
:1036D0000022254B20463146FCF763FEFDF7B8F982
:1036E000102409E0002C0ADB0A220023FDF7ACF8C5
:1036F000039B30321A55641E50EA0102F2D1641C59
:10370000039AC4F111031444119A012A03D001222F
:1037100008430DD10AE0084304D000204FF0110BFC
:10372000119072E7A3EB0B056D1E0DE05B4504DD08
:103730004FF0000205F1010504E003DA4FF000024A
:10374000A5F10105002AECD002981199C0E90231D7
:10375000C0E9004579E70000000014400000F03F98
:10376000300000000000F0430000E03F2DE9FF4F73
:1037700095B09A46884606460025EEE1252877D181
:1037800000242746F94A0121039400E0044316F877
:10379000013F203B01FA03F01042F7D130782A288C
:1037A00011D06FF02F033078A0F13002092A16D81B
:1037B000039A44F0020402EB820203EB420210443B
:1037C000761C0390EFE758F8042B0392002A03DAE3
:1037D000504244F40054039044F00204761C3078C4
:1037E0002E2816D116F8010F44F004042A280DD013
:1037F0006FF02F023078A0F13003092B09D807EBC6
:10380000870302EB4303C718761CF3E758F8047BE1
:10381000761C30786C280FD006DC4C2817D068282E
:103820000DD06A2814D104E0742810D07A280FD162
:103830000DE044F400140AE044F4801401E044F480
:1038400040147278824202D104F58014761C761CF2
:10385000307866280BD013DC582877D009DC002894
:1038600075D04528F6D04628F4D047281AD193E1E0
:1038700018E0632835D0642879D0652812D18BE10F
:10388000702873D008DC6728F1D069286FD06E28C3
:103890000DD06F2806D1ACE073282CD0752874D0D9
:1038A000782853D05246179990476D1C54E1C4F3C1
:1038B0000250022809D003280DD0D8F8001004289F
:1038C0000DD00D6008F1040846E1D8F80010EA17A1
:1038D000C1E90052F6E7D8F800100D80F2E70D704C
:1038E000F0E718F8041B8DF8001000208DF8010097
:1038F000EB46012003E058F804BB4FF0FF306107AE
:103900004FF0000102D40DE009F101018946B942EE
:103910000FDA8145F8DB1BF809100029F4D108E023
:1039200009F1010189468142FADB1BF809100029DF
:10393000F6D103985346A0EB090721463846179A5B
:1039400000F080FA284400EB090507E044E008E1B4
:103950000DE01BF8010B524617999047B9F1010988
:10396000F7D2534621463846179AF2E039E00A2149
:10397000C4F302524FF0000B0091022A06D058F80F
:10398000040BC117032A09D00AE023E008F107005D
:1039900020F00702F2E80201904605E000B2C117EC
:1039A000042A01D140B2C117002906DA0A460021D3
:1039B000404261EB02012D2202E0220504D52B22B8
:1039C0008DF80420012203E0E20701D02022F7E76E
:1039D000914657E00A2100E010214FF0000B0091C2
:1039E0000BE010214FF0000B44F004040827009175
:1039F00003E008204FF0000B0090C4F30252022AAB
:103A000005D058F8040B0021032A08D008E008F17B
:103A1000070020F00702F2E80201904603E080B2BE
:103A2000042A00D1C0B24FF0000922072AD532780B
:103A3000702A07D0DDF800C08CF0100C5CEA0B0C8B
:103A400005D00EE040228DF80420012208E050EA63
:103A5000010306D030238DF804308DF805200222B2
:103A60009146009B83F0080353EA0B030AD150EA06
:103A7000010201D1620705D530228DF804204FF0F4
:103A800001097F1E3278582A04D039A20C920CAA60
:103A900002920BE03BA2F9E75B46009AFCF7D4FEEA
:103AA0000C9B9B5C029A521E0292137050EA010218
:103AB000F2D1029804A9081A00F1200B600702D580
:103AC00024F4803400E001275F4502DDA7EB0B0002
:103AD00000E0002000EB0B01009003984944401ADD
:103AE0000390E00306D453462146179A039800F04A
:103AF000A9F90544002706E001A85246C05D1799C0
:103B000090476D1C7F1C4F45F6DBE0030CD55346F8
:103B10002146179A039800F095F9054404E03020F7
:103B20005246179990476D1C0099481E0090002935
:103B3000F5DC08E00298029952460078491C02918F
:103B4000179990476D1CBBF10001ABF1010BF1DC43
:103B50005BE100F065F90544761C307800287FF4BD
:103B60000DAE19B02846BDE8F08F0000092801000D
:103B700030313233343536373839616263646566E3
:103B800000000000303132333435363738394142A5
:103B90004344454600000000600700D4062708F1B2
:103BA000070020F00700F0E80223804603F0004CF5
:103BB0005FEA0C0001D097A009E0200501D596A08E
:103BC00005E0E00701D095A001E0AFF24C001390B2
:103BD000307823F0004365280CD006DC452809D056
:103BE00046281DD047287FD13BE0662818D067289B
:103BF0007AD136E00021112F01DB112000E0781C82
:103C0000CDE9000104A90CA8FFF7EEFCDDE90D01E8
:103C10000C9A4FF0000B07F10109109200914EE051
:103C20004FF000400097CDE9011004A90CA8FFF760
:103C3000DBFCDDE90D020C9B0F994FF0000B914668
:103C40001093009211B9791C00EB0109B7EB090040
:103C500003D4C0F1FF3B07F10109A9EB0700019074
:103C600042E0012F00DA01270021112F01DD112090
:103C700000E03846CDE9000104A90CA8FFF7B4FC28
:103C8000DDE90D010C9A00914FF0000BB94610923E
:103C900021070FD4009A4A4503DA914601E0A9F1C1
:103CA0000109B9F1010F05DD109AA9F10101515C7B
:103CB0003029F4D0B84202DA10F1040F03DA0121FE
:103CC000CDE9011010E0002803DC8344A9EB0001DA
:103CD00002E0411C494500DD8946A0EB0B00401C79
:103CE00001904FF000400290200705D4019848450C
:103CF00002DB4FF0FF30019000208DF84B0002985E
:103D00000DF14B07B0F1004F25D002200C902B2075
:103D10000D90029800280CDA404202902D200D9060
:103D200007E00A210298FCF779FD3031029007F88C
:103D3000011D0C99481E0C900029F2DC0298002805
:103D4000EFD1791E0D980870307800F0200040F017
:103D5000450007F8020D11A8C01BC01D0290139862
:103D6000007800B1012000EB0901019801EBE0713E
:103D7000029801440398401A401E0390E00306D4C1
:103D800053462146179A039800F05CF805441398AF
:103D9000007818B15246179990476D1CE00323D55F
:103DA00053462146179A039800F04CF805441BE04F
:103DB000BBF1000F07DB0098584504DD10981799F8
:103DC00010F80B0001E017993020524690470198F7
:103DD0000BF1010B401E05F10105019004D12E20CD
:103DE0005246179990476D1CB9F10001A9F10109DC
:103DF000DEDC05E017F8010B5246179990476D1C61
:103E00000299481E02900029F4DC53462146179A75
:103E100003989EE62D0000002B000000200000000B
:103E20002DE9F041044600251E461746880404D4B7
:103E300005E039462020B0476D1C641EF9D52846A0
:103E4000BDE8F0812DE9F041044600251E4690466C
:103E5000C80301D5302700E02027880404D505E0F9
:103E600041463846B0476D1C641EF9D52846BDE86A
:103E7000F0810A68531C0B6010707047FCF7E2FF7A
:103E8000642000F025FD41F2883400BFFDF7CCF836
:103E9000FDF794F8FDF74EF9FDF786F92046FCF79B
:103EA0006FFE204600F014FDF0E742F2107000F0C3
:103EB0000FFD4EF66024FCF7AFFE204600F008FD33
:103EC000F9E770B514460D460646FCF793FC01D29F
:103ED000284670BD21463046FCF796FC01D22046AC
:103EE00070BD304670BD000010B5084C182104208C
:103EF0002171FFF757F9432161710520FFF752F94E
:103F00001921BDE810400B20FFF74CB91006002026
:103F10002DE9F0412B4C9F210620A171FFF742F9BA
:103F200046214025E1710720FFF73CF9257229461B
:103F30000820FFF737F9244C6088FCF7D9FB234EA3
:103F400000223346FCF746FB05460F4694F9000075
:103F5000FCF7BDFB00221E4BFCF7C7FAFCF702FC86
:103F600080B2FCF7C5FB2A463B46FCF733FBFCF767
:103F7000F9FBC0F307110920FFF714F96088FCF77B
:103F8000B7FB00223346FCF725FB06460D4694F9A5
:103F90000000FCF79CFB00220E4BFCF7A6FAFCF796
:103FA000E1FB80B2FCF7A4FB32462B46FCF712FB88
:103FB000FCF7D8FBBDE8F041C0F307110A20FFF77A
:103FC000F1B80000100600201000002000408F40D3
:103FD0000040AF4000E0A5406420FCF7C3FD642032
:103FE00000F076FCF8E770B505460020072402468D
:103FF0000EE0AB5C58400023060602D584EA400080
:1040000000E040005B1CC0B2082BF5DB521C92B2F2
:104010008A42EED370BD0000FDF718F941F28834F2
:10402000FDF716F903A0FFF79BFA204600F050FCBD
:10403000F6E70000646973706C6179207461736BDA
:10404000202E2E2E2E2E2E2E0D0A000070B50C4680
:104050000546FCF72DFD00F07040B0F1005F07D081
:1040600024F00040C0F1FF40C00F04BF204670BDE7
:10407000284670BD13B54FF6FF730122694602480A
:10408000FEF75CFB00981CBD9005002010B50028D1
:1040900021D0114B0022001F196803E0814203D890
:1040A0000A4649680029F9D152B11368841A9C4222
:1040B00004D1006818441060104602E0506000E02F
:1040C000186039B102680B1A934203D10B681A4485
:1040D00002604968416010BD0C05002070B5B3F95D
:1040E0000040049D19E000BF51F8246086420ADCBC
:1040F00001EB84067668864205DDA0B2188051F88F
:104100002410296070BD2E68864202DDA4F10104EE
:1041100002E002DA04F1010424B2944202DA002C33
:10412000E2DA01E0002C01DA002070BD944202DBEB
:10413000521E90B270BDA0B270BD00001CB501222D
:1041400069465020FEF778FF012201A95920FEF7A9
:1041500073FF9DF80000182101EA40009DF804104B
:1041600000F26D10084C40EA511108A06180FFF781
:10417000F7F9012221465120FEF75EFF94F9001065
:1041800006A0FFF7EDF91CBD100000206761696E05
:104190005F75763A25640D0A000000006F6666734D
:1041A00065745F6D763A25640D0A0000FDF75AFFCD
:1041B000FFF7E8F8FFF73EF8FFF7BAF8FFF71CF84B
:1041C000FFF796F80CA0FFF7CBF9FDF76DF80F4E4F
:1041D0001E244FF480454FF47A7729463046FDF788
:1041E000D9FB014622460AA0FFF7BAF93846FDF787
:1041F000CFFA641EF1E700002075707320737461BC
:1042000072746564202E2E2E2E0D0A00000C0140C3
:10421000706F7765725F3234765F73746174757333
:104220003A25642C636F756E74646F776E3A2564FB
:104230000D0A0000F0B50B30154D20F007010024E9
:10424000144A0FE003688B420BD38B4205D95E1AE8
:1042500043184768C3E9006700E04368136002C081
:1042600004E0021D10680028ECD12046002802D18D
:10427000286808B10020F0BD064A07481060074AC8
:10428000121A22F00702C0E9002401202860D7E7B3
:10429000100500200C0500209447002090490020C4
:1042A0002DE9F0411E4C0F460546E6682068001DCA
:1042B00000F08EFA38B9206890F82C100120884060
:1042C000216981432161681C15D1A7B11549226874
:1042D0004868906023688268DA6022688368121DEB
:1042E0005A602268121D8260206841610868401C83
:1042F0000860BDE8F08120683544B542456021681A
:1043000005D2E06BBDE8F041091D00F082BAA06B58
:10431000091D00F07EFAA06A8542EAD2A562E8E7AC
:10432000540000207C4700202DE9F041054600F0B4
:1043300089FA364CA068401CA0602068344F10B148
:10434000606940B32DE02560A068012829D10026CE
:1043500006EB860007EB800000F04DFA761C052E78
:10436000F6D32B48643000F046FA2948783000F044
:1043700042FA27488C3000F03EFA2548A03000F081
:104380003AFA2348B43000F036FA21486430A0638A
:104390001430E06305E02068E96AC06A884200D80A
:1043A0002560606A0121401C6062E86A22698140E0
:1043B0001143216100EB800007EB80004068A8609A
:1043C0008168E9608268291D51608160E86A00EBBC
:1043D000800007EB8001696157F82010491C47F8FD
:1043E000201000F03DFA606900280CD02068E96ACE
:1043F000C06A884207D207494FF080500860BFF377
:104400004F8FBFF36F8FBDE8F08100005400002094
:10441000C846002004ED00E010B50446006B00F033
:1044200029FA2046BDE8104000F024BA0E484FF4A7
:104430007051420706D0C01D0B4920F00700411AF9
:10444000C1F57051094A00230144C2E9000308394B
:10445000143A21F0070111604B600B600B1AC0E9A0
:104460000013936053607047C80A00204800002082
:10447000144E154CA6F1A0074FF08058DFF84C9071
:1044800012E000BF00F0DEF9F068C568281D00F0FA
:104490009FF9A068401EA0606068401E606000F048
:1044A000DFF92846FFF7B8FF60680028EAD13868CE
:1044B0000128F9D9C9F80080BFF34F8FBFF36F8F80
:1044C000F2E70000684700205400002004ED00E0FF
:1044D0002DE9F0479946DDE9096480466FF0030352
:1044E000206B03EB8202089D104420F0070761B1A6
:1044F000002023180A5C83F834200A5C12B1401CA7
:104500001028F6D3002084F84300052D00D304259D
:10451000201DE56200F07AF904F1180000F076F948
:104520002461C5F105006462A0614A4641463846EF
:1045300000F08EF82060002E00D03460BDE8F087D7
:1045400030B5114900E011460A688242FBD34B683E
:104550005C18844203D140681844486008464368A8
:104560001C18944209D1084C143C2468A24209D07A
:1045700052681A4442600A6812680260814200D0A0
:10458000086030BD0460F9E7480000200548816BF1
:10459000096821B1816BC9680968816270474FF071
:1045A000FF31FAE754000020BF2080F31188BFF3E9
:1045B0004F8FBFF36F8FFEE770B50446002600F003
:1045C000C7F9224D286808B9FFF730FFCCB304F0D3
:1045D0000700C0F11000C1438C4232D821180029D5
:1045E0002FDD686881422CD81848143002461468C0
:1045F00001E02046144662688A4202D22268002AFC
:10460000F7D12A6894421CD006682268026060686C
:104610000836421A102A04D9601842606160FFF718
:104620008FFF61686868401A6860AA68904200D28B
:10463000A86041F00040606000202060E868401CF5
:10464000E86000F0ABFA304670BD00003400002096
:1046500010B5031F4FF080741C601B1F21F0010177
:104660001960191F024B0B60143940380A6010BDE5
:10467000A945000870B50546FCF76FF904460146E8
:104680002846FBF718FE15F0004F4FF07F410ED083
:10469000B0F13F4F28BFB1EB400F0ED2B0F17C5FBD
:1046A0001DDDB1EB400F1AD313E0044617E0B0F163
:1046B0003F4F08D9B1EB400F05D34FF07E51204654
:1046C000FBF7F9FDF1E7B0F17C5F08DBB1EB400FE0
:1046D00005D34FF07E512046FBF79BFDE5E72846CA
:1046E00064F31E0070BD000030B58DB000242B486F
:1046F0000194029403940068FBF7FAFF0022284B10
:10470000FBF768FF02460B4626A101A8FEF738FF1B
:104710000125102301AA182108200095FEF754FC5A
:1047200022480494059406940068FCF734F8024685
:104730000B461FA104A8FEF723FF102304AA18218B
:1047400046200095FEF740FC1B4807940894099406
:1047500090F9002019A107A8FEF712FF102307AA5D
:10476000282108200095FEF72FFC16480A940B9488
:104770000C944FF07C510068FBF74BFDFBF7C5FF35
:10478000024611A10AA8FEF7FBFE10230AAA28215F
:1047900046200095FEF718FC0DB030BD2400002027
:1047A00000408F40563A25352E3266002800002002
:1047B000413A25352E32660011000020543A256416
:1047C000000000001C000020533A2564252500004D
:1047D000D0E9013201699A60D0E901235A604A6840
:1047E000824201D182684A60002202610868401E4C
:1047F00008600868704700F108014FF0FF32C0E917
:104800000112C16001610021016070470021016156
:10481000704730B50B685A1C02D000F1080202E064
:10482000026904E02246546825689D42FAD953681B
:104830004B6099608A60516008610168491C0160A1
:1048400030BD0000BF2080F31188BFF34F8FBFF34E
:104850006F8F02480168491C0160704750000020BA
:1048600003490868401E086001D180F31188704731
:104870005000002070B500281BD0A0F1080460682B
:10488000002816DA2168002913D120F0004060606A
:1048900000F05EF8074D606869680844686020466B
:1048A000FFF74EFE2869401C2861BDE8704000F00B
:1048B00075B970BD340000204FF0E0200021016187
:1048C0008161024941610721016170473F1901007F
:1048D00010B5020009D000F03BF800211046FFF7A8
:1048E000DFFC00F05BF9002807D104494FF080504D
:1048F0000860BFF34F8FBFF36F8F10BD04ED00E072
:104900007CB50F480025CDE900502B4680220DA133
:104910000E4800F075F80A4C2C3C01280ED1BF203F
:1049200080F31188BFF34F8FBFF36F8F4FF0FF30CD
:10493000A06201206061E56000F034F8206B7CBD6E
:104940008000002049444C450000000071440008EC
:104950000248416B491C416370470000540000202D
:104960000E48416B11B10121C16170470021C16145
:1049700001690B4AB1FA81F1C1F11F0101EB81011B
:1049800002EB810101F108034A6852684A609A42C9
:1049900001D152684A60D16801607047540000201C
:1049A000C8460020094810B5016841F47F01016044
:1049B000016841F07F410160FFF77EFF044900205C
:1049C0000860FBF7B1FB002010BD000020ED00E007
:1049D0005000002010B5BF2080F31188BFF34F8F27
:1049E000BFF36F8F00F048F818B104494FF08050C2
:1049F0000860002080F3118810BD000004ED00E085
:104A00002DE9FF5F8346DDE90E87994616468A4603
:104A10009000FFF7D1FD05001DD04C20FFF7CCFD25
:104A2000040015D04C21FBF7E2FB25630021CDE902
:104A30000241CDE900874B46324651465846FFF7C2
:104A400047FD2046FFF770FC012004B0BDE8F09F51
:104A50002846FFF70FFF4FF0FF30F6E705484169A2
:104A600019B1406B18B10020704701207047022037
:104A700070470000540000202DE9F041454C00260D
:104A8000606B28B1A069401CA0613046BDE8F08190
:104A9000E5686D1CE56008D1A06BE16BA163E06384
:104AA000206A401C2062FFF771FDA16A3A488D42DE
:104AB0000FD34FF0000EA16B096839B1A16BC96823
:104AC000C9684A68954212D2A26202E04FF0FF31F3
:104AD000A1622168C96A01EB810150F82100012817
:104AE00000D90126E0690028CFD00126CDE7D1E921
:104AF00002724B69BA60D1E902277A605F680A1DC9
:104B0000974201D1CF685F60C1F814E01F687F1E33
:104B10001F60D1F828C0BCF1000F15D0D1E90737CC
:104B20009F60D1E907377B60DCF8047001F118035E
:104B30009F4202D10B6ACCF80430C1F828E0DCF8BF
:104B400000305B1ECCF80030CB6A0127D4F810C0CF
:104B50009F4047EA0C07276103EB830300EB8303C5
:104B60005B688B609F68CF609F687A609A60CA6A52
:104B700002EB820200EB82034B6150F822305B1C97
:104B800040F82230C96A2268D26A914293D901263C
:104B900091E7000054000020C84600202DE9F041B4
:104BA00000242746FFF74EFE3F4D686B401E6863AA
:104BB000686B002872D1A8683C4B00264FF00108B2
:104BC000F0BB6BE0D868C468D4E90721A06A9160A3
:104BD000D4E907125160426804F118018A4201D1F8
:104BE000216A4160A6620168491E0160D4E9022180
:104BF00060699160D4E9021251604268211D8A42C5
:104C000001D1E268426066610268521E0260E26A97
:104C1000D5F810C008FA02F040EA0C00286102EB57
:104C20008200224A8C3A02EB80004068A060D0F8F3
:104C300008C0C4F80CC0D0F808C0CCF8041000E0DC
:104C400012E08160E06A00EB800002EB80016161AC
:104C500052F82010491C42F82010E06A2968C96AFD
:104C6000884201D3C5F81C8018680028AAD10CB16D
:104C7000FFF78CFCAC693CB1FFF7FEFE08B1C5F84C
:104C80001C80641EF8D1AE61E86938B1084901277B
:104C900038070860BFF34F8FBFF36F8FFFF7E0FD5A
:104CA0003846BDE8F0810000540000205447002041
:104CB00004ED00E0010202030405060708090A0BDF
:104CC0000C0D0E0F1010000000000000000001028B
:104CD00003040607080900000000010203040000A5
:104CE000000000000000002F000000000700070087
:104CF00000147F147F1400242A7F2A1200626408A3
:104D0000132300364955225000000503000000001F
:104D10001C224100000041221C000014083E08141F
:104D20000008083E0808000000A06000000808080D
:104D30000808000060600000002010080402003E27
:104D40005149453E0000427F4000004261514946C2
:104D5000002141454B31001814127F1000274545B2
:104D60004539003C4A4949300001710905030036C4
:104D70004949493600064949291E000036360000D7
:104D800000005636000000081422410000141414DC
:104D900014140000412214080002015109060032D7
:104DA0004959513E007C1211127C007F4949493615
:104DB000003E41414122007F4141221C007F494980
:104DC0004941007F09090901003E4149497A007FB4
:104DD0000808087F0000417F4100002040413F015A
:104DE000007F08142241007F40404040007F020CB9
:104DF000027F007F0408107F003E4141413E007F5A
:104E000009090906003E4151215E007F0919294622
:104E10000046494949310001017F0101003F4040FE
:104E2000403F001F2040201F003F4038403F0063AC
:104E300014081463000708700807006151494543CE
:104E400000007F41410000552A552A55000041418C
:104E50007F00000402010204004040404040000086
:104E600001020400002054545478007F4844443820
:104E700000384444442000384444487F00385454A7
:104E8000541800087E0901020018A4A4A47C007F25
:104E9000080404780000447D4000004080847D00C8
:104EA000007F102844000000417F4000007C04186F
:104EB0000478007C0804047800384444443800FC3A
:104EC000242424180018242418FC007C0804040856
:104ED00000485454542000043F444020003C4040CB
:104EE000207C001C2040201C003C4030403C004402
:104EF00028102844001CA0A0A07C004464544C440A
:104F00001414141414140000000000000000000029
:104F100000000000FC000000000002000000000C87
:104F2000020C020000000000000090D0BCD0BC9039
:104F30000003000300001824FE448C000302070253
:104F400001001824D8B04C80000300010201C038D1
:104F5000E438E0000102020102020806000000003D
:104F6000000000000000000000F804020000000142
:104F70000204000204F80000000402010000906036
:104F8000F86090000000010000002020FC202000BC
:104F90000000010000000000000000000806000002
:104FA0000000202020202000000000000000000061
:104FB000000000000002000000000080601C0200F1
:104FC000040300000000F8040404F80001020202D7
:104FD00001000008FC000000000203020000188429
:104FE0004424180003020202020008042424D8000A
:104FF00001020202010040B088FC800000000003B2
:1050000002003C242424C400010202020100F8240E
:10501000242CC0000102020201000C04E41C040064
:10502000000003000000D8242424D800010202025A
:10503000010038444444F80000030202010000006B
:10504000100000000000020000000000200000002E
:10505000000006000000002050880402000000004C
:10506000010290909090900000000000000000026B
:10507000048850200002010000001804C424180015
:10508000000002000000F804E494F80001020202AB
:10509000020000E09CF0800002030000030204FC18
:1050A0002424D800020302020100F80404040C00C6
:1050B00001020202010004FC0404F80002030202DF
:1050C000010004FC24740C0002030202030004FC2F
:1050D00024740C00020302000000F0080444CC40D9
:1050E00000010202010004FC2020FC040203000075
:1050F00003020404FC040400020203020200000490
:1051000004FC040406040403000004FC24D00C0482
:1051100002030200030204FC040000000203020276
:105120000203FC3CC03CFC0003000300030004FC41
:1051300030C4FC04020302000300F8040404F80075
:1051400001020202010004FC2424180002030200F0
:105150000000F8848404F80001020207050004FC42
:1051600024649800020302000302182424448C00E3
:105170000302020201000C04FC040C000002030202
:10518000000004FC0000FC04000102020100047C99
:1051900080E01C040000030000001CE03CE01C0058
:1051A000000300030000049C609C04000203000351
:1051B0000200041CE01C04000002030200000C8436
:1051C000641C04000203020203000000FE0202004D
:1051D000000007040400000E30C0000000000001C1
:1051E0000200000202FE00000004040700000004A8
:1051F00002040000000000000000000000000000A9
:10520000080808080808000002000000000000006C
:1052100000000040A0A0C00000010202030204FC44
:105220002020C00000030202010000C02020600016
:1052300000010202020000C02024FC000001020262
:10524000030200C0A0A0C000000102020200002072
:10525000F82424040002030202000040A0A0602001
:1052600000070A0A0A0404FC2020C000020302000E
:1052700003020020E400000000020302000000001E
:1052800020E4000008080807000004FC80E020205B
:105290000203020003020404FC00000002020302F5
:1052A0000200E020E020C00003000300030020E033
:1052B0002020C00002030200030200C02020C00022
:1052C00000010202010020E02020C000080F0A02B5
:1052D000010000C02020E0000001020A0F0820E0C9
:1052E000402020000203020000000060A0A0200077
:1052F0000002020203000020F8200000000001026A
:10530000020020E00020E00000010202030220E091
:10531000208060200000030100006080E0806000C9
:1053200000030003000020608060200002030003EF
:10533000020020E020806020080807010000002013
:10534000A0602000000203020200000020DE020034
:10535000000000070400000000FF00000000000F34
:1053600000000002DE20000000040700000002012F
:105370000204040200000000000000000000000021
:1053800000000000000000000000000000F8000025
:105390000000000000333000000000100C06100C6C
:1053A0000600000000000000000040C07840C07807
:1053B0004000043F04043F040400007088FC0830EF
:1053C0000000001820FF211E0000F008F000E01887
:1053D000000000211C031E211E0000F00888700040
:1053E00000001E2123241927211010160E00000092
:1053F00000000000000000000000000000E01804B1
:105400000200000000071820400000020418E0001D
:1054100000000040201807000000404080F080405D
:1054200040000202010F01020200000000F0000033
:1054300000000101011F0101010000000000000047
:10544000000080B0700000000000000000000000BC
:105450000000000101010101010100000000000045
:1054600000000030300000000000000000008060FC
:105470001804006018060100000000E01008081081
:10548000E000000F102020100F00001010F80000A6
:1054900000000020203F202000000070080808883D
:1054A000700000302824222130000030088888480D
:1054B00030000018202020110E000000C02010F83D
:1054C000000000070424243F240000F8088888080E
:1054D00008000019212020110E0000E01088881813
:1054E0000000000F112020110E0000380808C838F5
:1054F00008000000003F00000000007088080888D5
:105500007000001C222121221C0000E0100808105D
:10551000E0000000312222110F00000000C0C00096
:10552000000000000030300000000000008000009B
:10553000000000008060000000000000804020109B
:105540000800000102040810200040404040404094
:1055500040000404040404040400000810204080F7
:10556000000000201008040201000070480808082C
:10557000F0000000003036010000C030C828E810FC
:10558000E0000718272423140B000000C038E000B7
:105590000000203C23020227382008F88888887001
:1055A0000000203F202020110E00C030080808080D
:1055B0003800071820202010080008F808080810F4
:1055C000E000203F202020100F0008F88888E8081D
:1055D0001000203F20202320180008F88888E808C1
:1055E0001000203F200003000000C03008080838E9
:1055F000000007182020221E020008F808000008FA
:10560000F808203F210101213F20000808F8080880
:1056100000000020203F2020000000000808F808BB
:105620000800C08080807F00000008F888C028182B
:105630000800203F20012638200008F8080000005C
:105640000000203F20202020300008F8F800F8F863
:105650000800203F003F003F200008F830C000084D
:10566000F808203F200007183F00E0100808081045
:10567000E0000F10202020100F0008F8080808088C
:10568000F000203F210101010000E010080808108F
:10569000E0000F18242438504F0008F888888888C4
:1056A0007000203F2000030C30200070880808089C
:1056B00038000038202121221C00180808F80808AA
:1056C00018000000203F2000000008F80800000833
:1056D000F808001F202020201F000878880000C83C
:1056E0003808000007380E010000F80800F800082C
:1056F000F800033C0700073C030008186880806836
:10570000180820302C03032C30200838C800C83873
:1057100008000000203F2000000010080808C838DA
:1057200008002038262120201800000000FE020278
:1057300002000000007F40404000000C30C000002C
:105740000000000000010638C00000020202FE0056
:105750000000004040407F00000000000402020200
:105760000400000000000000000000000000000035
:105770000000808080808080808000020204000021
:105780000000000000000000000000008080808019
:1057900000000019242222223F2008F80080800007
:1057A0000000003F112020110E00000000808080CA
:1057B0000000000E112020201100000000808088D1
:1057C000F800000E112020103F2000008080808013
:1057D0000000001F222222221300008080F088880F
:1057E00088180020203F202000000000808080805A
:1057F0008000006B94949493600008F8008080808F
:105800000000203F210000203F20008098980000E9
:1058100000000020203F2020000000000080989819
:10582000000000C08080807F000008F800008080B9
:105830008000203F24022D302000000808F80000DE
:1058400000000020203F2020000080808080808099
:105850008000203F20003F20003F8080008080802B
:105860000000203F210000203F2000008080808039
:105870000000001F202020201F008080008080006A
:10588000000080FFA12020110E0000000080808019
:105890008000000E112020A0FF808080800080808A
:1058A000800020203F2120000100000080808080B7
:1058B00080000033242424241900008080E08080AC
:1058C00000000000001F20200000808000000080F9
:1058D0008000001F202020103F208080800000805A
:1058E000808000010E30080601008080008000806A
:1058F00080800F300C030C300F000080800080800F
:1059000080000020312E0E31200080808000008039
:10591000808080818E7018060100008080808080E9
:1059200080000021302C2221300000000000807C0B
:10593000020200000000003F404000000000FF00A5
:10594000000000000000FF0000000002027C800058
:1059500000000040403F000000000006010102027C
:10596000040400000000000000000000000000002F
:105970000000000000000000000000000000000027
:105980000000000000000000000000000000000017
:10599000000000F0F0F00000000000000000000136
:1059A0007F010000000000000000001C1C1C000023
:1059B000000000008060301C8C60301C0C00000077
:1059C00000000000000000000000000000000000D7
:1059D000000000000000000000E00000000000E007
:1059E00000000086E69F86868686E69F8600000188
:1059F0001F01010101011F010100000080C06020A2
:105A0000F820E0C00000000003070C18FF70E181DF
:105A100000000000070F10107F100F0700008060CB
:105A2000206080000000E02000000F3020309F70D8
:105A3000DC371030C0000000100E030007181018EB
:105A400007000000C02020E0C0000000000080E04F
:105A50001F38E88703C43C040000070F1810100B20
:105A6000070D1010080000808C4C3800000000006A
:105A70000000000000000000000000000000000026
:105A80000000000000000000000000000000000016
:105A900080E0300804000000000000FEFF0100006C
:105AA0000000000000000000030F18204000000468
:105AB0000830E0800000000000000000000001FF4E
:105AC000FE0000000000004020180F03000000004E
:105AD0000000000000000000C000000000000042C4
