:020000040800F2
:10000000E88D00204D010008996E00089F550008FA
:1000100000000000000000000000000000000000E0
:10002000000000000000000000000000316F000828
:1000300000000000000000000B010008356F000800
:100040005F0100085F0100085F0100085F01000810
:100050005F0100085F0100085F0100089D3500088E
:100060005F0100085F0100085F0100085F010008F0
:100070005F0100085F0100085F0100085F010008E0
:100080005F0100085F0100085F010008E16F0008E0
:100090005F0100085F0100085F0100085F010008C0
:1000A0005F0100085F0100085F0100085F010008B0
:1000B0005F0100085F0100085F01000804488546F1
:1000C00000F024FC0048004755830008C046C046A5
:1000D000E88D0020084B19680868203080F30988F3
:1000E000022080F31488BFF36F8F3FBCAE4608BC7C
:1000F00004BC62B618470000BC000020EFF310807B
:1001000072B6704780F310887047EFF309800E4B8A
:100110001A6820381060F0C044464D4656465F4687
:10012000F0C008B572B608F0CDFC62B60CBC116820
:1001300008681030F0C8A046A946B246BB4680F316
:1001400009882038F0C81847BC00002004488047C0
:1001500004480047FEE7FEE7FEE7FEE7FEE7FEE7AE
:10016000DD6F0008BD00000830B50B4601460020D9
:100170002022012409E00D46D5409D4205D31D46AD
:100180009540491B2546954040191546521E002DA5
:10019000F1DC30BD70B500242546002801DA0124C9
:1001A0004042002901DA01254942FFF7DDFFAC4258
:1001B00000D04042002C00D0494270BDF0B51FB4C1
:1001C0000646002082B005464024019100901BE0C5
:1001D000019922460F46304600F07EF9049A059BAD
:1001E000801A994110D310461946224600F064F94E
:1001F000361A8F410197224601200021009F00F00E
:100200005BF938184D4100902046641E0028DFDC61
:10021000019B00982946324607B0F0BD03460B43C8
:100220009B0703D009E008C9121F08C0042AFAD2AC
:1002300003E00B780370401C491C521EF9D2704732
:10024000D2B201E00270401C491EFBD2704700226E
:10025000F6E710B513460A4604461946FFF7F0FFC5
:10026000204610BD421C0178401C0029FBD1801A99
:100270007047F8B502464A40D40F42004B0052087E
:100280005B089A4202D20246084611464A0023D031
:10029000C30D4A00DDB2120EAD1A202D35DA490227
:1002A0000126490AF6058A19002C00D05242202165
:1002B0004F1B1146B9402A411018C20D9A4221D055
:1002C000002C17D0012D08DCDA05801AD20F801916
:1002D000D207DBB200F019F9F8BDDA05801A012364
:1002E00040001B06C01880185A428018CA0F1043DD
:1002F000490007E04908C2071143DA05801A80194E
:100300004008801800F0F9F8F8BD61000122511A88
:10031000001BF7E70122D2075140AAE70122D207CA
:100320005040A6E7024670B54A40D30FDB074000B5
:100330002DD04A002AD0010E140E00021202091913
:10034000400A520A8418E50104465443000A120A7E
:100350002E045043A4194219200CC543AA18120CAC
:100360000125AD03521C521912047F39240400D018
:10037000521C104301D44000491EC2B20C06C009F1
:100380002018401C4008802A02D003E0002070BDE5
:1003900040084000002900DA0020184370BD70B505
:1003A00002464A40D50F40004A00ED074008520877
:1003B000002814D0002A12D0C40DD30D4102012010
:1003C000C0055202490A520AE41A091812187D346B
:1003D000914201D3641C00E04900002C01DA0020A6
:1003E00070BD0023914201D3891A0343400849009C
:1003F0000028F7D100290AD0914202D10121C90772
:1004000005E0914201D2012101E00121C943E0054B
:10041000C018401900F071F870BDC217C10F5040EC
:1004200010B54018CA079623002100F06EF810BDE1
:1004300010B500229623114600F067F810BD410068
:1004400040020122400AD205090E80187F2901DAF4
:1004500000207047962903DC9622511AC840704745
:10046000963988407047C20FD207400040080BD031
:10047000C10D0723DB01C91840020905400A1143D9
:10048000C208400711437047002001467047000032
:100490000122D207002800DB101A002900DB511AC4
:1004A000814270470122D207002800DB101A002980
:1004B00000DB511A8842704710B5202A04DB014640
:1004C000203A9140002010BD914020239C1A034601
:1004D000E3401943904010BD10B5202A04DB0846C4
:1004E000203AD040002110BD0B46D340D0402024FC
:1004F000A21A91400843194610BD002904DA401C95
:10050000490001D140084000704770B40024050C38
:1005100005D11024000402D1002921D01124050E98
:1005200001D100020834050F01D10001241D850FFF
:1005300001D18000A41C002801DB4000641C0029BC
:1005400008D020252E1B0D46F540A14000D00121EA
:100550002943084301061B1B000ADB1D02D50020AE
:1005600070BC7047DB05181880180029F8DA401CA9
:100570004900F5D170BC400840007047F0B507460F
:100580000846584087B0C00F049048000E465900F6
:1005900040084908BC1A884105D2384631461E46F3
:1005A00017460B4602465800400810434DD0300D08
:1005B000039040055900400D490D0590401A0290E6
:1005C000402873DA18030121000B09050843019044
:1005D00004980092002806D01146019A4942002052
:1005E000904100910190029840210A1A01990098C7
:1005F000FFF762FF05460C466B4607CB00F098F903
:10060000C0197141039A0E0D0023D71756401A46A0
:100610007A40164344D0049A002A2DD0029A012A27
:10062000039A15DC1205C01A914101263605001CFB
:100630007141D20F059ED2070093019202962A467D
:10064000234600F095F907B0F0BD38463146FAE789
:100650001605234A0F46B218C01AB74101210905F1
:10066000001C4F4100187F41114618187941E20FD4
:1006700010436D19644113E0E2076D0815436408E7
:10068000C2071443039A01261205C01A9141360588
:10069000001C7141CE07400830434908C018514141
:1006A0002A46234600F057F9CDE7FFE704980122D8
:1006B0004000C117121A00238B4104983146C41719
:1006C000381AA141EEE730B40124E407634030BC9E
:1006D00054E730B40124E407614030BC4EE7000029
:1006E0000000E0FFF0B51FB488B00B990998002412
:1006F00048400999C00F490049080991C0070B9962
:100700000090490049080B9109990898A6460843AA
:100710001CD00B990A98084318D00998012440006E
:10072000420D4800410D099824050003000B2043A9
:1007300009900B980003000B20430B9050181C49A4
:100740004018002201901446104605E000200146A2
:100750000DB0F0BD032801DA034600E003239C46F8
:10076000C11A0AAE0AE05F0008ADED5B4F00F75B0F
:100770007D430027AA187C41491C5B1E6145F2DDC0
:10078000410004AB5A522104120C0A43240C401CB1
:100790000828DFDB019802900099704601910090D3
:1007A000059B049A0799069800F0E2F8D0E700004C
:1007B0000DFCFFFFF0B50C465C4085B0E40FE4078C
:1007C00003944C00002664085900944649080246E8
:1007D0000296224321D062460A431ED06200570D82
:1007E0004A000E032303550D012402462C4924051B
:1007F000781B1B0B360B40182343264361460090A1
:100800001C46501AB44103D30098401C009002E0EB
:10081000921800985B41002803DA0020014605B0D9
:10082000F0BD0020012109050746864611E0644617
:100830001D46141BB54106D36546521BB341744691
:1008400007430C43A646CD074008490828439218A1
:100850005B4105460D43EAD11046184313D060466C
:10086000194650407140084306D06046101AB34103
:1008700006D20122002306E000220123DB0702E06A
:100880000122D2435310009874460105381C61417F
:10089000029C039D0019694100F05DF8BFE700006C
:1008A000FD0300004A0009030123090B1B0519433E
:1008B0000A4B10B5520D9A4202DA0020014610BDD3
:1008C000064B34339A4203DC9A1AFFF705FE10BD3B
:1008D000034BD218FFF7F0FD10BD0000FF0300002E
:1008E000CDFBFFFF10B5002904DB0124E4074042E3
:1008F0008C412146002B04DB1C460123DB075242BE
:10090000A341994200D1904210BD0000064C012540
:10091000064E05E0E36807CC2B430C3C98471034A7
:10092000B442F7D3FFF7CEFBD4B10008F4B100080E
:1009300010B5202A06DBCB170846203A1041C11714
:100940000B4306E00B461341D0402024A21A9140ED
:100950000843194610BD10B5002B08DA0024401CCE
:10096000614192185B411A4301D14008400010BD1B
:10097000F0B51FB482B005460C0003D0084607F05E
:1009800019F802E007F016F82030024600902146E0
:100990002846FFF791FD049B059A04460F4618432D
:1009A0001143084314D0184610431BD0009840212F
:1009B0000A1A18460599FFF78FFD05460E46009A5C
:1009C00005990498FFF778FD084305D0012004E05D
:1009D0002046394607B0F0BD0020C11705430E433D
:1009E0002C43374300990E986305401A7905E40AB1
:1009F00000220C43FD0A0A3002D500200146E9E737
:100A00000105101969410C9C0D9D00196941FFF702
:100A1000A2FFDFE770B58C180578401C6B075B0FF1
:100A200001D10378401C2A1106D10278401C03E052
:100A300006780E70401C491C5B1EF9D12B0705D4AB
:100A40000023521E0DD40B70491CFAE70378401C9A
:100A5000CB1A921C03E01D780D70491C5B1C521EC2
:100A6000F9D5A142D8D3002070BD000010B500F028
:100A700042FB002804D0034901200870002010BD6B
:100A8000012010BD0400002008B50548694601F0AA
:100A9000CFF902226946622005F036FB08BD00004E
:100AA0008306000010B50521404801F08BF90028AD
:100AB0007AD03E483E49401C01F06AF9002873D0C4
:100AC0003A480221A43801F063F900286CD0374875
:100AD0001F21C902963801F05BF9002864D0334821
:100AE00000217D3801F06EF900285DD02F481C21CF
:100AF0007C3801F067F9002856D02C483D21401D74
:100B000001F060F900284FD028480121801D01F034
:100B100059F9002848D025480021323001F052F917
:100B200000283FD021480821A23801F04BF90028C5
:100B30003AD01E480021A13801F044F9002833D0F2
:100B40001A480021A03801F03DF900282CD01748A0
:100B500098219E3801F036F9002825D01348D52178
:100B60009D3801F02FF900281ED0104856219C38DE
:100B700001F028F9002817D00C48E4219A3801F038
:100B800021F9002810D00948E621993801F01AF916
:100B9000002809D00548E221983801F013F900280F
:100BA00002D0012010BDFFE70020FBE70393000007
:100BB000238900001CB569A006F0ECFE00F0DCFE05
:100BC00000F040FA002000F0B5FF6DA006F0E2FE54
:100BD00005F064F8002005F05DFA002174A006F02D
:100BE000D9FE7CA006F0D6FE05F03AFA002802D025
:100BF00000F01CFD1CBD7CA006F0CCFEEFF31084C1
:100C000002F066FF014622467CA006F0C3FE0020EB
:100C1000C82103464A010193019C641C019494423B
:100C2000FAD3401C8842F6D3EFF3108402F050FF51
:100C3000014622467DA006F0ADFE88A006F0AAFE81
:100C400002226946012005F0E3F8002802D000F0F6
:100C500083FC1CBD6846008800F0B6FC012000F053
:100C600069FF86A006F096FE04F0DDFF002802D0A2
:100C700000F034FC57E089A006F08CFE8FA006F04F
:100C800089FEFFF70FFF00280DD093A006F082FE2B
:100C900098A006F07FFE022269469E4805F01DF8E6
:100CA000002808D011E000F045FC002000F042FFD1
:100CB00004F0D4FF1CBD68460188974C0120618276
:100CC00000F03CFF608A00F09FFC94A006F062FEFA
:100CD00004F0C4FF002802D000F016FC23E097A027
:100CE00006F058FE9DA006F055FE9A2005F0BDF9CD
:100CF000040007D004F0CCFF024621469EA006F077
:100D000049FE10E0A7A006F045FEADA006F042FEA9
:100D1000FFF7BAFEB1A006F03DFE00F0ECF90028A6
:100D200005D000F03BFC002000F004FF1CBDB3A088
:100D300006F030FEB9A006F02DFE00F067FE0020A0
:100D400000F052FF002000F0B3FFBD4800F012FF9A
:100D500000F0A4FF00F0ACFD1CBD0000E794B5E678
:100D6000B1A0E7AEA1E79086E5889DE5A78BE58C6D
:100D7000963A20E5BC80E5A78B5C720A0000000073
:100D8000E794B5E6B1A0E7AEA1E79086E5889DE5DA
:100D9000A78BE58C963A20E78AB6E68081E5A48D9C
:100DA000E4BD8DE5AE8CE688905C720A0000000020
:100DB0004251E69DBFE7BAA7E5889DE5A78BE58C84
:100DC00096E5AE8CE68890204352433A25750D0A8D
:100DD000000000004251E5A48DE4BD8D3A20E5BC41
:100DE00080E5A78B5C720A004251E5A48DE4BD8DBD
:100DF0003A20E5AE8CE688900D0A00004251E5A449
:100E00008DE4BD8DE7AD89E5BE853A20E5BC80E582
:100E1000A78B207469636B3A256C75207072696DBD
:100E200061736B3A256C750D0A0000004251E5A410
:100E30008DE4BD8DE7AD89E5BE853A20E7BB93E63D
:100E40009D9F207469636B3A256C75207072696D83
:100E500061736B3A256C750D0A0000004251E8AED3
:100E6000BEE5A487E58FB7E8AFBBE58F963A20E5EE
:100E7000BC80E5A78B5C720A000000004251E98546
:100E80008DE7BDAEE6A8A1E5BC8F3A20E8BF9BE5A3
:100E900085A5E5BC80E5A78B5C720A004251E98517
:100EA0008DE7BDAEE6A8A1E5BC8F3A20E8BF9BE583
:100EB00085A5E5AE8CE688900D0A00004251E985D3
:100EC0008DE7BDAEE58699E585A53A20E5BC80E5D0
:100ED000A78B5C720A0000004251E9858DE7BDAE28
:100EE000E58699E585A53A20E5AE8CE688900D0A61
:100EF000000000004251E794B5E6BA90E9858DE71D
:100F0000BDAEE8AFBBE58F963A20E5BC80E5A78B88
:100F10005C720A0034920000040000204251E9850E
:100F20008DE7BDAEE6A8A1E5BC8F3A20E98080E55B
:100F300087BAE5BC80E5A78B5C720A004251E9855F
:100F40008DE7BDAEE6A8A1E5BC8F3A20E98080E53B
:100F500087BAE5AE8CE688905C720A004251205355
:100F60006C656570E7A681E794A83A20E5BC80E54A
:100F7000A78B5C720A000000425120536C656570BB
:100F8000E7A681E794A8E5A4B1E8B4A5207265744A
:100F90003A25642068616C3A30782530386C780DD9
:100FA0000A000000425120536C656570E7A681E796
:100FB00094A83A20E5AE8CE688900D0A0000000067
:100FC0004251E590AFE58AA8E5918AE8ADA63A20BE
:100FD000E6B885E999A40D0A000000004251E4B882
:100FE000BB464554E9BB98E8AEA4E585B3E696ADAB
:100FF0003A20E5BC80E5A78B5C720A004251E4B858
:10100000BB464554E9BB98E8AEA4E585B3E696AD8A
:101010003A20E5AE8CE688900D0A0000E794B5E62C
:10102000B1A0E7AEA1E79086E9A696E5B8A7E98763
:1010300087E6A0B73A20E5BC80E5A78B5C720A0082
:101040001027000010B594B0442103A8FFF7FFF863
:1010500000211D481B4C04900091019103940291C2
:10106000684601751E200690184807906420089075
:1010700003216846818416480A9016480B9016484A
:101080000C901649684681861549C186FA200E9053
:101090000F90FF2080051290124813901094119425
:1010A00003A801F0D7FE50216846009481803721C3
:1010B000C180FF202D300290684602F095F914B0EF
:1010C00010BD00008813000000004842C02709003E
:1010D0006F12033B00001041000040406810000008
:1010E000B80B00000000204028308C2801D80120D7
:1010F00070470020704710B50F2000F077FE10BD3C
:101100000EB501A9622000F0E9FB002803D0684673
:1011100048498088088001A9642000F0DFFB00288E
:1011200003D0684644498088088001A9122000F055
:10113000D5FB002803D068464049808808800222F9
:1011400002A9572004F064FE002804D102A800F090
:10115000EBFB3B49088069467F2000F0D5FB002867
:1011600003D068463749007808706946022000F0CD
:10117000CBFB002803D068463349007808706946E5
:10118000042000F0C1FB002803D068462F490078F6
:1011900008706946062000F0B7FB002803D06846B7
:1011A0002B49007808706946032000F0ADFB002849
:1011B00003D068462749007808706946052000F08A
:1011C000A3FB002803D068462349007808706946CD
:1011D000072000F099FB002803D068461F490078DB
:1011E000087069460B2000F08FFB002803D068468A
:1011F0001B490078087069460D2000F085FB002827
:1012000003D0684617490078087069460F2000F03F
:101210007BFB002803D068461349007808706946B4
:10122000112000F071FB002803D068460F490078B8
:1012300008700EBD2A0000202C0000202E00002087
:1012400030000020050000200700002008000020DA
:10125000090000200A0000200B0000200C000020E4
:101260000D0000200E0000200F00002010000020C4
:10127000F8B50027234825490770234808802448EB
:101280003D463E4607803C4622486946005D00F0E8
:1012900025FB002828D068461F4900886200885234
:1012A0001A496D1C0A883F18EDB2904200D20246DE
:1012B0000A8017490A88904200D810460880641CAA
:1012C000E4B2062CE0D3114C0F482188814200D1B2
:1012D0002680062D0CD0114806800D4821880088F4
:1012E000401A0F490880F8BD0B4861004652E6E7F6
:1012F00029463846FEF738FF084908800148012191
:101300000170EAE768000020FFFF000018000020DD
:101310001A000020E8900008900300201C00002024
:101320001E000020FEB5324C00202070314F60704E
:1013300038706946682000F0D1FA2F4D002805D09A
:101340006846008800B201F045FC2880694670209C
:1013500000F0C4FA0126002811D06846008800B2C7
:1013600001F038FC0190FFF7BFFE002804D02349AC
:1013700001980880267002E020482988018069468B
:10138000742000F0ABFA002811D06846008800B243
:1013900001F020FC0190FFF7A7FE002804D01849B7
:1013A00001980880667002E015482988018022783B
:1013B000617814480A420AD0104900228A5E104916
:1013C0000023CB5ED118CA0F5118491007E0002A3C
:1013D00001D00A4902E0002904D0094909880180A6
:1013E0003E7001E029880180074928880880FEBDF9
:1013F0006B0000206A000020200000202200002056
:10140000240000202600002028000020F0B52848F5
:10141000284A0078127800251043274A06211278BE
:10142000824340D02548425F2E2A3CD22448425F66
:10143000462A38DA234804882348844233D3234891
:101440000088844614282ED9214800220088214B88
:1014500056009B5B034200D01146521CD2B2062AB2
:10146000F5D31D4B012256006F009E5BDF5BBE4231
:1014700000D91546521CD2B2062AF4D3124A32328F
:10148000944208D36246282A05D36A009D5A2D1B30
:10149000ADB2282D09D2062905D24900595A091B97
:1014A00089B2142900D80020F0BD0A48805AF0BD46
:1014B0000400002011000020680000202600002009
:1014C00020000020180000200A0F00001E0000204D
:1014D00070000020EE9000089003002010B502A0DC
:1014E00006F058FA10BD00004251E9858DE7BDAE07
:1014F000E6A8A1E5BC8FE8BF9BE585A5E5A4B1E81A
:10150000B4A50D0A0000000010B502A006F042FAD2
:1015100010BD00004251E9858DE7BDAEE6A8A1E50A
:10152000BC8FE98080E587BAE5A4B1E8B4A55C7218
:101530000A00000010B502A006F02CFA10BD000051
:101540004251E9858DE7BDAEE58699E585A5E5A41F
:10155000B1E8B4A50D0A000010B5044604F098FBEC
:101560000246214601A006F015FA10BD4251E8AE30
:10157000BEE5A487E58FB7E8AFBBE58F96E5A4B1DC
:10158000E8B4A5207265743A25642068616C3A302D
:10159000782530386C780D0A0000000010B502A0E4
:1015A00006F0F8F910BD00004251E4B8BB464554BE
:1015B000E9BB98E8AEA4E585B3E696ADE5A4B1E84D
:1015C000B4A50D0A0000000010B5044604F06CFB41
:1015D0000246214601A006F0DDF910BD4251E98026
:1015E0009AE4BFA1E6ADA3E5B8B820E8AEBEE5A495
:1015F00087E58FB73A307825303478204352433A24
:1016000025750D0A0000000010B5014601A006F086
:10161000C1F910BD4251E794B5E6BA90E9858DE76E
:10162000BDAE3A3078253034780D0A0010B5044646
:1016300004F02EFB0246214601A006F0ABF910BDD6
:101640004251E5A48DE4BD8DE5A4B1E8B4A52072B6
:1016500065743A25642068616C3A30782530386CBE
:10166000780D0A00F0B5544897B00068FEF7FBFE0D
:101670000546524803910068FEF7F5FE0290504877
:101680000C460068FEF7EFFE00904E48019100689E
:10169000FEF7E9FE02460B464B4F4C4E4C494D4877
:1016A0003F78366809780088129013A8C2C0039961
:1016B000119102980F940E90109500980C9001993A
:1016C00045480D910078099308920A90434C444D87
:1016D000444E454F23782A7831783878079304AB05
:1016E00007C342490020085E414B424A42491B68F9
:1016F000126809880390414802930192009103887F
:101700003F4802883F4801883F4806F043F938784F
:101710004106C90FC306DB0F0391820601938107BF
:10172000D20FCB0F029241070707CA0FC107FF0F65
:101730000097C90F354806F02DF93848344B354A23
:10174000354900781B781278097808AF0FC73448FC
:10175000317823782A78007804AC0FC4344C314BAC
:10176000314A324920881B78127809786D460FC5B6
:101770003048314E314D038832882988304806F090
:1017800009F93078010742078307C007C90FD20F54
:10179000DB0FC00F01930292039100902878C006DE
:1017A000C30F20788106CA0F4006C10F254806F0F6
:1017B000F1F817B0F0BD00005400002050000020E8
:1017C0004C00002048000020110000206400002090
:1017D0001300002032000020120000200C00002026
:1017E0000B0000200A000020050000202600002039
:1017F0003C000020340000201E0000201A000020C1
:101800001C0000201800002014AD0008D0AC000817
:10181000100000200F0000200E0000200D0000200E
:10182000090000200800002007000020060000201A
:101830002C0000202A0000202E0000203000002074
:10184000D0AD000888AC000810B5014601A006F034
:10185000A1F810BD4251E9858DE7BDAEE58699310D
:1018600036E4BD8DE5A4B1E8B4A520E59CB0E59DC6
:10187000803A3078253034780D0A000010B50146E2
:1018800001A006F087F810BD4251E9858DE7BDAE95
:10189000E5869938E4BD8DE5A4B1E8B4A520E59CC2
:1018A000B0E59D803A3078253034780D0A0000008C
:1018B00010B502A006F06EF810BD0000E794B5E682
:1018C000B1A0E7AEA1E79086E5889DE5A78BE58C02
:1018D00096E68890E58A9F5C720A000038B50C464F
:1018E0000222694604F014FA002804D005490120B8
:1018F0000870002038BD684600F016F820800120EE
:1019000038BD00000400002010B5012204F000FAE8
:10191000002804D0034901200870002010BD0120D8
:1019200010BD000004000020417802780802104336
:1019300070470000014900200860704778000020CF
:1019400002480021416001807047000070000020C3
:10195000054900200870054908700549087048705D
:1019600004490870704700006800002069000020EA
:101970006B0000206A00002070B500201F4905465A
:101980004200401CC0B28D520628F9D31C4C1D48A1
:1019900025636563A563E563A582E5822583658389
:1019A000A583E58325846584A584E58425856585EF
:1019B000A5856570A570E57025716571A571E571E6
:1019C00025726572A572E572257365732064606483
:1019D000A573A564E5642565A565E5650A482566E2
:1019E00060656420E0732574E5852570FFF7B0FF1E
:1019F000FFF7A0FF6582FFF7A3FF70BD90030020F3
:101A0000040000200000484200409C4538B5FFF724
:101A10002FFC69463420FFF761FF002805D0684697
:101A200020490088086020490860204C0020207070
:101A300069463A20FFF752FF00280DD0684600881B
:101A40001B4900B20860FEF7E8FC1A49FEF7A7FC44
:101A50001949086001202070FFF764FCFFF750FB74
:101A60000021164A164B174C08464500555BED18E9
:101A7000A54200D30121401CC0B20628F5D312486C
:101A8000124A007812781043114A1278104301D09C
:101A9000012200E000220F48007808430E4910435D
:101AA000087038BD34000020380000206900002094
:101AB0003C00002000007A444000002090030020F9
:101AC0003CF6FFFF090700000A0000200B00002081
:101AD0000C0000200400002011000020024610B578
:101AE0000020002A00D10C200124002902D102216B
:101AF0000843204300F07AF9002803D0024804701C
:101B0000002010BD012010BD04000020014610B5CA
:101B10000020002900D10C2000F068F9002804D032
:101B2000034901200870002010BD012010BD0000F5
:101B30000400002010B500F04FFB10BD10B500F000
:101B400029FB10BD10B50446094900200870FFF7B5
:101B50005DFF204600F048F8204600F0A9F8204636
:101B600000F008F800F09AF8204600F02DF810BDBB
:101B70000400002070B50F4D104E696808180E491A
:101B80006860884206D20E480078002802D130787A
:101B900000280ED000206860FFF738FC044604F0EF
:101BA0006EFA002802D0012030700024054804801D
:101BB0002C8070BD70000020102700000400002061
:101BC000110000203200002010B506490A681018E4
:101BD0007D22D2000860904203D300200860FFF706
:101BE00041FD10BD7800002000B58DB000901D486B
:101BF0000178684601711C48006802901B48017812
:101C0000684601731A4801886846C18119480178FD
:101C1000684601741848018868464182174801786F
:101C2000684601751648017868464175154801787F
:101C30006846817501F006FC06A801F0CBFB12494D
:101C400006980860114907980860114908980860CB
:101C500008A81049007C087008A80F49407C08704B
:101C60000DB000BD690000203C000020680000208D
:101C70001E0000206A000020260000200A0000202C
:101C80000B0000200C0000205C0000206000002001
:101C900064000020130000201400002010B5034849
:101CA00001210078484000F097FA10BD04000020A0
:101CB00000B597B00F902548017810A8017024480E
:101CC000006811902348017810A801722248018809
:101CD00010A841812148018810A8818120480188ED
:101CE00010A8C1811F48017810A801741E480188FE
:101CF00010A841821D480078322801D3012100E05C
:101D0000002110A801751A48017810A841750FA884
:101D100001F0D2F9684601F093F81649009808607E
:101D200015490198086068461449807C0870144978
:101D300007980860134908980860134909980860D3
:101D400012490A98086017B000BD00006900002021
:101D50003C00002068000020180000201A0000202D
:101D60001C0000206A000020260000201400002033
:101D70001300002044000020480000201200002032
:101D80004C0000205000002054000020580000208B
:101D900038B50A4604466946104600F049F8022262
:101DA0006946204604F07CF9002807D00449012048
:101DB00008702046FFF748FD002038BD012038BDDF
:101DC0000400002013B50446012201A904F068F9BB
:101DD000002807D00449012008702046FFF74EFD77
:101DE00000201CBD01201CBD0400002038B50446A5
:101DF00002226946572004F00BF8002814D16846E7
:101E0000FFF792FDC00604D4222004F02EF900282A
:101E10000AD16846047001226946972004F0C8F987
:101E2000002801D101490C7038BD000006000020D7
:101E30000870000A487070471CB500F08FF820A0A9
:101E400005F0A8FD00240325FF222346013222A12C
:101E500025480095019406F0F9FF02263702002379
:101E60003A4622A124480096019406F0EFFF002391
:101E70002A0222A124480095019406F0E7FF0023DE
:101E80003A4622A124480096019406F0DFFFFF267F
:101E9000012581360023324620A123480095019474
:101EA00006F0D4FF0023324620A124480095019477
:101EB00006F0CCFF22A005F06DFD06F0D7FDFEE791
:101EC00052544F533A20E5889BE5BBBAE4BBBBE5CF
:101ED0008AA10D0A00000000626F6172645F696F81
:101EE0005F7461736B0000001183000863616E5FB3
:101EF0007461736B00000000218300086261746DDF
:101F0000616E5F7461736B00F98200087363383827
:101F100031355F7461736B00AD8800086E766D5F5C
:101F20007461736B00000000F983000864697370CA
:101F30006C61795F7461736B000000002983000895
:101F400052544F533A20E590AFE58AA8E8B083E5B4
:101F5000BAA6E599A85C720A0000000010B516A0A8
:101F600005F018FD04F012FA18A005F013FD04F0B6
:101F700053F91CA005F00EFD04F0A8F91FA005F010
:101F800009FD04F0DDF923A005F004FD00F08EF852
:101F900026A005F0FFFC00F0E7FB2AA005F0FAFC04
:101FA000FEF708FE2FA005F0F5FC00F02BF935A098
:101FB00005F0F0FC10BD0000415050E5889DE5A7FC
:101FC0008BE58C963A204C45440D0A00415050E573
:101FD000889DE5A78BE58C963A20E68C89E994AE3E
:101FE0000D0A0000415050E5889DE5A78BE58C96D1
:101FF0003A2043414E46440D0A000000415050E54E
:10200000889DE5A78BE58C963A20454550524F4D6B
:102010000D0A0000415050E5889DE5A78BE58C96A0
:102020003A204F4C45440D0A00000000415050E555
:10203000889DE5A78BE58C963A2053433838313597
:102040000D0A0000415050E5889DE5A78BE58C9670
:102050003A20E794B5E6B1A0E7AEA1E790860D0A75
:1020600000000000415050E5889DE5A78BE58C9667
:102070003A20E794B5E6BA90E7AEA1E790860D0A5C
:1020800000000000415050E5889DE5A78BE58C9647
:102090003A20E5AE8CE688900D0A00000007000F9C
:1020A0000A2801D2303070473730704710B503F03E
:1020B0003DFC04480121017000214170084600F0F8
:1020C0008BF810BD7C000020F0B585B014460F469B
:1020D000064603F007FC01250021102323A2084631
:1020E000009503F037FD102322A219460020009529
:1020F00003F030FD0095002E01D020A200E020A2C8
:1021000010232021002003F025FD3E4223D0502043
:102110006946087157204871522088713A20C87169
:10212000200BFFF7BBFF69460872200AFFF7B6FFD6
:10213000694648722005000EFFF7B0FF69468872B5
:10214000E0B2FFF7ABFF6946C872002008731023A6
:1021500001AA009502E010230BA200953021002077
:1021600003F0F8FC03F05AFC05B0F0BD424D5332C9
:102170003456000042512049494300004F4B0000B3
:102180004641494C000000005057523A2D2D2D2D4C
:10219000000000000A4610B50E490B78002B17D03E
:1021A0004B78002B0AD08B78834207D1CB788342BF
:1021B00004D100280CD08B88934209D001234B70A6
:1021C0008870C870002800D08A800146FFF77CFF25
:1021D00010BD00007C00002010B5094A11780029CC
:1021E0000DD05178002902D09178814207D0012189
:1021F00051709070D17892880140FFF765FF10BD53
:102200007C00002010B50F480021017041708170E2
:10221000C170017141718171C171017241720161BD
:1022200041818181084600F0B7FB074807490088D3
:10223000884206D3064807490088884201D8FEF73D
:1022400015FC10BD8400002018000020C409000007
:102250001A000020CC10000030B58BB000F070FAEE
:10226000054600F0D5FA044600F066FA01460D482E
:102270000D4A0068128807AB069231C30B4803ABC6
:1022800002887D20C000029007C30948C2794179C5
:1022900001920091837842780178064805F07AFB34
:1022A0000BB030BD3C0000201A00002018000020B8
:1022B0008400002054AE000870B5049C002817D09C
:1022C00000250C4811400561458145721940057291
:1022D00021404170817004D0022101700121084623
:1022E00003E0012101700021084600F005F80120FB
:1022F00070BD000084000020F8B5164C0646A07999
:102300000F46002808D0E078B04205D12079B842C5
:1023100002D16079002813D0002E02D1002000F0F5
:102320003BFB39463046FFF7D9FB0025002808D093
:10233000304600F031FBE670277165710120A07115
:10234000F8BD002000F028FB6570A570A571052080
:102350002070F8BD8400002070B5154C0646A079A9
:10236000002808D0E078B04205D12079002802D1B9
:102370006079002812D1002E02D1002000F00CFB61
:102380003046FFF7C3FB0025002808D0304600F098
:1023900003FBE670257101206071A07170BD002003
:1023A00000F0FAFA6570A570A5710520207070BD67
:1023B0008400002010B500F0EFFA02490020887177
:1023C00010BD000084000020F1B5794879490088EB
:1023D000794E86B0884205D331887848814201D849
:1023E000012000E00020029000F012FA002804D141
:1023F00000F0A6F97249884201D3012500E00025CA
:1024000000F0A4F90121484007466E480022825E90
:102410002D2A01D8012000E000200190029B002419
:102420006948002B0AD03388644E643EB34201D31E
:10243000C17104E0614E783EB34200D8C471624875
:102440001432C67901204640502A00D800E000200E
:1024500004905E487D210068C900C84201DA01206D
:1024600000E00020039000963A462946019B02981E
:10247000FFF722FF002830D10298052100280ED056
:102480005348007800282BD04F480461448144729F
:1024900001704470847004720021084677E04A4855
:1024A0003D40847044814472457017D00278042AFC
:1024B00001D0046108E0474B02699A4202D2069DAE
:1024C000521902619A4203D204210170012002E0F4
:1024D000017044700020FFF76DFF5AE00170F9E7CA
:1024E00033483D490088884202D90399002913D016
:1024F000354A03201461548154721070107A0028F8
:1025000001D101201072284601993840084030401E
:102510005070214694703AE01921C90188420ED2C8
:10252000294901200C614C814C7208702846019A9F
:1025300038401040304048708C70214627E02248D7
:10254000022104610170047201993D400D40354043
:102550004570049A8270002A17D043891F498B4224
:1025600013D206460698181880B27081884208D3A4
:102570007181707A002804D10120707218A005F0D2
:1025800009FA7078FFF7E8FE03E011462846FFF7E6
:10259000B3FE0D4806998289511889B27D22D20076
:1025A0008181914202D38481FFF756FE07B0F0BDCE
:1025B00018000020C40900001A000020CC10000000
:1025C000E02E000026000020840000203C000020B7
:1025D0001100002060EA0000B80B00008813000022
:1025E000E794B5E6BA9020E9A284E694BEE794B5F4
:1025F000E7AD89E5BE85E5AE8CE688903A25752085
:102600006D730D0A0000000070B5424C20466278E0
:102610008178C078002A07D022780025002A0DD0C2
:10262000A279002A0AD106E0002901D0002801D1B0
:1026300000F024FA70BDE279002A01D06570F7E756
:10264000002901D00028F5D0012004F0FDF900F0A8
:1026500065F80028F2D02021002004F020FA00F0D4
:102660005DF80028EAD02421082004F018FA00F0D0
:1026700055F80028E2D000228021092004F0F4F966
:1026800000F04CF80028D9D0802274210A2004F0F0
:10269000EBF900F043F80028D0D0082200210B20ED
:1026A00004F0E2F900F03AF80028C7D040220521F2
:1026B0000C2004F0D9F900F031F80028BED0012236
:1026C0000021192004F0D0F900F028F80028B5D036
:1026D0001149002004F076F900F020F80028ADD070
:1026E0007D21C900012004F06DF900F017F80028E1
:1026F000A4D0012004F04EF900F010F800289DD07D
:10270000012004F053F9002004F09EF90120A0708C
:10271000E57070BD9C03002088130000002807D0DE
:10272000044A0021117011462031087100207047C1
:10273000012070479C030020004870478813000068
:102740000148C068704700009C03002005480178DC
:10275000002905D08179002902D1C079002800D054
:10276000012070479C03002010B51E4C01222270EE
:1027700000206070A270E27020716071A071E07141
:1027800020726072E06020616061A061A083E083DC
:10279000208421466084203108714A718A71C87191
:1027A000087248728872C872087348738873C87355
:1027B00008740D494860088003F0A4FF00F05EF93A
:1027C000012004F0E7F8FFF7A9FF00F0FBF82078FC
:1027D000002801D0012100E0002104A005F0DAF872
:1027E00010BD00009C030020980000205343E588A2
:1027F0009DE5A78BE58C96E5BE85E69CBAE79B91A7
:10280000E68EA720E9809AE4BFA13A25750D0A005B
:1028100001480079704700009C030020F0B58FB09C
:1028200000F072F9514C5249607A0525401C48432A
:102830006D022946FDF798FC0E90A07A4C49401C89
:1028400048432946FDF790FC0D9003F00DFE074626
:1028500003F08EFF25460346203D28460C3047C82E
:1028600009900AA846C0287A002800D00120E979FA
:10287000002900D00121AA79002A00D001222E7956
:10288000002E00D001260596069207910890E9785F
:10289000687A002900D00121AA78002A00D00122FC
:1028A0006E78002E00D001260097019602920391C7
:1028B000049028782279002801D0012100E000212D
:1028C0002C4805F067F8607B237CE27BA17B04AE9B
:1028D0000FC6207A237BA27A617A6E460FC6E3790F
:1028E000A2796179244805F055F8688C6E460D9AF6
:1028F0000E9907C62B8CEA8BA98B204805F04AF865
:10290000687A9121014043078207050703918106F8
:10291000D20FDB0F0292ED0F019340060095CB0F13
:10292000C20FE17A164805F035F8E07B227C4107BA
:10293000CB0F617B05938D064E06ED0FF60F0396C8
:1029400004950692A27BC9091207D20F8306DB0FFA
:102950000192029100934106C209207BCB0FC1096D
:10296000084805F017F80FB0F0BD0000BC030020C8
:1029700060EA000020AF000844B00008D8AE0008AC
:10298000ACB00008C0AF000810B501F095F8012800
:1029900000D0002010BD000038B504466846047021
:1029A0000648074D4068002806D0022300226946E9
:1029B00006F019F9012800D06C7038BD980000208D
:1029C0009C0300207CB52C4C012020702546002063
:1029D00020352871684603F0BCFFFFF79FFE0028F2
:1029E00011D068460078207168464078607168466A
:1029F0008078A0716846C078E071684600792072DE
:102A00006846407960721C4900200C3103F01DFFBC
:102A1000FFF784FE18490120103103F016FFFFF77D
:102A20007DFE15490020143103F0A8FEFFF776FE65
:102A300011490120183103F0A1FEFFF76FFE0E4986
:102A400000201C3103F0DBFEFFF768FE0A4901207D
:102A50001E3103F0D4FEFFF761FE2946002003F08B
:102A6000ADFEFFF75BFE04490120223103F0A6FE14
:102A7000FFF754FE7CBD00009C03002010B5012030
:102A800003F0E2FF012003F091FF002240210C201F
:102A900003F0EAFF02480121C170817010BD0000FF
:102AA0009C03002038B5164C05466068002805D107
:102AB00001210022084606F047F86060FFF782FF18
:102AC000606800280CD00022694606F014F901283D
:102AD00006D168460078002800D0012009494870D6
:102AE000FFF792FD20887D21401980B2C900208027
:102AF000884203D300202080FFF790FE38BD0000FD
:102B0000980000209C03002070B5294D0221284622
:102B1000FFF73AFF274C012160712846FFF734FF89
:102B2000A071E11D002003F0AEFEFFF7F7FD214686
:102B30000831082003F0A7FEFFF7F0FD2146093118
:102B4000052003F0A0FEFFF7E9FD21460A3106202B
:102B500003F099FEFFF7E2FD21460B31072003F059
:102B600092FEFFF7DBFD21460C31092003F08BFEBE
:102B7000FFF7D4FD21460D310A2003F084FEFFF754
:102B8000CDFD21460E310B2003F07DFEFFF7C6FD83
:102B900021460F310C2003F076FEFFF7BFFD2146E2
:102BA0001031192003F06FFEFFF7B8FD70BD000073
:102BB00000040050BC03002010B5040007D0FDF74E
:102BC00051FB82B264232146014802F07DFC10BD16
:102BD000B0020020064910B5401802D40A21401D59
:102BE00001E00A21401FFDF7D5FA00B210BD000038
:102BF00055F5FFFF70B503461448834201D8002005
:102C000070BD134C0021880002199588101D9D424B
:102C100015D3A9B2158880789478491B021B581BDC
:102C2000002909D0504364225043FDF79DFA6421E6
:102C30004C43001980B270BD6420604370BD491CD4
:102C4000C9B20B29DFD3034870BD0000C4090000DE
:102C5000FA90000810270000002804DA0121C907B3
:102C6000884201D10846704740427047C2438A42B9
:102C700001D9401870470020C0437047F0B507469F
:102C8000284E85B00020307570750C46384600F02F
:102C90004BF900283DD03546403D388A298D884281
:102CA00009D3002C07DD2046FFF7D6FFE96A8842EA
:102CB00001D8012000E000200090F889698D884249
:102CC00009D8002C07DA2046FFF7C6FF296B884297
:102CD00001D8012000E000200490124C00984034FC
:102CE000002803D039686069FFF7C0FF606104986D
:102CF000002803D03968A069FFF7B8FFA0616369B5
:102D00007F226F6B0121D205BB4204D3064805C464
:102D1000317505B0F0BDAB6B9842FAD3002005C405
:102D20007175F6E7100400200000C842F8B501688C
:102D3000314D044600291DD03048814200D9206021
:102D40002F4F00213A46606800F068F86060207AF2
:102D5000002803D0012801D000202072E06800F094
:102D60006BF9E060606900F067F960612069002834
:102D700002D003E02560E3E722482061208B002891
:102D800001D1032020837F22D2051F49E06900F092
:102D900045F81E4EE0613A463146206A00F03EF8A2
:102DA00020621B4A3146606A00F038F86062E06ACF
:102DB00000F042F9E062206B00F03EF92063606BA6
:102DC000002800D16563A06B002800D1A563608D49
:102DD000218D884203D30F4860850F4820853A46ED
:102DE0003146E06B00F01AF8E0633A463146206C59
:102DF00000F014F82064F8BD88130000400D0300B3
:102E00000000C842C0270900BD378635CDCCCC3D77
:102E10000000A041B80B00006810000070B5144617
:102E20000D460646FDF734FB01D2284670BD21460B
:102E30003046FDF737FB01D2204670BD304670BDED
:102E400010B5002803D03C220149FDF7E7F910BD79
:102E50001404002070B52949294D2A4A06C50024CA
:102E60002C701E226A60284AAA606422EA6003224B
:102E70002A82264A6A61264AAA61264AEA61264AC5
:102E80002A84264A6A84FA226A62E962AA6229636B
:102E9000FF21890569632249A963083D002804D000
:102EA000014644222846FDF7B9F91548FFF73EFFD1
:102EB00013486E688030846006601A49C4604160BF
:102EC0000482446184616E64AE644038EC640474CE
:102ED00044748474C474047544758475AC65EC657D
:102EE0002C666C66A9662868FDF7A2FA29466C3143
:102EF00051C1AC67EC6700F0E1F970BD88130000C8
:102F0000D003002000004842C02709006F12033B95
:102F1000000010410000404068100000B80B0000A5
:102F2000000020400000C841002817D0017B002984
:102F300014D0C3890B498B4210D3428A8A420DD3E5
:102F4000008A88420AD308498B4207D88A4205D8AA
:102F5000884203D8934201D8824201D900207047A9
:102F600001207047C4090000FE100000F1B52E4F8B
:102F700088B00020F874B87C002853D00898FFF778
:102F8000D3FF00284ED00898408AFFF733FEFDF7A4
:102F90004FFA2649FDF703FA3C4640340290216877
:102FA000FDF7B8F90646224886423BDC21488642B6
:102FB00038D82546803D296A60680090FDF759F9A8
:102FC00001460098FDF7EBF931460390FDF7AAF9A9
:102FD000696A01230A46DB075940FFF71FFF0146D4
:102FE0002068FDF746F9114A0021FFF717FF20601E
:102FF0007F20C0050399FDF78DF96168FDF792F90F
:1030000060600298A8650898408AFDF711FAE865A3
:103010000898408AFDF70CFA2E66286703986866C0
:103020000120F87409B0F0BD100400200000C8426F
:103030000000F0410000F0C1002804DA0121C907B6
:10304000884201D1401E70474042704770B5144617
:103050000E46002827D0FDF7EBF91349FDF79FF93D
:10306000054612492046FDF75DF904463046FDF756
:10307000D4F92946FDF756F92146FDF790F90C4C95
:1030800001462068FDF7F5F80A4A0021FFF7C6FE61
:10309000206020468038C0692946FDF743F9616801
:1030A000FDF7E7F8606070BD00007A440000104250
:1030B000500400200000C842F8B504007ED0444D02
:1030C0000020E87428752E466875403E30667066AC
:1030D0002046FFF729FF2F46403700281AD0297CC9
:1030E000608A002919D13B49884222D33A49884253
:1030F0001FD8FFF77FFDFDF79BF93849FDF74FF922
:103100003860B06401202874022068743448786004
:1031100000F0D4F8287C00280BD02079002808D0B3
:10312000A7683846FFF798FDF168884207D800275E
:103130000EE00020B860F8603882A8743DE0307A74
:10314000012805D1C007874201D1471E00E07F4218
:103150003068FDF76DF90546207E00280BD0607EB3
:10316000322808D3FDF764F91C49FDF718F9294600
:10317000FDF7D8F80546207D002808D01620205EEF
:10318000002804DA17492846FDF7CCF805467F20C9
:10319000C005854200DA0546F5662A4639462068AC
:1031A000FFF754FF3946204600F0B8F82046FFF7F5
:1031B000DDFE39462046FFF761FD00E007E02068AC
:1031C00000F034F800F07AF8204600F00DF8F8BD71
:1031D00010040020C4090000FE1000000000C842D6
:1031E0000000C8416666663F0F4A2821137C002B09
:1031F00000D03C2100280CD00379002B00D00F31E7
:10320000037B002B00D00F31007E002801D0491D28
:10321000C9B2D07C002801D00A31C9B2642900D9D2
:10322000642191757047000010040020F1B520481A
:1032300005460668803D3046A96CFDF76BF80446EC
:103240000098002816D0FF20C0050702C442194E7E
:10325000009811D2FDF7ECF83146FDF7A0F8E96BC4
:10326000FDF760F8064601462046FDF71BF914D22B
:10327000344612E0AE64F8BDFDF7DAF83146FDF7EA
:103280008EF8296CFDF74EF8064620467840314608
:10329000FDF708F901D234467C402146A86CFCF7C2
:1032A000E8FF054A0021FFF7B9FDA864F8BD00005A
:1032B0005004002000007A440000C842F8B5134CC6
:1032C000134F00213A462068FFF7A8FD2060114AFD
:1032D00011496068FFF7A2FD064660602546803D03
:1032E000206868646867E96EFDF71CF83946FDF7E9
:1032F00056F83F210906FCF7BCFFFDF7A0F8AE66C3
:10330000E864A068A867E068E867F8BD500400209A
:103310000000C8420000C84317B7D138F8B50746C7
:103320000846FFF799FC214C2049264649690025AB
:1033300040368034884203D9A560E560258212E0DA
:103340003968A068FFF792FCA0603846FFF7ECFDF3
:10335000002807D0208A002807D0798A814208D324
:10336000081A07E0E560B574F8BD788A2082E56048
:103370000EE0401A0D4980B2098B814205D33968AD
:10338000E068FFF773FCE06002E0E560788A208285
:103390000648A1680069814204D3E168814201D3F3
:1033A000012000E00020B074F8BD0000D003002030
:1033B00070B504460D460068FDF741F8002808D0B6
:1033C000296809182960FDF733F82168FCF7A6FF82
:1033D000206070BD10B5002803D01C220149FCF705
:1033E0001DFF10BD7804002030B51549134A502345
:1033F0000A608B803723CB80FF232D338B6000281E
:103400000AD030C80068886030C10839002C00D16B
:103410000A60002800D18B600020C8600861486104
:103420008861C861064A0884488464232032137185
:103430003C2353718862C862086330BD8813000062
:103440006C040020F8B5002870D0017B384C0029AE
:1034500004D0C189228C914200D92184017C0029A9
:1034600007D012212222415EA25E914204DD6184D6
:1034700002E0E169491CE161017D002905D1417D3E
:10348000002902D1817D002902D0A169491CA161D6
:103490000179002948D00168002945D08068061EBE
:1034A00001DA754200E035460846FCF7C1FF0746E1
:1034B0002846FCF7BDFF3946FCF734FF1D49FCF7F1
:1034C0006EFF0546002E0BDD2946E06AFCF7D1FEB3
:1034D0001749E0620C3108462030FFF769FF23E00E
:1034E000002E21DA2946206BFCF7C3FE1049206329
:1034F000103108462030FFF75BFF2946A06AFCF731
:10350000B8FEA06209E02068FCF792FFA16AFCF710
:1035100005FFA0626069401C60612068FCF788FFBD
:10352000A16AFCF7B5FFEED900F006F8F8BD00007F
:103530006C04002000BA5B4A10B5174A6420138C53
:1035400094883C21A34200D35F2022230624D35E2B
:10355000145FA34201DB401FC0B29369002B01D06E
:103560000A38C0B294685369A34201D3401FC0B265
:10357000D469002C00D0282114691268944200D329
:103580001431002B00D01431642900D96421024A7F
:1035900020321071517110BD6C04002010B5102044
:1035A00000F0C2F910BD72B6FEE7000030B51A4C4B
:1035B0003523026817491B01A24200D11749803206
:1035C000016414681F252D04AC43858E2D042C4303
:1035D00014600A46703242640268803214680F2513
:1035E0002D06AC43058F2D062C4314600A46B032DD
:1035F0008264D832C264132252018A1802654F22B3
:10360000D2008A1842650022C81800E004C1814235
:10361000FCD330BD00B400400068004050B700400B
:1036200070B5044600F054FA0546601C02D0044808
:103630000078241800F04CFA401BA042FAD370BD69
:103640001C01002010B55C22125C012A07D0022A5E
:1036500005D0016E022211430166012010BD0A68E7
:10366000002A0ED00A7B0B6952071A430B7A4C6969
:1036700049689B07406C2343C90040180CC00020D8
:1036800010BD0B7A4A699B071A430B7B0C8ADB0639
:10369000240449682343006C1A43890040180260DF
:1036A000EDE730B55C252D5C039C012D05D0016E46
:1036B000042211430166012030BD0901920011432B
:1036C0005A00114300682143803002689209920138
:1036D00011430160002030BDF8B5040005D0254637
:1036E0004035287F002802D006E00120F8BD0020E8
:1036F0006877204600F0C2F8206881691022914363
:10370000816100F0E5F90746012604E000F0E0F9E8
:10371000C01B0A2810D8206880690007F6D42068EA
:1037200081693143816100F0D3F907460AE000F076
:10373000CFF9C01B0A2805D9206E3043206603202C
:103740002877D2E720688069C007F0D020688169B7
:1037500002221143816147482168814202D14649D2
:1037600060680860207C40210128206882693AD086
:103770000A438261607C01218903012820688269F3
:1037800033D08A438261A07C01210903012820688B
:1037900082692CD00A43826121688869032212025F
:1037A0009043A2681043886120688169A4229143F4
:1037B000816121680A69102082430A61E168012958
:1037C00017D000291DD02022022916D021688B692C
:1037D00080273B438B6121680B6903430B61E068E1
:1037E00003280AD00DE08A43C3E70A43CAE78A43A5
:1037F000D1E720688169042201E0206881691143D2
:103800008161207E7F21400649064018E169090256
:10381000FF3901390843216A491E0843A18A0A0475
:1038200001210904521A10432268D0610320A268C2
:103830000002824210D1E26AA06A1202FF3A401EE0
:10384000013A1043226B1201103A1043A28C120469
:10385000511A08432168C86020688030016CE26B0F
:10386000114301642046FFF7A1FE0020A0652066F9
:103870002E77F8BD006400400065004010B59AB096
:103880000446142113A8FCF7E2FC4C216846FCF71F
:10389000DEFC16492068884225D10120400600241C
:1038A00000901294684600F057FD002801D0FFF701
:1038B0007AFE0F48C26B81140A43C263C26B0A408E
:1038C0001892426B02210A434263406B13AA0840DC
:1038D00018900320000213C20320179013A9169416
:1038E000044800F037F81AB010BD00000064004032
:1038F0000010024000040050014640310A7F012AB6
:1039000005D0016E04221143016601207047022296
:103910000A7701688A69520852008A6100210166AB
:10392000084670477047000070B5084D0446E868C7
:10393000204203D0EC60204600F00AF828692042BB
:1039400003D02C612046FFF7EDFF70BD0018024048
:1039500070470000F0B5002303249DE001259D4041
:103960002A4072D00E79B607B60F012E01D0022E72
:1039700016D186682746B4465E00B646B74066460E
:10398000BE43B446CF687646B74066463743876045
:103990004668AE430D79ED06ED0F9D403543456019
:1039A0000D79ED43AD0708D0C5685F002646BE40DF
:1039B000B5438E68BE402E43C6600D79AD07AD0F8E
:1039C000022D0ED1DD08AD002D18AC462D6A5E0724
:1039D000F60E0F27B740BD430F69B7402F4365462A
:1039E0002F6205685F002646BE40B5430E79B607D4
:1039F000B60FBE402E4306604D68AD03AD0F4AD0F2
:103A00009E08284DB6007519AC462D6E9E07F60E21
:103A10000F27B740BD4305273F07B84201D1002714
:103A200015E0214FB84201D1012710E01F4FB842E5
:103A300001D102270BE01E4FB84201D1032706E057
:103A40001C4FB84202D1042701E024E00527B7400B
:103A50002F43144D664637662D684E689543F6022F
:103A600000D515430F4F3D607D684E689543B60203
:103A700000D515437D600B4E803675684F689543C1
:103A8000BF0300D51543756035684F689543FF0344
:103A900000D5154335605B1C0A681546DD4000D033
:103AA0005CE7F0BD00180240000400500008005020
:103AB000000C0050001000500069084000D00120A8
:103AC0007047002A01D08161704781627047000011
:103AD00001488068704700001C01002070B5024654
:103AE00040325378202B1CD11378012B19D001239D
:103AF000137024245470046825689D43256004686D
:103B000025681E03B5432560046825680D432560BC
:103B10000068016819430160202050700020107077
:103B200070BD022070BD70B5024640325378202B24
:103B30001BD11378012B18D0012414702423537047
:103B400003681D68A5431D6005682B680F263602B3
:103B5000B3430902194329600068016821430160E9
:103B6000202050700020107070BD022070BD406C8D
:103B70007047000070B5040006D0254640356878CF
:103B80000026002802D005E0012070BD2E702046DE
:103B900000F0BCFA242068702068016849084900D8
:103BA00001600F2160680906884321680861216867
:103BB0008A680120C00382438A60E1680129A16804
:103BC0002FD0212292021143226891600121E268E4
:103BD000C902022A2268536825D08B4353602168AA
:103BE0004A68124B1A434A602168CA688243CA6015
:103BF000616920690843A169090208432168C86016
:103C0000216AE06908432168086020680168012290
:103C1000114301606664202068702663AE70002046
:103C200070BD0143D0E70B43D8E7000000800002DD
:103C3000FFB50446002083B02546403501906A78E0
:103C4000202A70D122689269D24312046BD52A7857
:103C5000012A68D001222A7024226A7060648F05CC
:103C6000BF0DE06801280AD03048012138188902C8
:103C7000884321684860FFF72BFF06460CE02C487C
:103C8000F3E70698401C07D0FFF722FF811B069838
:103C900081423ED800283CD0216888698969800625
:103CA000C00FC906C90F0843EBD020688169C9431A
:103CB000C90619D50096002220212046069B01F056
:103CC0007FFD002808D0606C04281BD121682020CB
:103CD000C8610020606415E021682020C861687018
:103CE0000020287007B0F0BD1021C16100960022AD
:103CF00020212046069B01F063FD002802D12168A7
:103D00002020C8610198401C01460190059881421D
:103D1000A7D320206870616C014361640020287083
:103D20000120DFE7FFE70220DCE7000000280002B7
:103D300000200002FFB5054604464035687881B092
:103D4000202877D12878012874D001202870FFF727
:103D5000BFFE0746012200901923D103204601F03F
:103D60002FFD002851D1212068701020A870002656
:103D7000666403986062049961856663628D39495F
:103D8000FF2A03D9FF222285CB0206E0628D22851D
:103D900001235B061204120C0FD022680078906297
:103DA000606A401C6062608D401E6085208D401EF0
:103DB0002085401CC2B2009101E000220091204603
:103DC000029901F0E7FC16E001F05EFD00281CD12D
:103DD000606A216800788862606A401C6062608D59
:103DE000401E6085208D401E80B22085618D002997
:103DF00001D000280CD0608D0A9900283A46204650
:103E0000E2D101F016FD00281DD0012005B0F0BD63
:103E100000970022802120460A9B01F0D1FC002857
:103E2000F3D1608DFF2806D9FF22228501231B06CE
:103E30000096C4E714E0608D20850096208D012354
:103E4000C2B25B06BBE721682020C86121684A68CE
:103E5000054B1A404A606870AE702E700020D5E79E
:103E60000220D3E70020008000E800FEFFB50546F1
:103E700004464035687883B0202875D10C98002816
:103E800014D00D98002811D0287801286CD001207A
:103E90002870FFF71DFE0746012200901923D10369
:103EA000204601F08DFC002874D103E0012040027F
:103EB00060646FE0222068704020A870002666646D
:103EC0000C9860620D98608566630E98009001976B
:103ED00004A90EC9204601F0FDFB002801D02E7078
:103EE00058E0618D3448FF2905D9FF22228501233E
:103EF0001B06009006E0618D21850090208D012336
:103F0000C2B25B062046049901F044FC00970022EF
:103F1000042120460E9B01F053FC00283AD1206872
:103F2000406A616A0870606A401C6062208D401EB1
:103F300081B22185608D401E6085608D00281FD074
:103F400000291DD100970022802120460E9B01F000
:103F500037FC00281ED1608DFF2806D9FF2222855C
:103F600001231B06009607E024E0608D2085009663
:103F7000208D0123C2B25B062046049901F00AFCA1
:103F8000608D0028C2D13A4620460E9901F051FCBE
:103F9000002802D0012007B0F0BD20682021C161B7
:103FA00020684268054B1A4042606970AE702E70FE
:103FB0000020F0E70220EEE70024008000E800FE89
:103FC000FFB5054604464035687883B0202872D195
:103FD0000C98002814D00D98002811D028780128BA
:103FE00069D001202870FFF773FD07460122009079
:103FF0001923D103204601F0E3FB002871D103E02F
:104000000120400260646CE0212068704020A870AC
:10401000002666640C9860620D98608566630E9851
:104020000090019704A90EC9204601F083FB0028E7
:1040300001D02E7055E0608DFF2805D9FF22228522
:1040400001231B06009606E0608D20850096208DDA
:104050000123C2B25B062046049901F09BFB3A465D
:1040600020460E9901F010FC00283AD1606A2168C0
:1040700000788862606A401C6062608D401E6085C6
:10408000208D401E80B22085618D00291FD0002820
:104090001DD100970022802120460E9B01F090FB4D
:1040A00000281ED1608DFF2806D9FF22228501231A
:1040B0001B06009607E024E0608D20850096208D89
:1040C0000123C2B25B062046049901F063FB608DB8
:1040D0000028C4D13A4620460E9901F0AAFB0028D8
:1040E00002D0012007B0F0BD20682021C161206806
:1040F0004268054B1A4042606970AE702E70002015
:10410000F0E70220EEE7000000E800FEF0B599B00D
:104110000446142113A8FCF79AF84C216846FCF7D2
:1041200096F828492068284C122606270025884240
:104130001ED1202000900695684600F00DF9002859
:1041400001D0FFF730FA616B022001436163616BBC
:10415000159501401891C0201797169513A941C1D4
:104160001A480839FFF7F6FBE16B0120400522E011
:104170001749884224D1402000900795684600F0F6
:10418000EBF8002801D0FFF70EFA606B012108431D
:104190006063606B1595084018900320C00213A956
:1041A0001797169541C1052000070839FFF7D2FB84
:1041B000E16B012080050143E163E16B014018914F
:1041C00019B0F0BD0054004000100240000400503F
:1041D0000058004002488168027889188160704761
:1041E0001C01002010B50848002401688215114305
:1041F0000160032000F00AF8002801D0012401E04A
:1042000000F052F8204610BD0020024030B50546AF
:104210001F4887B002680121C9030A430260006891
:104220000840009005A901A800F082FA049800282F
:1042300015D000F099FA40001649FBF795FF411E92
:104240001648154A0260164AC260416000210161A9
:104250008160816100F0E8FD040003D015E000F00A
:1042600083FAE9E70D4800F017FE04000DD1132092
:1042700000F034F8042D07D200222946132000F064
:1042800039F80848056000E00124204607B030BD39
:104290004010024040420F00002000404403002034
:1042A000E70300002001002008B50B480168012247
:1042B0001143016000681040009007484038C26B0D
:1042C00001040A43C263C06B08400090032040020F
:1042D00000F05EFD08BD000040100240002805DB34
:1042E000C106C90E012088400149086070470000DE
:1042F00000E100E010B503F075FB10BD10B50F4CE8
:10430000216803225202914301432160C11FFF39FA
:10431000FA390ED10A480621006848430949FBF7DB
:1043200023FF401C02E0002805D0401E61694905BA
:10433000F9D4002010BD032010BD00000070004023
:104340002801002040420F000248016882151143F5
:104350000160704700700040FEB504460068002709
:10436000984D994E800355D500200090F06BC00009
:1043700007D4F16BA8050143F163F16B0140012003
:10438000009092480168821511430160FFF7A0FB7D
:10439000019005E0FFF79CFB0199401A022825D8FF
:1043A0008A480068C005F5D5E8690321090208407C
:1043B0000FD0216C81420CD0E86903210902EA691F
:1043C0008843012109040A43EA61EA698A43EA61F0
:1043D000E861C0070FD0FFF77BFB019008E0FFF713
:1043E00077FB0199411A7A48814201D9032709E0F4
:1043F000E8698007F3D5E869032109028843216C45
:104400000843E8610098002804D0F16B0120000700
:104410008143F1632078C00705D06869616880082E
:104420008000084368612078800705D568690C2101
:104430008843A168084368612078400705D568690A
:1044400030218843E168084368612078C00606D5BA
:1044500068690321890288432169084368612088CB
:10446000C00406D5686903210902884361690843CD
:1044700068612088800506D568690321890488431E
:10448000A16A084368612088400506D56869032150
:1044900009058843E16A084368612078800606D5EB
:1044A0006869032109038843A1690843686120788A
:1044B000400606D56869032189038843E1690843FA
:1044C0006861208840040ED56869216B80008008EF
:1044D000084368610121206B8907884203D1F06895
:1044E00089130843F0602068000305D568694021FE
:1044F0008843616B084368612068810235480BD5A9
:1045000069698210A36B914319436961A16B914260
:1045100002D1F1680143F160216849020AD5696955
:10452000E26B814311436961E16B814202D1F16821
:104530000143F160218809050DD5A969226A89081E
:1045400089001143A961216A012904D1F16801227E
:1045500012041143F160218889040DD5A9690C2248
:104560009143626A1143A961616A042904D1F16827
:10457000012212041143F1602168C9010ED5A96915
:10458000032212039143626C1143A9610122616C01
:104590005203914202D1F1680143F160216889011F
:1045A0000DD5A969032212029143A26C1143A9619E
:1045B000A26CD11FF93902D1F1680143F16038468C
:1045C000FEBD00004010024000100240007000409C
:1045D0008813000000000001F8B50F46060043D024
:1045E0004D4D28684007400FB84213D22868C008D4
:1045F000C00038432860FFF76BFA044605E0FFF778
:1046000067FA011B4548814261D828684007400F7E
:10461000B842F4D13068424C81070DD5400704D52B
:10462000A068072109030843A060A0680F210902C0
:104630008843B1680843A0603078C00732D0706802
:1046400001280AD002280BD000280FD0344940316D
:1046500003280ED0C969890704E02168890301E0B5
:1046600021688901002906DB0120F8BD2168490580
:10467000F8E7096AEFE7A168C908C9000143A1602A
:10468000FFF726FA009006E0FFF722FA0099411A98
:10469000224881421BD8A068382108407168C900AF
:1046A0008842F1D128684007400FB84217D91A480C
:1046B0000168C908C90039430160FFF709FA0546D6
:1046C00007E0FFF705FA411B1448814201D9032096
:1046D000F8BD114800684007400FB842F1D130786A
:1046E000400706D5A068072109038843F1680843FD
:1046F000A06000F04DF8A1683C2289091140094AE8
:10470000515CC906C90EC8400749086007480068DF
:10471000FFF77CFDF8BD0000002002408813000078
:1047200000100240DCAB000828010020200100201E
:1047300010B5072202600A4A93685B075B0F43606B
:1047400093680F24240223408360926807231B038D
:104750001A40C260034800684007400F086010BD5F
:10476000001002400020024006480749006889689E
:10477000064A4904490F8900515CC906C90EC84060
:104780007047000028010020001002401CAC000807
:1047900010B5204CA068204A8006400F16D0A068B3
:1047A0008006410F501001290FD0A1688906490FDA
:1047B000022912D0A0688006400F042823D0A068E8
:1047C0008006400F032821D0002010BD2068012161
:1047D0008004400F8140104612E0E1688B07E168D9
:1047E0009B0F4906490F491C032B00D01046FBF7CD
:1047F000BBFCE1684904490E4843E168490F491C84
:10480000FBF7B2FC10BD0120C00310BD7D200002EB
:1048100010BD0000001002400024F400F8B50400B0
:104820007ED020783827C007FE4D002846D0A868E3
:10483000E96838408907890F102802D008280BD072
:1048400001E0032908D001206268000482420AD1F5
:1048500029680143296015E0286880032ED5606827
:104860000028DDD02AE0052301211B0489049A4297
:104870002A6802D10A432A60EAE782432A6028684C
:1048800088432860606800280CD0FFF721F90646AD
:1048900004E0FFF71DF9801B642873D828688003A3
:1048A000F7D50BE0FFF714F9064604E0FFF710F91F
:1048B000801B6428F1D828688003F7D4207880070B
:1048C00069D5A868E96838408A070721920FC902AC
:1048D000102802D0002813D001E0022A10D0E0688E
:1048E000002846D028688843216908432860286842
:1048F000FF21013108432860FFF7EAF806462CE063
:104900002A68520502D5E268002A89D06A687F23A6
:104910001B029A4363691B021A436A60002800E085
:104920008DE00ED1286888432169084328602868F3
:1049300001218004400F8140BB48FBF715FCBB49B7
:104940000860BB480068FFF761FC002877D122E0CF
:10495000FFF7BEF8801B02289FD828684005F7D5CE
:1049600068687F2109028843616909020843686019
:1049700011E02968FF20013081432960FFF7A8F882
:10498000064605E0B5E0FFF7A3F8801B022884D8AF
:1049900028684005F7D42078A64E00072ED5A868D1
:1049A0008006400F03280AD0A0690028306A16D07C
:1049B000012108433062FFF78BF807460BE0306AAD
:1049C00080071BD5A06900289FD017E0FFF780F86B
:1049D000C01B0228C0D8306A8007F7D50EE0400817
:1049E00040003062FFF774F8074604E0FFF770F804
:1049F000C01B02287DD8306A8007F7D42078400792
:104A00006BD5A86800278006400F042818D0E86BF3
:104A1000C00008D4E96B012000070143E963E96B9A
:104A200001400127009184480168C90519D4016833
:104A3000821511430160FFF74BF800900DE083E011
:104A4000F069800749D5A06800287DD045E0FFF7D0
:104A50003FF80099401A02284BD877480068C005F3
:104A6000F5D5A168012910D004200529F16911D0DC
:104A700049084900F161F1698143F161A0680028AA
:104A800016D0FFF725F800900EE0F06901210843E9
:104A9000F061F3E70143F161F7E7FFF719F80099D7
:104AA000411A6648814224D8F0698007F5D50DE0A7
:104AB000FFF70EF8009006E0FFF70AF80099411A98
:104AC0005E4881427FD8F0698007F5D4002F04D07A
:104AD000E96B012000078143E9632078800624D533
:104AE0000120E16980050029296810D0014329606F
:104AF00000E068E0FEF7ECFF064604E0FEF7E8FFA2
:104B0000801B02285FD828680002F7D50DE081439A
:104B10002960FEF7DDFF064604E0FEF7D9FF801BA3
:104B2000022850D828680002F7D4206A002844D010
:104B3000A9688906490F02294FD0012636060228A6
:104B4000286807D0B04300E07FE02860FEF7C0FF90
:104B500004463AE0B0432860FEF7BAFF074604E097
:104B6000FEF7B6FFC01B02282DD828688001F7D4B5
:104B7000A16A606AE26A0843216B1202114308438A
:104B8000616B0843A16B0843E9682D4A1140084353
:104B9000E860286830432860E86801210907084375
:104BA000E860FEF795FF044604E0FEF791FF001B66
:104BB000022808D828688001F7D548E0FEF788FF6A
:104BC000001B022801D90320F8BD28688001F5D414
:104BD000E8681C490840E86039E00128F4D0E8683A
:104BE000626A8107890F91422FD17021A26A014028
:104BF00091422AD17F21E26A0902014012029142C8
:104C000023D11F214904226B014091421DD107216C
:104C10004906626B0140914217D1400FA16B4007DA
:104C2000884211E0001002400024F4002801002016
:104C30002001002040100240007000408813000056
:104C40008C80C111FCFFFEEE01D00120F8BD0020D8
:104C5000F8BD000070B504460120002C4BD025465D
:104C60002035687A002806D128721120C0026060C1
:104C7000204600F047F8022068722068C168C943E6
:104C8000C90639D5CA2141622168532048622046AD
:104C900002F003F9002829D120688169184A1140DF
:104CA000816121688869A268E369104362691A43D7
:104CB0001043886121682069086120680169A28920
:104CC000120411430161204602F00AF900280DD1B7
:104CD00021688A69D200D2088A6121688A69636A78
:104CE000A6691A43236A33431A438A612268FF2163
:104CF0005162002801D070BD00200121697270BD91
:104D0000BFFF8FFB10B594B004464C216846FBF7FB
:104D10009EFA1049206888421AD101204004009070
:104D2000401210906846FFF717FB002801D0FEF7ED
:104D30003AFC0948C1690122D2031143C161064806
:104D40004038C26B01150A43C263C06B0840139020
:104D500014B010BD002800404010024070B5044659
:104D600021680A48C860FEF7B3FE7D260546F600B6
:104D700006E0FEF7ADFE401BB04201D9032070BD36
:104D80002068C0688006F4D5002070BD5F00010077
:104D900003490A6803235B029A4302430A6070478F
:104DA000000001407047704770470000F0B50346AF
:104DB00020331A7F012A2DD001221A7702225A7736
:104DC00005686A68AC68144EB54204D10F273F05E8
:104DD000BA434F683A437027BA430F6817436F606E
:104DE0000068B0420CD001229207904208D00B4AD2
:104DF000904205D00A4A904202D00A4A904204D119
:104E000080228968944321438160012058770020E3
:104E10001877F0BD0220F0BD002C014000040040D6
:104E2000000800400040014070B5040005D0254650
:104E30002035687F002802D006E0012070BD0020E8
:104E40002877204600F016F802206877211D206898
:104E500002F0CEF8012240342272AA77EA7722705B
:104E60006270A270E27022716271A271E2716A775F
:104E7000002070BD08B500680549884207D1054883
:104E8000C26B02210A43C263C06B0840009008BD98
:104E90000004004000100240014620314A7F012AF0
:104EA00001D00120704702224A770168CB680122B5
:104EB0001343CB6000680E4988420BD091078842AB
:104EC00008D00C49884205D00B49884202D00B49D2
:104ED000884207D181680A4B1940062905D0DB1F9B
:104EE000994202D001681143016000207047000020
:104EF000002C014000040040000800400040014038
:104F000007000100F8B5054604462035287F002635
:104F1000012817D001272F77022068772268906830
:104F20002F4B1840FF231B029843906008685028BD
:104F300038D00EDC20284FD006DC00284CD01028BA
:104F40001ED149E00220F8BD302845D0402817D1B5
:104F50003AE060282ED0702818D001221203801A5F
:104F60000FD090420CD1CB684A688968206802F063
:104F700099F820688168012292031143816000E062
:104F800001266F77002028773046F8BDCB684A6845
:104F90008968206802F086F82168886877221043C3
:104FA0008860EEE7CA684968206802F005FA502177
:104FB000206806E0CA684968206802F027FA602184
:104FC000206802F07BF8DCE7CA684968206802F0D4
:104FD000F3F940212068F4E7226801461046F0E723
:104FE00088FFCEFF70470000F8B504460068C66829
:104FF00005690027A907002913DAB10711D5F91EA1
:10500000016101202077206880698007204602D056
:10501000FFF7E8FF04E000F0B3F8204600F06CF979
:105020002777680716D5700714D504202168C04378
:10503000086102202077206880698005800F204663
:1050400002D0FFF7CFFF04E000F09AF8204600F00E
:1050500053F92777280715D5300713D5082021687D
:10506000C0430861042020772068C069800720467B
:1050700002D0FFF7B7FF04E000F082F8204600F00E
:105080003BF92777E80616D5F00614D510202168DD
:10509000C0430861082020772068C0698005800F20
:1050A000204602D0FFF79EFF04E000F069F820469A
:1050B00000F022F92777E80708D0F00706D0012092
:1050C0002168C0430861204600F018F9280601D481
:1050D000A80407D5300605D5216813480861204685
:1050E000FFF761FEE80507D5300605D521680F48B2
:1050F00008612046FFF756FE680608D5700606D5FB
:1051000040202168C0430861204600F001F9A8064C
:1051100008D5B00606D520202168C0430861204686
:10512000FFF742FEF8BD00007FDFFFFFFFFEFFFF3D
:1051300010B586B0044614216846FBF788F80D497F
:105140002068884213D10C48426B02210A43426313
:10515000406B0191084005902020009000200290B3
:1051600003900120049069460448FEF7F3FB06B063
:1051700010BD000000040040001002400004005078
:105180007047F8B504460020264620360090307F50
:105190000D4601280CD00120082730770C2A48D072
:1051A00008DC002A10D0042A1ED0082A06D130E0DC
:1051B0000220F8BD102A52D0142A60D0012000909D
:1051C000002030770098F8BD206801F081FF20684A
:1051D0008169394381612068816904229143816139
:1051E000206881692A6911E0206801F0B9FF206810
:1051F00081690122D20211438161206881695210C4
:1052000091438161206881692A6912021143816199
:10521000D6E7206801F0E8FF2068C1693943C16121
:105220002068C16904229143C1612068C1692A696B
:1052300012E0206802F01CF82068C1690122D20245
:105240001143C1612068C269012189028A43C26198
:105250002068C1692A6912021143C161B0E7206860
:1052600002F040F82068416D394341652068426D85
:1052700004218A4342652068416D2A6912E0206852
:1052800002F064F82068416D0122D20211434165A9
:105290002068426D012189028A4342652068416D80
:1052A0002A691202114341658AE770B5040005D0EE
:1052B00025462035687F002802D006E0012070BD19
:1052C00000202877204600F016F802206877211D7C
:1052D000206801F08DFE012240342272AA77EA771D
:1052E00022706270A270E27022716271A271E2712A
:1052F0006A77002070BD70477047000010B50068E5
:105300000249884201D1FEF765FF10BD0020004030
:10531000704710B5014680310A79012A15D0012263
:105320000A7124228A6002681368146864086400A1
:105330001460012252079343002242660068036012
:10534000202088600A71104610BD022010BD70B583
:10535000044605468034207901281AD001202071A6
:105360002420A06028680668026852085200026083
:105370002868826807235B069A430A4382602846AE
:1053800002F060F8286806602020A06000202071EC
:1053900070BD022070BD70B504460546803420798A
:1053A000012819D0012020712420A06028680668F7
:1053B000026852085200026028688268D200D2084F
:1053C0000A438260284602F03DF8286806602020E3
:1053D000A0600020207170BD022070BD70B5040077
:1053E00005D025468035A868002802D006E00120B7
:1053F00070BD00202871204600F026F82420A86007
:1054000020680168490849000160A06A002802D0AC
:10541000204602F039F8204602F02AF90128E7D0A8
:10542000206841680922D202914341602068816866
:105430002A229143816020680168012211430160A2
:10544000204602F087F870BD30B599B004461421AB
:1054500013A8FAF7FCFE4C216846FAF7F8FE184943
:105460002068884229D101240025684601950094CE
:10547000FEF772FF002801D0FEF795F81148026888
:10548000012189030A4302600068084018900D4812
:105490004038416B21434163406B1595C007C00FF5
:1054A000189003204002139002201490052013A9A5
:1054B000169517940007FEF74DFA19B030BD00009D
:1054C0000038014040100240FFB5064604468036D1
:1054D000B06883B00D46202802D0022007B0F0BD8E
:1054E000002D3BD00598002838D00120A16800038A
:1054F000814204D12069002801D1E8072ED1002083
:1055000030612120B060FEF7E3FA01902746403772
:105510000598B8820598F8820120A16800038142AD
:1055200002D12069002802D00295002522E0002047
:1055300002901FE000228021204602F0E3F90028BB
:1055400025D1029800280BD0216800788862029843
:10555000401C0290B1682120884308D00120BDE79B
:1055600028882168C005C00D8862AD1CF2E7F88A62
:10557000401EF882F88A019B002806980090D9D135
:1055800000224021204602F0BDF9002803D020204F
:10559000B0600320A2E72020B06000209EE7FEE775
:1055A00001688A69D243920701D400228A620068A6
:1055B0008169C943C90703D081690122114381610F
:1055C00070470000F7B50446006882B08169002684
:1055D0002746C906403735460092002945DA102192
:1055E000C16132E00398401C2FD0FEF771FA009998
:1055F000411A0398814201D8002826D120684168C9
:10560000012292031140BA788369DB431B0417D44B
:1056100001239B03994213D0202A11D041681943DA
:105620004160FEF755FA00900AE0FEF751FA014694
:105630000098081A192803D920200543012604E000
:1056400020688069C0438006EFD420688069C04329
:10565000800602D5002EC5D004E0002E02D12168BC
:105660002020C86104200543012621688869C205FD
:1056700004D5012215431202CA610126410508D54D
:1056800008210D43CA012168CA610126800502D4A0
:105690000AE0800506D50220054321680002C861A2
:1056A000012601E0002E0FD02046FFF779FF206889
:1056B0004168074A11404160606C284360642020C3
:1056C00078700020B8703870304605B0F0BD00002A
:1056D00000E800FEF8B50446164615481D46DAB245
:1056E0000090079F0023204600F054F83A462046D9
:1056F000069900F0C9F8002818D12846F5B201280B
:1057000009D02168300A88623A462046069900F09E
:10571000BBF800280AD1206885620097002240214A
:105720002046069B00F04CF8002800D00120F8BD70
:1057300000200080F8B50446164615481D46DAB22A
:10574000C3020090079F204600F024F83A46204606
:10575000069900F099F8002818D12846F5B20128DA
:1057600009D02168300A88623A462046069900F03E
:105770008BF800280AD120688562009700228021DA
:105780002046069B00F01CF8002800D00120F8BD40
:1057900000200080890510B5890D12041143029C78
:1057A000194302682143490050684908630D034CBE
:1057B000234398430843506010BD0000FF63FF037C
:1057C000F8B51D4617460E46044626E029462046F3
:1057D000069AFFF7F7FE002801D00120F8BD681CEB
:1057E0001BD0FEF775F90699401AA84201D8002D82
:1057F00013D120688169304688430CD00020B8421C
:105800000BD1616C20200143616440346070002042
:10581000A0702070E1E70120F1E72068816930463F
:10582000884304D00020B842D0D00020F8BD012029
:10583000F9E770B516460D4604461EE03246294685
:105840002046FFF7BFFE002801D0012070BDFEF703
:105850003FF9801BA84201D8002D0ED12068806935
:10586000C043800609D5616C202001436164403447
:1058700060700020A0702070E7E720688069C04356
:105880008006DBD4002070BD70B516460D46044678
:1058900020E0324629462046FFF794FE002801D03A
:1058A000012070BD681C15D0FEF712F9801BA842BC
:1058B00001D8002D0ED120688069C043800709D52A
:1058C000616C202001436164403460700020A0704E
:1058D0002070E5E720688069C0438007D9D40020A4
:1058E00070BD000010B50921C9010348FAF7AFFCEB
:1058F00000F094F810BD0000A004002010B590281E
:1059000011D240290FD2CB084C07640F0121A140CE
:10591000054CC0000019002AC25CC9B201D00A437C
:1059200000E08A43C25410BDA004002010B5192025
:105930004001FDF775FE0021AE2000F02FF9002197
:10594000084600F02BF90021102000F027F9002173
:10595000402000F023F90021812000F01FF90021F0
:10596000CF2000F01BF90021A12000F017F9002141
:10597000C82000F013F90021A62000F00FF9002143
:10598000A82000F00BF900213F2000F007F90021CA
:10599000D32000F003F90021084600F0FFF80021B1
:1059A000D52000F0FBF80021802000F0F7F800215E
:1059B000D92000F0F3F80021F12000F0EFF80021E9
:1059C000DA2000F0EBF80021122000F0E7F80021C7
:1059D000DB2000F0E3F80021402000F0DFF8002198
:1059E000202000F0DBF80021022000F0D7F8002191
:1059F0008D2000F0D3F80021142000F0CFF8002112
:105A0000A42000F0CBF80021A62000F0C7F8FFF793
:105A100069FF0021AF2000F0C1F810BD70B5104E35
:105A200000242046B030C0B2002100F0B7F80021B9
:105A3000084600F0B3F80021102000F0AFF8002570
:105A4000E8008019005D012100F0A8F86D1CEDB29E
:105A5000802DF5D3641CE4B2082CE2D370BD0000A5
:105A6000A0040020FFB589B00998203A1C460E46D4
:105A7000059107905F2A60D260080490082C12D02C
:105A80000C2C03D0102C01D0182C56D1E008610743
:105A900000D00121401804994843C0B20190D0B20F
:105AA0000390002045E00620F8E7082C0FD00C2CCE
:105AB00012D00398102C14D02421484321494118B6
:105AC000009800270D5CE8070ED0129A10E00398AA
:105AD000062148431C49F2E703980C2148431B491F
