:020000040800F2
:10000000C80D00209D010008295A0008EF42000891
:1000100000000000000000000000000000000000E0
:10002000000000000000000000000000A90100081E
:100030000000000000000000AB010008AD01000856
:10004000AF010008AF010008AF010008AF010008D0
:10005000AF010008AF010008AF0100082926000821
:10006000AF010008AF010008AF010008AF010008B0
:10007000AF010008AF010008AF010008AF010008A0
:10008000AF010008AF010008AF010008495B00089C
:10009000AF010008AF010008AF010008AF01000880
:1000A000AF010008AF010008AF010008AF01000870
:1000B000AF010008AF010008AF01000800F002F82E
:1000C00000F05DF80CA030C8083824182D18A2469E
:1000D000671EAB4654465D46AC4201D100F04FF876
:1000E0007E460F3E0FCCB6460126334200D0FB1AA7
:1000F000A246AB46334318472883000048830000DC
:10010000103A02D378C878C1FAD8520701D330C860
:1001100030C101D504680C60704700000023002442
:1001200000250026103A01D378C1FBD8520700D32E
:1001300030C100D50B60704710B5662902D106F0BA
:1001400031FA10BD642902D100F0FCF810BD752908
:1001500002D100F0F7F810BD782902D100F028F99B
:1001600010BD002010BD1FB500F0B2FE040000203D
:10017000002106F0EFF8E0601FBD10B510BD01F0E2
:1001800079FA1146FFF7EFFF06F050F801F091FA07
:1001900003B4FFF7F2FF03BC06F037F807488047C7
:1001A00007480047FEE7FEE7FEE7FEE7FEE7FEE75B
:1001B00004480549054A064B70470000455B0008A6
:1001C000BD000008C8070020C80D0020C809002095
:1001D000C80900207047FEB5054610460C46184376
:1001E00073D0AE468C460020AD1A01469C4167D3C1
:1001F0006646002701243D46B61A9D4102D31346A8
:100200003A462124654676462F04360C3E432D0C93
:10021000B61A9D4104D3150C1B042B431204103451
:10022000654676462F06360A3E432D0AB61A9D418C
:1002300004D3150E1B022B43120208346546764682
:100240002F0736093E432D09B61A9D4104D3150FD9
:100250001B012B431201241D65467646AF07B608E5
:100260003E43AD08B61A9D4104D3950F9B002B4326
:100270009200A41C65467646EF0776083E436D085B
:10028000B61A9D411AD392185B41641C16E00018FF
:10029000764665464941B71A9D410191009009D3C0
:1002A0006046B11A98418E4684460098019900250F
:1002B000401C6941DD0752082A435B08641EE6D5ED
:1002C0007246634603B0F0BDFFE700200146C0461A
:1002D000C0462A462346F5E70FB4054910B503AAE0
:1002E000029800F0CDFD10BC08BC04B01847000017
:1002F0000000002070B5044685690068C10601D57C
:10030000302600E02026C00707D070BD6268304666
:10031000A1689047206A401C20626D1EF6D570BD12
:1003200070B5044685690078C00707D170BD626862
:10033000A16820209047206A401C20626D1EF6D5DF
:1003400070BD0000F7B5002575291068009914A646
:1003500011D0C046C046002802DA404211A608E08B
:10036000009909688A0701D50FA602E0490704D55C
:100370000EA6012501E0C046C046009F0024243798
:1003800004E000F091FD30313955641C0028F8D1AB
:100390002B4632462146009800F00EFBFEBD0000C1
:1003A000000000002D0000002B00000020000000D5
:1003B00070B504460D4621461068C046C0462188E7
:1003C000090502D50F4A7A4402E00E4A7A440E32F9
:1003D00023460021243305E006070009360F965D09
:1003E0005E54491C0028F7D120780023000705D56A
:1003F000702D03D0002901D002231132204600F0D5
:10040000DBFA70BD4A7D0000F3B50446002081B0E0
:1004100020622046E1688847002872D0252802D053
:100420006268A168ABE0594F00267F442046E1682E
:1004300088472028054608DB312D06D27819203858
:100440000078002801D00643F0E7B00701D504206A
:1004500086430020E0610746A0612A2D0AD0284685
:1004600005F0CCFE002827D0B8000019303D0090E0
:10047000856119E00298BA00121902C891610290D0
:100480002046E1688847012F054617D1E06900281A
:100490001FDA202086431CE000980A218069484327
:1004A00000994019303888612046E1688847054640
:1004B00005F0A4FE0028EFD1012F0AD02E2D08D17F
:1004C0002046E16888470546202006437F1C022F0E
:1004D000C3DBA069002803DA4042A0610120064383
:1004E000F00701D0102086436C2D0BD0682D09D069
:1004F0004C2D3CD06A2D38D0742D38D07A2D36D082
:1005000016E040E0E1682F4620468847B84205469D
:1005100009D16C2F29D001208002E16806432046D2
:100520008847054604E06C2F1DD0FF2001300643AC
:10053000002D28D028464138192803D80120C002B0
:1005400006432035204626602946029A1646FFF7C4
:10055000F3FD002810D001280BD0F61DF008C000D4
:100560000830029055E74020E1E78020D5E70020E1
:10057000D3E7361D02964CE762682846A16890478B
:10058000206A401C44E7206AFEBD00000E7D00008A
:1005900030B5441C03E00178401C00290DD08107D0
:1005A000F9D10B4BDD0104C8D11A91432940FAD08F
:1005B000001B0A0603D0C01E30BD001B30BD0A045C
:1005C00001D0801E30BD0902FCD0401E30BD0000AD
:1005D0000101010101E004C0091F0429FBD28B07BE
:1005E00001D50280801CC90700D002707047002925
:1005F0000BD0C30702D00270401C491E022904D34D
:10060000830702D50280801C891EE3E70022EEE703
:100610000022DFE7002203098B422CD3030A8B421E
:1006200011D300239C464EE003460B433CD40022EA
:1006300043088B4231D303098B421CD3030A8B42FC
:1006400001D394463FE0C3098B4201D3CB01C01ACA
:10065000524183098B4201D38B01C01A5241430995
:100660008B4201D34B01C01A524103098B4201D383
:100670000B01C01A5241C3088B4201D3CB00C01AF0
:10068000524183088B4201D38B00C01A5241430868
:100690008B4201D34B00C01A5241411A00D201468D
:1006A0005241104670475DE0CA0F00D04942031026
:1006B00000D34042534000229C4603098B422DD375
:1006C000030A8B4212D3FC22890112BA030A8B421D
:1006D0000CD3890192118B4208D3890192118B426C
:1006E00004D389013AD0921100E08909C3098B42F1
:1006F00001D3CB01C01A524183098B4201D38B0134
:10070000C01A524143098B4201D34B01C01A5241D6
:1007100003098B4201D30B01C01A5241C3088B421B
:1007200001D3CB00C01A524183088B4201D38B0006
:10073000C01A5241D9D243088B4201D34B00C01A90
:100740005241411A00D20146634652415B101046A5
:1007500001D34042002B00D54942704763465B10ED
:1007600000D3404201B50020C046C04602BD7047DC
:10077000704770470121C9050123411842001B063B
:10078000D3185B0E0AD0C1100722D2068918400781
:100790005242D14201D5520089187047090208D54A
:1007A0000146002A03D0C10FC90700207047104638
:1007B0007047420202D00020024970470721090514
:1007C0000143F4E70000F87FF0B5FF252D04C609CA
:1007D000C209FF2704462E400137CB093E4348405B
:1007E0002A402B400746002A6BD0002B69D0AA4232
:1007F00067D0AB4265D0002800DA32460125ED050E
:1008000029432C4309022002090AD21A4B0C7F24E7
:10081000E31A434C000A7C44E35C7D24240412194F
:1008200014145B00A218884201D3521C00E040005F
:1008300049420C465C4324115C43DB016415E31818
:10084000040A5C43C502200D0C4644436419250A82
:100850005D432303EC0C0D46654300030019EB18C0
:100860004C42A34201D35B18401CD4052018002B36
:1008700007D05B00C91804D3401C002901D14008EF
:1008800040003F2189048A4209D3002A08DC11066E
:10089000090F04D0032149074018C00FC007F0BD5D
:1008A00001224100120689187F2252069142F6D297
:1008B00005214907C84201D59010F0BDFF20C005B1
:1008C000F0BD002F00DA32461648AA4207D2AB42EA
:1008D00005D21902090E17D0F80FC007F0BDFF2589
:1008E00063002D06AB42F9D84900A942F6D8AB42C5
:1008F00001D1A942F2D0A94201D1002101E0610059
:100900004908D0050843F0BD1102090EFBD0FF20B5
:100910000243D005F0BD0A460146104654E70000E8
:10092000337900000000C07F0102C21504D001230A
:10093000DB071943002A0ADB9E239A1A02D40846D1
:10094000D0407047FF2241001206914201D9002099
:100950007047C017C04370471F22030C02D10F22FB
:1009600000041CD0030E01D10002083A030F01D18C
:100970000001121F830F01D18000921E002801DBAD
:100980004000521ED20551180212511819229040EF
:1009900004D3491C002801D1490849000846704782
:1009A000C10FC90700D04042012292071143D3E78B
:1009B00001218907D0E77047FFB504460D4681B095
:1009C000243000902168880604D51022E069914304
:1009D000216000E00120A84201DD471B00E0002764
:1009E0000498A1697A191018081AA0612078C00625
:1009F00002D42046FFF77EFC002608E003986268D8
:100A0000A168805D9047206A401C761C2062049893
:100A10008642F3DB2078C0060AD52046FFF76AFC41
:100A200006E06268A16830209047206A401C20627E
:100A300038467F1E0028F4DC07E000986268A16851
:100A4000405D9047206A401C206228466D1E0028A9
:100A5000F3DC2046FFF764FC2078000602D5022074
:100A600005B0F0BD0120FBE77047FFB50C461E4600
:100A70008FB003CA089009914F007D0D00D16D1E03
:100A8000002108460020C0460321099A8905084034
:100A9000002A03DA8200801840080840800D0128EF
:100AA0000A9002DD0020C0430A90089807430DD049
:100AB000F048F149281848430714189800281DD019
:100AC0007542291E1DDD0A9842421BE01898012834
:100AD00002D00020302104E00020F24305E0215440
:100AE000401CB042FBDB30460022189B0021215401
:100AF0000F998B600A60486013B0F0BDBD1B6D1C80
:100B0000DFE70A9A002900DA69420BA800F07EFAB2
:100B10000BAB07CB03AB07C30899099800F0E2FAC7
:100B20006B4607C30146D5480918002D00910BDD1F
:100B3000D24903980A9A49424018002303A9039016
:100B4000684600F03FFD08E003990A9A0023081860
:100B500003A90390684600F0DFFC6B4607C300045E
:100B6000000C03D00020C043410800E01046189A52
:100B7000002A03D00022009215461EE0751E05D4FF
:100B800000F0AAF9303262556D1EF9D501220843F2
:100B9000079602D000227F1C04E02078302801D183
:100BA00000227F1E002A069787D01EE0112D07DA4B
:100BB00000F092F9303262556D1C02460A43F5D1BD
:100BC000084303D00098002819D00EE00021681EC9
:100BD00005E0235C625C63542254401E491C814240
:100BE000F7DBA81B401E07950690079A189900206E
:100BF000A0540F98079B069A81600CC07CE71126D1
:100C00000020189059E7D21DF0B50D460446D108D2
:100C100093B0C90003C90C900D9105F0B7FA0246D4
:100C20000D98C00F01D02D2007E02068810701D565
:100C30002B2002E04007C00F4001032A0F9001D093
:100C4000072A05DB03462946204600F09BF90EE102
:100C50002078800601D5E76900E006272846652D43
:100C600004D0662814D0672D69D12DE00020112F03
:100C7000009001DB112300E07B1C0CAA03A910A843
:100C8000FFF7F3FE1199002610987D1C0E9142E0AB
:100C900001203B460CAAC0070B900120009003A93D
:100CA00010A8FFF7E2FE119D129810990026002867
:100CB0000E9501D1781C0D18781B02D446427D1C7C
:100CC000761EE81B00903AE0012F00DA0127002091
:100CD000112F009001DD112300E03B460CAA03A96F
:100CE00010A8FFF7C2FE11993D46109800260E91FC
:100CF000217809070BD40E99A94200DA0D4603A901
:100D0000012D04DD4A19203AD27F302A06D0B8429C
:100D100001DA011D04DA012100910FE06D1EEFE7F9
:100D2000002802DC86192D1A03E0411CA94200DDCF
:100D30000D46801B401C00900120C0070B902078BE
:100D4000000705D40098A84202DB0020C0430090B1
:100D500069460020C8720B98012102AF0337C9070A
:100D6000884225D0022010902B2011900B9800284B
:100D70000BDA40420B902D20119006E00B9800F00A
:100D800093F830317F1E0B9039701099481E00295E
:100D90001090F3DC0B980028F0D111987F1E38706A
:100DA0002088000501D5452000E065207F1E3870B1
:100DB00001A8C01BC01D0B900F98002800D0012077
:100DC00041190098C01709180B980818A169081A4A
:100DD000401EA0612078C00602D42046FFF78AFAA0
:100DE0000F98002805D06268A1689047206A401CCF
:100DF00020622078C00625D52046FFF77BFA21E047
:100E0000002E07DB0E98B04204DD03A86268805D07
:100E1000A16802E06268A16830209047206A761CD1
:100E2000401C20620098401E002800900AD100F06B
:100E30004FF8C06862680168405CA1689047206A0A
:100E4000401C206228466D1E0028D9DC07E062683D
:100E50003878A1687F1C9047206A401C20620B995B
:100E6000481E00290B90F2DC2046FFF759FA0320B8
:100E700042E6000001FCFFFF104D0000E1DFFFFF34
:100E8000084B70B50D467B4400F069F804462846CF
:100E900000F0E8FB002802D00020C04370BD2046CF
:100EA00070BD00008353000001468008081A020943
:100EB0001018020A1018020C1018C008820012182C
:100EC0005200891A01E0401C0A390A29FBD27047F6
:100ED00000487047880700200B4670B50246890716
:100EE0008008084319469D08141AA94125090807D6
:100EF000054308092C194841250A01060D43010A3A
:100F00002C194141200C0D0428430D0C00194D41B2
:100F1000002140194D41C00869070843E908840FC2
:100F20008D002543840024184D4124196D41121B66
:100F3000AB4107E00925ED432C1152196341002410
:100F4000401C61411C460A250026551BB441F1D2C4
:100F500070BD000001694A1C02610878704700B545
:100F60008FB00291002105910549019379440391C5
:100F7000114604906846FFF747FA0FB000BD000025
:100F8000E5FFFFFFF8B51F46044601230068DB02BA
:100F9000032601461840072A05DB002801D017A5C3
:100FA00006E017A504E0002801D016A500E016A56C
:100FB000102081432160A069C01E002FA06101D0D4
:100FC000401EA0612046FFF795F9002F09D0384652
:100FD0006268A1689047206A401C2062C01C2062A1
:100FE00006E0206AFAE762682878A1686D1C9047DD
:100FF000761EF8D22046FFF793F9F8BD4E414E0019
:101000006E616E00494E4600696E6600F7B5164681
:101010008AB0334878446C4603467C33C06F5A68C4
:101020009B680DC42E487844763003AC0DC80DC4BF
:101030003720C001081837211B30FFF7F5FA0546A5
:101040000C46803D1B3C02D56442012000E000209C
:101050000027099010E0E0070CD00C2020497843CD
:10106000794432464C3941186846012300F054FA5D
:101070006B4607C364107F1C002CECD1184F7F44D3
:101080002E3F16E0E80712D02001C0190EC80691C5
:10109000089307920068F04201D1981908903246EF
:1010A000012306A903A800F037FA03AB07C36D10AC
:1010B000641C002DE6D10998002806D03246694606
:1010C000012303A800F07EFA05E0012332466946B9
:1010D00003A800F021FA0A9B07C30DB0F0BD000081
:1010E00078710000034640000A4610B5400D0BD051
:1010F0000121C9070F24A40200191C03640821431D
:10110000540D2143D20207E000210120F2E7D40F61
:10111000490021435200401E0029F8DADB0FDB07AB
:10112000184310BDFFB50D46144685B04868516898
:1011300005F014F800910190A868A16805F00EF878
:1011400002910390A868616805F008F8029A1218E5
:101150008242029201D2012000E00020019A0B1885
:10116000D2180028019202D08A4202D903E08A42B2
:1011700001D2012000E00020009908180090686862
:10118000A16804F0EBFF029A12188242029201D287
:10119000012000E00020019A0B18D21800280192CB
:1011A00002D08A4202D903E08A4201D2012000E043
:1011B0000020009908180090286821684000490024
:1011C000400849084018FA49471814E001994000BE
:1011D000C90F08430090019802994000C90F0843C5
:1011E0000190029803994000C90F084302900398A8
:1011F00040007F1E039000980028E7DA0898002836
:1012000001D0EC4E00E00026B74201DA012000E0F8
:101210000020002804902AD0F71BF806C00E15D035
:10122000029B2021091A039A8B401A430392029AC7
:10123000019BC2408B401A430292019A009BC2401C
:101240008B4000991A430192C14000917B110DD04F
:101250006F460320C11A03D500218200B95003E074
:101260008A008100BA587A50401EF3D53746039859
:101270000299002800D0012001430898029100281B
:1012800008460CD0002800D001200199019A490598
:1012900008430121D20AC902D202019200E00121D1
:1012A0000E9B0122D207012B02D0002B03D013E0AA
:1012B000002807D120E0904204D890420CD1019B35
:1012C0000B4209D0019B5918019105D10099491C85
:1012D000009101D17F1C009200280DD010210846FA
:1012E0000020C0460498002806D00F98002803D09C
:1012F000082108460020C04628682168019B009A02
:101300004840C10F0598C90739430EC009B0F0BD68
:10131000FFB587B0099A08980899536892684068A1
:10132000896896460022039317469446089A1268E5
:101330005300099A5B081268520052089A1A9E4B91
:10134000D4180A9A002A01D0352200E040220692E1
:101350000022012315460492DB07059324E0002DAB
:1013600005D175460346039E4D1BB34109D375460F
:101370006646039B491B049D9841059B7519AC4625
:101380005F4163463B4308D0059B049EDD0776081A
:101390002E435B080496059301E0521E641EC50FA0
:1013A000ED0749184041521C069B9A42D7DB002D9D
:1013B00004D17546039A6B1A824101D203200CE0D6
:1013C000039A0B466B404240134303D0014303D0C2
:1013D000012002E0022000E000206146019100218E
:1013E000009702910A99002905D061464002014305
:1013F000704B019102E08007002302909C4201DAC9
:10140000012000E0002007003AD01A1BD006C00ED1
:1014100015D0029D2021019C091AC5408C4025430E
:10142000029C8C4000D001242543019C0295009D24
:10143000C4408D4000992C430194C1400091541147
:101440001DD06D460221002202290CD10320001B71
:1014500007E0002804DB8600AE59002E00D00122F0
:10146000401C0328F5DB081B02D588002A5004E045
:101470008000285810438A00A850491EE3D51C4616
:101480000A98002802980CD0002800D00120019969
:10149000019A490508430121D20AC902D2020192E8
:1014A00000E00121109B0122D207012B02D0002B6A
:1014B00003D013E0002807D11FE0904204D89042E7
:1014C0000CD1019B0B4209D0019B5918019105D108
:1014D0000099491C009101D1641C009200280CD095
:1014E000102108460020C046002F06D01198002881
:1014F00003D0082108460020C04608980999019A9F
:10150000009B006809684840C10F0798C90721433C
:1015100082600AC00BB0F0BD00B585B001930092A7
:101520000A460146002302A8FFF7FCFD02A807C8EF
:1015300005B000BDFFB50A461F4685B00799019367
:1015400001230091014602A8FFF7ECFD02990398E0
:10155000049ECA0F4900D20700920F224908920246
:101560008C1A0021002800DB0C46450013486D084A
:10157000844214D3079A002A04DA441E0026104D30
:10158000F64302E004460D460E46102108460020B0
:10159000C046002F03D0042108460020C046200585
:1015A000E90A0843009908436905F20A1143ADE6C8
:1015B00002C0FFFF013C0000FF3F0000FF070000EA
:1015C000FFFFFF7F00B585B0019300920A460146F8
:1015D000002302A8FFF79CFE02A807C8A8E7FFB5F2
:1015E0000A461F4685B007990193012300910146E1
:1015F00002A8FFF78DFE02990398049ECA0F4900C6
:10160000D20700920F22490892028C1A002100286A
:1016100000DB0C46450011486D08844214D3079A3C
:10162000002A04DA441E00260D4DF64302E004466B
:101630000D460E46102108460020C046002F03D05C
:10164000042108460020C0462005E90A0843009905
:1016500008436905F20A114358E60000FF0700003D
:10166000FFFFFF7FC0688021084070470048704737
:10167000680700207546FFF7F9FFAE46050069468A
:101680005346C008C000854618B020B5FEF790FD4F
:1016900060BC00274908B6460026C0C5C0C5C0C505
:1016A000C0C5C0C5C0C5C0C5C0C5403D49008D4608
:1016B000704710B50446C046C0462046FEF768FD98
:1016C00010BD0000024670B50A4392072AD11E4D94
:1016D000EE0104C808C9541B9443344017D0D0B25B
:1016E000D9B2401A2106014310D190B299B2401AE2
:1016F000210401430AD110021902000A090A401A02
:101700002102014302D1100E190E401A70BD9A42F7
:10171000DFD010BA19BA884201D9012070BD00206B
:10172000C04370BD02780B78401C491C002A09D0C8
:101730009A4207D102780B78401C491C002A01D03C
:101740009A42EFD0D01A70BD0101010110B50521F8
:10175000394800F0A3FC00286BD037483749401CBB
:1017600000F06EFC002864D033480221A43800F059
:1017700067FC00285DD030481F21C902963800F070
:101780005FFC002855D02C480921401D00F086FC44
:1017900000284ED028480121801D00F07FFC002841
:1017A00047D025480921323000F078FC00283FD08E
:1017B00021488821A23800F071FC002839D01E4849
:1017C0000021A13800F06AFC002832D01A4800211C
:1017D000A03800F063FC00282BD0174898219E38D1
:1017E00000F05CFC002824D01348D5219D3800F07F
:1017F00055FC00281DD0104856219C3800F04EFCA6
:10180000002816D00C48E4219A3800F047FC002844
:101810000FD00948E621993800F040FC002808D094
:101820000548E221983800F039FC002801D0012059
:1018300010BD002010BD00000393000023890000AC
:101840001CB500F027FA002000F01EFD03F0CEF8D2
:10185000002003F0BFFA03F0ABFA040005D003F058
:10186000BFF8024621463DA00EE0C82000F01EFF52
:10187000022201A9012003F073F9040007D003F04C
:10188000AFF8024621463EA0FEF726FD1CBD684685
:10189000848803F0B1F80246214642A0FEF71CFD01
:1018A000012000F0F1FC03F066F8002801D044A00C
:1018B0003FE0FFF74BFF002808D0022201A945486E
:1018C00003F0B3F8444C002809D012E043A0FEF71F
:1018D00003FD002000F0D8FC03F068F81CBD68464A
:1018E0008188A181012000F0ADFCA18940A0FEF714
:1018F000F3FC03F05BF8002801D044A019E048484D
:10190000694600F0F1FB02226946622003F09CFA6E
:1019100002226946572003F023F9002806D16846C1
:101920000088C0060BD4222003F04AFA002806D013
:101930003CA0FEF7D1FC002000F0A6FC1CBD00F08E
:10194000E7F9002000F0F6FA20780121484000F085
:101950009BFC3AA0FEF7C0FC1CBD00006271207227
:1019600065736574206661696C207265743A2564DC
:101970002068616C3A30782530386C780D0A0000A8
:10198000627120646576696365206661696C2072A6
:1019900065743A25642068616C3A30782530386C7B
:1019A000780D0A006271206F6B206465763A30789A
:1019B00025303478206372633A25750D0A000000E3
:1019C00062712063666720656E7465722066616966
:1019D0006C0D0A0034920000040000206271206344
:1019E0006667207772697465206661696C0D0A000C
:1019F000627120706F7765725F636F6E6669673AB8
:101A00003078253034780D0A0000000062712063C0
:101A100066672065786974206661696C0D0A00004C
:101A20008306000062712066657420656E61626CD9
:101A300065206661696C0D0A000000006261746DCA
:101A4000616E20696E6974206F6B0D0A00000000E2
:101A500028308C2801D801207047002070470000F2
:101A60001CB501A9622000F0F1F81E4C002802D03C
:101A700068468088A08401A9642000F0E7F8002867
:101A800002D068468088E08401A9122000F0DEF8C8
:101A9000002802D068468088208569467F2000F0B3
:101AA000E9F8002802D068460078207169460320D2
:101AB00000F0E0F8002802D06846007860716946BE
:101AC000052000F0D7F8002802D068460078A07101
:101AD0006946072000F0CEF8002802D0684600785A
:101AE000E0711CBD04000020F8B500271F48204904
:101AF000877041823D463E4687823C461D48694686
:101B0000005D00F0A3F8002824D068461A49008838
:101B10006200885215496D1C4A8A3F18EDB2904206
:101B200000D202464A828A8A904200D810468882B1
:101B3000641CE4B2062CE1D30C4C0D48618A81424E
:101B400000D16682062D09D0E682A08A618A401AF9
:101B50002083F8BD084861004652E9E72946384627
:101B6000FEF758FDE0820120A070EEE7040000209F
:101B7000FFFF0000B4650008C002002038B56946C8
:101B8000682000F063F81D4C002805D068460088E6
:101B900000B200F039FD60836946702000F056F80D
:101BA00000280CD06846008800B200F02DFD0546E4
:101BB000FFF74EFF002801D11A25655FA58369460E
:101BC000742000F043F800280CD06846008800B26A
:101BD00000F01AFD0546FFF73BFF002801D11A254A
:101BE000655FE5831C201E21205E615E4018C10FE9
:101BF000081840102084608B608438BD04000020E9
:101C000030B5104C8DB0606DFEF7B4FD257A627A68
:101C1000236E089009910AA82CC02079E379A27953
:101C2000617904AD0FC52023208BE35E6D46A26C65
:101C3000216C0FC5A38AE28A618A0348FEF74CFB38
:101C40000DB030BD040000206C82000838B50C4691
:101C50000222694602F004FF002804D00449012052
:101C60000870002038BD684600882080012038BDFB
:101C70000400002010B5012202F0F2FE002804D07A
:101C8000034901200870002010BD012010BD000094
:101C90000400002000201A4A01464300401CC0B244
:101CA000D1520628F9D31748174A01644164816468
:101CB000C16441828182C182018341838183C18366
:101CC000018441848184C1840185017141718171E4
:101CD000C171017202658165C16542650166642258
:101CE0004272017041708170C170418181810163D4
:101CF0004163064A8163C262C163C1810182704748
:101D0000C0020020040000200000484200401C45A2
:101D1000F8B5FFF7E9FE69463420FFF797FF1D4C41
:101D2000002803D068460088206460640020E070CA
:101D300069463A20FFF78AFF00280BD068460088E2
:101D400000B2A064FEF72CFE1349FEF73DFDE064EF
:101D50000120E070FFF712FFFFF782FE00210F4A1B
:101D60000F4B104D08464600965BF618AE4200D366
:101D70000121401CC0B20628F5D36079A279104336
:101D8000E279104300D0012022780A4302432272F4
:101D9000F8BD00000400002000007A44C0020020CA
:101DA0003CF6FFFF0907000010B50C4CA0786178E5
:101DB00088434142E08A01420ED000F0FBFBFEF76F
:101DC000F7FD20650649606504F020FB0549FEF734
:101DD000FBFCE0620120607010BD000004000020E8
:101DE00000409C450000C84270B50E4C00250646D8
:101DF0002570FFF78DFF304600F09CF8304600F06C
:101E000013F820780121484000F03EFA60897D21D6
:101E1000801980B2C9006081884202D36581FFF7D2
:101E2000EFFE70BD04000020F8B53F4CA56C002DFE
:101E300001DB2E4600E06E42FEF7BAFD0746304653
:101E4000FEF7B6FD394604F0E1FA3849FEF7BCFC6E
:101E50000646E07800283AD0002D13DD3146606B4D
:101E600004F08EFA05466063FEF75EFD00282ED072
:101E7000A16D0918A165FEF79BFD294604F01EFB24
:101E8000606324E0002D22DA3146A06B04F078FA7A
:101E90000546A063FEF748FD002808D0E16D09184B
:101EA000E165FEF785FD294604F008FBA063314695
:101EB000206B04F065FA20631D4E256E02E004F0ED
:101EC00009FB6D1C31468842F9DA25662063A0784B
:101ED000002805D0208BE189884200D80846E0819F
:101EE00020201021205E615E884200DC08462082AE
:101EF0006179A2791143E279114302D0E16B491C67
:101F0000E16364216172E189502901D35F2161722B
:101F1000372802DB607A401F6072E06B002802D035
:101F2000607A0A386072F8BD0400002000BA5B4A8B
:101F300000409C45F8B5354C0546E078002864D053
:101F4000FFF732FF2846FEF733FD0546A06CFEF78B
:101F500027FD294604F05AFA2D49FEF735FC0146C3
:101F6000E06A04F00DFA2B4D2B4EE062A84202D33A
:101F70000020E06202E0B04200DDE6622749E06A4C
:101F800004F044FA3146FEF71FFC254AE16C064690
:101F9000914218D8234A914215DCA178002912D029
:101FA000E18A00290FD0084600F004FBFEF700FD8F
:101FB0001D4904F02BFA07461C49304604F026FA66
:101FC000394604F0DDF91B4AE16C194E914202DDFD
:101FD0007D26F60503E0184A914200D9174E616D3F
:101FE0000F4604F077FA314604F010FA394604F04F
:101FF000C7F96065A84202D30020606503E0074985
:10200000884200DD6165606D2065F8BD0400002038
:1020100000BA5B4A0000808000409C450000C84236
:10202000CDCCCCBDCDCCCC3D9A99993E3333333F0A
:10203000EC51383E0AD7233C0AD723BC8FC2F53D6A
:1020400038B50A4604466946104600F04DF80222AB
:102050006946204602F0C4FE002808D00549012048
:102060000870214604A0FEF737F9002038BD012092
:1020700038BD000004000020627120646D2077727A
:102080006974653136206661696C20616464723AF6
:102090003078253034780D0A0000000013B504466E
:1020A000012201A902F09CFE002808D0054A012067
:1020B0001070214604A0FEF70FF900201CBD01207E
:1020C0001CBD000004000020627120646D20777246
:1020D00069746538206661696C20616464723A30A5
:1020E00078253034780D0A000870000A487070476F
:1020F00010B502F081FF10BD10B50421014800F0B9
:1021000003F810BDBA650008F8B50E46050019D0F1
:10211000002413E0062161434F19788800280BD072
:102120006A5A002A0FD00146104602F089FFB8888B
:10213000002801D000F0BAFA641CA4B2B442E9D37A
:1021400002F05AFFF8BD00F0B1FAF0E70007000F07
:102150000A2801D2303070473730704710B502F08E
:102160008DFA04480121017000214170084600F0F9
:102170008BF810BD68000020F0B585B014460F46FE
:10218000064602F057FA01250021102323A2084633
:10219000009502F087FB102322A21946002000952B
:1021A00002F080FB0095002E01D020A200E020A2CA
:1021B00010232021002002F075FB3E4223D0502046
:1021C0006946087157204871522088713A20C871B9
:1021D000200BFFF7BBFF69460872200AFFF7B6FF26
:1021E000694648722005000EFFF7B0FF6946887205
:1021F000E0B2FFF7ABFF6946C872002008731023F6
:1022000001AA009502E010230BA2009530210020C6
:1022100002F048FB02F0AAFA05B0F0BD424D53327D
:102220003456000042512049494300004F4B000002
:102230004641494C000000005057523A2D2D2D2D9B
:10224000000000000A4610B50E490B78002B17D08D
:102250004B78002B0AD08B78834207D1CB7883420E
:1022600004D100280CD08B88934209D001234B70F5
:102270008870C870002800D08A800146FFF77CFF74
:1022800010BD00006800002010B5094A117800292F
:102290000DD05178002902D09178814207D00121D8
:1022A00051709070D17892880140FFF765FF10BDA2
:1022B0006800002070B5434C204662788178C07871
:1022C000002A07D022780025002A0DD0A279002A02
:1022D0000AD106E0002901D0002801D100F038F928
:1022E00070BDE279002A01D06570F7E7002901D0BE
:1022F0000028F5D0012003F0D3F900F065F800289C
:10230000F2D02021002003F0F6F900F05DF800285B
:10231000EAD02821082003F0EEF900F055F8002853
:10232000E2D000228021092003F0CAF900F04CF825
:102330000028D9D0002274210A2003F0C1F900F04E
:1023400043F80028D0D0082200210B2003F0B8F970
:1023500000F03AF80028C7D0002205210C2003F035
:10236000AFF900F031F80028BED001220021192079
:1023700003F0A6F900F028F80028B5D0FF21F531C8
:10238000002003F04BF900F01FF80028ACD0FF212B
:102390002D31012003F042F900F016F80028A3D0F7
:1023A000012003F023F900F00FF800289CD0012051
:1023B00003F028F9002003F073F90120A070E57004
:1023C00070BD0000CC020020002803D0024900208C
:1023D0000870704701207047CC02002010B5144CE3
:1023E0000121217000206070A170E1702071607186
:1023F000A071E07120726072E060206160610D493F
:10240000A061088003F002F800F0A2F8012003F0B8
:10241000EDF8FFF7D9FF00F05FF82078002801D031
:10242000012100E0002104A0FDF756FF10BD0000CF
:10243000CC0200206E000020736320696E69742056
:102440007374616E646279206D6F6E69746F72204F
:102450006F6B3A25750D0A0010B51D488AB001460C
:102460000C311EC9069107A91CC1017A002900D0B0
:102470000121C279002A00D001228379002B00D0EB
:1024800001230479002C00D00124029403930492C8
:102490000591C278417A002A00D001220092019170
:1024A0008178002901D0012300E000234178002930
:1024B00001D0012200E000220078002801D0012193
:1024C00000E000210348FDF707FF0AB010BD00003F
:1024D000CC020020E08200081CB51C4C01202070BA
:1024E000684603F062F8FFF76FFF002811D06846D6
:1024F0000078207168464078607168468078A071E5
:102500006846C078E0716846007920726846407974
:1025100060720E4900200C3102F0E9FFFFF754FF12
:102520000A490120103102F0E2FFFFF74DFF074991
:102530000020143102F084FFFFF746FF0349012019
:10254000183102F07DFFFFF73FFF1CBDCC020020D9
:1025500010B5012003F0A4F8012003F053F802485D
:102560000121C170817010BDCC02002010B504465D
:10257000FFF7B2FFFFF79EFE06497D220888D200D2
:10258000001980B20880904203D300200880FFF732
:1025900063FF10BD6E00002010B5040007D0FDF7EA
:1025A000F7FF82B264232146014801F035FE10BDD9
:1025B000E001002070B51249884201D8002070BDAA
:1025C000104C00218A0013199D881A1D854210D3D2
:1025D000A9B21D8892789C78491B121B401B0029C8
:1025E00005D05043FEF716F80019C0B270BD204662
:1025F00070BD491CC9B20B29E4D3642070BD000032
:10260000C4090000D2650008064910B5401802D47C
:102610000A21401D01E00A21401FFEF705F800B223
:1026200010BD000055F5FFFF10B5102000F0C2F9F5
:1026300010BD72B6FEE7000030B51A4C35230268B3
:1026400017491B01A24200D1174980320164146866
:102650001F252D04AC43858E2D042C4314600A469F
:10266000703242640268803214680F252D06AC4334
:10267000058F2D062C4314600A46B0328264D8328E
:10268000C264132252018A1802654F22D2008A18AE
:1026900042650022C81800E004C18142FCD330BD6D
:1026A00000B400400068004050B7004070B50446D8
:1026B00000F054FA0546601C02D004480078241843
:1026C00000F04CFA401BA042FAD370BD98000020E5
:1026D00010B55C22125C012A07D0022A05D0016ED7
:1026E000022211430166012010BD0A68002A0ED0A3
:1026F0000A7B0B6952071A430B7A4C6949689B079E
:10270000406C2343C90040180CC0002010BD0B7A58
:102710004A699B071A430B7B0C8ADB062404496831
:102720002343006C1A43890040180260EDE730B57E
:102730005C252D5C039C012D05D0016E0422114304
:102740000166012030BD0901920011435A00114376
:1027500000682143803002689209920111430160B0
:10276000002030BDF8B5040005D025464035287F4F
:10277000002802D006E00120F8BD0020687720463E
:1027800000F0C2F82068816910229143816100F055
:10279000E5F90746012604E000F0E0F9C01B0A282D
:1027A00010D8206880690007F6D420688169314319
:1027B000816100F0D3F907460AE000F0CFF9C01BB1
:1027C0000A2805D9206E3043206603202877D2E7F7
:1027D00020688069C007F0D0206881690222114317
:1027E000816147482168814202D14649606808609A
:1027F000207C40210128206882693AD00A43826106
:10280000607C0121890301282068826933D08A43D2
:102810008261A07C012109030128206882692CD0F3
:102820000A43826121688869032212029043A268E8
:102830001043886120688169A422914381612168E5
:102840000A69102082430A61E168012917D0002932
:102850001DD02022022916D021688B6980273B4396
:102860008B6121680B6903430B61E06803280AD080
:102870000DE08A43C3E70A43CAE78A43D1E72068E9
:102880008169042201E02068816911438161207E11
:102890007F21400649064018E1690902FF390139E4
:1028A0000843216A491E0843A18A0A040121090438
:1028B000521A10432268D0610320A26800028242AB
:1028C00010D1E26AA06A1202FF3A401E013A104398
:1028D000226B1201103A1043A28C1204511A0843C1
:1028E0002168C86020688030016CE26B114301648C
:1028F0002046FFF7A1FE0020A06520662E77F8BDD8
:10290000006400400065004010B59AB004461421F0
:1029100013A8FDF77DFE4C216846FDF779FE1649A8
:102920002068884225D1012040060024009012949E
:10293000684600F057FD002801D0FFF77AFE0F48E7
:10294000C26B81140A43C263C26B0A401892426B85
:1029500002210A434263406B13AA084018900320E7
:10296000000213C20320179013A91694044800F024
:1029700037F81AB010BD000000640040001002409B
:1029800000040050014640310A7F012A05D0016E43
:102990000422114301660120704702220A77016870
:1029A0008A69520852008A61002101660846704710
:1029B0007047000070B5084D0446E868204203D017
:1029C000EC60204600F00AF82869204203D02C6110
:1029D0002046FFF7EDFF70BD001802407047000071
:1029E000F0B5002303249DE001259D402A4072D0CC
:1029F0000E79B607B60F012E01D0022E16D18668C9
:102A00002746B4465E00B646B7406646BE43B44667
:102A1000CF687646B7406646374387604668AE4320
:102A20000D79ED06ED0F9D40354345600D79ED4381
:102A3000AD0708D0C5685F002646BE40B5438E6826
:102A4000BE402E43C6600D79AD07AD0F022D0ED1ED
:102A5000DD08AD002D18AC462D6A5E07F60E0F2777
:102A6000B740BD430F69B7402F4365462F620568E5
:102A70005F002646BE40B5430E79B607B60FBE408E
:102A80002E4306604D68AD03AD0F4AD09E08284D19
:102A9000B6007519AC462D6E9E07F60E0F27B7408F
:102AA000BD4305273F07B84201D1002715E0214F5C
:102AB000B84201D1012710E01F4FB84201D10227CF
:102AC0000BE01E4FB84201D1032706E01C4FB8426D
:102AD00002D1042701E024E00527B7402F43144D1D
:102AE000664637662D684E689543F60200D5154355
:102AF0000F4F3D607D684E689543B60200D5154383
:102B00007D600B4E803675684F689543BF0300D5D6
:102B10001543756035684F689543FF0300D515432D
:102B200035605B1C0A681546DD4000D05CE7F0BDEF
:102B3000001802400004005000080050000C005033
:102B4000001000500069084000D001207047002AA2
:102B500001D0816170478162704700000148806840
:102B6000704700009800002070B50246403253784C
:102B7000202B1CD11378012B19D00123137024248E
:102B80005470046825689D432560046825681E0309
:102B9000B5432560046825680D4325600068016819
:102BA00019430160202050700020107070BD022079
:102BB00070BD70B5024640325378202B1BD113787C
:102BC000012B18D0012414702423537003681D684E
:102BD000A5431D6005682B680F263602B343090222
:102BE000194329600068016821430160202050706A
:102BF0000020107070BD022070BD406C7047000056
:102C000070B5040006D025464035687800260028B7
:102C100002D005E0012070BD2E70204600F0BCFA05
:102C200024206870206801684908490001600F216C
:102C30006068090688432168086121688A68012064
:102C4000C00382438A60E1680129A1682FD0212254
:102C500092021143226891600121E268C902022AAE
:102C60002268536825D08B43536021684A68124B11
:102C70001A434A602168CA688243CA606169206950
:102C80000843A169090208432168C860216AE06914
:102C9000084321680860206801680122114301602F
:102CA0006664202068702663AE70002070BD01430A
:102CB000D0E70B43D8E7000000800002FFB50446D0
:102CC000002083B02546403501906A78202A70D1D3
:102CD00022689269D24312046BD52A78012A68D0FF
:102CE00001222A7024226A7060648F05BF0DE0689B
:102CF00001280AD030480121381889028843216808
:102D00004860FFF72BFF06460CE02C48F3E70698D7
:102D1000401C07D0FFF722FF811B069881423ED856
:102D200000283CD02168886989698006C00FC906DF
:102D3000C90F0843EBD020688169C943C90619D57A
:102D40000096002220212046069B01F0E1FB00288E
:102D500008D0606C04281BD121682020C8610020A5
:102D6000606415E021682020C86168700020287028
:102D700007B0F0BD1021C16100960022202120463D
:102D8000069B01F0C5FB002802D121682020C86104
:102D90000198401C0146019005988142A7D320204C
:102DA0006870616C01436164002028700120DFE7D6
:102DB000FFE70220DCE700000028000200200002FC
:102DC000FFB5054604464035687881B0202877D1A4
:102DD0002878012874D001202870FFF7BFFE07462D
:102DE000012200901923D103204601F091FB002815
:102DF00051D1212068701020A870002666640398C5
:102E00006062049961856663628D3949FF2A03D93E
:102E1000FF222285CB0206E0628D228501235B061C
:102E20001204120C0FD0226800789062606A401C75
:102E30006062608D401E6085208D401E2085401C94
:102E4000C2B2009101E0002200912046029901F0F7
:102E500049FB16E001F0C0FB00281CD1606A216824
:102E600000788862606A401C6062608D401E6085E8
:102E7000208D401E80B22085618D002901D0002860
:102E80000CD0608D0A9900283A462046E2D101F024
:102E900078FB00281DD0012005B0F0BD009700226E
:102EA000802120460A9B01F033FB0028F3D1608D7E
:102EB000FF2806D9FF22228501231B060096C4E7BE
:102EC00014E0608D20850096208D0123C2B25B0640
:102ED000BBE721682020C86121684A68054B1A4079
:102EE0004A606870AE702E700020D5E70220D3E7EC
:102EF0000020008000E800FEFFB50546044640358E
:102F0000687883B0202875D10C98002814D00D98CB
:102F1000002811D0287801286CD001202870FFF7F4
:102F20001DFE0746012200901923D103204601F01F
:102F3000EFFA002874D103E00120400260646FE0E2
:102F4000222068704020A870002666640C98606299
:102F50000D98608566630E980090019704A90EC9CC
:102F6000204601F05FFA002801D02E7058E0618DF4
:102F70003448FF2905D9FF22228501231B06009032
:102F800006E0618D21850090208D0123C2B25B0691
:102F90002046049901F0A6FA009700220421204659
:102FA0000E9B01F0B5FA00283AD12068406A616AA8
:102FB0000870606A401C6062208D401E81B22185CD
:102FC000608D401E6085608D00281FD000291DD1B6
:102FD00000970022802120460E9B01F099FA0028DC
:102FE0001ED1608DFF2806D9FF22228501231B06F2
:102FF000009607E024E0608D20850096208D012357
:10300000C2B25B062046049901F06CFA608D00287C
:10301000C2D13A4620460E9901F0B3FA002802D0F8
:10302000012007B0F0BD20682021C16120684268FE
:10303000054B1A4042606970AE702E700020F0E7B8
:103040000220EEE70024008000E800FEFFB5054600
:1030500004464035687883B0202872D10C98002847
:1030600014D00D98002811D02878012869D00120AB
:103070002870FFF773FD0746012200901923D10342
:10308000204601F045FA002871D103E001204002FA
:1030900060646CE0212068704020A870002666649F
:1030A0000C9860620D98608566630E980090019799
:1030B00004A90EC9204601F0E5F9002801D02E70C0
:1030C00055E0608DFF2805D9FF22228501231B06CC
:1030D000009606E0608D20850096208D0123C2B207
:1030E0005B062046049901F0FDF93A4620460E9908
:1030F00001F072FA00283AD1606A2168007888628B
:10310000606A401C6062608D401E6085208D401E9C
:1031100080B22085618D00291FD000281DD1009725
:103120000022802120460E9B01F0F2F900281ED1DA
:10313000608DFF2806D9FF22228501231B060096F9
:1031400007E024E0608D20850096208D0123C2B227
:103150005B062046049901F0C5F9608D0028C4D1B2
:103160003A4620460E9901F00CFA002802D00120C0
:1031700007B0F0BD20682021C16120684268054B7E
:103180001A4042606970AE702E700020F0E7022095
:10319000EEE7000000E800FEF0B599B00446142107
:1031A00013A8FDF735FA4C216846FDF731FA284996
:1031B0002068284C12260627002588421ED1202090
:1031C00000900695684600F00DF9002801D0FFF741
:1031D00030FA616B022001436163616B1595014018
:1031E0001891C0201797169513A941C11A4808399C
:1031F000FFF7F6FBE16B0120400522E0174988420A
:1032000024D1402000900795684600F0EBF8002894
:1032100001D0FFF70EFA606B012108436063606B19
:103220001595084018900320C00213A9179716950A
:1032300041C1052000070839FFF7D2FBE16B0120EF
:1032400080050143E163E16B0140189119B0F0BDC5
:10325000005400400010024000040050005800409C
:1032600002488168027889188160704798000020C0
:1032700010B508480024016882151143016003203D
:1032800000F00AF8002801D0012401E000F052F813
:10329000204610BD0020024030B505461F4887B0CB
:1032A00002680121C9030A430260006808400090D7
:1032B00005A901A800F082FA0498002815D000F0B2
:1032C0009FFA40001649FDF7A5F9411E1648154A18
:1032D0000260164AC2604160002101618160816123
:1032E00000F0AFFD040003D015E000F089FAE9E733
:1032F0000D4800F0CDFD04000DD1132000F034F88E
:10330000042D07D200222946132000F039F808487E
:10331000056000E00124204607B030BD40100240A7
:1033200040420F000020004074020020E70300002C
:103330009C00002008B50B48016801221143016080
:1033400000681040009007484038C26B01040A43EF
:10335000C263C06B084000900320400200F064FD8F
:1033600008BD000040100240002805DBC106C90E60
:1033700001208840014908607047000000E100E03A
:1033800010B502F019FF10BD10B50F4C21680322D3
:103390005202914301432160C11FFF39FA390ED116
:1033A0000A480621006848430949FDF733F9401CE3
:1033B00002E0002805D0401E61694905F9D40020CB
:1033C00010BD032010BD000000700040A4000020CC
:1033D00040420F00024801688215114301607047A6
:1033E00000700040FEB5044600680027984D994ED5
:1033F000800355D500200090F06BC00007D4F16B1E
:10340000A8050143F163F16B01400120009092484F
:103410000168821511430160FFF7A0FB019005E0F0
:10342000FFF79CFB0199401A022825D88A480068BA
:10343000C005F5D5E8690321090208400FD0216CC9
:1034400081420CD0E86903210902EA69884301211D
:1034500009040A43EA61EA698A43EA61E861C0074C
:103460000FD0FFF77BFB019008E0FFF777FB019996
:10347000411A7A48814201D9032709E0E8698007A7
:10348000F3D5E869032109028843216C0843E86108
:103490000098002804D0F16B012000078143F163FC
:1034A0002078C00705D068696168800880000843FB
:1034B00068612078800705D568690C218843A16878
:1034C000084368612078400705D568693021884342
:1034D000E168084368612078C00606D56869032161
:1034E000890288432169084368612088C00406D5A1
:1034F000686903210902884361690843686120887B
:10350000800506D56869032189048843A16A0843B8
:1035100068612088400506D568690321090588434C
:10352000E16A084368612078800606D5686903214E
:1035300009038843A169084368612078400606D5DD
:103540006869032189038843E16908436861208829
:1035500040040ED56869216B8000800808436861CB
:103560000121206B8907884203D1F0688913084341
:10357000F0602068000305D5686940218843616BCD
:10358000084368612068810235480BD5696982105B
:10359000A36B914319436961A16B914202D1F16818
:1035A0000143F160216849020AD56969E26B8143F0
:1035B00011436961E16B814202D1F1680143F1601D
:1035C000218809050DD5A969226A89088900114356
:1035D000A961216A012904D1F16801221204114371
:1035E000F160218889040DD5A9690C229143626A92
:1035F0001143A961616A042904D1F168012212040E
:103600001143F1602168C9010ED5A9690322120393
:103610009143626C1143A9610122616C5203914292
:1036200002D1F1680143F160216889010DD5A969D2
:10363000032212029143A26C1143A961A26CD11F13
:10364000F93902D1F1680143F1603846FEBD00004E
:10365000401002400010024000700040881300003B
:1036600000000001F8B50F46060043D04D4D286814
:103670004007400FB84213D22868C008C000384342
:103680002860FFF76BFA044605E0FFF767FA011BB5
:103690004548814261D828684007400FB842F4D1BC
:1036A0003068424C81070DD5400704D5A06807213A
:1036B00009030843A060A0680F2109028843B1688C
:1036C0000843A0603078C00732D0706801280AD063
:1036D00002280BD000280FD03449403103280ED0E7
:1036E000C969890704E02168890301E0216889012B
:1036F000002906DB0120F8BD21684905F8E7096AC1
:10370000EFE7A168C908C9000143A160FFF726FAE5
:10371000009006E0FFF722FA0099411A2248814200
:103720001BD8A068382108407168C9008842F1D1CF
:1037300028684007400FB84217D91A480168C908DD
:10374000C90039430160FFF709FA054607E0FFF7B2
:1037500005FA411B1448814201D90320F8BD1148E4
:1037600000684007400FB842F1D13078400706D5D5
:10377000A068072109038843F1680843A06000F0AE
:1037800053F8A1683C2289091140094A515CC906D5
:10379000C90EC8400749086007480068FFF77CFD6C
:1037A000F8BD000000200240881300000010024015
:1037B000B4800008A40000209C00002010B507225F
:1037C00002600A4A93685B075B0F436093680F24AB
:1037D000240223408360926807231B031A40C260BF
:1037E000034800684007400F086010BD0010024009
:1037F000002002400148006870470000A40000203B
:103800000648074900688968064A4904490F890043
:10381000515CC906C90EC84070470000A4000020D2
:1038200000100240F480000810B5204CA068204A27
:103830008006400F16D0A0688006410F5010012965
:103840000FD0A1688906490F022912D0A06880060E
:10385000400F042823D0A0688006400F032821D001
:10386000002010BD206801218004400F81401046D7
:1038700012E0E1688B07E1689B0F4906490F491C7C
:10388000032B00D01046FCF7C5FEE1684904490E41
:103890004843E168490F491CFCF7BCFE10BD0120FC
:1038A000C00310BD7D20000210BD000000100240CA
:1038B0000024F400F8B504007ED020783827C00733
:1038C000FE4D002846D0A868E96838408907890F6E
:1038D000102802D008280BD001E0032908D00120CD
:1038E0006268000482420AD129680143296015E018
:1038F000286880032ED560680028DDD02AE00523E3
:1039000001211B0489049A422A6802D10A432A60D1
:10391000EAE782432A6028688843286060680028B4
:103920000CD0FFF71BF9064604E0FFF717F9801BE0
:10393000642873D828688003F7D50BE0FFF70EF9E9
:10394000064604E0FFF70AF9801B6428F1D82868CE
:103950008003F7D42078800769D5A868E9683840E3
:103960008A070721920FC902102802D0002813D01D
:1039700001E0022A10D0E068002846D02868884379
:103980002169084328602868FF2101310843286025
:10399000FFF7E4F806462CE02A68520502D5E268F3
:1039A000002A89D06A687F231B029A4363691B023D
:1039B0001A436A60002800E08DE00ED12868884331
:1039C000216908432860286801218004400F814054
:1039D000BB48FCF71FFEBB490860BB480068FFF707
:1039E0005BFC002877D122E0FFF7B8F8801B0228A3
:1039F0009FD828684005F7D568687F210902884369
:103A0000616909020843686011E02968FF200130FC
:103A100081432960FFF7A2F8064605E0B5E0FFF70D
:103A20009DF8801B022884D828684005F7D42078A8
:103A3000A64E00072ED5A8688006400F03280AD09E
:103A4000A0690028306A16D0012108433062FFF7D0
:103A500085F807460BE0306A80071BD5A06900286F
:103A60009FD017E0FFF77AF8C01B0228C0D8306A51
:103A70008007F7D50EE0400840003062FFF76EF88F
:103A8000074604E0FFF76AF8C01B02287DD8306AB9
:103A90008007F7D4207840076BD5A86800278006F8
:103AA000400F042818D0E86BC00008D4E96B01204F
:103AB00000070143E963E96B014001270091844855
:103AC0000168C90519D40168821511430160FFF727
:103AD00045F800900DE083E0F069800749D5A068C3
:103AE00000287DD045E0FFF739F80099401A0228F8
:103AF0004BD877480068C005F5D5A168012910D0DA
:103B000004200529F16911D049084900F161F169E2
:103B10008143F161A068002816D0FFF71FF80090DC
:103B20000EE0F06901210843F061F3E70143F16120
:103B3000F7E7FFF713F80099411A6648814224D845
:103B4000F0698007F5D50DE0FFF708F8009006E072
:103B5000FFF704F80099411A5E4881427FD8F06966
:103B60008007F5D4002F04D0E96B012000078143C2
:103B7000E9632078800624D50120E16980050029C9
:103B8000296810D00143296000E068E0FEF7E6FFF5
:103B9000064604E0FEF7E2FF801B02285FD8286893
:103BA0000002F7D50DE081432960FEF7D7FF0646F6
:103BB00004E0FEF7D3FF801B022850D828680002DB
:103BC000F7D4206A002844D0A9688906490F022941
:103BD0004FD0012636060228286807D0B04300E0FF
:103BE0007FE02860FEF7BAFF04463AE0B043286061
:103BF000FEF7B4FF074604E0FEF7B0FFC01B022843
:103C00002DD828688001F7D4A16A606AE26A084367
:103C1000216B120211430843616B0843A16B0843F7
:103C2000E9682D4A11400843E8602868304328605D
:103C3000E868012109070843E860FEF78FFF0446A2
:103C400004E0FEF78BFF001B022808D828688001DB
:103C5000F7D548E0FEF782FF001B022801D90320B8
:103C6000F8BD28688001F5D4E8681C490840E86080
:103C700039E00128F4D0E868626A8107890F91422F
:103C80002FD17021A26A014091422AD17F21E26A9C
:103C9000090201401202914223D11F214904226BE3
:103CA000014091421DD107214906626B01409142BA
:103CB00017D1400FA16B4007884211E0001002406D
:103CC0000024F400A40000209C00002040100240CA
:103CD00000700040881300008C80C111FCFFFEEED4
:103CE00001D00120F8BD0020F8BD000070B50446E9
:103CF0000120002C4BD025462035687A002806D1BB
:103D000028721120C0026060204600F047F80220AF
:103D100068722068C168C943C90639D5CA214162A1
:103D2000216853204862204601F07FFE002829D1F7
:103D300020688169184A1140816121688869A268F8
:103D4000E369104362691A4310438861216820695E
:103D5000086120680169A2891204114301612046AB
:103D600001F086FE00280DD121688A69D200D208B0
:103D70008A6121688A69636AA6691A43236A3343A0
:103D80001A438A612268FF215162002801D070BD68
:103D900000200121697270BDBFFF8FFB10B594B088
:103DA00004464C216846FCF733FC104920688842E1
:103DB0001AD1012040040090401210906846FFF78D
:103DC00011FB002801D0FEF734FC0948C16901222B
:103DD000D2031143C16106484038C26B01150A4342
:103DE000C263C06B0840139014B010BD002800409F
:103DF0004010024070B5044621680A48C860FEF7CA
:103E0000ADFE7D260546F60006E0FEF7A7FE401B48
:103E1000B04201D9032070BD2068C0688006F4D587
:103E2000002070BD5F00010003490A6803235B02A4
:103E30009A4302430A607047000001407047704790
:103E4000704770B5040005D025462035687F0028EE
:103E500002D006E0012070BD00202877204600F047
:103E600016F802206877211D206801F075FE0122F6
:103E700040342272AA77EA7722706270A270E270F0
:103E800022716271A271E2716A77002070BD704781
:103E9000014620314A7F012A01D0012070470222C9
:103EA0004A770168CB6801221343CB6000680E4952
:103EB00088420BD09107884208D00C49884205D02F
:103EC0000B49884202D00B49884207D181680A4BCE
:103ED0001940062905D0DB1F994202D00168114321
:103EE0000160002070470000002C014000040040E9
:103EF000000800400040014007000100704700003A
:103F0000F8B504460068C66805690027A9070029B6
:103F100013DAB10711D5F91E01610120207720685D
:103F200080698007204602D0FFF7E8FF04E000F038
:103F30008BF8204600F089F82777680716D57007B8
:103F400014D504202168C04308610220207720682E
:103F500080698005800F204602D0FFF7CFFF04E084
:103F600000F072F8204600F070F82777280715D582
:103F7000300713D508202168C0430861042020774A
:103F80002068C0698007204602D0FFF7B7FF04E031
:103F900000F05AF8204600F058F82777E80616D5C2
:103FA000F00614D510202168C0430861082020774E
:103FB0002068C0698005800F204602D0FFF79EFF71
:103FC00004E000F041F8204600F03FF82777E807CA
:103FD00008D0F00706D001202168C04308612046C0
:103FE00000F034F8280601D4A80407D5300605D51A
:103FF0002168134808612046FFF721FFE80507D52F
:10400000300605D521680F4808612046FFF716FFE6
:10401000680608D5700606D540202168C0430861AF
:10402000204600F01DF8A80608D5B00606D52020C9
:104030002168C04308612046FFF702FFF8BD000079
:104040007FDFFFFFFFFEFFFF7047704710B500687E
:104050000249884201D1FFF703F910BD002000405A
:10406000704710B5014680310A79012A15D0012226
:104070000A7124228A600268136814686408640064
:1040800014600122520793430022426600680360D5
:10409000202088600A71104610BD022010BD70B546
:1040A000044605468034207901281AD00120207169
:1040B0002420A06028680668026852085200026046
:1040C0002868826807235B069A430A438260284671
:1040D00001F09CFD286806602020A060002020716F
:1040E00070BD022070BD70B504460546803420794D
:1040F000012819D0012020712420A06028680668BA
:10410000026852085200026028688268D200D20811
:104110000A438260284601F079FD28680660202065
:10412000A0600020207170BD022070BD70B5040039
:1041300005D025468035A868002802D006E0012079
:1041400070BD00202871204600F026F82420A860C9
:1041500020680168490849000160A06A002802D06F
:10416000204601F075FD204601F066FE0128E7D0EB
:10417000206841680922D202914341602068816829
:104180002A22914381602068016801221143016065
:10419000204601F0C3FD70BD30B599B0044614212E
:1041A00013A8FCF735FA4C216846FCF731FA184998
:1041B0002068884229D10124002568460195009491
:1041C000FFF710F9002801D0FEF733FA1148026812
:1041D000012189030A4302600068084018900D48D5
:1041E0004038416B21434163406B1595C007C00FB8
:1041F000189003204002139002201490052013A968
:10420000169517940007FEF7EBFB19B030BD0000C0
:104210000038014040100240FFB506460446803693
:10422000B06883B00D46202802D0022007B0F0BD50
:10423000002D3BD00598002838D00120A16800034C
:10424000814204D12069002801D1E8072ED1002045
:1042500030612120B060FEF781FC01902746403795
:104260000598B8820598F8820120A1680003814270
:1042700002D12069002802D00295002522E000200A
:1042800002901FE000228021204601F01FFF00283D
:1042900025D1029800280BD0216800788862029806
:1042A000401C0290B1682120884308D00120BDE75E
:1042B00028882168C005C00D8862AD1CF2E7F88A25
:1042C000401EF882F88A019B002806980090D9D1F8
:1042D00000224021204601F0F9FE002803D02020D2
:1042E000B0600320A2E72020B06000209EE7FEE738
:1042F00001688A69D243920701D400228A62006869
:104300008169C943C90703D08169012211438161D1
:1043100070470000F7B50446006882B08169002646
:104320002746C906403735460092002945DA102154
:10433000C16132E00398401C2FD0FEF70FFC0099BA
:10434000411A0398814201D8002826D1206841688B
:10435000012292031140BA788369DB431B0417D40E
:1043600001239B03994213D0202A11D0416819439D
:104370004160FEF7F3FB00900AE0FEF7EFFB014619
:104380000098081A192803D920200543012604E0C3
:1043900020688069C0438006EFD420688069C043EC
:1043A000800602D5002EC5D004E0002E02D121687F
:1043B0002020C86104200543012621688869C205C0
:1043C00004D5012215431202CA610126410508D510
:1043D00008210D43CA012168CA610126800502D463
:1043E0000AE0800506D50220054321680002C86165
:1043F000012601E0002E0FD02046FFF779FF20684C
:104400004168074A11404160606C28436064202085
:1044100078700020B8703870304605B0F0BD0000EC
:1044200000E800FEF8B50446164615481D46DAB207
:104430000090079F0023204600F054F83A4620469B
:10444000069900F0C9F8002818D12846F5B20128CD
:1044500009D02168300A88623A462046069900F061
:10446000BBF800280AD1206885620097002240210D
:104470002046069B00F04CF8002800D00120F8BD33
:1044800000200080F8B50446164615481D46DAB2ED
:10449000C3020090079F204600F024F83A462046C9
:1044A000069900F099F8002818D12846F5B201289D
:1044B00009D02168300A88623A462046069900F001
:1044C0008BF800280AD1206885620097002280219D
:1044D0002046069B00F01CF8002800D00120F8BD03
:1044E00000200080890510B5890D12041143029C3B
:1044F000194302682143490050684908630D034C81
:10450000234398430843506010BD0000FF63FF033E
:10451000F8B51D4617460E46044626E029462046B5
:10452000069AFFF7F7FE002801D00120F8BD681CAD
:104530001BD0FEF713FB0699401AA84201D8002DA4
:1045400013D120688169304688430CD00020B842DE
:104550000BD1616C20200143616440346070002005
:10456000A0702070E1E70120F1E720688169304602
:10457000884304D00020B842D0D00020F8BD0120EC
:10458000F9E770B516460D4604461EE03246294648
:104590002046FFF7BFFE002801D0012070BDFEF7C6
:1045A000DDFA801BA84201D8002D0ED12068806959
:1045B000C043800609D5616C20200143616440340A
:1045C00060700020A0702070E7E720688069C04319
:1045D0008006DBD4002070BD70B516460D4604463B
:1045E00020E0324629462046FFF794FE002801D0FD
:1045F000012070BD681C15D0FEF7B0FA801BA842E0
:1046000001D8002D0ED120688069C043800709D5EC
:10461000616C202001436164403460700020A07010
:104620002070E5E720688069C0438007D9D4002066
:1046300070BD000010B50921C9010348FBF7E6FF72
:1046400000F094F810BD0000E802002010B590289A
:1046500011D240290FD2CB084C07640F0121A14091
:10466000054CC0000019002AC25CC9B201D00A433F
:1046700000E08A43C25410BDE802002010B51920A2
:104680004001FEF713F80021AE2000F02FF90021C1
:10469000084600F02BF90021102000F027F9002136
:1046A000402000F023F90021812000F01FF90021B3
:1046B000CF2000F01BF90021A12000F017F9002104
:1046C000C82000F013F90021A62000F00FF9002106
:1046D000A82000F00BF900213F2000F007F900218D
:1046E000D32000F003F90021084600F0FFF8002174
:1046F000D52000F0FBF80021802000F0F7F8002121
:10470000D92000F0F3F80021F12000F0EFF80021AB
:10471000DA2000F0EBF80021122000F0E7F8002189
:10472000DB2000F0E3F80021402000F0DFF800215A
:10473000202000F0DBF80021022000F0D7F8002153
:104740008D2000F0D3F80021142000F0CFF80021D4
:10475000A42000F0CBF80021A62000F0C7F8FFF756
:1047600069FF0021AF2000F0C1F810BD70B5104EF8
:1047700000242046B030C0B2002100F0B7F800217C
:10478000084600F0B3F80021102000F0AFF8002533
:10479000E8008019005D012100F0A8F86D1CEDB261
:1047A000802DF5D3641CE4B2082CE2D370BD000068
:1047B000E8020020FFB589B00998203A1C460E4651
:1047C000059107905F2A60D260080490082C12D0EF
:1047D0000C2C03D0102C01D0182C56D1E008610706
:1047E00000D00121401804994843C0B20190D0B2D2
:1047F0000390002045E00620F8E7082C0FD00C2C91
:1048000012D00398102C14D0242148432149411878
:10481000009800270D5CE8070ED0129A10E003986C
:10482000062148431C49F2E703980C2148431B49E1
:10483000EDE700011A49EAE71298002827D0002284
:1048400031460998FFF702FF761C7F1C6D08FFB206
:10485000F6B2082FDFD30998401CC0B20990082C8B
:104860000BD00799401AC1B20498814205D107982C
:10487000099005980830C0B205900098059E401C2C
:10488000C0B2019900908842B7D30DB0F0BD0122AB
:10489000D6E700008E720008026600082A68000849
:1048A0009E6C0008FFB581B01C46150006461AD064
:1048B000082C07D00C2C03D0102C01D0182C12D1AE
:1048C00067080BE0062709E00A9800902346304667
:1048D0000299FFF76FFFF019C6B26D1C2A78002A03
:1048E00001D0802EF0D305B0F0BD00001CB500292A
:1048F0000CD0402269460A7148716420009002235E
:1049000001AA78210248FEF75BFA1CBD0022F1E7FC
:1049100060010020C3B2000A10B5C318002004E0F3
:104920000C5CE318401C9BB2C0B29042F8D3D84351
:10493000C0B210BD002801D0202801D9072070473F
:104940000020704770B505460020024607240FE09E
:10495000AB5C58400023060602D54000604000E0F2
:1049600040005B1CDBB2C0B2082BF4D3521CD2B2A5
:104970008A42EDD370BD38B5902000F021FA0028AE
:104980000AD10024684600F03DF8002804D16846AA
:104990000078002801D0002038BD0120FDF786FEF8
:1049A000641CA4B2642CEDD3062038BD38B5922027
:1049B00000F006FA002811D10024684600F022F821
:1049C00000280BD168460078002807D00120FDF7A9
:1049D0006DFE641CA4B2642CEFD3062038BD000029
:1049E0000148406870470000700000200149002025
:1049F0000870704770000020014800787047000080
:104A00007000002038B504000DD002226946122043
:104A100000F026F8002805D168460088C007C00FBE
:104A20002070002038BD022038BDF8B516460D00B4
:104A3000044613D068460470210A41700222694678
:104A40003E2000F001FA002807D10220FDF72EFEDB
:104A500032462946204600F09FF8F8BD0220F8BDF6
:104A6000F7B596B016460F0006D0002E01D0222EC4
:104A700004D9072019B0F0BD0220FBE732480178C5
:104A80006420002911D071001491029003AC0191AF
:104A90000123009410212D48169AFEF72DFA0028C4
:104AA0000FD000F079F90320E4E70290019201238E
:104AB000009710212548169AFEF71EFA0028F0D11B
:104AC000D8E70025002E1ED83CE0002D1BD0680042
:104AD00000190121FFF736FF69000A195278824256
:104AE0002AD0149AD6B2082E00D908266A001219C4
:104AF000527800920190635C2A4615481699FBF79C
:104B0000EBFB002511E010216846017216994172F5
:104B100011218172017BC172042102A8DAE7615D73
:104B20000CA0FBF7D9FB6D1CEDB2B542F7D30BA07F
:104B3000FBF7D2FB04209DE7605C78556D1CEDB25D
:104B4000B542C2D3002095E7700000200C01002080
:104B5000D883000825303278000000000D0A0000DC
:104B6000F8B516460D00044613D068460470210AB5
:104B70004170022269463E2000F066F9002807D104
:104B80000220FDF793FD32462946204600F004F846
:104B9000F8BD0220F8BD0000F7B506468CB01546FA
:104BA0001046FFF7C7FE00281DD1002402226946E7
:104BB0003E20FFF755FF002804D004460246314648
:104BC00039A00DE068460188B1420ED1012202A948
:104BD0006120FFF745FF040010D0024631463DA09A
:104BE000FBF77AFB20460FB0F0BD0120FDF75EFD1C
:104BF000641CA4B2642CD9D30620DEE76846027A8E
:104C0000042A04D231463EA0FBF766FB0DE0101FDC
:104C10000406240E03D0202C01D8A54207D9234630
:104C2000314643480095FBF757FB0720DBE7224658
:104C300003A94020FFF714FF070003D002463146C6
:104C40003CA009E0012201A96020FFF709FF07004D
:104C500006D00246314642A0FBF73EFB3846C2E78B
:104C6000224603A93046FFF755FE69460979884276
:104C70000ED0224603A93046FFF74CFE0346684695
:104C80000094027931464348FBF726FB0520AAE74A
:104C9000002003A904E00D9A0B5C1354401CC0B221
:104CA000A842F8D300209EE76271207472616E738F
:104CB000666572206563686F206661696C20636D4C
:104CC000643A307825303478207265743A25640D62
:104CD0000A0000006271207472616E736665722052
:104CE0006C656E677468206661696C20636D643AF8
:104CF000307825303478207265743A25640D0A00C6
:104D00006271207472616E73666572206C656E6785
:104D100074682073686F727420636D643A3078250C
:104D2000303478206C656E3A25750D0A000000005D
:104D3000948300086271207472616E7366657220DC
:104D4000627566666572206661696C20636D643A9F
:104D5000307825303478207265743A25640D0A0065
:104D60006271207472616E73666572206368656338
:104D70006B73756D2072656164206661696C206378
:104D80006D643A307825303478207265743A256441
:104D90000D0A00005083000810B50348FDF72DFFF1
:104DA0000249486010BD00000C0100207000002086
:104DB00010B50A20FDF77AFC122000F001F810BDB2
:104DC00008B569460870000A487002223E2000F0CB
:104DD0003BF808BD014908707047000070000020D2
:104DE00070B58AB00E00054614460BD01046FFF78A
:104DF000A1FD002807D168460571290A41710020EC
:104E000001A907E002200AB070BD325C0B18401CFB
:104E10009A70C0B2A042F8D3A01CC2B23E2000F0EB
:104E200013F80028EFD1224631462846FFF772FDDD
:104E3000014668460170241D4470022269466020C4
:104E400000F002F8DFE70000F0B595B00746154620
:104E50000E0006D0002D01D0222D04D9072015B058
:104E6000F0BD0220FBE720480078002803D0684608
:104E7000077200241AE0642001920091029001233D
:104E80003A4610211948FEF7E1F81AE0620002A83C
:104E90001018315D00904170002C18D0301901219C
:104EA000FFF750FD00998870641CE4B2AC42EDD36A
:104EB00064206B00009002AA10210C485B1CFDF7D7
:104EC0007FFF0028CBD0FFF767FF0320C7E7102044
:104ED000694608714F7130788871032101A8FFF786
:104EE00031FD69468872DFE7700000200C01002068
:104EF00030B587B014216846FBF78AFB1048426B37
:104F000008210A434263406B009108400025059048
:104F10000195029569460B48FDF762FD00F016F811
:104F2000094C20706070A570E570FDF717FE606099
:104F30006178002900D10020A06007B030BD0000DA
:104F400000100240000C00507C00002010B5082129
:104F50000348FDF7F7FD012800D0002010BD000038
:104F6000000C005010B50446FFF7F0FF0C490A781A
:104F7000904202D008704C6010BD4A789042FBD03D
:104F80004A68A21A142AF7D301224870002802D0D6
:104F90008A708C6010BDCA700020886010BD00004F
:104FA0007C00002030B587B014216846FBF730FB49
:104FB0000E48426B02210A434263406B0C4D08408D
:104FC0000590002220212846FDF7C1FD20200090F9
:104FD0000120002401900294694603942846FDF7BD
:104FE000FFFC04480470447007B030BD001002405C
:104FF000000400508800002010B5034900204870CC
:1050000000F05AF810BD00008800002010B50B49D0
:105010004A78002A04D08A68821A02D4FFF7ECFF8B
:1050200010BD4A684B88821A9A42F9D348600878C2
:105030000121484000F040F810BD00008800002029
:10504000F8B50D4600282DD0002D2BD0014617486D
:10505000FBF7E0FA040000D101247D20C000684382
:105060002146FBF7D7FA0546002719E01048012131
:105070000078484000F020F82646FEF7BBFB0D49BB
:10508000FBF7C8FA002809D1012007E0394600974C
:1050900002E000BF491C00918142FAD3761EF5D28E
:1050A0006D1EE3D2FFF7A8FFF8BD000020A10700A6
:1050B0008800002000093D0010B50446024620216A
:1050C0000248FDF744FD0248047010BD0004005082
:1050D0008800002030B587B0182101A8FBF798FAA6
:1050E0001648017F164D0124022924D0007F012893
:1050F0001ED1002001900290039005901148069067
:105100000E48049401A94038FDF7E2FA00280FD1B7
:105110000A4802220123114640380094FDF707FB9C
:10512000002805D105484038FDF72CFC002802D0A6
:10513000012007B030BD2C700020FAE7E800002005
:1051400094000020FF07000010B50A2000F002F8CC
:1051500010BD000070B50546FDF700FD0B4E04467E
:1051600001231A46A0210A48FDF7A8FD002808D00F
:10517000FDF7F4FC001BA842F2D30020307002209F
:1051800070BD01203070002070BD0000950000202F
:105190006001002030B587B014216846FBF738FA6B
:1051A0000D48426B02210A434263406B03240840CE
:1051B0000A4D64030590012221462846FDF7C7FCED
:1051C0000021012002910391019000946946284634
:1051D000FDF706FC07B030BD00100240000400508F
:1051E00010B500F0F5F800F0DFF800F0FBF800F083
:1051F000E5F810BD10B500F0F5F800F0D5F800F0B6
:10520000E7F810BD70B505468024254202D000F0B5
:10521000DFF801E000F0E6F800F0C6F800F0CEF8A4
:105220006408F2D100F0D4F800F0BEF800F0E4F821
:1052300001214840044600F0C1F8204670BD1040EE
:105240001140884201D004207047002070470000C0
:10525000401C4843034910B548431102FBF7DAF9F3
:1052600010BD00001027000070B514460B461B2827
:1052700001D9022070BD01460D390A2975D91828B7
:1052800073D01A2871D01B286FD0411E03297ED9F4
:10529000404E1D4665403178092839D00ADC002887
:1052A00011D0FF252D35052812D0062813D0082847
:1052B0006BD119E00A2839D00B2846D00C2855D0DC
:1052C000192862D15CE0002958D090065FD55CE0D7
:1052D0000A22032101E00A2206212046FFF7B8FF37
:1052E000A84252D2072070BD002947D0E0222146B3
:1052F0001846FFF7A4FF002849D12007800F022895
:1053000045D1E00643D4A00741D4E0073FD13CE0BB
:1053100020063CD4602221461846FFF790FF002863
:1053200035D13078002830D128071BE074200442A2
:105330002DD1032221461846FFF781FF002826D1F0
:105340003078002821D1882016E0F0222146184626
:10535000FFF775FF00281AD1200718D530780028EC
:1053600013D16807002809D10FE010E0052004429E
:105370000DD1002909D11A20054206D0062070BDA2
:105380009020054203D1D00701D0002070BD042039
:1053900070BD00007800002008B500200090401C7F
:1053A00000902028FBD308BD10B5052001228021E4
:1053B0000007FDF7CCFBFFF7EFFF10BD10B5052090
:1053C000002280210007FDF7C2FBFFF7E5FF10BDBB
:1053D00010B50520012240210007FDF7B8FBFFF7BB
:1053E000DBFF10BD10B50520002240210007FDF7AE
:1053F000AEFBFFF7D1FF10BD10B50520402100071F
:10540000FDF7A0FB012800D0002010BD10B50A4C0C
:10541000012211462046FDF79AFB01220221204677
:10542000FDF795FB054901200870FFF7BDFFFFF769
:10543000CFFF002010BD00000004005078000020C5
:105440007CB50C0003D0002803D0012805D0022031
:105450007CBD11201226032502E013201426062508
:10546000694600F062F80028F2D101A9304600F048
:105470005CF80028ECD16946087809798000890930
:105480000843401C054A684303495043FBF7C2F8F0
:10549000206000207CBD0000E02E0000204E0000B7
:1054A0007CB50D0005D0002805D0012806D00228C3
:1054B00007D002207CBD0D200E2404E00F20102414
:1054C00001E015201624694600F02FF80028F1D1DC
:1054D00001A9204600F029F80028EBD168460178A0
:1054E0000079890080090143298000207CBD38B5FE
:1054F0000D0005D0002805D0012803D0022803D0D4
:10550000022038BD7D2400E00A246946FFF7C8FF69
:105510000028F6D1684600880A21401C60434000FC
:10552000FBF778F82860002038BDF8B50E00044677
:1055300001D01B2C01D90220F8BDFFF751FEE82055
:10554000FFF760FE00282CD02046FFF75BFE002806
:1055500027D0FFF745FEE920FFF754FE002820D0B2
:105560000024FFF735FF002501276006040EFFF732
:105570001BFFFFF741FF002800D03C43FFF71EFF51
:105580006D1CEDB2082DF0D3FFF722FFFFF70CFFE3
:10559000FFF714FFFFF71CFF3470FFF72BFE00200E
:1055A000F8BDFFF727FE0320F8BD38B504001BD077
:1055B00069461720FFF7B9FF002814D16846007824
:1055C00060714006C00F2070684600788106C90FE0
:1055D00061700107C90FA1704107C90F8007E17011
:1055E000C00F2071002038BD022038BD10B5002842
:1055F00002D02022002101E0002220210C2000F016
:105600005FF810BD0121484010B502460221024852
:10561000FDF79DFA002010BD00040050F8B50028E9
:1056200003D0012806D00220F8BD052503240A2056
:10563000184A03E00625184A2C460A20FF262D3674
:10564000B14201D3914201D90720F8BD00900A2050
:105650004143080211496143FAF7DCFFFF210131A0
:10566000002805D0884200D90846401EC7B203E092
:105670000120FAE77F1CFFB2FF2F06D221463846F1
:10568000009AFFF7E5FDB042F4D33946284600F012
:1056900032F8F8BDB80B0000881300001027000096
:1056A00010B50446024601210348FDF750FA0348AD
:1056B0000470002010BD000000040050780000209D
:1056C000F8B50E46144605466946FFF72EFF00283A
:1056D00010D1684600780146B14321430C460A4682
:1056E00001462846FFF7C0FD002803D12146284681
:1056F00000F016F8F8BD38B50C4605466946FFF7C8
:1057000014FF00280BD16846017822462846FFF78F
:10571000ABFD002803D12146284600F001F838BD32
:1057200070B50D4604461B2801D9022070BDFFF755
:1057300057FDE820FFF766FD00280DD02046FFF753
:1057400061FD002808D02846FFF75CFD002803D043
:10575000FFF750FD002070BDFFF74CFD032070BD2A
:1057600010B51248104901600021FF22013241604A
:105770008260C160017441748174022208238261D5
:1057800043610D240262C4618262C46243620263A7
:10579000012281634263C163FCF7E4FF002801D06A
:1057A000FCF747FF10BD000000640040A800002087
:1057B000F0B587B014216846FAF72AFF4348426BD8
:1057C00004210A434263426B0A400592416B202741
:1057D00039434163416B39400591416B01242143B9
:1057E0004163416B21400591416B0225294341638F
:1057F000416B29400591416B082631434163406B61
:105800000122304005900520C0210007FDF79FF9D7
:10581000012211462E48FDF79AF9012202212C4857
:10582000FDF795F90321012249032948FDF78FF976
:105830000097002705200197694600070297FDF7AA
:10584000CFF8C0200090112001AA31C2052069467E
:105850000007FDF7C5F80094019469461C480395BC
:105860000294FDF7BDF80194694619480397009525
:105870000294FDF7B5F803204003694691C16946DB
:1058800013480397FDF7ACF8019769461048029753
:105890000096FDF7A5F8019769460E480297009615
:1058A000FDF79EF810200090212000040190694629
:1058B00002940748FDF794F8002203210720FDF722
:1058C0005FFD0720FDF750FD07B0F0BD001002405E
:1058D00000040050000C005010B51348114901603D
:1058E00012494160002181600161416181610122B1
:1058F000C161C2600162FDF783F9002801D0FCF7A5
:1059000098FE00210848FDF72FF9002801D0FCF788
:1059100090FE00210448FDF74CF9002801D0FCF767
:1059200088FE10BD005400400C010020B57DB11070
:1059300010B513481149016012494160002181608E
:105940000161416181610122C161C2600162FDF7B3
:1059500057F9002801D0FCF76CFE00210848FDF73C
:1059600003F9002801D0FCF764FE00210448FDF78C
:1059700020F9002801D0FCF75CFE10BD0058004063
:1059800060010020B57DB11010B50C480A490160D6
:105990007F22C260002181604161FF22816102613A
:1059A0000122C161920702624162FEF79FF900285D
:1059B00001D0FCF73EFE10BD00280040B4010020DD
:1059C00010B5184816490160E121490241600021E3
:1059D0008160C16001618161C16101620C2241622B
:1059E00042618162FEF7A2FB002801D0FCF721FE94
:1059F00000210C48FEF777FB002801D0FCF719FEC8
:105A000000210848FEF74BFB002801D0FCF711FEEF
:105A10000448FEF726FB002801D0FCF70AFE10BD63
:105A200000380140E0010020FEE7F8B504460068B8
:105A30000025C168490618D4C16880221143C1609D
:105A4000FDF78CF827460646203708E0FDF786F874
:105A5000811B7D20C000814201D903257D72206811
:105A6000C068400601D4032DF0D12846F8BD0000DF
:105A7000F8B5124C0026E16880229143E160A169EB
:105A8000054689062035002907DBFEF7B3F9002813
:105A900011D00320687206460DE0A1692027B943A2
:105AA000A161FEF7A7F9002802D00320687206461C
:105AB000A0693843A0613046F8BD000000280040CE
:105AC00030B593B03C216846FAF7A2FD00240120CE
:105AD0000F941094119440021294FDF755FCFDF7B9
