:020000040800F2
:10000000D08D00204D010008B5670008E34E0008C0
:1000100000000000000000000000000000000000E0
:100020000000000000000000000000004D68000813
:1000300000000000000000000B01000851680008EB
:100040005F0100085F0100085F0100085F01000810
:100050005F0100085F0100085F010008E12E000851
:100060005F0100085F0100085F0100085F010008F0
:100070005F0100085F0100085F0100085F010008E0
:100080005F0100085F0100085F010008FD680008CB
:100090005F0100085F0100085F0100085F010008C0
:1000A0005F0100085F0100085F0100085F010008B0
:1000B0005F0100085F0100085F01000804488546F1
:1000C00000F024FC00480047717C0008C046C04690
:1000D000D08D0020084B19680868203080F309880B
:1000E000022080F31488BFF36F8F3FBCAE4608BC7C
:1000F00004BC62B618470000B4000020EFF3108083
:1001000072B6704780F310887047EFF309800E4B8A
:100110001A6820381060F0C044464D4656465F4687
:10012000F0C008B572B608F055F962B60CBC11689B
:1001300008681030F0C8A046A946B246BB4680F316
:1001400009882038F0C81847B400002004488047C8
:1001500004480047FEE7FEE7FEE7FEE7FEE7FEE7AE
:10016000F9680008BD00000830B50B4601460020C4
:100170002022012409E00D46D5409D4205D31D46AD
:100180009540491B2546954040191546521E002DA5
:10019000F1DC30BD70B500242546002801DA0124C9
:1001A0004042002901DA01254942FFF7DDFFAC4258
:1001B00000D04042002C00D0494270BDF0B51FB4C1
:1001C0000646002082B005464024019100901BE0C5
:1001D000019922460F46304600F07EF9049A059BAD
:1001E000801A994110D310461946224600F064F94E
:1001F000361A8F410197224601200021009F00F00E
:100200005BF938184D4100902046641E0028DFDC61
:10021000019B00982946324607B0F0BD03460B43C8
:100220009B0703D009E008C9121F08C0042AFAD2AC
:1002300003E00B780370401C491C521EF9D2704732
:10024000D2B201E00270401C491EFBD2704700226E
:10025000F6E710B513460A4604461946FFF7F0FFC5
:10026000204610BD421C0178401C0029FBD1801A99
:100270007047F8B502464A40D40F42004B0052087E
:100280005B089A4202D20246084611464A0023D031
:10029000C30D4A00DDB2120EAD1A202D35DA490227
:1002A0000126490AF6058A19002C00D05242202165
:1002B0004F1B1146B9402A411018C20D9A4221D055
:1002C000002C17D0012D08DCDA05801AD20F801916
:1002D000D207DBB200F019F9F8BDDA05801A012364
:1002E00040001B06C01880185A428018CA0F1043DD
:1002F000490007E04908C2071143DA05801A80194E
:100300004008801800F0F9F8F8BD61000122511A88
:10031000001BF7E70122D2075140AAE70122D207CA
:100320005040A6E7024670B54A40D30FDB074000B5
:100330002DD04A002AD0010E140E00021202091913
:10034000400A520A8418E50104465443000A120A7E
:100350002E045043A4194219200CC543AA18120CAC
:100360000125AD03521C521912047F39240400D018
:10037000521C104301D44000491EC2B20C06C009F1
:100380002018401C4008802A02D003E0002070BDE5
:1003900040084000002900DA0020184370BD70B505
:1003A00002464A40D50F40004A00ED074008520877
:1003B000002814D0002A12D0C40DD30D4102012010
:1003C000C0055202490A520AE41A091812187D346B
:1003D000914201D3641C00E04900002C01DA0020A6
:1003E00070BD0023914201D3891A0343400849009C
:1003F0000028F7D100290AD0914202D10121C90772
:1004000005E0914201D2012101E00121C943E0054B
:10041000C018401900F071F870BDC217C10F5040EC
:1004200010B54018CA079623002100F06EF810BDE1
:1004300010B500229623114600F067F810BD410068
:1004400040020122400AD205090E80187F2901DAF4
:1004500000207047962903DC9622511AC840704745
:10046000963988407047C20FD207400040080BD031
:10047000C10D0723DB01C91840020905400A1143D9
:10048000C208400711437047002001467047000032
:100490000122D207002800DB101A002900DB511AC4
:1004A000814270470122D207002800DB101A002980
:1004B00000DB511A8842704710B5202A04DB014640
:1004C000203A9140002010BD914020239C1A034601
:1004D000E3401943904010BD10B5202A04DB0846C4
:1004E000203AD040002110BD0B46D340D0402024FC
:1004F000A21A91400843194610BD002904DA401C95
:10050000490001D140084000704770B40024050C38
:1005100005D11024000402D1002921D01124050E98
:1005200001D100020834050F01D10001241D850FFF
:1005300001D18000A41C002801DB4000641C0029BC
:1005400008D020252E1B0D46F540A14000D00121EA
:100550002943084301061B1B000ADB1D02D50020AE
:1005600070BC7047DB05181880180029F8DA401CA9
:100570004900F5D170BC400840007047F0B507460F
:100580000846584087B0C00F049048000E465900F6
:1005900040084908BC1A884105D2384631461E46F3
:1005A00017460B4602465800400810434DD0300D08
:1005B000039040055900400D490D0590401A0290E6
:1005C000402873DA18030121000B09050843019044
:1005D00004980092002806D01146019A4942002052
:1005E000904100910190029840210A1A01990098C7
:1005F000FFF762FF05460C466B4607CB00F098F903
:10060000C0197141039A0E0D0023D71756401A46A0
:100610007A40164344D0049A002A2DD0029A012A27
:10062000039A15DC1205C01A914101263605001CFB
:100630007141D20F059ED2070093019202962A467D
:10064000234600F095F907B0F0BD38463146FAE789
:100650001605234A0F46B218C01AB74101210905F1
:10066000001C4F4100187F41114618187941E20FD4
:1006700010436D19644113E0E2076D0815436408E7
:10068000C2071443039A01261205C01A9141360588
:10069000001C7141CE07400830434908C018514141
:1006A0002A46234600F057F9CDE7FFE704980122D8
:1006B0004000C117121A00238B4104983146C41719
:1006C000381AA141EEE730B40124E407634030BC9E
:1006D00054E730B40124E407614030BC4EE7000029
:1006E0000000E0FFF0B51FB488B00B990998002412
:1006F00048400999C00F490049080991C0070B9962
:100700000090490049080B9109990898A6460843AA
:100710001CD00B990A98084318D00998012440006E
:10072000420D4800410D099824050003000B2043A9
:1007300009900B980003000B20430B9050181C49A4
:100740004018002201901446104605E000200146A2
:100750000DB0F0BD032801DA034600E003239C46F8
:10076000C11A0AAE0AE05F0008ADED5B4F00F75B0F
:100770007D430027AA187C41491C5B1E6145F2DDC0
:10078000410004AB5A522104120C0A43240C401CB1
:100790000828DFDB019802900099704601910090D3
:1007A000059B049A0799069800F0E2F8D0E700004C
:1007B0000DFCFFFFF0B50C465C4085B0E40FE4078C
:1007C00003944C00002664085900944649080246E8
:1007D0000296224321D062460A431ED06200570D82
:1007E0004A000E032303550D012402462C4924051B
:1007F000781B1B0B360B40182343264361460090A1
:100800001C46501AB44103D30098401C009002E0EB
:10081000921800985B41002803DA0020014605B0D9
:10082000F0BD0020012109050746864611E0644617
:100830001D46141BB54106D36546521BB341744691
:1008400007430C43A646CD074008490828439218A1
:100850005B4105460D43EAD11046184313D060466C
:10086000194650407140084306D06046101AB34103
:1008700006D20122002306E000220123DB0702E06A
:100880000122D2435310009874460105381C61417F
:10089000029C039D0019694100F05DF8BFE700006C
:1008A000FD0300004A0009030123090B1B0519433E
:1008B0000A4B10B5520D9A4202DA0020014610BDD3
:1008C000064B34339A4203DC9A1AFFF705FE10BD3B
:1008D000034BD218FFF7F0FD10BD0000FF0300002E
:1008E000CDFBFFFF10B5002904DB0124E4074042E3
:1008F0008C412146002B04DB1C460123DB075242BE
:10090000A341994200D1904210BD0000064C012540
:10091000064E05E0E36807CC2B430C3C98471034A7
:10092000B442F7D3FFF7CEFBE8A7000808A80008F9
:1009300010B5202A06DBCB170846203A1041C11714
:100940000B4306E00B461341D0402024A21A9140ED
:100950000843194610BD10B5002B08DA0024401CCE
:10096000614192185B411A4301D14008400010BD1B
:10097000F0B51FB482B005460C0003D0084606F05F
:10098000A7FC02E006F0A4FC2030024600902146BD
:100990002846FFF791FD049B059A04460F4618432D
:1009A0001143084314D0184610431BD0009840212F
:1009B0000A1A18460599FFF78FFD05460E46009A5C
:1009C00005990498FFF778FD084305D0012004E05D
:1009D0002046394607B0F0BD0020C11705430E433D
:1009E0002C43374300990E986305401A7905E40AB1
:1009F00000220C43FD0A0A3002D500200146E9E737
:100A00000105101969410C9C0D9D00196941FFF702
:100A1000A2FFDFE710B500F0AAFA002804D00349CE
:100A200001200870002010BD012010BD040000202E
:100A300008B50548694601F02AF802226946622095
:100A400005F004F808BD00008306000010B505217C
:100A5000394800F0EDFF00286BD037483749401C7B
:100A600000F0CCFF002864D033480221A43800F005
:100A7000C5FF00285DD030481F21C902963800F01C
:100A8000BDFF002855D02C483D21401D00F0D0FF6F
:100A900000284ED028480121801D00F0C9FF002801
:100AA00047D025480021323000F0C2FF00283FD057
:100AB00021488821A23800F0BBFF002839D01E4809
:100AC0000021A13800F0B4FF002832D01A480021DC
:100AD000A03800F0ADFF00282BD0174898219E3891
:100AE00000F0A6FF002824D01348D5219D3800F03F
:100AF0009FFF00281DD0104856219C3800F098FF19
:100B0000002816D00C48E4219A3800F091FF002804
:100B10000FD00948E621993800F08AFF002808D054
:100B20000548E221983800F083FF002801D0012019
:100B300010BD002010BD00000393000023890000B9
:100B40001CB55FA006F0B4FB00F054FD00F0B6F950
:100B5000002000F025FE5FA006F0AAFB04F040FD97
:100B6000002004F039FF002162A006F0A1FB68A07C
:100B700006F09EFB04F016FF002802D000F012FCE5
:100B80001CBD68A006F094FBEFF3108402F042FC59
:100B90000146224667A006F08BFB0020C8220346D0
:100BA00051010193019C641C01948C42FAD3401CB6
:100BB0009042F6D3EFF3108402F02CFC014622465B
:100BC00068A006F075FB72A006F072FB022269466F
:100BD000012004F0BFFD002802D000F089FB1CBDFD
:100BE0006846008800F0B2FB012000F0D9FD6EA03D
:100BF00006F05EFB04F0B9FC002802D000F048FBD0
:100C000044E06FA006F054FB72A006F051FBFFF722
:100C10001DFF00280DD075A006F04AFB78A006F055
:100C200047FB022269467E4804F0F9FC002808D000
:100C300011E000F04DFB002000F0B2FD04F0B0FC2C
:100C40001CBD68460188774C0120618100F0ACFD35
:100C5000608900F093FB74A006F02AFB04F0A0FC6E
:100C6000002802D000F024FB10E074A006F020FB66
:100C700077A006F01DFBFFF7DBFE7CA006F018FB5B
:100C800000F075F9002805D000F04EFB002000F0C0
:100C900087FD1CBD7BA006F00BFB80A006F008FBC7
:100CA00000F0EAFC002000F0D5FD002000F036FE48
:100CB000814800F095FD00F027FE00F03DFC1CBDD2
:100CC0006261746D616E20696E6974207374617203
:100CD000740D0A006261746D616E20696E69742022
:100CE000726573657420737461746520646F6E65DA
:100CF0000D0A0000627120626F61726420696E6982
:100D00007420646F6E65206372633A25750D0A0066
:100D100062712072657365742073746172740D0A58
:100D200000000000627120726573657420646F6E4C
:100D3000650D0A00627120726573657420736574B5
:100D4000746C6520626567696E207469636B3A250F
:100D50006C75207072696D61736B3A256C750D0A44
:100D60000000000062712072657365742073657401
:100D7000746C6520656E64207469636B3A256C75CC
:100D8000207072696D61736B3A256C750D0A0000F5
:100D900062712064657669636520726561642073A1
:100DA000746172740D0A00006271206366672065C9
:100DB0006E7465722073746172740D0A0000000015
:100DC00062712063666720656E74657220646F6E61
:100DD000650D0A0062712063666720777269746529
:100DE0002073746172740D0A000000006271206348
:100DF000666720777269746520646F6E650D0A00FE
:100E0000627120706F77657220636F6E666967200C
:100E1000726561642073746172740D0A00000000D1
:100E20003492000004000020627120636667206530
:100E30007869742073746172740D0A0062712063A2
:100E40006667206578697420646F6E650D0A00001E
:100E50006271207374617274757020616C61726D5F
:100E60007320636C6561720D0A0000006271206D71
:100E700061696E20666574206F66662073746172A6
:100E8000740D0A006271206D61696E2066657420C0
:100E90006F666620646F6E650D0A00006261746D96
:100EA000616E2066697273742073616D706C652069
:100EB00073746172740D0A001027000010B594B0AD
:100EC000442103A8FFF7C3F900211D481B4C0490DF
:100ED0000091019103940291684601751E200690CD
:100EE00018480790642008900321684681841648BA
:100EF0000A9016480B9016480C9016496846818651
:100F00001549C186FA200E900F90FF20800512909F
:100F1000124813901094119403A801F03DFC502145
:100F20006846009481803721C180FF202D300290D7
:100F3000684601F0FBFE14B010BD000088130000ED
:100F400000004842C02709006F12033B0000104117
:100F50000000404068100000B80B00000000204076
:100F600028308C2801D8012070470020704710B528
:100F70000F2000F071FD10BD1CB501A9622000F02A
:100F8000EBFA002803D068461F498088088001A931
:100F9000642000F0E1FA002803D068461B498088ED
:100FA000088001A9122000F0D7FA002803D0684673
:100FB00017498088088069467F2000F0E3FA0028FE
:100FC00003D068461349007808706946032000F092
:100FD000D9FA002803D068460F490078087069469E
:100FE000052000F0CFFA002803D068460B490078AE
:100FF00008706946072000F0C5FA002803D068464B
:101000000749007808701CBD220000202400002041
:101010002600002005000020060000200700002018
:1010200008000020F8B50027234825490770234809
:10103000088024483D463E4607803C462248694693
:10104000005D00F089FA002828D068461F49008812
:10105000620088521A496D1C0A883F18EDB290420E
:1010600000D202460A8017490A88904200D81046EA
:101070000880641CE4B2062CE0D3114C0F48218890
:10108000814200D12680062D0CD0114806800D48E3
:1010900021880088401A0F490880F8BD0B4861007C
:1010A0004652E6E729463846FFF75EF808490880C9
:1010B000014801210170EAE760000020FFFF000005
:1010C0001000002012000020F8890008880300208A
:1010D0001400002016000020FEB5324C00202070C5
:1010E000314F607038706946682000F035FA2F4D36
:1010F000002805D06846008800B201F00DFA28806B
:101100006946702000F028FA0126002811D06846B0
:10111000008800B201F000FA0190FFF721FF0028DB
:1011200004D0234901980880267002E020482988CD
:1011300001806946742000F00FFA002811D068463B
:10114000008800B201F0E8F90190FFF709FF0028DC
:1011500004D0184901980880667002E01548298873
:1011600001802278617814480A420AD0104900228E
:101170008A5E10490023CB5ED118CA0F511849105E
:1011800007E0002A01D00A4902E0002904D00949F9
:10119000098801803E7001E029880180074928887C
:1011A0000880FEBD630000206200002018000020BF
:1011B0001A0000201C0000201E000020200000203B
:1011C000F0B52848284A0078127800251043274AAD
:1011D00006211278824340D02548425F2E2A3CD215
:1011E0002448425F462A38DA234804882348844248
:1011F00033D323480088844614282ED9214800225E
:101200000088214B56009B5B034200D01146521CC4
:10121000D2B2062AF5D31D4B012256006F009E5B09
:10122000DF5BBE4200D91546521CD2B2062AF4D367
:10123000124A3232944208D36246282A05D36A0001
:101240009D5A2D1BADB2282D09D2062905D2490081
:10125000595A091B89B2142900D80020F0BD0A4848
:10126000805AF0BD0400002009000020600000202A
:101270001E00002018000020100000200A0F0000AF
:101280001600002068000020FE8900088803002066
:1012900010B502A006F00CF810BD000062712063CA
:1012A000666720656E746572206661696C0D0A0060
:1012B00010B502A005F0FCFF10BD000062712063B4
:1012C00066672065786974206661696C0D0A0000A4
:1012D00010B502A005F0ECFF10BD000062712063A4
:1012E0006667207772697465206661696C0D0A0013
:1012F00010B5044604F06EF90246214601A005F03F
:10130000D7FF10BD627120646576696365206661F0
:10131000696C207265743A25642068616C3A307893
:101320002530386C780D0A0010B502A005F0C0FF1A
:1013300010BD00006271206D61696E2066657420C9
:101340006F6666206661696C0D0A000010B5044680
:1013500004F04CF90246214601A005F0A9FF10BD9A
:101360006271206F6B206465763A3078253034786E
:10137000206372633A25750D0A00000010B501461E
:1013800001A005F095FF10BD627120706F77657246
:101390005F636F6E6669673A3078253034780D0A7E
:1013A0000000000010B5044604F014F9024621467E
:1013B00001A005F07DFF10BD627120726573657438
:1013C000206661696C207265743A25642068616CDE
:1013D0003A30782530386C780D0A0000F0B52A488C
:1013E00097B00068FFF73FF8049028480D46006862
:1013F000FFF739F80446264802910068FFF733F8F2
:101400000090244801910068FFF72DF8224F234EE9
:10141000234B244A3F7836681B781288129213AA0D
:10142000C8C2049A10921195029A0F92009A019BD9
:101430000C920D931C4A0E94127808AB07C31B48FC
:101440001C4B02781A481C4900781B7809780593D0
:1014500007920491069019480022825E18481949A3
:10146000194B006809681B88029018480093039282
:10147000019103881648028816480188164805F02D
:1014800017FF17B0F0BD00004C00002048000020FE
:101490004400002040000020090000205C000020E3
:1014A0000B000020280000200A0000200800002077
:1014B0000700002006000020050000201E0000207C
:1014C000340000202C000020160000201200002014
:1014D000140000201000002094A5000810B501465B
:1014E00001A005F0E5FE10BD627120646D207772E9
:1014F0006974653136206661696C20616464723A92
:101500003078253034780D0A0000000010B501460F
:1015100001A005F0CDFE10BD627120646D207772D0
:1015200069746538206661696C20616464723A3060
:1015300078253034780D0A0010B502A005F0B8FE09
:1015400010BD00006261746D616E20696E69742067
:101550006F6B0D0A0000000038B50C460222694688
:1015600004F078F8002804D0054901200870002014
:1015700038BD684600F016F82080012038BD000014
:101580000400002010B5012204F064F8002804D003
:10159000034901200870002010BD012010BD00008B
:1015A00004000020417802780802104370470000D0
:1015B00001490020086070477000002002480021A7
:1015C000416001807047000068000020054900204C
:1015D000087005490870054908704870044908708A
:1015E00070470000600000206100002063000020C0
:1015F0006200002070B500201B4905464200401CD7
:10160000C0B28D520628F9D3184C1948A562E5627C
:1016100025636563A581E58125826582A582E582D2
:1016200025836583A583E583258465846570A5701E
:10163000E57025716571A063E063A571256465643B
:10164000A564256565650B48A565E0646420E071C7
:101650002572A5842570FFF7B9FFFFF7A9FF658103
:10166000FFF7ACFF70BD00008803002004000020DD
:101670000000484200409C4538B5FFF7D3FC69465E
:101680003420FFF769FF002805D06846204900880C
:10169000086020490860204C0020207069463A20EC
:1016A000FFF75AFF00280DD0684600881B4900B29A
:1016B0000860FEF7B2FE1A49FEF771FE194908608C
:1016C00001202070FFF708FDFFF756FC0021164AA5
:1016D000164B174C08464500555BED18A54200D344
:1016E0000121401CC0B20628F5D31248124A0078E6
:1016F00012781043114A1278104301D0012200E001
:1017000000220F48007808430E491043087038BD86
:101710002C00002030000020610000203400002058
:1017200000007A4438000020880300203CF6FFFFC8
:101730000907000006000020070000200800002024
:101740000400002009000020024610B50020002AF5
:1017500000D10C200124002902D10221084320439A
:1017600000F07AF9002803D002480470002010BD70
:10177000012010BD04000020014610B50120002901
:1017800000D10D2000F068F9002804D003490120A1
:101790000870002010BD012010BD000004000020D2
:1017A00010B500F02BFB10BD10B500F005FB10BD0F
:1017B00010B50446094900200870FFF75DFF204678
:1017C00000F048F8204600F0A9F8204600F008F89C
:1017D00000F09AF8204600F02DF810BD040000201B
:1017E00070B50F4D104E696808180E496860884240
:1017F00006D20E480078002802D1307800280ED09A
:1018000000206860FFF7DCFC044604F0DAF80028EA
:1018100002D0012030700024054804802C8070BD67
:1018200068000020102700000400002009000020AC
:101830002800002010B506490A6810187D22D20041
:101840000860904203D300200860FFF7C7FD10BD79
:101850007000002000B58DB000901D4801786846EA
:1018600001711C48006802901B48017868460173AA
:101870001A4801886846C181194801786846017490
:101880001848018868464182174801786846017502
:101890001648017868464175154801786846817593
:1018A00001F072FA06A801F037FA124906980860AA
:1018B00011490798086011490898086008A810495C
:1018C000007C087008A80F49407C08700DB000BD6E
:1018D000610000203400002060000020160000207D
:1018E000620000201E0000200600002007000020EB
:1018F0000800002054000020580000205C00002058
:101900000B0000200C00002010B5034801210078D6
:10191000484000F073FA10BD0400002000B597B0F5
:101920000F902548017810A8017024480068119094
:101930002348017810A801722248018810A841812B
:101940002148018810A881812048018810A8C18100
:101950001F48017810A801741E48018810A8418210
:101960001D480078322801D3012100E0002110A891
:1019700001751A48017810A841750FA801F03EF8CA
:10198000684600F0FFFE1649009808601549019866
:10199000086068461449807C0870144907980860FC
:1019A00013490898086013490998086012490A9871
:1019B000086017B000BD0000610000203400002066
:1019C0006000002010000020120000201400002001
:1019D000620000201E0000200C0000200B000020F0
:1019E0003C000020400000200A00002044000020AD
:1019F000480000204C0000205000002038B50A4666
:101A000004466946104600F042F802226946204624
:101A100003F0E8FF002807D00449012008702046A1
:101A2000FFF75CFD002038BD012038BD0400002018
:101A300013B50446012201A903F0D4FF002807D002
:101A40000449012008702046FFF760FD00201CBDFE
:101A500001201CBD0400002038B50446022269465E
:101A6000572003F077FE002810D16846FFF79AFD53
:101A7000C00604D4222003F09AFF002806D168464D
:101A8000047001226946972004F034F838BD0870CC
:101A9000000A4870704700001CB500F08BF820A0C9
:101AA00005F006FC00240325FF222346013221A174
:101AB00024480095019406F051FE022637020023C7
:101AC0003A4621A123480096019406F047FE0023E0
:101AD0002A0221A123480095019406F03FFE00232D
:101AE0003A4621A123480096019406F037FEFF26CE
:101AF00001258136002332461FA12248009501941A
:101B000006F02CFE002332461FA1234800950194C5
:101B100006F024FE21A005F0CBFB06F02FFCFEE72B
:101B200072746F7320637265617465207461736B86
:101B3000730D0A00626F6172645F696F5F74617335
:101B40006B0000002D7C000863616E5F7461736B35
:101B5000000000003D7C00086261746D616E5F747E
:101B600061736B00157C00087363383831355F741E
:101B700061736B00BD8100086E766D5F7461736B7D
:101B800000000000097D0008646973706C61795F72
:101B90007461736B00000000457C000872746F7301
:101BA000207374617274207363686564756C657208
:101BB0000D0A000010B516A005F07AFB04F088F8B5
:101BC00017A005F075FB03F0C9FF1AA005F070FB24
:101BD00004F01EF81CA005F06BFB04F053F81FA0E6
:101BE00005F066FB00F074F821A005F061FB00F041
:101BF00067FB24A005F05CFBFEF7A2FF26A005F022
:101C000057FB00F011F929A005F052FB10BD0000B0
:101C100061707020696E69743A206C65640D0A0009
:101C200061707020696E69743A20627574746F6EA9
:101C30000D0A000061707020696E69743A2063615A
:101C40006E66640D0A00000061707020696E697430
:101C50003A20656570726F6D0D0A0000617070202A
:101C6000696E69743A206F6C65640D0A00000000AB
:101C700061707020696E69743A2073633838313549
:101C80000D0A000061707020696E69743A2062610B
:101C9000746D616E0D0A000061707020696E697468
:101CA0003A20706F7765720D0A0000006170702035
:101CB000696E69743A20646F6E650D0A0000000059
:101CC0000007000F0A2801D23030704737307047C4
:101CD00010B503F0CDFA04480121017000214170D4
:101CE000084600F08BF810BD74000020F0B585B0F8
:101CF00014460F46064603F097FA012500211023EB
:101D000023A20846009503F0C7FB102322A2194620
:101D10000020009503F0C0FB0095002E01D020A20A
:101D200000E020A210232021002003F0B5FB3E425A
:101D300023D050206946087157204871522088717D
:101D40003A20C871200BFFF7BBFF69460872200AD2
:101D5000FFF7B6FF694648722005000EFFF7B0FF97
:101D600069468872E0B2FFF7ABFF6946C87200208F
:101D70000873102301AA009502E010230BA200951E
:101D80003021002003F088FB03F0EAFA05B0F0BD33
:101D9000424D53323456000042512049494300001D
:101DA0004F4B00004641494C000000005057523A4A
:101DB0002D2D2D2D000000000A4610B50E490B7880
:101DC000002B17D04B78002B0AD08B78834207D199
:101DD000CB78834204D100280CD08B88934209D061
:101DE00001234B708870C870002800D08A8001469B
:101DF000FFF77CFF10BD00007400002010B5094AF9
:101E0000117800290DD05178002902D091788142B3
:101E100007D0012151709070D17892880140FFF76E
:101E200065FF10BD7400002010B50F48002101703F
:101E300041708170C170017141718171C171017214
:101E4000016141818181084600F0C6FA07480849CE
:101E50000088884206D3074807490088884201D88D
:101E6000FEF7D8FD10BD00007C000020100000200F
:101E7000C409000012000020CC100000F8B5164C78
:101E80000646A0790F46002808D0E078B04205D178
:101E90002079B84202D16079002813D0002E02D1F7
:101EA000002000F099FA39463046FFF74DFC002536
:101EB000002808D0304600F08FFAE670277165716F
:101EC0000120A071F8BD002000F086FA6570A570B1
:101ED000A57105202070F8BD7C00002070B5154C60
:101EE0000646A079002808D0E078B04205D12079D4
:101EF000002802D16079002812D1002E02D10020E2
:101F000000F06AFA3046FFF737FC0025002808D0B9
:101F1000304600F061FAE670257101206071A07111
:101F200070BD002000F058FA6570A570A5710520FD
:101F3000207070BD7C00002010B500F04DFA024901
:101F40000020887110BD00007C000020F0B507461D
:101F500070487149008889B0884206D36F4870493B
:101F60000088884201D8012400E0002400F0E8F94C
:101F7000002804D100F090F96A49884201D3012673
:101F800000E0002600F08EF901214840664A002159
:101F9000515E2D2901D8012200E000221431502980
:101FA00001D8012100E000218C4660497D230968A9
:101FB000DB00D94201DA012100E000218E462146F2
:101FC000052300255A4C00290DD05A4909780029CB
:101FD00028D025616581257223706570A570002168
:101FE000E57108466EE0A570658125720640667051
:101FF00016D02078042801D0256107E04E482169D9
:10200000814201D2C9192161814203D2042020708A
:10201000012002E0237065700020FFF78DFF53E080
:102020002370F9E73B49454B0988994202D9734629
:10203000002B10D025616581257203232370E3797D
:102040002946002B01D10123E3710640164066703A
:102050003046A17036E01923DB01994206D2256192
:1020600065812572012329462370EEE7022125614F
:1020700021700640E571164207D02848284900889B
:102080006439884201D2012000E00020624660707D
:10209000A270002A15D0638929498B4211D2D81920
:1020A00080B26081884208D36181207A002804D1FF
:1020B0000120207223A005F0FBF86078FFF70EFFE7
:1020C00002E01146FFF7DAFEA0897D26C01980B232
:1020D000F600A081B0421AD3A58100F0DDF80546D4
:1020E00000F02EF911490A680C49098806900795F5
:1020F0000592049107486179008803900196029641
:102100000091A37862782178174805F0D1F809B0DA
:10211000F0BD000010000020C409000012000020E3
:10212000CC100000E02E00001E0000203400002033
:102130007C0000200900002060EA0000B80B0000CD
:10214000204E0000706F776572207072656469734D
:1021500063686172676520646F6E653A202575203B
:102160006D730D0A0000000030A6000870B5434CE6
:10217000204662788178C078002A07D0227800252E
:10218000002A0DD0A279002A0AD106E0002901D048
:10219000002801D100F072F970BDE279002A01D067
:1021A0006570F7E7002901D00028F5D0012004F080
:1021B000D9F800F065F80028F2D02021002004F0C2
:1021C000FCF800F05DF80028EAD02821082004F08F
:1021D000F4F800F055F80028E2D000228021092010
:1021E00004F0D0F800F04CF80028D9D00022742177
:1021F0000A2004F0C7F800F043F80028D0D00822E5
:1022000000210B2004F0BEF800F03AF80028C7D0F7
:10221000002205210C2004F0B5F800F031F8002868
:10222000BED001220021192004F0ACF800F028F8FB
:102230000028B5D07D26F6003146002004F050F885
:1022400000F01EF80028ABD03146012004F048F819
:1022500000F016F80028A3D0012004F029F800F0BF
:102260000FF800289CD0012004F02EF8002004F084
:1022700079F80120A070E57070BD00009403002083
:10228000002805D0034900220A70087710467047DD
:1022900001207047940300200148C0687047000087
:1022A0009403002005480178002905D08179002990
:1022B00002D1C079002800D001207047940300208B
:1022C00010B5154C0121217000206070A170E170E3
:1022D00020716071A071E07120726072E060206115
:1022E0006061A0610D4920774860088003F0ACFE72
:1022F00000F0C4F8012003F0DBFFFFF7C1FF00F09E
:1023000081F82078002801D0012100E0002104A0FC
:1023100004F0CEFF10BD00009403002090000020C8
:10232000736320696E6974207374616E64627920CE
:102330006D6F6E69746F72206F6B3A25750D0A00B0
:1023400001480079704700009403002070B58EB0FA
:1023500003F028FD044603F0ADFE03461C48014689
:102360000C3166C909910AA964C1017A002900D01B
:102370000121C279002A00D001228579002D00D0E8
:1023800001250679002E00D00126059606950792B4
:102390000891C278417A002A00D001228578002D68
:1023A00000D001254678002E00D001260196029526
:1023B000009403920491027F0078002801D001214B
:1023C00000E00021034804F073FF0EB070BD000070
:1023D0009403002090A6000838B5044668460470AF
:1023E0000648074D4068002806D0022300226946AF
:1023F00006F081F8012800D06C7038BD90000020F4
:10240000940300201CB51C4C01202070684603F08A
:102410002EFFFFF735FF002811D0684600782071A5
:1024200068464078607168468078A0716846C078D8
:10243000E0716846007920726846407960720E4902
:1024400000200C3103F093FEFFF71AFF0A49012028
:10245000103103F08CFEFFF713FF07490020143101
:1024600003F02EFEFFF70CFF03490120183103F0A3
:1024700027FEFFF705FF1CBD9403002010B50120C7
:1024800003F070FF012003F01FFF02480121C1701B
:10249000817010BD9403002038B5164C0546606865
:1024A000002805D101210022084605F0D5FF606013
:1024B000FFF7A8FF606800280CD00022694606F0EC
:1024C000A2F8012806D168460078002800D0012033
:1024D00009494870FFF74AFE20887D21401980B2E3
:1024E000C9002080884203D300202080FFF72EFF00
:1024F00038BD0000900000209403002010B50400B7
:1025000007D0FDF7AFFE82B264232146014802F0F6
:102510007DFC10BDA8020020064910B5401802D469
:102520000A21401D01E00A21401FFDF733FE00B2E1
:1025300010BD000055F5FFFF70B5034614488342F7
:1025400001D8002070BD134C002188000219958825
:10255000101D9D4215D3A9B2158880789478491B27
:10256000021B581B002909D0504364225043FDF739
:10257000FBFD64214C43001980B270BD64206043B0
:1025800070BD491CC9B20B29DFD3034870BD0000E0
:10259000C40900000A8A000810270000002804DA95
:1025A0000121C907884201D108467047404270475F
:1025B000C2438A4201D9401870470020C043704787
:1025C000F0B50746284E85B00020307570750C4672
:1025D000384600F04BF900283DD03546403D388A5A
:1025E000298D884209D3002C07DD2046FFF7D6FF4E
:1025F000E96A884201D8012000E000200090F889B3
:10260000698D884209D8002C07DA2046FFF7C6FFFB
:10261000296B884201D8012000E000200490124C70
:1026200000984034002803D039686069FFF7C0FF84
:1026300060610498002803D03968A069FFF7B8FFEB
:10264000A06163697F226F6B0121D205BB4204D375
:10265000064805C4317505B0F0BDAB6B9842FAD39E
:10266000002005C47175F6E7F40300200000C8429D
:10267000F8B50168314D044600291DD0304881422B
:1026800000D920602F4F00213A46606800F068F8BA
:102690006060207A002803D0012801D00020207239
:1026A000E06800F06BF9E060606900F067F9606174
:1026B0002069002802D003E02560E3E7224820617A
:1026C000208B002801D1032020837F22D2051F49BF
:1026D000E06900F045F81E4EE0613A463146206A56
:1026E00000F03EF820621B4A3146606A00F038F87C
:1026F0006062E06A00F042F9E062206B00F03EF9AF
:102700002063606B002800D16563A06B002800D1B6
:10271000A563608D218D884203D30F4860850F48E3
:1027200020853A463146E06B00F01AF8E0633A46FD
:102730003146206C00F014F82064F8BD88130000C6
:10274000400D03000000C842C0270900BD37863590
:10275000CDCCCC3D0000A041B80B000068100000BB
:1027600070B514460D460646FDF792FE01D2284686
:1027700070BD21463046FDF795FE01D2204670BD62
:10278000304670BD10B5002803D03C220149FDF74A
:1027900045FD10BDF803002070B52949294D2A4A8E
:1027A00006C500242C701E226A60284AAA60642292
:1027B000EA6003222A82264A6A61264AAA61264AD8
:1027C000EA61264A2A84264A6A84FA226A62E9620F
:1027D000AA622963FF21890569632249A963083D2B
:1027E000002804D0014644222846FDF717FD15486D
:1027F000FFF73EFF13486E688030846006601A4918
:10280000C46041600482446184616E64AE64403897
:10281000EC64047444748474C474047544758475DD
:10282000AC65EC652C666C66A9662868FDF700FE51
:1028300029466C3151C1AC67EC6700F0E1F970BD1D
:1028400088130000B403002000004842C02709009C
:102850006F12033B00001041000040406810000070
:10286000B80B0000000020400000C841002817D02D
:10287000017B002914D0C3890B498B4210D3428AB3
:102880008A420DD3008A88420AD308498B4207D86E
:102890008A4205D8884203D8934201D8824201D99E
:1028A0000020704701207047C4090000FE1000009E
:1028B000F1B52E4F88B00020F874B87C002853D0B2
:1028C0000898FFF7D3FF00284ED00898408AFFF7FA
:1028D00033FEFDF7ADFD2649FDF761FD3C46403472
:1028E00002902168FDF716FD0646224886423BDC31
:1028F0002148864238D82546803D296A6068009084
:10290000FDF7B7FC01460098FDF749FD31460390FD
:10291000FDF708FD696A01230A46DB075940FFF706
:102920001FFF01462068FDF7A4FC114A0021FFF7B4
:1029300017FF20607F20C0050399FDF7EBFC61685D
:10294000FDF7F0FC60600298A8650898408AFDF7E2
:102950006FFDE8650898408AFDF76AFD2E662867D6
:10296000039868660120F87409B0F0BDF4030020F4
:102970000000C8420000F0410000F0C1002804DA65
:102980000121C907884201D1401E7047404270476B
:1029900070B514460E46002827D0FDF749FD1349AF
:1029A000FDF7FDFC054612492046FDF7BBFC044639
:1029B0003046FDF732FD2946FDF7B4FC2146FDF710
:1029C000EEFC0C4C01462068FDF753FC0A4A00213E
:1029D000FFF7C6FE206020468038C0692946FDF713
:1029E000A1FC6168FDF745FC606070BD00007A44A1
:1029F00000001042340400200000C842F8B5040072
:102A00007ED0444D0020E87428752E466875403EFF
:102A1000306670662046FFF729FF2F4640370028B2
:102A20001AD0297C608A002919D13B49884222D3D7
:102A30003A4988421FD8FFF77FFDFDF7F9FC384976
:102A4000FDF7ADFC3860B064012028740220687482
:102A50003448786000F0D4F8287C00280BD0207926
:102A6000002808D0A7683846FFF798FDF16888422B
:102A700007D800270EE00020B860F8603882A874FC
:102A80003DE0307A012805D1C007874201D1471EB9
:102A900000E07F423068FDF7CBFC0546207E002831
:102AA0000BD0607E322808D3FDF7C2FC1C49FDF72D
:102AB00076FC2946FDF736FC0546207D002808D027
:102AC0001620205E002804DA17492846FDF72AFC64
:102AD00005467F20C005854200DA0546F5662A4690
:102AE00039462068FFF754FF3946204600F0B8F811
:102AF0002046FFF7DDFE39462046FFF761FD00E086
:102B000007E0206800F034F800F07AF8204600F082
:102B10000DF8F8BDF4030020C4090000FE10000009
:102B20000000C8420000C8416666663F0F4A28217F
:102B3000137C002B00D03C2100280CD00379002B03
:102B400000D00F31037B002B00D00F31007E002816
:102B500001D0491DC9B2D07C002801D00A31C9B2C8
:102B6000642900D96421917570470000F4030020A6
:102B7000F1B5204805460668803D3046A96CFDF752
:102B8000C9FB04460098002816D0FF20C0050702A4
:102B9000C442194E009811D2FDF74AFC3146FDF7A8
:102BA000FEFBE96BFDF7BEFB064601462046FDF73E
:102BB00079FC14D2344612E0AE64F8BDFDF738FC5F
:102BC0003146FDF7ECFB296CFDF7ACFB06462046D1
:102BD00078403146FDF766FC01D234467C40214600
:102BE000A86CFDF746FB054A0021FFF7B9FDA86474
:102BF000F8BD00003404002000007A440000C84200
:102C0000F8B5134C134F00213A462068FFF7A8FD92
:102C10002060114A11496068FFF7A2FD0646606016
:102C20002546803D206868646867E96EFDF77AFB99
:102C30003946FDF7B4FB3F210906FDF71AFBFDF706
:102C4000FEFBAE66E864A068A867E068E867F8BDC8
:102C5000340400200000C8420000C84317B7D13830
:102C6000F8B507460846FFF799FC214C204926464F
:102C70004969002540368034884203D9A560E56063
:102C8000258212E03968A068FFF792FCA060384600
:102C9000FFF7ECFD002807D0208A002807D0798AAA
:102CA000814208D3081A07E0E560B574F8BD788A58
:102CB0002082E5600EE0401A0D4980B2098B814206
:102CC00005D33968E068FFF773FCE06002E0E56077
:102CD000788A20820648A1680069814204D3E168AD
:102CE000814201D3012000E00020B074F8BD000053
:102CF000B403002070B504460D460068FDF79FFB45
:102D0000002808D0296809182960FDF791FB21687F
:102D1000FDF704FB206070BD10B5002803D01C2215
:102D20000149FDF77BFA10BD5C04002030B5154960
:102D3000134A50230A608B803723CB80FF232D3327
:102D40008B6000280AD030C80068886030C108391C
:102D5000002C00D10A60002800D18B600020C860E0
:102D6000086148618861C861064A08844884642310
:102D7000203213713C2353718862C862086330BDEE
:102D80008813000050040020F8B5002870D0017BA3
:102D9000384C002904D0C189228C914200D9218469
:102DA000017C002907D012212222415EA25E9142BD
:102DB00004DD618402E0E169491CE161017D0029D3
:102DC00005D1417D002902D1817D002902D0A16970
:102DD000491CA1610179002948D00168002945D02A
:102DE0008068061E01DA754200E035460846FDF7A8
:102DF0001FFB07462846FDF71BFB3946FDF792FAF5
:102E00001D49FDF7CCFA0546002E0BDD2946E06A88
:102E1000FDF72FFA1749E0620C3108462030FFF722
:102E200069FF23E0002E21DA2946206BFDF721FA05
:102E300010492063103108462030FFF75BFF294618
:102E4000A06AFDF716FAA06209E02068FDF7F0FA23
:102E5000A16AFDF763FAA0626069401C60612068A6
:102E6000FDF7E6FAA16AFDF713FBEED900F006F8CC
:102E7000F8BD00005004002000BA5B4A10B5174AA4
:102E80006420138C94883C21A34200D35F2022232A
:102E90000624D35E145FA34201DB401FC0B29369D6
:102EA000002B01D00A38C0B294685369A34201D301
:102EB000401FC0B2D469002C00D0282114691268C8
:102EC000944200D31431002B00D01431642900D96E
:102ED0006421024A20321071517110BD500400204B
:102EE00010B5102000F0C2F910BD72B6FEE7000068
:102EF00030B51A4C3523026817491B01A24200D194
:102F000017498032016414681F252D04AC43858E57
:102F10002D042C4314600A467032426402688032E9
:102F200014680F252D06AC43058F2D062C43146025
:102F30000A46B0328264D832C264132252018A181F
:102F400002654F22D2008A1842650022C81800E0AC
:102F500004C18142FCD330BD00B400400068004091
:102F600050B7004070B5044600F054FA0546601CA6
:102F700002D004480078241800F04CFA401BA0420C
:102F8000FAD370BD1401002010B55C22125C012A36
:102F900007D0022A05D0016E0222114301660120EA
:102FA00010BD0A68002A0ED00A7B0B6952071A432B
:102FB0000B7A4C6949689B07406C2343C900401851
:102FC0000CC0002010BD0B7A4A699B071A430B7B8B
:102FD0000C8ADB06240449682343006C1A438900E9
:102FE00040180260EDE730B55C252D5C039C012D97
:102FF00005D0016E042211430166012030BD090194
:10300000920011435A001143006821438030026846
:103010009209920111430160002030BDF8B504000F
:1030200005D025464035287F002802D006E0012043
:10303000F8BD00206877204600F0C2F8206881695A
:1030400010229143816100F0E5F90746012604E072
:1030500000F0E0F9C01B0A2810D82068806900073A
:10306000F6D4206881693143816100F0D3F90746C5
:103070000AE000F0CFF9C01B0A2805D9206E3043C2
:10308000206603202877D2E720688069C007F0D047
:103090002068816902221143816147482168814289
:1030A00002D1464960680860207C402101282068E0
:1030B00082693AD00A438261607C01218903012838
:1030C0002068826933D08A438261A07C0121090390
:1030D0000128206882692CD00A43826121688869AE
:1030E000032212029043A26810438861206881691C
:1030F000A4229143816121680A69102082430A61F8
:10310000E168012917D000291DD02022022916D0FC
:1031100021688B6980273B438B6121680B690343DE
:103120000B61E06803280AD00DE08A43C3E70A4335
:10313000CAE78A43D1E720688169042201E0206858
:10314000816911438161207E7F2140064906401834
:10315000E1690902FF3901390843216A491E084320
:10316000A18A0A0401210904521A10432268D0617D
:103170000320A2680002824210D1E26AA06A120211
:10318000FF3A401E013A1043226B1201103A1043DD
:10319000A28C1204511A08432168C860206880304C
:1031A000016CE26B114301642046FFF7A1FE002091
:1031B000A06520662E77F8BD0064004000650040E1
:1031C00010B59AB00446142113A8FDF740F84C211D
:1031D0006846FDF73CF816492068884225D1012051
:1031E0004006002400901294684600F057FD002825
:1031F00001D0FFF77AFE0F48C26B81140A43C26305
:10320000C26B0A401892426B02210A434263406B30
:1032100013AA084018900320000213C2032017903D
:1032200013A91694044800F037F81AB010BD000036
:10323000006400400010024000040050014640318C
:103240000A7F012A05D0016E042211430166012084
:10325000704702220A7701688A69520852008A611F
:1032600000210166084670477047000070B5084DA0
:103270000446E868204203D0EC60204600F00AF8DB
:103280002869204203D02C612046FFF7EDFF70BD76
:103290000018024070470000F0B5002303249DE0B1
:1032A00001259D402A4072D00E79B607B60F012E37
:1032B00001D0022E16D186682746B4465E00B64677
:1032C000B7406646BE43B446CF687646B7406646CA
:1032D000374387604668AE430D79ED06ED0F9D409C
:1032E000354345600D79ED43AD0708D0C5685F00F3
:1032F0002646BE40B5438E68BE402E43C6600D795B
:10330000AD07AD0F022D0ED1DD08AD002D18AC4676
:103310002D6A5E07F60E0F27B740BD430F69B74011
:103320002F4365462F6205685F002646BE40B543C1
:103330000E79B607B60FBE402E4306604D68AD034A
:10334000AD0F4AD09E08284DB6007519AC462D6EBB
:103350009E07F60E0F27B740BD4305273F07B8422B
:1033600001D1002715E0214FB84201D1012710E01B
:103370001F4FB84201D102270BE01E4FB84201D1C6
:10338000032706E01C4FB84202D1042701E024E0E5
:103390000527B7402F43144D664637662D684E68A3
:1033A0009543F60200D515430F4F3D607D684E688A
:1033B0009543B60200D515437D600B4E8036756887
:1033C0004F689543BF0300D51543756035684F6856
:1033D0009543FF0300D5154335605B1C0A6815460D
:1033E000DD4000D05CE7F0BD001802400004005052
:1033F00000080050000C0050001000500069084008
:1034000000D001207047002A01D08161704781629D
:1034100070470000014880687047000014010020D8
:1034200070B5024640325378202B1CD11378012B03
:1034300019D00123137024245470046825689D4317
:103440002560046825681E03B54325600468256867
:103450000D43256000680168194301602020507009
:103460000020107070BD022070BD70B50246403261
:103470005378202B1BD11378012B18D00124147002
:103480002423537003681D68A5431D6005682B68DD
:103490000F263602B3430902194329600068016808
:1034A00021430160202050700020107070BD022068
:1034B00070BD406C7047000070B5040006D0254612
:1034C000403568780026002802D005E0012070BD54
:1034D0002E70204600F0BCFA242068702068016835
:1034E0004908490001600F21606809068843216886
:1034F000086121688A680120C00382438A60E1680C
:103500000129A1682FD021229202114322689160E3
:103510000121E268C902022A2268536825D08B4340
:10352000536021684A68124B1A434A602168CA688E
:103530008243CA60616920690843A169090208439E
:103540002168C860216AE069084321680860206832
:1035500001680122114301606664202068702663BF
:10356000AE70002070BD0143D0E70B43D8E70000E8
:1035700000800002FFB50446002083B02546403598
:1035800001906A78202A70D122689269D24312048D
:103590006BD52A78012A68D001222A7024226A7009
:1035A00060648F05BF0DE06801280AD03048012112
:1035B00038188902884321684860FFF72BFF0646C8
:1035C0000CE02C48F3E70698401C07D0FFF722FFD9
:1035D000811B069881423ED800283CD0216888692A
:1035E00089698006C00FC906C90F0843EBD020685F
:1035F0008169C943C90619D50096002220212046B9
:10360000069B01F07FFD002808D0606C04281BD1C8
:1036100021682020C8610020606415E02168202016
:10362000C86168700020287007B0F0BD1021C1612A
:103630000096002220212046069B01F063FD002811
:1036400002D121682020C8610198401C01460190E8
:1036500005988142A7D320206870616C01436164A2
:10366000002028700120DFE7FFE70220DCE70000F0
:103670000028000200200002FFB505460446403540
:10368000687881B0202877D12878012874D001206B
:103690002870FFF7BFFE0746012200901923D103CF
:1036A000204601F02FFD002851D121206870102004
:1036B000A870002666640398606204996185666359
:1036C000628D3949FF2A03D9FF222285CB0206E009
:1036D000628D228501235B061204120C0FD0226832
:1036E00000789062606A401C6062608D401E608558
:1036F000208D401E2085401CC2B2009101E00022B6
:1037000000912046029901F0E7FC16E001F05EFD11
:1037100000281CD1606A216800788862606A401CB9
:103720006062608D401E6085208D401E80B22085C5
:10373000618D002901D000280CD0608D0A990028E5
:103740003A462046E2D101F016FD00281DD00120A6
:1037500005B0F0BD00970022802120460A9B01F0B1
:10376000D1FC0028F3D1608DFF2806D9FF222285E5
:1037700001231B060096C4E714E0608D20850096A7
:10378000208D0123C2B25B06BBE721682020C861FF
:1037900021684A68054B1A404A606870AE702E7006
:1037A0000020D5E70220D3E70020008000E800FEDB
:1037B000FFB5054604464035687883B0202875D1AA
:1037C0000C98002814D00D98002811D028780128D2
:1037D0006CD001202870FFF71DFE074601220090E3
:1037E0001923D103204601F08DFC002874D103E099
:1037F0000120400260646FE0222068704020A870C1
:10380000002666640C9860620D98608566630E9869
:103810000090019704A90EC9204601F0FDFB002885
:1038200001D02E7058E0618D3448FF2905D9FF2260
:10383000228501231B06009006E0618D2185009002
:10384000208D0123C2B25B062046049901F044FC9E
:1038500000970022042120460E9B01F053FC002813
:103860003AD12068406A616A0870606A401C6062F0
:10387000208D401E81B22185608D401E6085608D47
:1038800000281FD000291DD100970022802120464A
:103890000E9B01F037FC00281ED1608DFF2806D951
:1038A000FF22228501231B06009607E024E0608D9D
:1038B00020850096208D0123C2B25B062046049924
:1038C00001F00AFC608D0028C2D13A4620460E99CC
:1038D00001F051FC002802D0012007B0F0BD2068A3
:1038E0002021C16120684268054B1A40426069701E
:1038F000AE702E700020F0E70220EEE7002400807A
:1039000000E800FEFFB5054604464035687883B000
:10391000202872D10C98002814D00D98002811D0BE
:103920002878012869D001202870FFF773FD074629
:10393000012200901923D103204601F0E3FB002867
:1039400071D103E00120400260646CE021206870C6
:103950004020A870002666640C9860620D9860850F
:1039600066630E980090019704A90EC9204601F0E5
:1039700083FB002801D02E7055E0608DFF2805D90B
:10398000FF22228501231B06009606E0608D20851C
:103990000096208D0123C2B25B062046049901F0F7
:1039A0009BFB3A4620460E9901F010FC00283AD1C4
:1039B000606A216800788862606A401C6062608D7D
:1039C000401E6085208D401E80B22085618D0029BB
:1039D0001FD000281DD100970022802120460E9B79
:1039E00001F090FB00281ED1608DFF2806D9FF2230
:1039F000228501231B06009607E024E0608D2085C8
:103A00000096208D0123C2B25B062046049901F086
:103A100063FB608D0028C4D13A4620460E9901F020
:103A2000AAFB002802D0012007B0F0BD20682021A9
:103A3000C16120684268054B1A4042606970AE70EF
:103A40002E700020F0E70220EEE7000000E800FE04
:103A5000F0B599B00446142113A8FCF7F8FB4C21EB
:103A60006846FCF7F4FB28492068284C12260627F4
:103A7000002588421ED1202000900695684600F05F
:103A80000DF9002801D0FFF730FA616B02200143E5
:103A90006163616B159501401891C02017971695C9
:103AA00013A941C11A480839FFF7F6FBE16B012061
:103AB000400522E01749884224D140200090079514
:103AC000684600F0EBF8002801D0FFF70EFA606BB3
:103AD000012108436063606B15950840189003202E
:103AE000C00213A91797169541C105200007083990
:103AF000FFF7D2FBE16B012080050143E163E16B3D
:103B00000140189119B0F0BD00540040001002406F
:103B1000000400500058004002488168027889186B
:103B2000816070471401002010B508480024016826
:103B3000821511430160032000F00AF8002801D02B
:103B4000012401E000F052F8204610BD00200240A0
:103B500030B505461F4887B002680121C9030A43F2
:103B6000026000680840009005A901A800F082FAF0
:103B70000498002815D000F099FA40001649FCF787
:103B8000F3FA411E1648154A0260164AC2604160A7
:103B9000002101618160816100F0E8FD040003D033
:103BA00015E000F083FAE9E70D4800F017FE040085
:103BB0000DD1132000F034F8042D07D2002229463D
:103BC000132000F039F80848056000E00124204681
:103BD00007B030BD4010024040420F0000200040BE
:103BE0003C030020E70300001801002008B50B4843
:103BF00001680122114301600068104000900748ED
:103C00004038C26B01040A43C263C06B0840009095
:103C10000320400200F05EFD08BD0000401002409D
:103C2000002805DBC106C90E012088400149086053
:103C30007047000000E100E010B503F061FB10BD2B
:103C400010B50F4C216803225202914301432160B9
:103C5000C11FFF39FA390ED10A48062100684843CE
:103C60000949FCF781FA401C02E0002805D0401EFB
:103C700061694905F9D4002010BD032010BD000082
:103C8000007000402001002040420F0002480168FF
:103C9000821511430160704700700040FEB5044674
:103CA00000680027984D994E800355D5002000905C
:103CB000F06BC00007D4F16BA8050143F163F16B11
:103CC0000140012000909248016882151143016073
:103CD000FFF7A0FB019005E0FFF79CFB0199401A5C
:103CE000022825D88A480068C005F5D5E86903216F
:103CF000090208400FD0216C81420CD0E8690321F1
:103D00000902EA698843012109040A43EA61EA6970
:103D10008A43EA61E861C0070FD0FFF77BFB01909F
:103D200008E0FFF777FB0199411A7A48814201D9EF
:103D3000032709E0E8698007F3D5E8690321090250
:103D40008843216C0843E8610098002804D0F16B97
:103D5000012000078143F1632078C00705D068691E
:103D6000616880088000084368612078800705D575
:103D700068690C218843A16808436861207840077E
:103D800005D5686930218843E16808436861207877
:103D9000C00606D568690321890288432169084362
:103DA00068612088C00406D5686903210902884338
:103DB0006169084368612088800506D56869032128
:103DC00089048843A16A084368612088400506D5B4
:103DD0006869032109058843E16A0843686120781E
:103DE000800606D56869032109038843A169084351
:103DF00068612078400606D56869032189038843F5
:103E0000E16908436861208840040ED56869216B28
:103E100080008008084368610121206B890788427F
:103E200003D1F06889130843F0602068000305D5CA
:103E3000686940218843616B08436861206881029A
:103E400035480BD569698210A36B914319436961A9
:103E5000A16B914202D1F1680143F16021684902EE
:103E60000AD56969E26B814311436961E16B814263
:103E700002D1F1680143F160218809050DD5A969D6
:103E8000226A890889001143A961216A012904D1A4
:103E9000F168012212041143F160218889040DD5D3
:103EA000A9690C229143626A1143A961616A0429DC
:103EB00004D1F168012212041143F1602168C901A3
:103EC0000ED5A969032212039143626C1143A961C3
:103ED0000122616C5203914202D1F1680143F16009
:103EE000216889010DD5A969032212029143A26CB0
:103EF0001143A961A26CD11FF93902D1F1680143C4
:103F0000F1603846FEBD0000401002400010024043
:103F1000007000408813000000000001F8B50F4653
:103F2000060043D04D4D28684007400FB84213D2D9
:103F30002868C008C00038432860FFF76BFA0446C1
:103F400005E0FFF767FA011B4548814261D8286800
:103F50004007400FB842F4D13068424C81070DD57C
:103F6000400704D5A068072109030843A060A068A2
:103F70000F2109028843B1680843A0603078C00768
:103F800032D0706801280AD002280BD000280FD048
:103F90003449403103280ED0C969890704E02168FB
:103FA000890301E021688901002906DB0120F8BDB1
:103FB00021684905F8E7096AEFE7A168C908C9005F
:103FC0000143A160FFF726FA009006E0FFF722FA0E
:103FD0000099411A224881421BD8A0683821084024
:103FE0007168C9008842F1D128684007400FB84283
:103FF00017D91A480168C908C90039430160FFF799
:1040000009FA054607E0FFF705FA411B144881420B
:1040100001D90320F8BD114800684007400FB8429D
:10402000F1D13078400706D5A068072109038843FD
:10403000F1680843A06000F04DF8A1683C228909AE
:104040001140094A515CC906C90EC84007490860B9
:1040500007480068FFF77CFDF8BD00000020024023
:104060008813000000100240ECA40008200100208A
:104070001801002010B5072202600A4A93685B0706
:104080005B0F436093680F2424022340836092688F
:1040900007231B031A40C260034800684007400F13
:1040A000086010BD00100240002002400648074989
:1040B00000688968064A4904490F8900515CC906AD
:1040C000C90EC840704700002001002000100240C7
:1040D0002CA5000810B5204CA068204A8006400F8F
:1040E00016D0A0688006410F501001290FD0A1689A
:1040F0008906490F022912D0A0688006400F0428C3
:1041000023D0A0688006400F032821D0002010BDD6
:10411000206801218004400F8140104612E0E168D0
:104120008B07E1689B0F4906490F491C032B00D000
:104130001046FCF719F8E1684904490E4843E16864
:10414000490F491CFCF710F810BD0120C00310BD39
:104150007D20000210BD0000001002400024F40089
:10416000F8B504007ED020783827C007FE4D00281F
:1041700046D0A868E96838408907890F102802D01E
:1041800008280BD001E0032908D001206268000450
:1041900082420AD129680143296015E0286880031A
:1041A0002ED560680028DDD02AE0052301211B04FC
:1041B00089049A422A6802D10A432A60EAE78243C4
:1041C0002A60286888432860606800280CD0FFF7C0
:1041D00021F9064604E0FFF71DF9801B642873D817
:1041E00028688003F7D50BE0FFF714F9064604E0D2
:1041F000FFF710F9801B6428F1D828688003F7D4F2
:104200002078800769D5A868E96838408A070721BF
:10421000920FC902102802D0002813D001E0022A10
:1042200010D0E068002846D02868884321690843F8
:1042300028602868FF21013108432860FFF7EAF869
:1042400006462CE02A68520502D5E268002A89D089
:104250006A687F231B029A4363691B021A436A60E0
:10426000002800E08DE00ED12868884321690843CA
:104270002860286801218004400F8140BB48FBF77B
:1042800073FFBB490860BB480068FFF761FC00286A
:1042900077D122E0FFF7BEF8801B02289FD828685C
:1042A0004005F7D568687F210902884361690902E2
:1042B0000843686011E02968FF20013081432960CC
:1042C000FFF7A8F8064605E0B5E0FFF7A3F8801B66
:1042D000022884D828684005F7D42078A64E000725
:1042E0002ED5A8688006400F03280AD0A0690028B0
:1042F000306A16D0012108433062FFF78BF8074679
:104300000BE0306A80071BD5A06900289FD017E01A
:10431000FFF780F8C01B0228C0D8306A8007F7D5A5
:104320000EE0400840003062FFF774F8074604E0F2
:10433000FFF770F8C01B02287DD8306A8007F7D4D9
:10434000207840076BD5A86800278006400F042816
:1043500018D0E86BC00008D4E96B012000070143C6
:10436000E963E96B01400127009184480168C905B0
:1043700019D40168821511430160FFF74BF80090D2
:104380000DE083E0F069800749D5A06800287DD062
:1043900045E0FFF73FF80099401A02284BD87748CC
:1043A0000068C005F5D5A168012910D004200529B1
:1043B000F16911D049084900F161F1698143F16166
:1043C000A068002816D0FFF725F800900EE0F069ED
:1043D00001210843F061F3E70143F161F7E7FFF7DB
:1043E00019F80099411A6648814224D8F06980077B
:1043F000F5D50DE0FFF70EF8009006E0FFF70AF89C
:104400000099411A5E4881427FD8F0698007F5D44F
:10441000002F04D0E96B012000078143E963207875
:10442000800624D50120E16980050029296810D083
:104430000143296000E068E0FEF7ECFF064604E077
:10444000FEF7E8FF801B02285FD828680002F7D536
:104450000DE081432960FEF7DDFF064604E0FEF72C
:10446000D9FF801B022850D828680002F7D4206AA0
:10447000002844D0A9688906490F02294FD0012697
:1044800036060228286807D0B04300E07FE02860A5
:10449000FEF7C0FF04463AE0B0432860FEF7BAFFDB
:1044A000074604E0FEF7B6FFC01B02282DD8286897
:1044B0008001F7D4A16A606AE26A0843216B1202A4
:1044C00011430843616B0843A16B0843E9682D4A17
:1044D00011400843E860286830432860E8680121FB
:1044E00009070843E860FEF795FF044604E0FEF77D
:1044F00091FF001B022808D828688001F7D548E002
:10450000FEF788FF001B022801D90320F8BD2868A8
:104510008001F5D4E8681C490840E86039E00128CA
:10452000F4D0E868626A8107890F91422FD1702127
:10453000A26A014091422AD17F21E26A0902014028
:104540001202914223D11F214904226B0140914262
:104550001DD107214906626B0140914217D1400FDE
:10456000A16B4007884211E0001002400024F400D3
:10457000200100201801002040100240007000407F
:10458000881300008C80C111FCFFFEEE01D00120D9
:10459000F8BD0020F8BD000070B504460120002CD5
:1045A0004BD025462035687A002806D12872112084
:1045B000C0026060204600F047F802206872206860
:1045C000C168C943C90639D5CA214162216853204F
:1045D0004862204602F0EFF8002829D1206881695E
:1045E000184A1140816121688869A268E369104313
:1045F00062691A4310438861216820690861206854
:104600000169A289120411430161204602F0F6F803
:1046100000280DD121688A69D200D2088A612168F8
:104620008A69636AA6691A43236A33431A438A6113
:104630002268FF215162002801D070BD00200121B5
:10464000697270BDBFFF8FFB10B594B004464C215A
:104650006846FBF7FCFD1049206888421AD101200A
:1046600040040090401210906846FFF717FB0028A6
:1046700001D0FEF73AFC0948C1690122D203114377
:10468000C16106484038C26B01150A43C263C06B62
:104690000840139014B010BD0028004040100240A4
:1046A00070B5044621680A48C860FEF7B3FE7D264F
:1046B0000546F60006E0FEF7ADFE401BB04201D90C
:1046C000032070BD2068C0688006F4D5002070BD4E
:1046D0005F00010003490A6803235B029A43024317
:1046E0000A60704700000140704770477047000043
:1046F000F0B5034620331A7F012A2DD001221A7704
:1047000002225A7705686A68AC68144EB54204D133
:104710000F273F05BA434F683A437027BA430F68E3
:1047200017436F600068B0420CD00122920790429C
:1047300008D00B4A904205D00A4A904202D00A4A59
:10474000904204D1802289689443214381600120F2
:10475000587700201877F0BD0220F0BD002C0140F2
:1047600000040040000800400040014070B5040013
:1047700005D025462035687F002802D006E00120BC
:1047800070BD00202877204600F016F802206877D8
:10479000211D206802F0BAF8012240342272AA7763
:1047A000EA7722706270A270E27022716271A27167
:1047B000E2716A77002070BD08B50068054988423B
:1047C00007D10548C26B02210A43C263C06B08408F
:1047D000009008BD00040040001002400146203156
:1047E0004A7F012A01D00120704702224A770168DE
:1047F000CB6801221343CB6000680E4988420BD07E
:104800009107884208D00C49884205D00B4988425C
:1048100002D00B49884207D181680A4B194006290A
:1048200005D0DB1F994202D00168114301600020CE
:1048300070470000002C01400004004000080040C8
:104840000040014007000100F8B505460446203548
:10485000287F0026012817D001272F7702206877AC
:10486000226890682F4B1840FF231B0298439060EA
:104870000868502838D00EDC20284FD006DC0028ED
:104880004CD010281ED149E00220F8BD302845D078
:10489000402817D13AE060282ED0702818D0012285
:1048A0001203801A0FD090420CD1CB684A688968F5
:1048B000206802F085F82068816801229203114384
:1048C000816000E001266F77002028773046F8BD30
:1048D000CB684A688968206802F072F821688868A5
:1048E000772210438860EEE7CA684968206802F0C2
:1048F000F1F95021206806E0CA684968206802F092
:1049000013FA6021206802F067F8DCE7CA6849689A
:10491000206802F0DFF940212068F4E722680146B0
:104920001046F0E788FFCEFF70470000F8B5044658
:104930000068C66805690027A907002913DAB107CE
:1049400011D5F91E01610120207720688069800758
:10495000204602D0FFF7E8FF04E000F0B3F820465D
:1049600000F06CF92777680716D5700714D5042076
:104970002168C04308610220207720688069800593
:10498000800F204602D0FFF7CFFF04E000F09AF836
:10499000204600F053F92777280715D5300713D59F
:1049A00008202168C0430861042020772068C0697E
:1049B0008007204602D0FFF7B7FF04E000F082F83E
:1049C000204600F03BF92777E80616D5F00614D507
:1049D00010202168C0430861082020772068C06942
:1049E0008005800F204602D0FFF79EFF04E000F014
:1049F00069F8204600F022F92777E80708D0F00789
:104A000006D001202168C0430861204600F018F953
:104A1000280601D4A80407D5300605D52168134817
:104A200008612046FFF761FEE80507D5300605D589
:104A300021680F4808612046FFF756FE680608D532
:104A4000700606D540202168C0430861204600F06A
:104A500001F9A80608D5B00606D520202168C04374
:104A600008612046FFF742FEF8BD00007FDFFFFF30
:104A7000FFFEFFFF10B586B0044614216846FBF721
:104A8000E6FB0D492068884213D10C48426B022195
:104A90000A434263406B019108400590202000903A
:104AA0000020029003900120049069460448FEF71C
:104AB000F3FB06B010BD00000004004000100240EF
:104AC000000400507047F8B5044600202646203602
:104AD0000090307F0D4601280CD001200827307748
:104AE0000C2A48D008DC002A10D0042A1ED0082A3C
:104AF00006D130E00220F8BD102A52D0142A60D02E
:104B000001200090002030770098F8BD206801F067
:104B10006DFF2068816939438161206881690422C1
:104B200091438161206881692A6911E0206801F060
:104B3000A5FF206881690122D202114381612068AA
:104B40008169521091438161206881692A6912024A
:104B500011438161D6E7206801F0D4FF2068C16964
:104B60003943C1612068C16904229143C161206851
:104B7000C1692A6912E0206802F008F82068C1695A
:104B80000122D2021143C1612068C2690121890258
:104B90008A43C2612068C1692A6912021143C16156
:104BA000B0E7206802F02CF82068416D3943416578
:104BB0002068426D04218A4342652068416D2A695C
:104BC00012E0206802F050F82068416D0122D20204
:104BD000114341652068426D012189028A43426583
:104BE0002068416D2A691202114341658AE770B558
:104BF000040005D025462035687F002802D006E055
:104C0000012070BD00202877204600F016F8022011
:104C10006877211D206801F079FE0122403422725C
:104C2000AA77EA7722706270A270E27022716271D4
:104C3000A271E2716A77002070BD70477047000072
:104C400010B500680249884201D1FEF765FF10BD2A
:104C500000200040704710B5014680310A79012AD2
:104C600015D001220A7124228A6002681368146830
:104C700064086400146001225207934300224266D4
:104C800000680360202088600A71104610BD022071
:104C900010BD70B5044605468034207901281AD02D
:104CA000012020712420A06028680668026852084C
:104CB000520002602868826807235B069A430A4311
:104CC0008260284602F04CF8286806602020A06028
:104CD0000020207170BD022070BD70B504460546ED
:104CE00080342079012819D0012020712420A0606F
:104CF00028680668026852085200026028688268C4
:104D0000D200D2080A438260284602F029F82868B7
:104D100006602020A0600020207170BD022070BDC0
:104D200070B5040005D025468035A868002802D05B
:104D300006E0012070BD00202871204600F026F812
:104D40002420A86020680168490849000160A06A21
:104D5000002802D0204602F025F8204602F016F97D
:104D60000128E7D0206841680922D20291434160BE
:104D7000206881682A2291438160206801680122AD
:104D800011430160204602F073F870BD30B599B050
:104D90000446142113A8FBF75AFA4C216846FBF786
:104DA00056FA18492068884229D10124002568460E
:104DB00001950094FEF772FF002801D0FEF795F8E8
:104DC00011480268012189030A4302600068084013
:104DD00018900D484038416B21434163406B159555
:104DE000C007C00F189003204002139002201490B7
:104DF000052013A9169517940007FEF74DFA19B070
:104E000030BD00000038014040100240FFB50646AA
:104E100004468036B06883B00D46202802D00220B8
:104E200007B0F0BD002D3BD00598002838D00120F8
:104E3000A1680003814204D12069002801D1E8075C
:104E40002ED1002030612120B060FEF7E3FA0190FE
:104E5000274640370598B8820598F8820120A16856
:104E60000003814202D12069002802D0029500256A
:104E700022E0002002901FE000228021204602F064
:104E8000CFF9002825D1029800280BD0216800789E
:104E900088620298401C0290B1682120884308D0A3
:104EA0000120BDE728882168C005C00D8862AD1CBF
:104EB000F2E7F88A401EF882F88A019B00280698DB
:104EC0000090D9D100224021204602F0A9F9002803
:104ED00003D02020B0600320A2E72020B060002093
:104EE0009EE7FEE701688A69D243920701D4002257
:104EF0008A6200688169C943C90703D081690122B8
:104F00001143816170470000F7B50446006882B024
:104F1000816900262746C906403735460092002998
:104F200045DA1021C16132E00398401C2FD0FEF712
:104F300071FA0099411A0398814201D8002826D1BC
:104F400020684168012292031140BA788369DB43EB
:104F50001B0417D401239B03994213D0202A11D09C
:104F6000416819434160FEF755FA00900AE0FEF7E8
:104F700051FA01460098081A192803D92020054340
:104F8000012604E020688069C0438006EFD42068D1
:104F90008069C043800602D5002EC5D004E0002EF3
:104FA00002D121682020C861042005430126216820
:104FB0008869C20504D5012215431202CA6101267F
:104FC000410508D508210D43CA012168CA6101269F
:104FD000800502D40AE0800506D502200543216839
:104FE0000002C861012601E0002E0FD02046FFF725
:104FF00079FF20684168074A11404160606C28438E
:105000006064202078700020B8703870304605B099
:10501000F0BD000000E800FEF8B50446164615484D
:105020001D46DAB20090079F0023204600F054F896
:105030003A462046069900F0C9F8002818D12846BB
:10504000F5B2012809D02168300A88623A46204624
:10505000069900F0BBF800280AD120688562009705
:10506000002240212046069B00F04CF8002800D08A
:105070000120F8BD00200080F8B50446164615480A
:105080001D46DAB2C3020090079F204600F024F8C4
:105090003A462046069900F099F8002818D128468B
:1050A000F5B2012809D02168300A88623A462046C4
:1050B000069900F08BF800280AD1206885620097D5
:1050C000002280212046069B00F01CF8002800D01A
:1050D0000120F8BD00200080890510B5890D12045B
:1050E0001143029C19430268214349005068490852
:1050F000630D034C234398430843506010BD0000E8
:10510000FF63FF03F8B51D4617460E46044626E02A
:1051100029462046069AFFF7F7FE002801D0012015
:10512000F8BD681C1BD0FEF775F90699401AA84215
:1051300001D8002D13D120688169304688430CD0F6
:105140000020B8420BD1616C2020014361644034DF
:1051500060700020A0702070E1E70120F1E7206876
:1051600081693046884304D00020B842D0D0002066
:10517000F8BD0120F9E770B516460D4604461EE05D
:10518000324629462046FFF7BFFE002801D0012005
:1051900070BDFEF73FF9801BA84201D8002D0ED14B
:1051A00020688069C043800609D5616C20200143D6
:1051B0006164403460700020A0702070E7E72068D0
:1051C0008069C0438006DBD4002070BD70B51646F0
:1051D0000D46044620E0324629462046FFF794FE5D
:1051E000002801D0012070BD681C15D0FEF712F90F
:1051F000801BA84201D8002D0ED120688069C043D1
:10520000800709D5616C20200143616440346070DF
:105210000020A0702070E5E720688069C043800707
:10522000D9D4002070BD000010B50921C901034880
:10523000FBF70DF800F094F810BD00008404002086
:1052400010B5902811D240290FD2CB084C07640F1B
:105250000121A140054CC0000019002AC25CC9B25E
:1052600001D00A4300E08A43C25410BD84040020E8
:1052700010B519204001FDF775FE0021AE2000F0A9
:105280002FF90021084600F02BF90021102000F032
:1052900027F90021402000F023F90021812000F0AF
:1052A0001FF90021CF2000F01BF90021A12000F000
:1052B00017F90021C82000F013F90021A62000F002
:1052C0000FF90021A82000F00BF900213F2000F089
:1052D00007F90021D32000F003F90021084600F06F
:1052E000FFF80021D52000F0FBF80021802000F01D
:1052F000F7F80021D92000F0F3F80021F12000F0A8
:10530000EFF80021DA2000F0EBF80021122000F085
:10531000E7F80021DB2000F0E3F80021402000F056
:10532000DFF80021202000F0DBF80021022000F04F
:10533000D7F800218D2000F0D3F80021142000F0D0
:10534000CFF80021A42000F0CBF80021A62000F027
:10535000C7F8FFF769FF0021AF2000F0C1F810BDCA
:1053600070B5104E00242046B030C0B2002100F0CD
:10537000B7F80021084600F0B3F80021102000F033
:10538000AFF80025E8008019005D012100F0A8F8C1
:105390006D1CEDB2802DF5D3641CE4B2082CE2D371
:1053A00070BD000084040020FFB589B00998203A40
:1053B0001C460E46059107905F2A60D26008049053
:1053C000082C12D00C2C03D0102C01D0182C56D144
:1053D000E008610700D00121401804994843C0B299
:1053E0000190D0B20390002045E00620F8E7082C99
:1053F0000FD00C2C12D00398102C14D02421484329
:1054000021494118009800270D5CE8070ED0129A38
:1054100010E00398062148431C49F2E703980C2149
:1054200048431B49EDE700011A49EAE712980028B2
:1054300027D0002231460998FFF702FF761C7F1C17
:105440006D08FFB2F6B2082FDFD30998401CC0B236
:105450000990082C0BD00799401AC1B204988142D8
:1054600005D10798099005980830C0B205900098BA
:10547000059E401CC0B2019900908842B7D30DB080
:10548000F0BD0122D6E70000C69600083A8A00085F
:10549000628C0008D6900008FFB581B01C4615004C
:1054A00006461AD0082C07D00C2C03D0102C01D0A3
:1054B000182C12D167080BE0062709E00A98009023
:1054C000234630460299FFF76FFFF019C6B26D1CF4
:1054D0002A78002A01D0802EF0D305B0F0BD00005C
:1054E0001CB500290CD0402269460A71487164201D
:1054F0000090022301AA78210248FEF7BDF81CBDE6
:105500000022F1E7DC010020C3B2000A10B5C31885
:10551000002004E00C5CE318401C9BB2C0B2904237
:10552000F8D3D843C0B210BD002801D0202801D93B
:10553000072070470020704770B5054600200246DE
:1055400007240FE0AB5C58400023060602D540005C
:10555000604000E040005B1CDBB2C0B2082BF4D31B
:10556000521CD2B28A42EDD370BD38B5902000F003
:105570001EFA00280AD10024684600F03DF80028F1
:1055800004D168460078002801D0002038BD0120F1
:10559000FDF7E8FC641CA4B2642CEDD3062038BDF2
:1055A00038B5922000F003FA002811D10024684693
:1055B00000F022F800280BD168460078002807D0B8
:1055C0000120FDF7CFFC641CA4B2642CEFD30620AD
:1055D00038BD000001484068704700009800002076
:1055E00001490020087070479800002001480078A9
:1055F000704700009800002038B504000DD002224A
:105600006946122000F026F8002805D16846008877
:10561000C007C00F2070002038BD022038BDF8B58B
:1056200016460D00044613D068460470210A4170E6
:10563000022269463E2000F009FA002807D1022024
:10564000FDF790FC32462946204600F09FF8F8BD51
:105650000220F8BDF7B596B016460F0006D0002E12
:1056600001D0222E04D9072019B0F0BD0220FBE79B
:10567000324801786420002911D071001491029001
:1056800003AC01910123009410212D48169AFEF7D6
:105690008FF800280FD000F079F90320E4E702909A
:1056A00001920123009710212548169AFEF780F8F1
:1056B0000028F0D1D8E70025002E1ED83CE0002DB0
:1056C0001BD0680000190121FFF736FF69000A1995
:1056D000527882422AD0149AD6B2082E00D90826CF
:1056E0006A001219527800920190635C2A461548AC
:1056F000169901F0DDFD002511E0102168460172C8
:105700001699417211218172017BC172042102A894
:10571000DAE7615D0CA001F0CBFD6D1CEDB2B54286
:10572000F7D30BA001F0C4FD04209DE7605C785521
:105730006D1CEDB2B542C2D3002095E79800002061
:1057400088010020A0A70008253032780000000062
:105750000D0A0000F8B516460D00044613D0684641
:105760000470210A4170022269463E2000F06EF961
:10577000002807D10220FDF7F5FB324629462046D6
:1057800000F004F8F8BD0220F8BD0000F7B50646A9
:105790008CB015461046FFF7C7FE00281DD1002427
:1057A000022269463E20FFF755FF002804D0044638
:1057B0000246314639A00DE068460188B1420ED15B
:1057C000012202A96120FFF745FF040010D0024624
:1057D00031463DA001F06CFD20460FB0F0BD012028
:1057E000FDF7C0FB641CA4B2642CD9D30620DEE70D
:1057F0006846027A042A04D231463EA001F058FDE0
:105800000DE0101F0406240E03D0202C01D8A54261
:1058100007D9234631464348009501F049FD07204A
:10582000DBE7224603A94020FFF714FF070003D05F
:10583000024631463CA009E0012201A96020FFF7A1
:1058400009FF070006D00246314642A001F030FDB4
:105850003846C2E7224603A93046FFF755FE69469F
:10586000097988420ED0224603A93046FFF74CFE44
:1058700003466846009402793146434801F018FD1A
:105880000520AAE7002003A904E00D9A0B5C13543D
:10589000401CC0B2A842F8D300209EE76271207479
:1058A00072616E73666572206563686F20666169F8
:1058B0006C20636D643A30782530347820726574DA
:1058C0003A25640D0A0000006271207472616E73E3
:1058D000666572206C656E677468206661696C200D
:1058E000636D643A307825303478207265743A25D7
:1058F000640D0A006271207472616E7366657220B5
:105900006C656E6774682073686F727420636D6471
:105910003A307825303478206C656E3A25750D0A5A
:10592000000000005CA700086271207472616E7351
:1059300066657220627566666572206661696C20B4
:10594000636D643A307825303478207265743A2576
:10595000640D0A006271207472616E736665722054
:10596000636865636B73756D207265616420666141
:10597000696C20636D643A30782530347820726524
:10598000743A25640D0A000018A7000810B50348F2
:10599000FDF78FFD0249486010BD0000880100201E
:1059A0009800002010B5122000F001F810BD08B5D5
:1059B00069460870000A487002223E2000F046F84E
:1059C00008BD08B569460870000A487002228320A5
:1059D00000F090F808BD0000014908707047000011
:1059E0009800002070B58AB00E00054614460BD012
:1059F0001046FFF799FD002807D168460571290A6E
:105A00004171002001A907E002200AB070BD325C9C
:105A10000B18401C9A70C0B2A042F8D3A01CC2B2AE
:105A20003E2000F013F80028EFD1224631462846E8
:105A3000FFF76AFD014668460170241D447002228A
:105A40006946602000F002F8DFE70000F0B595B08D
:105A5000074615460E0006D0002D01D0222D04D990
:105A6000072015B0F0BD0220FBE720480078002891
:105A700003D06846077200241AE064200192009166
:105A8000029001233A4610211948FDF73BFF1AE026
:105A9000620002A81018315D00904170002C18D0EF
:105AA00030190121FFF748FD00998870641CE4B2A9
:105AB000AC42EDD364206B00009002AA10210C4888
:105AC0005B1CFDF7D9FD0028CBD0FFF75FFF03205B
:105AD000C7E71020694608714F713078887103213B
