:020000040800F2
:10000000E80800209D010008E95000083B44000872
:1000100000000000000000000000000000000000E0
:10002000000000000000000000000000A90100081E
:100030000000000000000000AB010008AD01000856
:10004000AF010008AF010008AF010008AF010008D0
:10005000AF010008AF010008AF0100084D280008FB
:10006000AF010008AF010008AF010008AF010008B0
:10007000AF010008AF010008AF010008AF010008A0
:10008000AF010008AF010008AF01000809520008E5
:10009000AF010008AF010008AF010008AF01000880
:1000A000AF010008AF010008AF010008AF01000870
:1000B000AF010008AF010008AF01000800F002F82E
:1000C00000F05DF80CA030C8083824182D18A2469E
:1000D000671EAB4654465D46AC4201D100F04FF876
:1000E0007E460F3E0FCCB6460126334200D0FB1AA7
:1000F000A246AB46334318474060000060600000F2
:10010000103A02D378C878C1FAD8520701D330C860
:1001100030C101D504680C60704700000023002442
:1001200000250026103A01D378C1FBD8520700D32E
:1001300030C100D50B60704710B5662902D105F0BB
:10014000BDFD10BD642902D100F0FCF810BD752979
:1001500002D100F0F7F810BD782902D100F028F99B
:1001600010BD002010BD1FB500F0CCFE0400002023
:10017000002105F031FCE0601FBD10B510BD01F09D
:10018000B3FA1146FFF7EFFF05F0B0FB01F0CBFA31
:1001900003B4FFF7F2FF03BC05F097FB0748804765
:1001A00007480047FEE7FEE7FEE7FEE7FEE7FEE75B
:1001B00004480549054A064B7047000005520008EF
:1001C000BD000008E8020020E8080020E804002044
:1001D000E80400207047FEB5054610460C4618435B
:1001E00073D0AE468C460020AD1A01469C4167D3C1
:1001F0006646002701243D46B61A9D4102D31346A8
:100200003A462124654676462F04360C3E432D0C93
:10021000B61A9D4104D3150C1B042B431204103451
:10022000654676462F06360A3E432D0AB61A9D418C
:1002300004D3150E1B022B43120208346546764682
:100240002F0736093E432D09B61A9D4104D3150FD9
:100250001B012B431201241D65467646AF07B608E5
:100260003E43AD08B61A9D4104D3950F9B002B4326
:100270009200A41C65467646EF0776083E436D085B
:10028000B61A9D411AD392185B41641C16E00018FF
:10029000764665464941B71A9D410191009009D3C0
:1002A0006046B11A98418E4684460098019900250F
:1002B000401C6941DD0752082A435B08641EE6D5ED
:1002C0007246634603B0F0BDFFE700200146C0461A
:1002D000C0462A462346F5E70FB4054910B503AAE0
:1002E000029800F0B5FD10BC08BC04B0184700002F
:1002F0000000002070B5044685690068C10601D57C
:10030000302600E02026C00707D070BD6268304666
:10031000A1689047206A401C20626D1EF6D570BD12
:1003200070B5044685690078C00707D170BD626862
:10033000A16820209047206A401C20626D1EF6D5DF
:1003400070BD0000F7B5002575291068009914A646
:1003500011D0C046C046002802DA404211A608E08B
:10036000009909688A0701D50FA602E0490704D55C
:100370000EA6012501E0C046C046009F0024243798
:1003800004E000F079FD30313955641C0028F8D1C3
:100390002B4632462146009800F0F6FAFEBD0000DA
:1003A000000000002D0000002B00000020000000D5
:1003B00070B504460D4621461068C046C0462188E7
:1003C000090502D50F4A7A4402E00E4A7A440E32F9
:1003D00023460021243305E006070009360F965D09
:1003E0005E54491C0028F7D120780023000705D56A
:1003F000702D03D0002901D002231132204600F0D5
:10040000C3FA70BDC6590000F3B50446002081B0A0
:1004100020622046E1688847002872D0252802D053
:100420006268A168ABE0594F00267F442046E1682E
:1004300088472028054608DB312D06D27819203858
:100440000078002801D00643F0E7B00701D504206A
:1004500086430020E0610746A0612A2D0AD0284685
:1004600005F02CFA002827D0B8000019303D009084
:10047000856119E00298BA00121902C891610290D0
:100480002046E1688847012F054617D1E06900281A
:100490001FDA202086431CE000980A218069484327
:1004A00000994019303888612046E1688847054640
:1004B00005F004FA0028EFD1012F0AD02E2D08D123
:1004C0002046E16888470546202006437F1C022F0E
:1004D000C3DBA069002803DA4042A0610120064383
:1004E000F00701D0102086436C2D0BD0682D09D069
:1004F0004C2D3CD06A2D38D0742D38D07A2D36D082
:1005000016E040E0E1682F4620468847B84205469D
:1005100009D16C2F29D001208002E16806432046D2
:100520008847054604E06C2F1DD0FF2001300643AC
:10053000002D28D028464138192803D80120C002B0
:1005400006432035204626602946029A1646FFF7C4
:10055000F3FD002810D001280BD0F61DF008C000D4
:100560000830029055E74020E1E78020D5E70020E1
:10057000D3E7361D02964CE762682846A16890478B
:10058000206A401C44E7206AFEBD00008A59000032
:1005900030B5441C03E00178401C00290DD08107D0
:1005A000F9D10B4BDD0104C8D11A91432940FAD08F
:1005B000001B0A0603D0C01E30BD001B30BD0A045C
:1005C00001D0801E30BD0902FCD0401E30BD0000AD
:1005D0000101010101E004C0091F0429FBD28B07BE
:1005E00001D50280801CC90700D002707047002925
:1005F0000BD0C30702D00270401C491E022904D34D
:10060000830702D50280801C891EE3E70022EEE703
:100610000022DFE7002203098B422CD3030A8B421E
:1006200011D300239C464EE003460B433CD40022EA
:1006300043088B4231D303098B421CD3030A8B42FC
:1006400001D394463FE0C3098B4201D3CB01C01ACA
:10065000524183098B4201D38B01C01A5241430995
:100660008B4201D34B01C01A524103098B4201D383
:100670000B01C01A5241C3088B4201D3CB00C01AF0
:10068000524183088B4201D38B00C01A5241430868
:100690008B4201D34B00C01A5241411A00D201468D
:1006A0005241104670475DE0CA0F00D04942031026
:1006B00000D34042534000229C4603098B422DD375
:1006C000030A8B4212D3FC22890112BA030A8B421D
:1006D0000CD3890192118B4208D3890192118B426C
:1006E00004D389013AD0921100E08909C3098B42F1
:1006F00001D3CB01C01A524183098B4201D38B0134
:10070000C01A524143098B4201D34B01C01A5241D6
:1007100003098B4201D30B01C01A5241C3088B421B
:1007200001D3CB00C01A524183088B4201D38B0006
:10073000C01A5241D9D243088B4201D34B00C01A90
:100740005241411A00D20146634652415B101046A5
:1007500001D34042002B00D54942704763465B10ED
:1007600000D3404201B50020C046C04602BD7047DC
:10077000704770470121C9050123411842001B063B
:10078000D3185B0E0AD0C1100722D2068918400781
:100790005242D14201D5520089187047090208D54A
:1007A0000146002A03D0C10FC90700207047104638
:1007B0007047420202D00020024970470721090514
:1007C0000143F4E70000F87FF0B5FF252D04C609CA
:1007D000C209FF2704462E400137CB093E4348405B
:1007E0002A402B400746002A6BD0002B69D0AA4232
:1007F00067D0AB4265D0002800DA32460125ED050E
:1008000029432C4309022002090AD21A4B0C7F24E7
:10081000E31A434C000A7C44E35C7D24240412194F
:1008200014145B00A218884201D3521C00E040005F
:1008300049420C465C4324115C43DB016415E31818
:10084000040A5C43C502200D0C4644436419250A82
:100850005D432303EC0C0D46654300030019EB18C0
:100860004C42A34201D35B18401CD4052018002B36
:1008700007D05B00C91804D3401C002901D14008EF
:1008800040003F2189048A4209D3002A08DC11066E
:10089000090F04D0032149074018C00FC007F0BD5D
:1008A00001224100120689187F2252069142F6D297
:1008B00005214907C84201D59010F0BDFF20C005B1
:1008C000F0BD002F00DA32461648AA4207D2AB42EA
:1008D00005D21902090E17D0F80FC007F0BDFF2589
:1008E00063002D06AB42F9D84900A942F6D8AB42C5
:1008F00001D1A942F2D0A94201D1002101E0610059
:100900004908D0050843F0BD1102090EFBD0FF20B5
:100910000243D005F0BD0A460146104654E70000E8
:10092000AF5500000000C07F1F22030C02D10F2230
:1009300000041CD0030E01D10002083A030F01D1BC
:100940000001121F830F01D18000921E002801DBDD
:100950004000521ED205511802125118192290401F
:1009600004D3491C002801D14908490008467047B2
:10097000C10FC90700D04042012292071143D3E7BB
:1009800001218907D0E77047FFB504460D4681B0C5
:10099000243000902168880604D51022E069914334
:1009A000216000E00120A84201DD471B00E0002794
:1009B0000498A1697A191018081AA0612078C00655
:1009C00002D42046FFF796FC002608E003986268F0
:1009D000A168805D9047206A401C761C20620498C4
:1009E0008642F3DB2078C0060AD52046FFF782FC5A
:1009F00006E06268A16830209047206A401C2062AF
:100A000038467F1E0028F4DC07E000986268A16881
:100A1000405D9047206A401C206228466D1E0028D9
:100A2000F3DC2046FFF77CFC2078000602D502208C
:100A300005B0F0BD0120FBE77047FFB50C461E4630
:100A40008FB003CA089009914F007D0D00D16D1E33
:100A5000002108460020C0460321099A8905084064
:100A6000002A03DA8200801840080840800D01281F
:100A70000A9002DD0020C0430A90089807430DD079
:100A8000F048F149281848430714189800281DD049
:100A90007542291E1DDD0A9842421BE01898012864
:100AA00002D00020302104E00020F24305E0215470
:100AB000401CB042FBDB30460022189B0021215431
:100AC0000F998B600A60486013B0F0BDBD1B6D1CB0
:100AD000DFE70A9A002900DA69420BA800F0B0FAB1
:100AE0000BAB07CB03AB07C30899099800F014FBC5
:100AF0006B4607C30146D5480918002D00910BDD50
:100B0000D24903980A9A49424018002303A9039046
:100B1000684600F071FD08E003990A9A002308185E
:100B200003A90390684600F011FD6B4607C300045B
:100B3000000C03D00020C043410800E01046189A82
:100B4000002A03D00022009215461EE0751E05D42F
:100B500000F0DCF9303262556D1EF9D501220843F0
:100B6000079602D000227F1C04E02078302801D1B3
:100B700000227F1E002A069787D01EE0112D07DA7B
:100B800000F0C4F9303262556D1C02460A43F5D1BB
:100B9000084303D00098002819D00EE00021681EF9
:100BA00005E0235C625C63542254401E491C814270
:100BB000F7DBA81B401E07950690079A189900209E
:100BC000A0540F98079B069A81600CC07CE7112601
:100BD0000020189059E7D21DF0B50D460446D10803
:100BE00093B0C90003C90C900D9104F02FFE02468A
:100BF0000D98C00F01D02D2007E02068810701D596
:100C00002B2002E04007C00F4001032A0F9001D0C3
:100C1000072A05DB03462946204600F0CDF90EE100
:100C20002078800601D5E76900E006272846652D73
:100C300004D0662814D0672D69D12DE00020112F33
:100C4000009001DB112300E07B1C0CAA03A910A873
:100C5000FFF7F3FE1199002610987D1C0E9142E0DB
:100C600001203B460CAAC0070B900120009003A96D
:100C700010A8FFF7E2FE119D129810990026002897
:100C80000E9501D1781C0D18781B02D446427D1CAC
:100C9000761EE81B00903AE0012F00DA01270020C1
:100CA000112F009001DD112300E03B460CAA03A99F
:100CB00010A8FFF7C2FE11993D46109800260E912C
:100CC000217809070BD40E99A94200DA0D4603A931
:100CD000012D04DD4A19203AD27F302A06D0B842CD
:100CE00001DA011D04DA012100910FE06D1EEFE72A
:100CF000002802DC86192D1A03E0411CA94200DD00
:100D00000D46801B401C00900120C0070B902078EE
:100D1000000705D40098A84202DB0020C0430090E1
:100D200069460020C8720B98012102AF0337C9073A
:100D3000884225D0022010902B2011900B9800287B
:100D40000BDA40420B902D20119006E00B9800F03A
:100D500093F830317F1E0B9039701099481E00298E
:100D60001090F3DC0B980028F0D111987F1E38709A
:100D70002088000501D5452000E065207F1E3870E1
:100D800001A8C01BC01D0B900F98002800D00120A7
:100D900041190098C01709180B980818A169081A7A
:100DA000401EA0612078C00602D42046FFF7A2FAB8
:100DB0000F98002805D06268A1689047206A401CFF
:100DC00020622078C00625D52046FFF793FA21E05F
:100DD000002E07DB0E98B04204DD03A86268805D38
:100DE000A16802E06268A16830209047206A761C02
:100DF000401C20620098401E002800900AD100F09C
:100E000081F8C06862680168405CA1689047206A08
:100E1000401C206228466D1E0028D9DC07E062686D
:100E20003878A1687F1C9047206A401C20620B998B
:100E3000481E00290B90F2DC2046FFF771FA0320D0
:100E400042E6000001FCFFFF104D0000E1DFFFFF64
:100E5000084B70B50D467B4400F09BF804462846CD
:100E600000F01AFC002802D00020C04370BD2046CC
:100E700070BD0000734A000001468008081A02098C
:100E80001018020A1018020C1018C008820012185C
:100E90005200891A01E0401C0A390A29FBD2704726
:100EA00010B5FF231B0644009C421DD84C009C42F9
:100EB0001AD80346124A0B4307D4401A02D3EFF361
:100EC000008010BDEFF3008010BD081A06D2EFF3CA
:100ED000008001219043C907084302E0EFF300803E
:100EE000904380F3008810BD0D231B041A4204D0E8
:100EF0001146002000F0D4FB10BD00F0E9FB10BD4E
:100F00000000009000487047A40200200B4670B516
:100F1000024689078008084319469D08141AA9410A
:100F200025090807054308092C194841250A010627
:100F30000D43010A2C194141200C0D0428430D0CCE
:100F400000194D41002140194D41C008690708436F
:100F5000E908840F8D002543840024184D4124198D
:100F60006D41121BAB4107E00925ED432C115219CD
:100F700063410024401C61411C460A250026551B84
:100F8000B441F1D270BD000001694A1C02610878C9
:100F9000704700B58FB0029100210591054901937A
:100FA00079440391114604906846FFF72DFA0FB07B
:100FB00000BD0000E5FFFFFFF8B51F460446012312
:100FC0000068DB02032601461840072A05DB0028DB
:100FD00001D017A506E017A504E0002801D016A54A
:100FE00000E016A5102081432160A069C01E002FDB
:100FF000A06101D0401EA0612046FFF77BF9002FC1
:1010000009D038466268A1689047206A401C206277
:10101000C01C206206E0206AFAE762682878A168AE
:101020006D1C9047761EF8D22046FFF779F9F8BD7F
:101030004E414E006E616E00494E4600696E66007C
:10104000F7B516468AB0334878446C4603467C337D
:10105000C06F5A689B680DC42E487844763003AC44
:101060000DC80DC43720C001081837211B30FFF709
:10107000DBFA05460C46803D1B3C02D5644201204C
:1010800000E000200027099010E0E0070CD00C20C1
:1010900020497843794432464C3941186846012347
:1010A00000F054FA6B4607C364107F1C002CECD18F
:1010B000184F7F442E3F16E0E80712D02001C019D8
:1010C0000EC80691089307920068F04201D1981962
:1010D00008903246012306A903A800F037FA03ABB3
:1010E00007C36D10641C002DE6D10998002806D0B6
:1010F00032466946012303A800F07EFA05E0012389
:101100003246694603A800F021FA0A9B07C30DB0D6
:10111000F0BD0000C04D0000034640000A4610B577
:10112000400D0BD00121C9070F24A40200191C0394
:1011300064082143540D2143D20207E0002101201D
:10114000F2E7D40F490021435200401E0029F8DA8B
:10115000DB0FDB07184310BDFFB50D46144685B005
:101160004868516804F05AFB00910190A868A16892
:1011700004F054FB02910390A868616804F04EFBF0
:10118000029A12188242029201D2012000E000204D
:10119000019A0B18D2180028019202D08A4202D973
:1011A00003E08A4201D2012000E0002000990818E3
:1011B00000906868A16804F031FB029A121882421C
:1011C000029201D2012000E00020019A0B18D218EF
:1011D0000028019202D08A4202D903E08A4201D259
:1011E000012000E00020009908180090286821687C
:1011F00040004900400849084018FA49471814E0DF
:1012000001994000C90F08430090019802994000DD
:10121000C90F08430190029803994000C90F084381
:101220000290039840007F1E039000980028E7DAA0
:101230000898002801D0EC4E00E00026B74201DA01
:10124000012000E00020002804902AD0F71BF806B7
:10125000C00E15D0029B2021091A039A8B401A4315
:101260000392029A019BC2408B401A430292019A58
:10127000009BC2408B4000991A430192C1400091EB
:101280007B110DD06F460320C11A03D500218200C7
:10129000B95003E08A008100BA587A50401EF3D555
:1012A000374603980299002800D00120014308988E
:1012B0000291002808460CD0002800D00120019996
:1012C000019A490508430121D20AC902D2020192BA
:1012D00000E001210E9B0122D207012B02D0002B3E
:1012E00003D013E0002807D120E0904204D89042B8
:1012F0000CD1019B0B4209D0019B5918019105D1DA
:101300000099491C009101D17F1C009200280DD04A
:10131000102108460020C0460498002806D00F98E7
:10132000002803D0082108460020C046286821680C
:10133000019B009A4840C10F0598C90739430EC068
:1013400009B0F0BDFFB587B0099A089808995368AD
:10135000926840688968964600220393174694462F
:10136000089A12685300099A5B08126852005208E2
:101370009A1A9E4BD4180A9A002A01D0352200E00E
:10138000402206920022012315460492DB070593B2
:1013900024E0002D05D175460346039E4D1BB34145
:1013A00009D375466646039B491B049D9841059BDE
:1013B0007519AC465F4163463B4308D0059B049ECC
:1013C000DD0776082E435B080496059301E0521E64
:1013D000641EC50FED0749184041521C069B9A42F6
:1013E000D7DB002D04D17546039A6B1A824101D2D6
:1013F00003200CE0039A0B466B404240134303D09A
:10140000014303D0012002E0022000E000206146F9
:1014100001910021009702910A99002905D06146A7
:1014200040020143704B019102E0800700230290CB
:101430009C4201DA012000E0002007003AD01A1B8C
:10144000D006C00E15D0029D2021019C091AC5406E
:101450008C402543029C8C4000D001242543019CF4
:101460000295009DC4408D4000992C430194C140D9
:10147000009154111DD06D460221002202290CD189
:101480000320001B07E0002804DB8600AE59002E75
:1014900000D00122401C0328F5DB081B02D5880080
:1014A0002A5004E08000285810438A00A850491EA2
:1014B000E3D51C460A98002802980CD0002800D0DA
:1014C00001200199019A490508430121D20AC90264
:1014D000D202019200E00121109B0122D207012BD0
:1014E00002D0002B03D013E0002807D11FE0904268
:1014F00004D890420CD1019B0B4209D0019B591892
:10150000019105D10099491C009101D1641C009200
:1015100000280CD0102108460020C046002F06D01D
:101520001198002803D0082108460020C0460898DA
:101530000999019A009B006809684840C10F079803
:10154000C907214382600AC00BB0F0BD00B585B069
:10155000019300920A460146002302A8FFF7FCFD12
:1015600002A807C805B000BDFFB50A461F4685B0F2
:101570000799019301230091014602A8FFF7ECFDB2
:1015800002990398049ECA0F4900D20700920F22C5
:10159000490892028C1A0021002800DB0C46450005
:1015A00013486D08844214D3079A002A04DA441EB3
:1015B0000026104DF64302E004460D460E4610216B
:1015C00008460020C046002F03D004210846002012
:1015D000C0462005E90A0843009908436905F20A54
:1015E0001143ADE602C0FFFF013C0000FF3F0000D9
:1015F000FF070000FFFFFF7F00B585B00193009259
:101600000A460146002302A8FFF79CFE02A807C86D
:10161000A8E7FFB50A461F4685B007990193012345
:101620000091014602A8FFF78DFE02990398049EDF
:10163000CA0F4900D20700920F22490892028C1A61
:101640000021002800DB0C46450011486D0884424B
:1016500014D3079A002A04DA441E00260D4DF643DF
:1016600002E004460D460E46102108460020C04602
:10167000002F03D0042108460020C0462005E90AB7
:101680000843009908436905F20A114358E600002F
:10169000FF070000FFFFFF7FC06880210840704700
:1016A000C80212D54803400F002804D0C803C04325
:1016B000012188407047EFF30080000100090321F9
:1016C0000907084380F30088704700207047000036
:1016D00010B5024800F074F810BD00000000C07F93
:1016E00000487047840200207546FFF7F9FFAE46B8
:1016F000050069465346C008C000854618B020B5AD
:10170000FEF756FD60BC00274908B6460026C0C556
:10171000C0C5C0C5C0C5C0C5C0C5C0C5C0C5403DA9
:1017200049008D46704710B50446C046C046204665
:10173000FEF72EFD10BD0000024670B50A43920769
:101740002AD11E4DEE0104C808C9541B94433440ED
:1017500017D0D0B2D9B2401A2106014310D190B2AD
:1017600099B2401A210401430AD110021902000A59
:10177000090A401A2102014302D1100E190E401A23
:1017800070BD9A42DFD010BA19BA884201D901203F
:1017900070BD0020C04370BD02780B78401C491C0E
:1017A000002A09D09A4207D102780B78401C491CC4
:1017B000002A01D09A42EFD0D01A70BD0101010178
:1017C00010B50C461107090F092904D00A290AD0BF
:1017D00008290CD104E011460820FFF761FF06E05C
:1017E000510606D501E0510601D50120C00721466A
:1017F00010BDD10607D501010909CC084907000E23
:101800000006044309E0410F20024907000A014392
:10181000200E00061D22D14101430846E7E70000E3
:1018200010B50748417A002909D0C178C28C11430C
:1018300005D00021C170C184084600F02BFF10BD07
:101840000400002070B5FFF79BF80E4C0546606B56
:10185000FFF78EF8294604F045F90B49FEF7B4FF6F
:101860000146A06A04F0CEF8FF21C905A062C84273
:1018700002D30020A06270BD04498842FBDDA16252
:1018800070BD00000400002000BA5B4A00409C4587
:10189000F8B5404D404C2879404F00280FD1688A58
:1018A00000F09AFFFFF76CF8E8632146286404F023
:1018B00019F93946FEF788FFA862012028712146F0
:1018C000A86AFEF781FF394604F00CF90446FF20B0
:1018D000C005C44201D3002402E0BC4200DD3C4606
:1018E0002F4AA96B2046914215D82E4A914212DC0C
:1018F000698A00290FD0084600F06EFFFFF740F814
:10190000294904F0EFF806462849204604F0EAF891
:10191000314604F077F8E8632549AE6B8E4202DD6C
:101920007D24E40505E023498E4201D9224C00E0E4
:10193000224C296C00914900090E21D0009904F035
:1019400055F9214604F0CEF8009904F05BF80446FE
:101950001748864204DD2046009904F099F808D320
:101960001448A96B814205D92046296C04F012F96C
:1019700000D22C6CFF20C005C44203D3002404E035
:10198000286404E0BC4200DD3C4620462C64E86349
:10199000F8BD00000400002000409C450000C84243
:1019A000CDCCCCBDCDCCCC3D9A99993E3333333F91
:1019B0000AD7233C0AD723BC8FC2F53DEC51383EF1
:1019C000FEB5062000214E4B8C460F460C466D4658
:1019D0006C54491CC9B20629FAD34A494A7A002AEA
:1019E00005D11C228A5E002A01DB2D2A02DDCC7083
:1019F000CC8480E04449002256008E5B9E4200D297
:101A00003346521CD2B2062AF6D33E4AD278002A76
:101A100001D00F2200E01E229646002255004D5BA9
:101A20003A4EB54206D3ED1AADB2754502D3012543
:101A30006E46B554521CD2B2062AEFD30022694634
:101A40008B5C002B0FD08B185D789E46002D0AD042
:101A50002D4B55005E5BEB185B889E4201D28C5487
:101A600001E073465C70521CD2B2052AE8D3264BC3
:101A700000228D5C002D05D055005D5B654501D9C8
:101A8000AC461046521CD2B2062AF2D30022824241
:101A900000D08C54521CD2B2062AF8D300200A5C23
:101AA000002A00D00127401CC0B20628F7D3002F1F
:101AB0001ED0144D0120E8700A460020144B014648
:101AC000565C002E02D04E009E5B3043491CC9B2CA
:101AD0000629F5D3E88400F0DDFD002807D0EC707E
:101AE000EC84002000F0D6FD0AA0FEF7F5FBFEBD59
:101AF0000448C470C484002000F0CCFDFEBD00008A
:101B00008813000004000020780200203C0F000031
:101B1000CC5C00087365742062616C616E63652043
:101B20006D61736B206661696C0D0A007CB50521DF
:101B30006846017001226946424803F0C1F823213A
:101B400068460171892141713E48022201A9401C69
:101B500003F0B6F802216846017100244471394847
:101B60000A4601A9A43803F0ABF868460471F821CD
:101B700041713448022201A9963803F0A1F80921E5
:101B8000684601702F4801226946401D03F098F80D
:101B90000125684605702B482A466946801D03F0DA
:101BA0008FF80821684601702648012269463230C4
:101BB00003F086F8684604702248012269463330F3
:101BC00003F07EF82D21684601701E480122694607
:101BD000343003F075F84621684601701948012237
:101BE0006946353003F06CF81424684604701548D3
:101BF00001226946363003F063F8684605701148E3
:101C000001226946373003F05BF83C2168460171D8
:101C10000F2141710B48022201A9383003F050F81E
:101C20002821684601700748012269463A3003F0CE
:101C300047F8684604700348012269463B3003F0C8
:101C40003FF87CBD039300001CB50221684601707B
:101C50000171002444710A4601A9294803F030F8B3
:101C6000882168460170264801226946801C03F0DD
:101C700027F868460470224801226946C01C03F018
:101C80001FF8684604701E4801226946001D03F0D3
:101C900017F8982168460170194801226946801D8D
:101CA00003F00EF8D52168460170154801226946F7
:101CB000C01D03F005F85621684601701048012246
:101CC0006946083002F0FCFFE421684601700C48C8
:101CD000012269460A3002F0F3FFE62168460170EE
:101CE0000748012269460B3002F0EAFFE22168460C
:101CF00001700348012269460C3002F0E1FF1CBD6F
:101D00005F92000038B502226946572002F082FE39
:101D100000281CD1684604880EA02146FEF7DCFA94
:101D2000E00615D4222002F0A4FF00280FD10222E1
:101D30006946572002F06EFE002808D168460488E4
:101D40000EA02146FEF7C8FAE00601D4012038BDF6
:101D5000002038BD6D66675F7374617475732062AF
:101D600065666F7265206665745F656E61626C653D
:101D70003A3078253034780D0A0000006D66675FD0
:101D8000737461747573206166746572206665741E
:101D90005F656E61626C653A3078253034780D0A83
:101DA00000000000FEB5002563A00295FEF794FA3E
:101DB0003E20FF230090F533644A65496548FEF7ED
:101DC0008BFA00F071FB644900204200401CC0B255
:101DD0008D520628F9D3614C0126E56225636563BF
:101DE000A563E58125826582A582E58225836583D9
:101DF000A583E58325846584A584E5846571A57143
:101E0000E57125726572A572E57226706670A5701F
:101E1000E57025715248A0625248E0632064A581B4
:101E200002F018FD002002F02FFF02F021FD014614
:101E30004DA0FEF751FA02A802F020FD00280DD0B7
:101E40004DA00299FEF748FA02F00CFF050009D0F8
:101E500002F0FAFC0246294651A012E05BA0FEF710
:101E60003BFAF1E7C82000F033FD022201A901206E
:101E700002F0D0FD050007D002F0E6FC024629463C
:101E800057A0FEF729FAFEBD6846818862A0FEF7DA
:101E900023FA02F0A5FC002801D066A048E0FFF775
:101EA00045FEFFF7D1FE022201A9684802F017FDA6
:101EB000002804D16846818865A0FEF70DFA02F07B
:101EC000AAFC002801D067A032E083216846017196
:101ED00006214171022201A9622002F025FF0020A3
:101EE00000F0D8FBFFF70EFF002801D063A01FE031
:101EF00000F0B0F900F0DEF800F008FA00F048FA5F
:101F000000F00AF900F0FAFB608A00280DD000F01A
:101F100063FCFEF735FDE0635E49206403F0E2FDFB
:101F20005D49FEF751FCA0622671FFF779FC5BA0CA
:101F3000FEF7D2F9FEBD00006261746D616E20692A
:101F40006E69742073746172740D0A001860000069
:101F500070620000D05F00087802002004000020BA
:101F600000401C45000048426271206932632063D2
:101F700072633A25750D0A00627120693263207020
:101F8000726F6265206661696C2068616C5F657262
:101F9000726F723A30782530386C780D0A00000084
:101FA0006271207265736574206661696C20726568
:101FB000743A25642068616C5F6572726F723A30A2
:101FC000782530386C780D0A0000000062712069B5
:101FD00032632070726F6265206F6B0D0A00000023
:101FE0006271207265616420646576696365206E44
:101FF000756D626572206661696C207265743A2540
:10200000642068616C5F6572726F723A3078253057
:10201000386C780D0A00000062712064657669638F
:1020200065206E756D6265723A3078253034780DB2
:102030000A000000627120656E74657220636F6E25
:10204000666967206661696C0D0A000004930000F0
:102050007663656C6C5F6D6F64653A3078253034FB
:10206000780D0A006271206578697420636F6E666E
:102070006967206661696C0D0A0000006271206664
:10208000657420656E61626C65206661696C0D0A1D
:102090000000000000409C450000C8426261746D71
:1020A000616E20696E697420737563636573730D67
:1020B0000A00000008B502226946342002F02AFC1A
:1020C000084A002805D00120907007A0FEF704F907
:1020D00008BD68460188D1620AA01163FEF7FCF8CA
:1020E00008BD0000040000206C6F616420737461FF
:1020F000636B20766F6C74616765206661696C0D37
:102100000A000000737461636B5F6D763A256C752D
:10211000206D760D0A000000F8B5022269466220A3
:1021200002F0F8FB0125304C002804D0A5702FA048
:10213000FEF7D2F802E06846008820840222694651
:10214000642002F0E7FB002804D0A5702EA0FEF763
:10215000C3F802E0684600886084022269461220C3
:1021600002F0D8FB002804D0A5702DA0FEF7B4F82B
:1021700002E068460088A084012269467F2002F0C0
:10218000C9FB002804D0A5702CA0FEF7A5F802E03A
:1021900068460078607101226946032002F0BAFBAC
:1021A0000026002802D0A570A67102E068460078DB
:1021B000A07101226946052002F0ACFB002802D084
:1021C000A570E67102E068460078E0710122694678
:1021D000072002F09FFB002802D0A5702672F8BDF0
:1021E000684600782072F8BD040000206C6F6164BE
:1021F00020616C61726D2073746174757320666107
:10220000696C0D0A000000006C6F616420616C61F4
:10221000726D20726177206661696C0D0A000000A2
:102220006C6F61642062617474657279207374618B
:10223000747573206661696C0D0A00006C6F6164CF
:102240002066657420737461747573206661696CAF
:102250000D0A0000FEB51FA103C900260190204D04
:1022600002911E48E88137462E82344601A8005D5F
:102270000222694602F04EFB002809D00120A87016
:10228000214618A0FEF728F81F48610047520DE0CC
:1022900068461D49008862008852E989861988428B
:1022A00000D2E881298A884200D92882641CE4B2DD
:1022B000062CDBD3E9890948814200D1EF81062150
:1022C0003046FEF7A7F96882288AE989401AA88271
:1022D000FEBD000014161E242A320000FFFF00007D
:1022E000040000206C6F61642063656C6C20766F65
:1022F0006C74616765206661696C20696E646578DD
:102300003A25750D0A0000007802002038B5022237
:1023100069463A2002F0FEFA0E4D002805D0012051
:10232000A8700DA0FDF7D8FF38BD68460024045FF3
:102330006C632046FEF71CFB0C49FEF745FAA863C8
:10234000FEF718FA02460B46214609A0FDF7C4FF26
:1023500038BD0000040000206C6F6164206375725A
:1023600072656E74206661696C0D0A0000007A4423
:1023700063757272656E745F6D613A256C6420637B
:10238000757272656E745F613A252E33660D0A00B0
:102390003EB5022202A9682002F0BCFA0125244CB5
:1023A000002804D0A57023A0FDF796FF3EBD694626
:1023B0000820085E00F03AFAE082022202A97020AA
:1023C00002F0A8FA002806D0A570E08A20831EA09B
:1023D000FDF782FF05E069460820085E00F026FA56
:1023E0002083022202A9742002F094FA002806D069
:1023F000A570E08A60831AA0FDF76EFF05E06946CC
:102400000820085E00F012FA608318221A23A25EE8
:10241000E35ED018C10F0818401000B2A083162147
:10242000615EE1830090019113A0FDF755FF3EBD71
:10243000040000206C6F61642069632074656D7016
:10244000206661696C0D0A006C6F616420747331E1
:102450002074656D70206661696C0D0A00000000D3
:102460006C6F6164207473332074656D70206661D5
:10247000696C0D0A0000000074656D705F69633A55
:10248000256443207473313A256443207473333ACE
:102490002564432063656C6C3A256443206665744B
:1024A0003A2564430D0A000000B587B01BA0FDF774
:1024B00013FF274927A0FDF70FFF012109201F2344
:1024C00001910090DB02022205213248FDF704FF52
:1024D00000231A46882130A0FDF7FEFEE222E62105
:1024E000E4200292019100905623D522982135A034
:1024F000FDF7F2FE40494620142303910290282262
:1025000005932D21002004920191009001220821C1
:102510003A48FDF7E1FE07B000BD0000627120629D
:1025200072696E67757020636F6E666967206F6E83
:102530006C792C206E6F742066696E616C207361FB
:10254000666574792072656C656173650D0A0000BB
:102550002389000063656C6C5F6D61703A3078258B
:1025600030347820706879735F746F5F62713A30CD
:102570002D3E3120312D3E3220322D3E3620332D5E
:102580003E3920342D3E313220352D3E31360D0A74
:10259000000000001C600008656E61626C65645F8D
:1025A00070726F7420413A30782530327820423A88
:1025B00030782530327820433A3078253032780D23
:1025C0000A0000006665745F70726F74206368674C
:1025D0003A253032782F253032782F253032782046
:1025E0006473673A253032782F253032782F2530C2
:1025F00032780D0A000000003C0F0000A05E0008C9
:1026000030B51C4C93B0206CFEF7B4F8E57AA37A91
:10261000627A0E900F9110A82CC0A079E38C227AD8
:10262000E17909AD0FC5208C6379A28C618C05AD71
:102630000FC518201E231C221A21205EE35EA25E15
:10264000615E01AD0FC51620205E00902C340ECCCB
:102650000948FDF741FE094D002460002A5A214631
:1026600007A0FDF739FE641CE4B2062CF5D313B0C5
:1026700030BD000004000020005F00087802002048
:1026800063656C6C5F6D765B25755D3A2575206DB5
:10269000760D0A0008B569460870000A48700222E3
:1026A000832002F095FB08BD70B5134C002506464B
:1026B000A570FFF7CFFDFFF7FDFCFFF727FEFFF743
:1026C00067FEFFF729FD00F019F83046FFF7BAF86A
:1026D0003046FFF7DDF8FFF773F9FFF7A1F8A0899F
:1026E0007D21801980B2C900A081884202D3A581D2
:1026F000FFF786FF70BD000004000020F8B500253C
:10270000164F174E2C466000325A1648D119814296
:1027100004D30125214614A0FDF7DEFD641CE4B2BC
:10272000062CF0D319488179C2790C46037A1443F8
:102730001C4301D0012600E0002684782C4334435A
:1027400044720578A54385724578A543C572002E6D
:1027500002D00FA0FDF7C0FDF8BD00003CF6FFFF62
:10276000780200200907000063656C6C20766F6CAE
:1027700074616765206661756C7420696E64657844
:102780003A2575206D763A25750D0A000400002063
:102790007361666574795F613A25303278207361C0
:1027A000666574795F623A253032782073616665B8
:1027B00074795F633A253032780D0A0010B5040051
:1027C00007D0FDF7E5FE82B264232146014801F0FF
:1027D000C9FD10BD9801002070B51249884201D88A
:1027E000002070BD104C00218A0013199D881A1D0D
:1027F000854210D3A9B21D8892789C78491B121B80
:10280000401B002905D05043FDF704FF0019C0B25A
:1028100070BD204670BD491CC9B20B29E4D36420A9
:1028200070BD0000C4090000D85C0008064910B55E
:10283000401802D40A21401D01E00A21401FFDF783
:10284000F3FE00B210BD000055F5FFFF10B51020DB
:1028500000F062F910BD72B6FEE7000030B51A4C08
:102860003523026817491B01A24200D11749803263
:10287000016414681F252D04AC43858E2D042C4360
:1028800014600A46703242640268803214680F2570
:102890002D06AC43058F2D062C4314600A46B0323A
:1028A0008264D832C264132252018A1802654F2210
:1028B000D2008A1842650022C81800E004C1814293
:1028C000FCD330BD00B400400068004050B7004069
:1028D00070B5044600F0EEF90546601C02D00448CD
:1028E0000078241800F0E6F9401BA042FAD370BD2E
:1028F00050000020F8B5040005D025464035287F5B
:10290000002802D006E00120F8BD002068772046AC
:1029100000F0C2F82068816910229143816100F0C3
:10292000C9F90746012604E000F0C4F9C01B0A28D3
:1029300010D8206880690007F6D420688169314387
:10294000816100F0B7F907460AE000F0B3F9C01B57
:102950000A2805D9206E3043206603202877D2E765
:1029600020688069C007F0D0206881690222114385
:10297000816147482168814202D146496068086008
:10298000207C40210128206882693AD00A43826174
:10299000607C0121890301282068826933D08A4341
:1029A0008261A07C012109030128206882692CD062
:1029B0000A43826121688869032212029043A26857
:1029C0001043886120688169A42291438161216854
:1029D0000A69102082430A61E168012917D00029A1
:1029E0001DD02022022916D021688B6980273B4305
:1029F0008B6121680B6903430B61E06803280AD0EF
:102A00000DE08A43C3E70A43CAE78A43D1E7206857
:102A10008169042201E02068816911438161207E7F
:102A20007F21400649064018E1690902FF39013952
:102A30000843216A491E0843A18A0A0401210904A6
:102A4000521A10432268D0610320A2680002824219
:102A500010D1E26AA06A1202FF3A401E013A104306
:102A6000226B1201103A1043A28C1204511A08432F
:102A70002168C86020688030016CE26B11430164FA
:102A80002046FFF7EBFE0020A06520662E77F8BDFC
:102A9000006400400065004010B59AB0044614215F
:102AA00013A8FDF7B5FD4C216846FDF7B1FD1649A9
:102AB0002068884225D1012040060024009012940D
:102AC000684600F03BFD002801D0FFF7C4FE0F4828
:102AD000C26B81140A43C263C26B0A401892426BF4
:102AE00002210A434263406B13AA08401890032056
:102AF000000213C20320179013A91694044800F093
:102B000021F81AB010BD000000640040001002401F
:102B1000000400507047000070B5084D0446E86896
:102B2000204203D0EC60204600F00AF828692042D9
:102B300003D02C612046FFF7EDFF70BD0018024066
:102B400070470000F0B5002303249DE001259D405F
:102B50002A4072D00E79B607B60F012E01D0022E90
:102B600016D186682746B4465E00B646B74066462C
:102B7000BE43B446CF687646B74066463743876063
:102B80004668AE430D79ED06ED0F9D403543456037
:102B90000D79ED43AD0708D0C5685F002646BE40FD
:102BA000B5438E68BE402E43C6600D79AD07AD0FAC
:102BB000022D0ED1DD08AD002D18AC462D6A5E0742
:102BC000F60E0F27B740BD430F69B7402F43654648
:102BD0002F6205685F002646BE40B5430E79B607F2
:102BE000B60FBE402E4306604D68AD03AD0F4AD010
:102BF0009E08284DB6007519AC462D6E9E07F60E40
:102C00000F27B740BD4305273F07B84201D1002732
:102C100015E0214FB84201D1012710E01F4FB84203
:102C200001D102270BE01E4FB84201D1032706E075
:102C30001C4FB84202D1042701E024E00527B74029
:102C40002F43144D664637662D684E689543F6024D
:102C500000D515430F4F3D607D684E689543B60221
:102C600000D515437D600B4E803675684F689543DF
:102C7000BF0300D51543756035684F689543FF0362
:102C800000D5154335605B1C0A681546DD4000D051
:102C90005CE7F0BD0018024000040050000800503E
:102CA000000C005000100050002A01D081617047D4
:102CB0008162704701488068704700005000002022
:102CC00070B5024640325378202B1CD11378012B6B
:102CD00019D00123137024245470046825689D437F
:102CE0002560046825681E03B543256004682568CF
:102CF0000D43256000680168194301602020507071
:102D00000020107070BD022070BD70B502464032C8
:102D10005378202B1BD11378012B18D00124147069
:102D20002423537003681D68A5431D6005682B6844
:102D30000F263602B343090219432960006801686F
:102D400021430160202050700020107070BD0220CF
:102D500070BD406C7047000070B5040006D0254679
:102D6000403568780026002802D005E0012070BDBB
:102D70002E70204600F0BCFA24206870206801689C
:102D80004908490001600F216068090688432168ED
:102D9000086121688A680120C00382438A60E16873
:102DA0000129A1682FD0212292021143226891604B
:102DB0000121E268C902022A2268536825D08B43A8
:102DC000536021684A68124B1A434A602168CA68F6
:102DD0008243CA60616920690843A1690902084306
:102DE0002168C860216AE06908432168086020689A
:102DF0000168012211430160666420206870266327
:102E0000AE70002070BD0143D0E70B43D8E700004F
:102E100000800002FFB50446002083B025464035FF
:102E200001906A78202A70D122689269D2431204F4
:102E30006BD52A78012A68D001222A7024226A7070
:102E400060648F05BF0DE06801280AD03048012179
:102E500038188902884321684860FFF72BFF06462F
:102E60000CE02C48F3E70698401C07D0FFF722FF40
:102E7000811B069881423ED800283CD02168886991
:102E800089698006C00FC906C90F0843EBD02068C6
:102E90008169C943C90619D5009600222021204620
:102EA000069B01F0DBFB002808D0606C04281BD1D6
:102EB00021682020C8610020606415E0216820207E
:102EC000C86168700020287007B0F0BD1021C16192
:102ED0000096002220212046069B01F0BFFB00281F
:102EE00002D121682020C8610198401C0146019050
:102EF00005988142A7D320206870616C014361640A
:102F0000002028700120DFE7FFE70220DCE7000057
:102F10000028000200200002FFB5054604464035A7
:102F2000687881B0202877D12878012874D00120D2
:102F30002870FFF7BFFE0746012200901923D10336
:102F4000204601F08BFB002851D121206870102011
:102F5000A8700026666403986062049961856663C0
:102F6000628D3949FF2A03D9FF222285CB0206E070
:102F7000628D228501235B061204120C0FD0226899
:102F800000789062606A401C6062608D401E6085BF
:102F9000208D401E2085401CC2B2009101E000221D
:102FA00000912046029901F043FB16E001F0BAFBC4
:102FB00000281CD1606A216800788862606A401C21
:102FC0006062608D401E6085208D401E80B220852D
:102FD000618D002901D000280CD0608D0A9900284D
:102FE0003A462046E2D101F072FB00281DD00120B4
:102FF00005B0F0BD00970022802120460A9B01F019
:103000002DFB0028F3D1608DFF2806D9FF222285F1
:1030100001231B060096C4E714E0608D208500960E
:10302000208D0123C2B25B06BBE721682020C86166
:1030300021684A68054B1A404A606870AE702E706D
:103040000020D5E70220D3E70020008000E800FE42
:10305000FFB5054604464035687883B0202875D111
:103060000C98002814D00D98002811D02878012839
:103070006CD001202870FFF71DFE0746012200904A
:103080001923D103204601F0E9FA002874D103E0A6
:103090000120400260646FE0222068704020A87028
:1030A000002666640C9860620D98608566630E98D1
:1030B0000090019704A90EC9204601F059FA002892
:1030C00001D02E7058E0618D3448FF2905D9FF22C8
:1030D000228501231B06009006E0618D218500906A
:1030E000208D0123C2B25B062046049901F0A0FAAC
:1030F00000970022042120460E9B01F0AFFA002821
:103100003AD12068406A616A0870606A401C606257
:10311000208D401E81B22185608D401E6085608DAE
:1031200000281FD000291DD10097002280212046B1
:103130000E9B01F093FA00281ED1608DFF2806D95E
:10314000FF22228501231B06009607E024E0608D04
:1031500020850096208D0123C2B25B06204604998B
:1031600001F066FA608D0028C2D13A4620460E99D9
:1031700001F0ADFA002802D0012007B0F0BD2068B0
:103180002021C16120684268054B1A404260697085
:10319000AE702E700020F0E70220EEE700240080E1
:1031A00000E800FEFFB5054604464035687883B068
:1031B000202872D10C98002814D00D98002811D026
:1031C0002878012869D001202870FFF773FD074691
:1031D000012200901923D103204601F03FFA002874
:1031E00071D103E00120400260646CE0212068702E
:1031F0004020A870002666640C9860620D98608577
:1032000066630E980090019704A90EC9204601F04C
:10321000DFF9002801D02E7055E0608DFF2805D918
:10322000FF22228501231B06009606E0608D208583
:103230000096208D0123C2B25B062046049901F05E
:10324000F7F93A4620460E9901F06CFA00283AD177
:10325000606A216800788862606A401C6062608DE4
:10326000401E6085208D401E80B22085618D002922
:103270001FD000281DD100970022802120460E9BE0
:1032800001F0ECF900281ED1608DFF2806D9FF223D
:10329000228501231B06009607E024E0608D20852F
:1032A0000096208D0123C2B25B062046049901F0EE
:1032B000BFF9608D0028C4D13A4620460E9901F02E
:1032C00006FA002802D0012007B0F0BD20682021B6
:1032D000C16120684268054B1A4042606970AE7057
:1032E0002E700020F0E70220EEE7000000E800FE6C
:1032F000F0B599B00446142113A8FDF789F94C21C3
:103300006846FDF785F928492068284C12260627CB
:10331000002588421ED1202000900695684600F0C6
:103320000DF9002801D0FFF796FA616B02200143E6
:103330006163616B159501401891C0201797169530
:1033400013A941C11A480839FFF7FCFBE16B0120C2
:10335000400522E01749884224D14020009007957B
:10336000684600F0EBF8002801D0FFF774FA606BB4
:10337000012108436063606B159508401890032095
:10338000C00213A91797169541C1052000070839F7
:10339000FFF7D8FBE16B012080050143E163E16B9E
:1033A0000140189119B0F0BD0054004000100240D7
:1033B00000040050005800400248816802788918D3
:1033C000816070475000002010B508480024016853
:1033D000821511430160032000F00AF8002801D093
:1033E000012401E000F052F8204610BD0020024008
:1033F00030B505461F4887B002680121C9030A435A
:10340000026000680840009005A901A800F082FA57
:103410000498002815D000F099FA40001649FDF7ED
:10342000F9F8411E1648154A0260164AC26041600A
:10343000002101618160816100F0A9FD040003D0D9
:1034400015E000F083FAE9E70D4800F0C7FD04003D
:103450000DD1132000F034F8042D07D200222946A4
:10346000132000F039F80848056000E001242046E8
:1034700007B030BD4010024040420F000020004025
:103480002C020020E70300005400002008B50B4880
:103490000168012211430160006810400090074854
:1034A0004038C26B01040A43C263C06B08400090FD
:1034B0000320400200F05EFD08BD00004010024005
:1034C000002805DBC106C90E0120884001490860BB
:1034D0007047000000E100E010B502F0CDF910BD2A
:1034E00010B50F4C21680322520291430143216021
:1034F000C11FFF39FA390ED10A4806210068484336
:103500000949FDF787F8401C02E0002805D0401E5D
:1035100061694905F9D4002010BD032010BD0000E9
:10352000007000405C00002040420F00024801682B
:10353000821511430160704700700040FEB50446DB
:1035400000680027984D994E800355D500200090C3
:10355000F06BC00007D4F16BA8050143F163F16B78
:1035600001400120009092480168821511430160DA
:10357000FFF7A0FB019005E0FFF79CFB0199401AC3
:10358000022825D88A480068C005F5D5E8690321D6
:10359000090208400FD0216C81420CD0E869032158
:1035A0000902EA698843012109040A43EA61EA69D8
:1035B0008A43EA61E861C0070FD0FFF77BFB019007
:1035C00008E0FFF777FB0199411A7A48814201D957
:1035D000032709E0E8698007F3D5E86903210902B8
:1035E0008843216C0843E8610098002804D0F16BFF
:1035F000012000078143F1632078C00705D0686986
:10360000616880088000084368612078800705D5DC
:1036100068690C218843A1680843686120784007E5
:1036200005D5686930218843E168084368612078DE
:10363000C00606D5686903218902884321690843C9
:1036400068612088C00406D568690321090288439F
:103650006169084368612088800506D5686903218F
:1036600089048843A16A084368612088400506D51B
:103670006869032109058843E16A08436861207885
:10368000800606D56869032109038843A1690843B8
:1036900068612078400606D568690321890388435C
:1036A000E16908436861208840040ED56869216B90
:1036B00080008008084368610121206B89078842E7
:1036C00003D1F06889130843F0602068000305D532
:1036D000686940218843616B084368612068810202
:1036E00035480BD569698210A36B91431943696111
:1036F000A16B914202D1F1680143F1602168490256
:103700000AD56969E26B814311436961E16B8142CA
:1037100002D1F1680143F160218809050DD5A9693D
:10372000226A890889001143A961216A012904D10B
:10373000F168012212041143F160218889040DD53A
:10374000A9690C229143626A1143A961616A042943
:1037500004D1F168012212041143F1602168C9010A
:103760000ED5A969032212039143626C1143A9612A
:103770000122616C5203914202D1F1680143F16070
:10378000216889010DD5A969032212029143A26C17
:103790001143A961A26CD11FF93902D1F16801432B
:1037A000F1603846FEBD00004010024000100240AB
:1037B000007000408813000000000001F8B50F46BB
:1037C000060043D04D4D28684007400FB84213D241
:1037D0002868C008C00038432860FFF76BFA044629
:1037E00005E0FFF767FA011B4548814261D8286868
:1037F0004007400FB842F4D13068424C81070DD5E4
:10380000400704D5A068072109030843A060A06809
:103810000F2109028843B1680843A0603078C007CF
:1038200032D0706801280AD002280BD000280FD0AF
:103830003449403103280ED0C969890704E0216862
:10384000890301E021688901002906DB0120F8BD18
:1038500021684905F8E7096AEFE7A168C908C900C6
:103860000143A160FFF726FA009006E0FFF722FA75
:103870000099411A224881421BD8A068382108408B
:103880007168C9008842F1D128684007400FB842EA
:1038900017D91A480168C908C90039430160FFF700
:1038A00009FA054607E0FFF705FA411B1448814273
:1038B00001D90320F8BD114800684007400FB84205
:1038C000F1D13078400706D5A06807210903884365
:1038D000F1680843A06000F04DF8A1683C22890916
:1038E0001140094A515CC906C90EC8400749086021
:1038F00007480068FFF77CFDF8BD0000002002408B
:103900008813000000100240305D00085C000020B9
:103910005400002010B5072202600A4A93685B0732
:103920005B0F436093680F242402234083609268F6
:1039300007231B031A40C260034800684007400F7A
:10394000086010BD001002400020024006480749F0
:1039500000688968064A4904490F8900515CC90614
:10396000C90EC840704700005C00002000100240F3
:10397000705D000810B5204CA068204A8006400FFA
:1039800016D0A0688006410F501001290FD0A16801
:103990008906490F022912D0A0688006400F04282A
:1039A00023D0A0688006400F032821D0002010BD3E
:1039B000206801218004400F8140104612E0E16838
:1039C0008B07E1689B0F4906490F491C032B00D068
:1039D0001046FCF71FFEE1684904490E4843E168C0
:1039E000490F491CFCF716FE10BD0120C00310BD95
:1039F0007D20000210BD0000001002400024F400F1
:103A0000F8B504007ED020783827C007FE4D002886
:103A100046D0A868E96838408907890F102802D085
:103A200008280BD001E0032908D0012062680004B7
:103A300082420AD129680143296015E02868800381
:103A40002ED560680028DDD02AE0052301211B0463
:103A500089049A422A6802D10A432A60EAE782432B
:103A60002A60286888432860606800280CD0FFF727
:103A700021F9064604E0FFF71DF9801B642873D87E
:103A800028688003F7D50BE0FFF714F9064604E039
:103A9000FFF710F9801B6428F1D828688003F7D459
:103AA0002078800769D5A868E96838408A07072127
:103AB000920FC902102802D0002813D001E0022A78
:103AC00010D0E068002846D0286888432169084360
:103AD00028602868FF21013108432860FFF7EAF8D1
:103AE00006462CE02A68520502D5E268002A89D0F1
:103AF0006A687F231B029A4363691B021A436A6048
:103B0000002800E08DE00ED1286888432169084331
:103B10002860286801218004400F8140BB48FCF7E1
:103B200079FDBB490860BB480068FFF761FC0028CD
:103B300077D122E0FFF7BEF8801B02289FD82868C3
:103B40004005F7D568687F21090288436169090249
:103B50000843686011E02968FF2001308143296033
:103B6000FFF7A8F8064605E0B5E0FFF7A3F8801BCD
:103B7000022884D828684005F7D42078A64E00078C
:103B80002ED5A8688006400F03280AD0A069002817
:103B9000306A16D0012108433062FFF78BF80746E0
:103BA0000BE0306A80071BD5A06900289FD017E082
:103BB000FFF780F8C01B0228C0D8306A8007F7D50D
:103BC0000EE0400840003062FFF774F8074604E05A
:103BD000FFF770F8C01B02287DD8306A8007F7D441
:103BE000207840076BD5A86800278006400F04287E
:103BF00018D0E86BC00008D4E96B0120000701432E
:103C0000E963E96B01400127009184480168C90517
:103C100019D40168821511430160FFF74BF8009039
:103C20000DE083E0F069800749D5A06800287DD0C9
:103C300045E0FFF73FF80099401A02284BD8774833
:103C40000068C005F5D5A168012910D00420052918
:103C5000F16911D049084900F161F1698143F161CD
:103C6000A068002816D0FFF725F800900EE0F06954
:103C700001210843F061F3E70143F161F7E7FFF742
:103C800019F80099411A6648814224D8F0698007E2
:103C9000F5D50DE0FFF70EF8009006E0FFF70AF803
:103CA0000099411A5E4881427FD8F0698007F5D4B7
:103CB000002F04D0E96B012000078143E9632078DD
:103CC000800624D50120E16980050029296810D0EB
:103CD0000143296000E068E0FEF7ECFF064604E0DF
:103CE000FEF7E8FF801B02285FD828680002F7D59E
:103CF0000DE081432960FEF7DDFF064604E0FEF794
:103D0000D9FF801B022850D828680002F7D4206A07
:103D1000002844D0A9688906490F02294FD00126FE
:103D200036060228286807D0B04300E07FE028600C
:103D3000FEF7C0FF04463AE0B0432860FEF7BAFF42
:103D4000074604E0FEF7B6FFC01B02282DD82868FE
:103D50008001F7D4A16A606AE26A0843216B12020B
:103D600011430843616B0843A16B0843E9682D4A7E
:103D700011400843E860286830432860E868012162
:103D800009070843E860FEF795FF044604E0FEF7E4
:103D900091FF001B022808D828688001F7D548E069
:103DA000FEF788FF001B022801D90320F8BD286810
:103DB0008001F5D4E8681C490840E86039E0012832
:103DC000F4D0E868626A8107890F91422FD170218F
:103DD000A26A014091422AD17F21E26A0902014090
:103DE0001202914223D11F214904226B01409142CA
:103DF0001DD107214906626B0140914217D1400F46
:103E0000A16B4007884211E0001002400024F4003A
:103E10005C00002054000020401002400070004070
:103E2000881300008C80C111FCFFFEEE01D0012040
:103E3000F8BD0020F8BD000070B504460120002C3C
:103E40004BD025462035687A002806D128721120EB
:103E5000C0026060204600F047F8022068722068C7
:103E6000C168C943C90639D5CA21416221685320B6
:103E70004862204601F039F9002829D1206881697B
:103E8000184A1140816121688869A268E36910437A
:103E900062691A43104388612168206908612068BB
:103EA0000169A289120411430161204601F040F921
:103EB00000280DD121688A69D200D2088A61216860
:103EC0008A69636AA6691A43236A33431A438A617B
:103ED0002268FF215162002801D070BD002001211D
:103EE000697270BDBFFF8FFB10B594B004464C21C2
:103EF0006846FCF78DFB1049206888421AD10120E2
:103F000040040090401210906846FFF717FB00280D
:103F100001D0FEF7A0FC0948C1690122D203114378
:103F2000C16106484038C26B01150A43C263C06BC9
:103F30000840139014B010BD00280040401002400B
:103F400070B5044621680A48C860FEF7B3FE7D26B6
:103F50000546F60006E0FEF7ADFE401BB04201D973
:103F6000032070BD2068C0688006F4D5002070BDB5
:103F70005F00010003490A6803235B029A4302437E
:103F80000A6070470000014070477047704770B585
:103F9000040005D025462035687F002802D006E0C1
:103FA000012070BD00202877204600F016F802207E
:103FB0006877211D206801F02FF901224034227218
:103FC000AA77EA7722706270A270E2702271627141
:103FD000A271E2716A77002070BD704701462031FE
:103FE0004A7F012A01D00120704702224A770168E6
:103FF000CB6801221343CB6000680E4988420BD086
:104000009107884208D00C49884205D00B49884264
:1040100002D00B49884207D181680A4B1940062912
:1040200005D0DB1F994202D00168114301600020D6
:1040300070470000002C01400004004000080040D0
:10404000004001400700010070470000F8B5044639
:104050000068C66805690027A907002913DAB107B7
:1040600011D5F91E01610120207720688069800741
:10407000204602D0FFF7E8FF04E000F08BF820466E
:1040800000F089F82777680716D5700714D5042043
:104090002168C0430861022020772068806980057C
:1040A000800F204602D0FFF7CFFF04E000F072F847
:1040B000204600F070F82777280715D5300713D56C
:1040C00008202168C0430861042020772068C06967
:1040D0008007204602D0FFF7B7FF04E000F05AF84F
:1040E000204600F058F82777E80616D5F00614D5D4
:1040F00010202168C0430861082020772068C0692B
:104100008005800F204602D0FFF79EFF04E000F0FC
:1041100041F8204600F03FF82777E80708D0F0077D
:1041200006D001202168C0430861204600F034F821
:10413000280601D4A80407D5300605D52168134800
:1041400008612046FFF721FFE80507D5300605D5B1
:1041500021680F4808612046FFF716FF680608D55A
:10416000700606D540202168C0430861204600F053
:104170001DF8A80608D5B00606D520202168C04342
:1041800008612046FFF702FFF8BD00007FDFFFFF58
:10419000FFFEFFFF7047704710B500680249884274
:1041A00001D1FFF709F910BD00200040704710B59C
:1041B000014680310A79012A15D001220A71242290
:1041C0008A6002681368146864086400146001223D
:1041D00052079343002242660068036020208860F3
:1041E0000A71104610BD022010BD70B50446054688
:1041F0008034207901281AD0012020712420A06069
:1042000028680668026852085200026028688268BE
:1042100007235B069A430A438260284601F056F85A
:10422000286806602020A0600020207170BD022058
:1042300070BD70B50446054680342079012819D038
:10424000012020712420A0602868066802685208B6
:104250005200026028688268D200D2080A43826055
:10426000284601F033F8286806602020A06000206E
:10427000207170BD022070BD70B5040005D02546C8
:104280008035A868002802D006E0012070BD00201B
:104290002871204600F026F82420A86020680168D4
:1042A000490849000160A06A002802D0204601F0B8
:1042B0002FF8204601F020F90128E7D02068416856
:1042C0000922D20291434160206881682A229143E9
:1042D000816020680168012211430160204601F0DD
:1042E0007DF870BD30B599B00446142113A8FCF7D1
:1042F0008FF94C216846FCF78BF9184920688842F1
:1043000029D101240025684601950094FFF716F98C
:10431000002801D0FEF79FFA1148026801218903A5
:104320000A4302600068084018900D484038416B0D
:1043300021434163406B1595C007C00F18900320BF
:104340004002139002201490052013A9169517948B
:104350000007FEF7F7FB19B030BD00000038014040
:1043600040100240FFB5064604468036B06883B070
:104370000D46202802D0022007B0F0BD002D3BD012
:104380000598002838D00120A1680003814204D19B
:104390002069002801D1E8072ED1002030612120BA
:1043A000B060FEF787FC0190274640370598B88239
:1043B0000598F8820120A1680003814202D120699A
:1043C000002802D00295002522E0002002901FE084
:1043D00000228021204601F0D9F9002825D1029839
:1043E00000280BD02168007888620298401C029057
:1043F000B1682120884308D00120BDE728882168C2
:10440000C005C00D8862AD1CF2E7F88A401EF88234
:10441000F88A019B002806980090D9D100224021FB
:10442000204601F0B3F9002803D02020B06003201B
:10443000A2E72020B06000209EE7FEE701688A69BD
:10444000D243920701D400228A6200688169C9437D
:10445000C90703D0816901221143816170470000BF
:10446000F7B50446006882B0816900262746C90670
:10447000403735460092002945DA1021C16132E00B
:104480000398401C2FD0FEF715FC0099411A0398A1
:10449000814201D8002826D1206841680122920378
:1044A0001140BA788369DB431B0417D401239B03B3
:1044B000994213D0202A11D0416819434160FEF778
:1044C000F9FB00900AE0FEF7F5FB01460098081A98
:1044D000192803D920200543012604E020688069BB
:1044E000C0438006EFD420688069C043800602D5AF
:1044F000002EC5D004E0002E02D121682020C86122
:1045000004200543012621688869C20504D50122DB
:1045100015431202CA610126410508D508210D4341
:10452000CA012168CA610126800502D40AE080051B
:1045300006D50220054321680002C861012601E07A
:10454000002E0FD02046FFF779FF20684168074A08
:1045500011404160606C2843606420207870002026
:10456000B8703870304605B0F0BD000000E800FEBD
:10457000F8B50446164615481D46DAB20090079F66
:104580000023204600F054F83A462046069900F0F1
:10459000C9F8002818D12846F5B2012809D02168A9
:1045A000300A88623A462046069900F0BBF8002897
:1045B0000AD1206885620097002240212046069B90
:1045C00000F04CF8002800D00120F8BD0020008049
:1045D000F8B50446164615481D46DAB2C3020090E7
:1045E000079F204600F024F83A462046069900F03E
:1045F00099F8002818D12846F5B2012809D0216879
:10460000300A88623A462046069900F08BF8002866
:104610000AD1206885620097002280212046069BEF
:1046200000F01CF8002800D00120F8BD0020008018
:10463000890510B5890D12041143029C19430268C3
:104640002143490050684908630D034C23439843B4
:104650000843506010BD0000FF63FF03F8B51D461E
:1046600017460E46044626E029462046069AFFF7DE
:10467000F7FE002801D00120F8BD681C1BD0FEF712
:1046800019FB0699401AA84201D8002D13D12068C1
:104690008169304688430CD00020B8420BD1616C50
:1046A000202001436164403460700020A0702070BD
:1046B000E1E70120F1E7206881693046884304D0B2
:1046C0000020B842D0D00020F8BD0120F9E770B535
:1046D00016460D4604461EE0324629462046FFF7A0
:1046E000BFFE002801D0012070BDFEF7E3FA801B59
:1046F000A84201D8002D0ED120688069C0438006F1
:1047000009D5616C20200143616440346070002051
:10471000A0702070E7E720688069C0438006DBD482
:10472000002070BD70B516460D46044620E03246A6
:1047300029462046FFF794FE002801D0012070BDD5
:10474000681C15D0FEF7B6FA801BA84201D8002DD0
:104750000ED120688069C043800709D5616C202094
:1047600001436164403460700020A0702070E5E770
:1047700020688069C0438007D9D4002070BDC3B2CF
:10478000000A10B5C318002004E00C5CE318401CBC
:104790009BB2C0B29042F8D3D843C0B210BD00283B
:1047A00001D0202801D9072070470020704770B53C
:1047B00005460020024607240FE0AB5C584000236A
:1047C000060602D54000604000E040005B1CDBB202
:1047D000C0B2082BF4D3521CD2B28A42EDD370BDC2
:1047E00038B5902000F045FA00280AD10024684628
:1047F00000F062F8002804D168460078002801D053
:10480000002038BD0120FEF763F8641CA4B2642CBC
:10481000EDD3062038BD38B5922000F02AFA0028E2
:1048200011D10024684600F047F800280BD16846F3
:104830000078002807D00120FEF74AF8641CA4B2D3
:10484000642CEFD3062038BD014840687047000053
:104850004800002010B500200349024608700821D6
:104860000248FEF721FA10BD480000200004005065
:1048700001480078704700004800002070B50C4ED9
:10488000044600256423032210210A487560FEF7C0
:10489000C1FA002807D000F0D9F9002C01D07068C7
:1048A0002060032070BD002C00D02560002070BD6A
:1048B00048000020C400002038B504000DD00222BA
:1048C0006946122000F026F8002805D168460088C5
:1048D000C007C00F2070002038BD022038BDF8B5D9
:1048E00016460D00044613D068460470210A417034
:1048F000022269463E2000F017FA002807D1022064
:10490000FDF7E6FF32462946204600F09FF8F8BD45
:104910000220F8BDF7B596B016460F0006D0002E5F
:1049200001D0222E04D9072019B0F0BD0220FBE7E8
:10493000324801786420002911D07100149102904E
:1049400003AC01910123009410212D48169AFEF723
:104950007FFB00280FD000F079F90320E4E70290F4
:1049600001920123009710212548169AFEF770FB4B
:104970000028F0D1D8E70025002E1ED83CE0002DFD
:104980001BD0680000190121FFF711FF69000A1907
:10499000527882422AD0149AD6B2082E00D908261C
:1049A0006A001219527800920190635C2A461548F9
:1049B0001699FBF791FC002511E010216846017261
:1049C0001699417211218172017BC172042102A8E2
:1049D000DAE7615D0CA0FBF77FFC6D1CEDB2B54220
:1049E000F7D30BA0FBF778FC04209DE7605C7855BB
:1049F0006D1CEDB2B542C2D3002095E748000020FF
:104A0000C4000020F060000825303278000000006B
:104A10000D0A0000F8B516460D00044613D068468E
:104A20000470210A4170022269463E2000F07CF9A0
:104A3000002807D10220FDF74BFF324629462046C9
:104A400000F004F8F8BD0220F8BD0000F7B50646F6
:104A50008CB015461046FFF7A2FE00281DD1002499
:104A6000022269463E20FFF755FF002804D0044685
:104A70000246314639A00DE068460188B1420ED1A8
:104A8000012202A96120FFF745FF040010D0024671
:104A900031463DA0FBF720FC20460FB0F0BD0120C1
:104AA000FDF716FF641CA4B2642CD9D30620DEE700
:104AB0006846027A042A04D231463EA0FBF70CFC79
:104AC0000DE0101F0406240E03D0202C01D8A542AF
:104AD00007D92346314643480095FBF7FDFB0720E5
:104AE000DBE7224603A94020FFF714FF070003D0AD
:104AF000024631463CA009E0012201A96020FFF7EF
:104B000009FF070006D00246314642A0FBF7E4FB4E
:104B10003846C2E7224603A93046FFF730FE694611
:104B2000097988420ED0224603A93046FFF727FEB6
:104B3000034668460094027931464348FBF7CCFBB4
:104B40000520AAE7002003A904E00D9A0B5C13548A
:104B5000401CC0B2A842F8D300209EE762712074C6
:104B600072616E73666572206563686F2066616945
:104B70006C20636D643A3078253034782072657427
:104B80003A25640D0A0000006271207472616E7330
:104B9000666572206C656E677468206661696C205A
:104BA000636D643A307825303478207265743A2524
:104BB000640D0A006271207472616E736665722002
:104BC0006C656E6774682073686F727420636D64BF
:104BD0003A307825303478206C656E3A25750D0AA8
:104BE00000000000AC6000086271207472616E7396
:104BF00066657220627566666572206661696C2002
:104C0000636D643A307825303478207265743A25C3
:104C1000640D0A006271207472616E7366657220A1
:104C2000636865636B73756D20726561642066618E
:104C3000696C20636D643A30782530347820726571
:104C4000743A25640D0A00006860000810B5034836
:104C5000FEF77FF80249486010BD0000C400002044
:104C60004800002010B500F015F8122000F001F8FF
:104C700010BD08B569460870000A487002223E203F
:104C800000F052F808BD00000149087070470000AC
:104C90004800002010B5094C012208212046FEF7EB
:104CA00003F80220FDF714FE002208212046FDF73C
:104CB000FBFF0A20FDF70CFE10BD000000040050B1
:104CC00070B58AB00E00054614460BD01046FFF7AB
:104CD00066FD002807D168460571290A4171002048
:104CE00001A907E002200AB070BD325C0B18401C1D
:104CF0009A70C0B2A042F8D3A01CC2B23E2000F00D
:104D000013F80028EFD1224631462846FFF737FD39
:104D1000014668460170241D4470022269466020E5
:104D200000F002F8DFE70000F0B595B00746154641
:104D30000E0006D0002D01D0222D04D9072015B079
:104D4000F0BD0220FBE720480078002803D0684629
:104D5000077200241AE0642001920091029001235E
:104D60003A4610211948FEF71DFA1AE0620002A81F
:104D70001018315D00904170002C18D030190121BD
:104D8000FFF715FD00998870641CE4B2AC42EDD3C6
:104D900064206B00009002AA10210C485B1CFEF7F7
:104DA000BBF80028CBD0FFF751FF0320C7E7102046
:104DB000694608714F7130788871032101A8FFF7A7
:104DC000F6FC69468872DFE748000020C400002036
:104DD00070B58AB00E00054614460BD01046FFF79A
:104DE000DEFC002807D168460571290A41710020C0
:104DF00001A907E002200AB070BD325C0B18401C0C
:104E00009A70C0B2A042F8D3A01CC2B23E20FFF7F5
:104E10008BFF0028EFD1224631462846FFF7AFFC32
:104E2000014668460170241D4470022269466020D4
:104E3000FFF77AFFDFE7000010B512481049016064
:104E40000021FF22013241608260C160017441741F
:104E5000817402220823826143610D240262C461CD
:104E60008262C46243620263012281634263C1635E
:104E7000FDF740FD002801D0FDF7EDFC10BD00005E
:104E80000064004060000020F0B587B0142168463F
:104E9000FBF7BEFB3C48426B04210A434263426B72
:104EA0000A400592416B202631434163416B3140FA
:104EB0000591416B012421434163416B21400591E0
:104EC000416B022529434163416B29400591416BA8
:104ED000082739434163406B012238400590052083
:104EE000C0210007FDF7E0FE012211462748FDF72B
:104EF000DBFE002226492548FDF7D6FE0096002657
:104F000005200196694600070296FDF71BFEC020AA
:104F10000090112001AA31C2052069460007FDF763
:104F200011FE009401946946184803950294FDF718
:104F300009FE01AA009570C269461448FDF702FEF9
:104F400013486946801E51C1694610480396FDF713
:104F5000F9FD019669460F4800970296FDF7F2FDAC
:104F60001020009021200004019069460294074817
:104F7000FDF7E8FD002203210720FEF7ADFA072028
:104F8000FEF79EFA07B0F0BD00100240000400508A
:104F90000A600000000C005010B513481149016070
:104FA00012494160002181600161416181610122FA
:104FB000C161C2600162FDF7CFFE002801D0FDF79C
:104FC0004AFC00210848FDF77BFE002801D0FDF7D0
:104FD00042FC00210448FDF798FE002801D0FDF7AF
:104FE0003AFC10BD00540040C4000020B57DB11053
:104FF00010B51348114901601249416000218160D8
:105000000161416181610122C161C2600162FDF7FC
:10501000A3FE002801D0FDF71EFC00210848FDF783
:105020004FFE002801D0FDF716FC00210448FDF7D3
:105030006CFE002801D0FDF70EFC10BD00580040AA
:1050400018010020B57DB11010B50C480A49016067
:105050007F22C260002181604161FF228161026183
:105060000122C161920702624162FEF7E5FE00285B
:1050700001D0FDF7F0FB10BD002800406C010020BE
:1050800010B5184816490160E1214902416000212C
:105090008160C16001618161C16101620C22416274
:1050A00042618162FFF7E8F8002801D0FDF7D3FBE9
:1050B00000210C48FFF7BDF8002801D0FDF7CBFB1D
:1050C00000210848FFF791F8002801D0FDF7C3FB45
:1050D0000448FFF76CF8002801D0FDF7BCFB10BDB9
:1050E0000038014098010020FEE7F8B5044600684A
:1050F0000025C168490618D4C16880221143C160E7
:10510000FDF7D8FD27460646203708E0FDF7D2FD1B
:10511000811B7D20C000814201D903257D7220685A
:10512000C068400601D4032DF0D12846F8BD000028
:10513000F8B5124C0026E16880229143E160A16934
:10514000054689062035002907DBFEF7F9FE002811
:1051500011D00320687206460DE0A1692027B943EB
:10516000A161FEF7EDFE002802D00320687206461A
:10517000A0693843A0613046F8BD00000028004017
:1051800030B593B03C216846FBF742FA0024012079
:105190000F941094119440021294FEF7A1F9FEF7B7
:1051A000C5F91748C16918229143C16105200090D3
:1051B000012000040190012002900320099010209A
:1051C0000B90400302250C90089500020D90000101
:1051D0000E900A946846FEF713FC002801D072B6C0
:1051E000FEE707200F9011940221109512940FA84A
:1051F000FEF7E4FA002801D072B6FEE713B030BD26
:10520000401002407047000010B50248FEF71EFF34
:1052100010BD00002C020020F0B50268244B0124D0
:10522000A407244D244E984205D0A04203D0A842A2
:1052300001D0B04204D11746702297434A683A43DE
:105240001E4F984210D0A0420ED0A8420CD0B042BF
:105250000AD01B4CA04207D0B84205D0194CA0423E
:1052600002D0194CA04204D103242402A243CC68EA
:1052700022438024A2434C6922438C68C4620C6898
:105280008462984207D0B84205D00E4B984202D0B3
:105290000D4B984201D10969016301680423194348
:1052A000016001214161BFF34F8F0260F0BD00003A
:1052B000002C014000040040000800400040014074
:1052C000002000400044014000480140F8B5044679
:1052D000416E4034002915D000688168806809015A
:1052E0004D0F0A4E400F3746315C083F385CC00016
:1052F000FBF790F96085785D715DC000FBF78AF976
:105300002085F8BD01206085FAE70000285D0008CF
:1053100010B5018D090707D501684A680123DB0331
:105320009A43836B1A434A60018DC90707D001680D
:105330004A6801235B049A43C36A1A434A60018D99
:10534000890707D501684A6801231B049A43036B48
:105350001A434A60018D490707D501684A6801234D
:105360009B049A43436B1A434A60018DC90607D5D3
:105370000268916801231B039943C36B1943916031
:10538000018D890607D501688A6801235B039A436A
:10539000036C1A438A60018D490612D503685A6866
:1053A00001210905446C8A4322435A60426C8A42B7
:1053B00007D10268516803235B059943836C194345
:1053C0005160018D090607D501684A680123DB0495
:1053D000C06C9A4302434A6010BD0000FEB505460A
:1053E0000026803504462E61FDF764FC019020689C
:1053F000006820270007002817DA254800900022BF
:1054000039042046019B00F0C1F900280DD0EFF3CC
:105410001080012181F3108821680A6880239A4353
:105420000A6080F31088AF6028E0206800684007B9
:1054300027D5174800900121002289052046019BAD
:1054400000F0A4F900281CD0EFF31080012181F3B3
:10545000108821680A68FF2321339A430A6080F389
:105460001088EFF31080012181F3108821688A6889
:10547000520852008A6080F31088EF602E7103207A
:10548000FEBDAF60EF60E66626672E710020FEBDB0
:10549000FFFFFF0110B5EFF31081012282F31088A6
:1054A00002681368FF242134A343136081F310883A
:1054B000EFF31081012282F31088026893680D4C8B
:1054C0002340936081F31088C16E01290BD1EFF363
:1054D0001081012282F31088026813681024A3430C
:1054E000136081F3108820228C210A500021C166AC
:1054F000416710BDFEFFFFEFF8B504460168806804
:105500002569E7692843656900263D432843904A99
:10551000904B0D68904F3D4005430D6021684868F1
:1055200003252D03A843E568284348602168A06946
:10553000914203D0994201D0256A28438D68874F54
:105540003D4005438D602068C16A656A090909010B
:105550002943C162824D21688248A9420AD140692B
:105560008007800F4ED001285DD002284AD0032842
:1055700047D15AE07C4DA9420AD140690C25284008
:1055800040D004283ED008284BD00C2839D14CE01C
:10559000764DA9420AD140693025284032D01028E2
:1055A00041D020283DD030282BD13EE0704DA9427B
:1055B00014D0704DA94211D06F4DA9420ED0914226
:1055C0000ED1456903208002054007D001208002EA
:1055D0002D1A28D02D1A24D0281A10E0002011E00E
:1055E00099420ED1406903252D0228400AD0FF3888
:1055F000401E18D0FF38401E13D0FF380138002855
:1056000013D010205D4D5E4F914201D0994240D1A0
:1056100000280CD0022814D004280BD0082837D139
:105620000DE00220EEE70420ECE70820EAE7FEF7B1
:105630008DF901E0FEF79EF9050002D17EE001251B
:10564000ED03606A4000395A28460091FAF7E2FFFC
:1056500067687900791881426BD83903814268D331
:10566000002328461946009AFAF7B5FD020E0902F2
:105670000302780811431818002251413A460023CA
:10568000FAF7A9FD032109023E4A411A914253D972
:105690004FE00121E269C9038A4228D1002806D0DF
:1056A00002280DD0042805D0082842D107E0FEF7D3
:1056B0004DF901E0FEF75EF9050001D13EE00D462F
:1056C000606A4000395A2846FAF7A4FF6168400032
:1056D0004A088018FAF79EFF01462B4A103991427A
:1056E00027D8511C01400007400F084324E0002840
:1056F00006D002280DD0042805D0082819D107E0CB
:10570000FEF724F901E0FEF735F9050001D115E0B7
:105710000D46606A4000395A2846FAF77BFF6168F7
:105720004A088018FAF776FF0146174A1039914265
:1057300001D9012602E080B22168C860204601211B
:1057400040304185018500206067A0673046F8BD84
:105750000080004000840040F369FFCFFFF4FF1198
:105760000038014040100240004400400048004022
:10577000004C004000500040003C01400024F40078
:10578000085D0008FFFC0F00EFFF0000FFB581B0CF
:1057900005460E46044680350A9F32E0781C30D01C
:1057A000FDF788FA0499401AB84218D8002F16D08D
:1057B00020680168490724D5802E22D0402E20D0B1
:1057C000C169C94309070CD4082606622046FFF7C1
:1057D00061FE2E6100202871012005B0F0BD03207C
:1057E000FBE7C069C04300050BD401202168C0025B
:1057F00008622046FFF74EFE202028610020287115
:10580000EDE72068C1693046884305D00021039840
:105810008142C3D00020E0E70121F8E7F8B5040C8D
:105820008BB2264682B25E43104658430D0C370CAD
:10583000360400218019164679416E43370C360430
:105840008019264679416E438919F8BD4900CA027C
:105850000243100000D004204A0D01D00122104361
:10586000044A490D914201D102210843012800D187
:1058700005207047FF0700008307FF22DB0E9A40D8
:105880008907090E9940002808DB830809489B0016
:105890001B18186890430843186070470007000FF2
:1058A0000838830804489B001B18D86990430843B4
:1058B000D861704700E400E000ED00E030380A28CD
:1058C00001D20120704700207047FEE738B504463A
:1058D000684604707D23DB00012269460248FEF71A
:1058E00041FD204638BD000098010020FDF76CFD09
:1058F000FFF746FCFFF7C8FAFFF7A6FBFFF79CFA95
:10590000FFF776FBFFF7BCFBFFF746FB10A0FCF7A9
:1059100055FF17A0FCF752FF21A0FCF74FFF25A071
:10592000FCF74CFFFCF73EFAFDF7C4F97D25044671
:10593000ED00FDF7BFF9001BA84205D3FDF7BAF94A
:1059400004462846FCF7B0FE0A20FCF7C1FFF0E74A
:105950000D0A424D5332345620706C6174666F727A
:105960006D207361666520626F6F740D0A00000020
:105970005343383831352064697361626C65643A29
:105980002043455F4E3D31205053544F503D312C04
:10599000206E6F20534320746573740D0A0000005D
:1059A0005553415254312031313532303020384E48
:1059B000310D0A0072756E20726F6F742041707025
:1059C0005F4261744D616E207570706572206C6FFE
:1059D0006769630D0A00000010B500290AD0087835
:1059E000002807D005487844FBF7A6FE002801D020
:1059F000002010BD0248784410BD0000720700006E
:105A00006A07000070B501250400ED074C4020D462
:105A1000441A01D2001B0919C60D4B00F2B2FF2A2D
:105A200029D01B0E2CD000020C02D31A2C43DC40D0
:105A30002843051910D2280A02D3401C6D0611D044
:105A4000761EF6058019FF2A00DA70BDC00DC0056C
:105A500070BD694000F0D0F801200543C541521CDB
:105A6000761CE8E764089C40C90161408900E7D1E1
:105A70000124A043E4E71B0E440200D0034870BD9C
:105A8000002AFCD1C00FC00770BD00BF0000C07F5E
:105A900001230200DB050A430DD4DA4203D49A4203
:105AA00007D488427047D84214D4D94212D48842CD
:105AB000704780427047DA4203D59A42F9D5814255
:105AC00070475B004200DA4204D24A00DA4201D257
:105AD0008142704710B5024AFBF7E2F910BD00BFE2
