:020000040800F2
:10000000080D0020D50000089D630008474C00083B
:1000100000000000000000000000000000000000E0
:10002000000000000000000000000000E1000008E7
:100030000000000000000000E3000008E5000008E8
:10004000E7000008E7000008E7000008E7000008F4
:10005000E7000008E7000008E7000008C12A0008E0
:10006000E7000008E7000008E7000008E7000008D4
:10007000E7000008E7000008E7000008E7000008C4
:10008000E7000008E7000008E7000008BD6400087A
:10009000E7000008E7000008E7000008E7000008A4
:1000A000E7000008E7000008E7000008E700000894
:1000B000E7000008E7000008E7000008044885465C
:1000C00000F02EFC00480047B5790008C046C04645
:1000D000080D00200448804704480047FEE7FEE77B
:1000E000FEE7FEE7FEE7FEE7B9640008BD00000892
:1000F00030B50B46014600202022012409E00D46C0
:10010000D5409D4205D31D469540491B2546954047
:1001100040191546521E002DF1DC30BD70B500248B
:100120002546002801DA01244042002901DA012590
:100130004942FFF7DDFFAC4200D04042002C00D026
:10014000494270BDF0B51FB40646002082B0054696
:100150004024019100901BE0019922460F46304651
:1001600000F08AF9049A059B801A994110D3104631
:100170001946224600F070F9361A8F41019722463F
:1001800001200021009F00F067F938184D410090D0
:100190002046641E0028DFDC019B00982946324679
:1001A00007B0F0BD03460B439B0703D009E008C925
:1001B000121F08C0042AFAD203E00B780370401C17
:1001C000491C521EF9D27047D2B201E00270401CA5
:1001D000491EFBD270470022F6E710B513460A46C7
:1001E00004461946FFF7F0FF204610BD421C017877
:1001F000401C0029FBD1801A7047F8B502464A40DE
:10020000D40F42004B0052085B089A4202D20246C9
:10021000084611464A0023D0C30D4A00DDB2120E33
:10022000AD1A202D35DA49020126490AF6058A1948
:10023000002C00D0524220214F1B1146B9402A41C8
:100240001018C20D9A4221D0002C17D0012D08DCC5
:10025000DA05801AD20F8019D207DBB200F025F937
:10026000F8BDDA05801A012340001B06C01880186B
:100270005A428018CA0F1043490007E04908C207D4
:100280001143DA05801A80194008801800F005F93A
:10029000F8BD61000122511A001BF7E70122D207C5
:1002A0005140AAE70122D2075040A6E7024670B5A6
:1002B0004A40D30FDB0740002DD04A002AD0010E60
:1002C000140E000212020919400A520A8418E501AC
:1002D00004465443000A120A2E045043A41942193A
:1002E000200CC543AA18120C0125AD03521C52194B
:1002F00012047F39240400D0521C104301D4400062
:10030000491EC2B20C06C0092018401C4008802AB1
:1003100002D003E0002070BD40084000002900DA50
:100320000020184370BD70B502464A40D50F40000A
:100330004A00ED0740085208002814D0002A12D0C5
:10034000C40DD30D41020120C0055202490A520AD0
:10035000E41A091812187D34914201D3641C00E09C
:100360004900002C01DA002070BD0023914201D326
:10037000891A0343400849000028F7D100290AD010
:10038000914202D10121C90705E0914201D2012128
:1003900001E00121C943E005C018401900F07DF8D3
:1003A00070BD420005D04200120E52428A4201DB6B
:1003B00000207047C90508187047C217C10F504088
:1003C00010B54018CA079623002100F06EF810BD42
:1003D00010B500229623114600F067F810BD4100C9
:1003E00040020122400AD205090E80187F2901DA55
:1003F00000207047962903DC9622511AC8407047A6
:10040000963988407047C20FD207400040080BD091
:10041000C10D0723DB01C91840020905400A114339
:10042000C208400711437047002001467047000092
:100430000122D207002800DB101A002900DB511A24
:10044000814270470122D207002800DB101A0029E0
:1004500000DB511A8842704710B5202A04DB0146A0
:10046000203A9140002010BD914020239C1A034661
:10047000E3401943904010BD10B5202A04DB084624
:10048000203AD040002110BD0B46D340D04020245C
:10049000A21A91400843194610BD002904DA401CF5
:1004A000490001D140084000704770B40024050C99
:1004B00005D11024000402D1002921D01124050EF9
:1004C00001D100020834050F01D10001241D850F60
:1004D00001D18000A41C002801DB4000641C00291D
:1004E00008D020252E1B0D46F540A14000D001214B
:1004F0002943084301061B1B000ADB1D02D500200F
:1005000070BC7047DB05181880180029F8DA401C09
:100510004900F5D170BC40084000704710B541005B
:100520000DD04100090E962909DC7E290ADC07DB83
:10053000410205D0C00F7F21C007C905401810BD7A
:10054000002010BD9622541A20210A1B014691401A
:10055000E040FFF7A2FFA04010BD0000F0B5074645
:100560000846584087B0C00F049048000E46590016
:1005700040084908BC1A884105D2384631461E4613
:1005800017460B4602465800400810434DD0300D28
:10059000039040055900400D490D0590401A029006
:1005A000402873DA18030121000B09050843019064
:1005B00004980092002806D01146019A4942002072
:1005C000904100910190029840210A1A01990098E7
:1005D000FFF742FF05460C466B4607CB00F0B2F929
:1005E000C0197141039A0E0D0023D71756401A46C1
:1005F0007A40164344D0049A002A2DD0029A012A48
:10060000039A15DC1205C01A914101263605001C1B
:100610007141D20F059ED2070093019202962A469D
:10062000234600F0AFF907B0F0BD38463146FAE78F
:100630001605234A0F46B218C01AB7410121090511
:10064000001C4F4100187F41114618187941E20FF4
:1006500010436D19644113E0E2076D081543640807
:10066000C2071443039A01261205C01A91413605A8
:10067000001C7141CE07400830434908C018514161
:100680002A46234600F071F9CDE7FFE704980122DE
:100690004000C117121A00238B4104983146C41739
:1006A000381AA141EEE730B40124E407634030BCBE
:1006B00054E730B40124E407614030BC4EE7000049
:1006C0000000E0FFF0B51FB488B00B990998002432
:1006D00048400999C00F490049080991C0070B9982
:1006E0000090490049080B9109990898A6460843CB
:1006F0001CD00B990A98084318D00998012440008F
:10070000420D4800410D099824050003000B2043C9
:1007100009900B980003000B20430B9050181C49C4
:100720004018002201901446104605E000200146C2
:100730000DB0F0BD032801DA034600E003239C4618
:10074000C11A0AAE0AE05F0008ADED5B4F00F75B2F
:100750007D430027AA187C41491C5B1E6145F2DDE0
:10076000410004AB5A522104120C0A43240C401CD1
:100770000828DFDB019802900099704601910090F3
:10078000059B049A0799069800F0FCF8D0E7000052
:100790000DFCFFFFF0B50C465C4085B0E40FE407AC
:1007A00003944C0000266408590094464908024608
:1007B0000296224321D062460A431ED06200570DA2
:1007C0004A000E032303550D012402462C4924053B
:1007D000781B1B0B360B40182343264361460090C1
:1007E0001C46501AB44103D30098401C009002E00C
:1007F000921800985B41002803DA0020014605B0FA
:10080000F0BD0020012109050746864611E0644637
:100810001D46141BB54106D36546521BB3417446B1
:1008200007430C43A646CD074008490828439218C1
:100830005B4105460D43EAD11046184313D060468C
:10084000194650407140084306D06046101AB34123
:1008500006D20122002306E000220123DB0702E08A
:100860000122D2435310009874460105381C61419F
:10087000029C039D0019694100F077F8BFE7000072
:10088000FD030000C20F410040020123400ADB05C6
:10089000D207090EC0187F2901DA00207047962977
:1008A00003DC9623591AC84001E096398840002A93
:1008B000F4D04042704700004A0009030123090BAD
:1008C0001B0519430A4B10B5520D9A4202DA00205B
:1008D000014610BD064B34339A4203DC9A1AFFF7E7
:1008E000CBFD10BD034BD218FFF7B6FD10BD0000C5
:1008F000FF030000CDFBFFFF10B5002904DB01243E
:10090000E40740428C412146002B04DB1C460123B6
:10091000DB075242A341994200D1904210BD000032
:10092000064C0125064E05E0E36807CC2B430C3C42
:1009300098471034B442F7D3FFF7C4FB6C98000813
:100940008C98000810B5202A06DBCB170846203A01
:100950001041C1170B4306E00B461341D040202441
:10096000A21A91400843194610BD10B5002B08DAB1
:100970000024401C614192185B411A4301D1400898
:10098000400010BDF0B51FB482B005460C0003D086
:10099000084606F089FA02E006F086FA20300246A0
:1009A000009021462846FFF757FD049B059A044610
:1009B0000F4618431143084314D0184610431BD068
:1009C000009840210A1A18460599FFF755FD05467B
:1009D0000E46009A05990498FFF73EFD084305D09E
:1009E000012004E02046394607B0F0BD0020C117C1
:1009F00005430E432C43374300990E986305401A74
:100A00007905E40A00220C43FD0A0A3002D50020D1
:100A10000146E9E70105101969410C9C0D9D00197B
:100A20006941FFF7A2FFDFE710B50521394800F063
:100A300091FC00286BD037483749401C00F05CFC23
:100A4000002864D033480221A43800F055FC002867
:100A50005DD030481F21C902963800F04DFC0028B7
:100A600055D02C480921401D00F074FC00284ED0C0
:100A700028480121801D00F06DFC002847D0254842
:100A80000921323000F066FC00283FD0214888213F
:100A9000A23800F05FFC002839D01E480021A138A0
:100AA00000F058FC002832D01A480021A03800F08D
:100AB00051FC00282BD0174898219E3800F04AFCA2
:100AC000002824D01348D5219D3800F043FC00288D
:100AD0001DD0104856219C3800F03CFC002816D050
:100AE0000C48E4219A3800F035FC00280FD0094862
:100AF000E621993800F02EFC002808D00548E221B4
:100B0000983800F027FC002801D0012010BD0020FB
:100B100010BD000003930000238900001CB500F005
:100B2000D5FA00F007F9002000F0E0FC04F00AFC20
:100B3000002004F0FBFD04F0E7FD040005D004F004
:100B4000FBFB024621463EA00EE0C82001F0FAFF62
:100B5000022201A9012004F0AFFC040007D004F038
:100B6000EBFB024621463FA006F08EF91CBD68460D
:100B7000848804F0EDFB0246214643A006F084F988
:100B8000012000F0B3FC04F0A2FB002801D045A036
:100B90003FE0FFF749FF002808D0022201A946489C
:100BA00004F0EFFB454C002809D012E044A006F009
:100BB0006BF9002000F09AFC04F0A4FB1CBD684611
:100BC0008188E181012000F06FFCE18941A006F0FD
:100BD0005BF904F097FB002801D045A019E04948D3
:100BE000694600F0DDFB02226946622004F0D8FD70
:100BF00002226946572004F05FFC002806D16846AF
:100C00000088C0060BD4222004F086FD002806D000
:100C10003DA006F039F9002000F068FC1CBD00F092
:100C200095FA002000F0FEFA002000F029FB207861
:100C30000121484000F05AFC39A006F025F91CBDFE
:100C40006271207265736574206661696C207265DB
:100C5000743A25642068616C3A30782530386C78B5
:100C60000D0A000062712064657669636520666123
:100C7000696C207265743A25642068616C3A30783A
:100C80002530386C780D0A006271206F6B20646526
:100C9000763A307825303478206372633A25750DC2
:100CA0000A00000062712063666720656E746572D9
:100CB000206661696C0D0A00349200000400002077
:100CC0006271206366672077726974652066616966
:100CD0006C0D0A00627120706F7765725F636F6ED2
:100CE0006669673A3078253034780D0A00000000D4
:100CF0006271206366672065786974206661696C3B
:100D00000D0A00008306000062712066657420658C
:100D10006E61626C65206661696C0D0A00000000FE
:100D20006261746D616E20696E6974206F6B0D0A6B
:100D30000000000030B5A1B0742103A8FFF74BFA02
:100D400000202649244C04910090019003940290C5
:100D5000694608751E210691214907916421089171
:100D6000032269468A841F490A911F490B911F4932
:100D70000C911F490D911F490E911F490F911F4959
:100D80001091119112911E49139110A908741D48D8
:100D900015901D48FF252D351690179518941B4862
:100DA00088841B48C884FA201A901B90FF20800575
:100DB0001E9018481F901C941D9403A801F030F950
:100DC00050206946009488803720C8806846029584
:100DD00001F09CFD21B030BD8813000000004842A6
:100DE000C0270900A69B443CA69BC43B0000FA45D3
:100DF000A69B443B00606A4777CC2B3295BFD63325
:100E00000000C8410000A0420000964368100000A6
:100E1000B80B00000000204028308C2801D80120A9
:100E200070470020704700001CB501A9622000F047
:100E300029F91E4C002802D068468088608401A9E8
:100E4000642000F01FF9002802D068468088A08442
:100E500001A9122000F016F9002802D06846808807
:100E6000E08469467F2000F021F9002802D068461E
:100E70000078A0716946032000F018F9002802D01C
:100E800068460078E0716946052000F00FF90028F7
:100E900002D06846007820726946072000F006F903
:100EA000002802D06846007860721CBD0400002053
:100EB000F8B500271F482049477001823D463E464D
:100EC00047823C461D486946005D00F0DBF800287B
:100ED00024D068461A4900886200885215496D1C62
:100EE0000A8A3F18EDB2904200D202460A824A8A2C
:100EF000904200D810464882641CE4B2062CE1D32C
:100F00000C4C0D48218A814200D12682062D09D041
:100F1000A682608A218A401AE082F8BD08486100F2
:100F20004652E9E729463846FFF7E2F8A082012059
:100F30006070EEE704000020FFFF0000DC7A00088C
:100F400008030020F8B52C4C0020E070207160717F
:100F50006946682000F096F8002805D068460088A9
:100F600000B200F059FC20836946702000F08AF836
:100F7000012500280ED06846008800B200F04CFC25
:100F80000646FFF749FF002802D06683E57001E0BE
:100F9000208B60836946742000F074F800280ED01E
:100FA0006846008800B200F037FC0646FFF734FFC1
:100FB000002802D0A683257101E0208BA083E17870
:100FC0002079014208D01A201C21205E615E401861
:100FD000C10F0818401006E0002901D0608B02E024
:100FE000002803D0A08BE083657101E0208BE083B3
:100FF000208B2084F8BD000004000020F0B51F4CB9
:1010000095B0E06CFFF7FFF904900E46A06CFFF777
:10101000FAF905460291606CFFF7F5F9019100902D
:10102000206CFFF7F0F90246A77A207BE36D13935B
:101030001290049811961497029B10900F930E959E
:10104000019B00980D930C90E07A089209910A9008
:10105000A079637A227AE17904AD0FC51E23E08A74
:10106000E35E6D46626BE16A0FC5638AA28A218ADC
:10107000034805F009FF15B0F0BD00000400002092
:101080009C96000838B50C460222694604F094F993
:10109000002804D0044901200870002038BD6846AB
:1010A00000882080012038BD0400002010B50122F6
:1010B00004F082F9002804D00349012008700020C0
:1010C00010BD012010BD00000400002000201B4ABC
:1010D00001464300401CC0B2D1520628F9D318483B
:1010E000184AC16201634163816301824182818246
:1010F000C182018341838183C183018441848184CE
:10110000C1848171C171017241728172C2630264D2
:10111000C17241648164C16441650B4A81650265A5
:10112000C165642202734173017041708170C170A6
:10113000017141718162C181704700000803002084
:10114000040000200000484200409C45F8B5FFF72D
:10115000AFFE69463420FFF795FF1D4C002803D0F1
:1011600068460088E06220630020A07069463A204B
:10117000FFF788FF00280BD06846008800B2606344
:10118000FFF71BF91349FFF7CEF8A0630120A07009
:10119000FFF7D8FEFFF748FE00210F4A0F4B104D16
:1011A00008464600965BF618AE4200D30121401C6B
:1011B000C0B20628F5D3E079227A1043627A104350
:1011C00000D0012022780A430243A272F8BD000039
:1011D0000400002000007A44080300203CF6FFFFD2
:1011E0000907000070B50E4C002506462570FFF774
:1011F000ADFF304600F016F8304600F041F8207898
:101200000121484000F072F9A06A7D218019C900CF
:10121000A062884202D3A562FFF7F0FE70BD000015
:101220000400002010B58EB0144C0090A1786846E0
:101230000171606B0290617868460173E18AC18137
:1012400061790174E18B4182E1790175217A4175FF
:10125000617A817501F088FB06A801F04DFB0698C4
:1012600060650798A0650898E06508A8007C207371
:1012700008A8407C60730EB010BD00000400002080
:1012800010B5A0B01B4C1890A17818A80171606B24
:101290001A90617818A80173218A10A8C185618A03
:1012A0000186A18A4186617918A80175E18B10A891
:1012B000C186607B322801D3012100E0002118A8FB
:1012C0000176217B417601F009F9684600F09EFE27
:1012D0000098E063019820646846C07CE072099839
:1012E00060640A98A0640D98E0641098206520B0AE
:1012F00010BD00000400002038B50A4604466946C7
:10130000104600F04DF802226946204604F014FA17
:10131000002808D0054901200870214604A005F0E6
:10132000B3FD002038BD012038BD000004000020BE
:10133000627120646D207772697465313620666150
:10134000696C20616464723A3078253034780D0A13
:101350000000000013B50446012201A904F0ECF9D5
:10136000002808D0054A01201070214604A005F08D
:101370008BFD00201CBD01201CBD000004000020CE
:10138000627120646D2077726974653820666169C6
:101390006C20616464723A3078253034780D0A002C
:1013A0000870000A4870704710B504F0E5FA10BDE7
:1013B0000007000F0A2801D23030704737307047DD
:1013C00010B503F007FE04480121017000214170AF
:1013D000084600F08BF810BD64000020F0B585B021
:1013E00014460F46064603F0D1FD012500211023C7
:1013F00023A20846009503F001FF102322A21946FC
:101400000020009503F0FAFE0095002E01D020A2E6
:1014100000E020A210232021002003F0EFFE3E4236
:1014200023D0502069460871572048715220887196
:101430003A20C871200BFFF7BBFF69460872200AEB
:10144000FFF7B6FF694648722005000EFFF7B0FFB0
:1014500069468872E0B2FFF7ABFF6946C8720020A8
:101460000873102301AA009502E010230BA2009537
:101470003021002003F0C2FE03F024FE05B0F0BDD1
:10148000424D533234560000425120494943000036
:101490004F4B00004641494C000000005057523A63
:1014A0002D2D2D2D000000000A4610B50E490B7899
:1014B000002B17D04B78002B0AD08B78834207D1B2
:1014C000CB78834204D100280CD08B88934209D07A
:1014D00001234B708870C870002800D08A800146B4
:1014E000FFF77CFF10BD00006400002010B5094A22
:1014F000117800290DD05178002902D091788142CD
:1015000007D0012151709070D17892880140FFF787
:1015100065FF10BD6400002070B5434C2046627822
:101520008178C078002A07D022780025002A0DD0C3
:10153000A279002A0AD106E0002901D0002801D1B1
:1015400000F038F970BDE279002A01D06570F7E744
:10155000002901D00028F5D0012004F00BFD00F097
:1015600065F80028F2D02021002004F02EFD00F0C4
:101570005DF80028EAD02821082004F026FD00F0BC
:1015800055F80028E2D000228021092004F002FD55
:1015900000F04CF80028D9D0002274210A2004F071
:1015A000F9FC00F043F80028D0D0082200210B20DD
:1015B00004F0F0FC00F03AF80028C7D00022052122
:1015C0000C2004F0E7FC00F031F80028BED0012226
:1015D0000021192004F0DEFC00F028F80028B5D026
:1015E000FF21F531002004F083FC00F01FF80028F3
:1015F000ACD0FF212D31012004F07AFC00F016F868
:101600000028A3D0012004F05BFC00F00FF80028B4
:101610009CD0012004F060FC002004F0ABFC012011
:10162000A070E57070BD000014030020002803D0F6
:101630000249002008707047012070471403002001
:1016400010B5144C0121217000206070A170E17070
:1016500020716071A071E07120726072E0602061A1
:1016600060610D49A061088004F03AFB00F0A2F827
:10167000012004F025FCFFF7D9FF00F05FF8207887
:10168000002801D0012100E0002104A005F0FCFBAE
:1016900010BD0000140300206A000020736320695D
:1016A0006E6974207374616E646279206D6F6E6907
:1016B000746F72206F6B3A25750D0A0010B51D48C6
:1016C0008AB001460C311EC9069107A91CC1017AD6
:1016D000002900D00121C279002A00D0012283799B
:1016E000002B00D001230479002C00D001240294A7
:1016F000039304920591C278417A002A00D0012216
:10170000009201918178002901D0012300E000239B
:101710004178002901D0012200E000220078002851
:1017200001D0012100E00021034805F0ADFB0AB023
:1017300010BD0000140300202C9700081CB51C4CA1
:1017400001202070684604F09AFBFFF76FFF002825
:1017500011D068460078207168464078607168460C
:101760008078A0716846C078E07168460079207280
:101770006846407960720E4900200C3104F021FB6C
:10178000FFF754FF0A490120103104F01AFBFFF75C
:101790004DFF07490020143104F0BCFAFFF746FF63
:1017A00003490120183104F0B5FAFFF73FFF1CBDD3
:1017B0001403002010B5012004F0DCFB012004F02C
:1017C0008BFB02480121C170817010BD1403002001
:1017D00010B50446FFF7B2FFFFF79EFE06497D22D3
:1017E0000888D200001980B20880904203D30020FC
:1017F0000880FFF763FF10BD6A00002010B50400E9
:1018000007D0FEF7F3FC82B264232146014803F0BF
:10181000AFF910BD28020020064910B5401802D4C7
:101820000A21401D01E00A21401FFEF777FC00B2AB
:1018300010BD000055F5FFFFF8B500227F26134DBF
:10184000F60591004B199C796427191D7C43A04231
:1018500015D888789A780988801A1A8880B2891AE7
:101860000CB200280FD0002C0DDDFEF7B1FD0546AF
:101870002046FEF7A2FD2946FEF755FDF8BD521C95
:10188000D2B20B2ADDD33046F8BD0000E27A000860
:1018900070B503461448834201D8002070BD134C34
:1018A0000021880002199588101D9D4215D3A9B208
:1018B000158880789478491B021B581B002909D091
:1018C000504364225043FEF713FC64214C4300193B
:1018D00080B270BD6420604370BD491CC9B20B2941
:1018E000DFD3034870BD0000C4090000E27A00089D
:1018F00010270000F8B5002819D0124E00218A00E8
:101900009219947864256C4395796427131D7D435F
:10191000A84210D8291B1B881588001B5A1B0029B8
:1019200007D05043FEF7E4FB401980B2F8BD0648EB
:10193000F8BD2846F8BD491CC9B20B29DFD30348BE
:10194000F8BD0000E27A0008C40900006810000039
:10195000002804DA0121C907884201D108467047EE
:1019600040427047C2438A4201D940187047002064
:10197000C0437047F8B50C46054600F0A1FB0028AF
:101980002DD02C4F288A398B88420CD3002C0ADDAD
:101990002046FFF7DDFF014638464038C06D8142E2
:1019A00001D8012600E00026E889798B88420CD80E
:1019B000002C0ADA2046FFF7CBFF01461D484038CD
:1019C000006E814201D8012700E00027194C304603
:1019D0003840C034002803D0002020616061F8BD89
:1019E000002E04D029682069FFF7BCFF00E000202A
:1019F0002061002F04D029686069FFF7B3FF00E081
:101A000000200C4960614039236908464D6E01226F
:101A10008030AB4204D37F21C9054165027106E0E5
:101A20006369896E8B42DAD300214165427100F00F
:101A300045FDF8BD70030020F8B501685D4D044612
:101A4000002915D05C48814200D920605B4E0021FE
:101A50003246606800F0CEF86060207A002803D03B
:101A6000012801D0002020722069002802D003E064
:101A70002560EBE752482061606900F056FB606129
:101A8000208B002860D0322801D932202083E068E2
:101A900000F04BFBE0607F22D2050021E06900F0FE
:101AA000A9F8484FE0617F22D2053946206A00F04C
:101AB000A1F820627F22D2053946A06A00F09AF888
:101AC000A0627F21404AC905606A00F093F8606215
:101AD0007F213D4AC905E06A00F08CF8E0623A4691
:101AE0003A49206B00F086F8394F20633A4637496F
:101AF000606B00F07FF860633A463449A06B00F0F9
:101B000079F8A0633A463149E06B00F073F8E0637E
:101B10007F21304AC905206C00F06CF82F4F2064FB
:101B20002D4A3946A06C00F065F8A0642C4A39466D
:101B3000E06C00F05FF8E064206D00F0F6FA2065DC
:101B4000606D002802D002E003209FE76565E06D2C
:101B500000F0EBFAE065206E00F0E7FA2066606EB8
:101B6000002800D16566A06E002800D1A566204639
:101B70004030428B1B498A4200D24183028B1A4972
:101B80008A4200D90183418B028B914204D31749C9
:101B90004183154996390183154D32462946E06E39
:101BA00000F028F8E06632462946206F00F022F85F
:101BB0002067F8BD88130000400D03000000C842F4
:101BC000C027090017B7D13800247449CCBC8C2B2E
:101BD0006F12833A000048430000FA43000020419E
:101BE00000007A44C4090000FE100000B80B000099
:101BF000CDCCCC3D70B514460D460646FEF718FC1C
:101C000001D2284670BD21463046FEF71BFC01D2AA
:101C1000204670BD304670BDF3B5CB4CB5B000204A
:101C2000E070A0710F46359800F04AFA00287DD088
:101C3000A0782546C54E803D00280AD12046403870
:101C40000079002872D020468030C069696D8842D2
:101C50006CD3BF49606DFEF729FBFEF7C0FB80B275
:101C6000FFF7EAFD0B903946359800F0D9FDA769DA
:101C700031463846FEF757FB11903846E96CFEF7BF
:101C8000E1FB53D30121E86CC9074840A169FEF785
:101C9000D9FB4BD3AF490B98FEF708FB3146FEF753
:101CA00042FB05907F20C00506900790A078002891
:101CB00001D0286C00E0A86C3146FEF734FB0146E9
:101CC000FEF7F4FA002604900C2070434719803781
:101CD0000799B86EFEF7EAFA0C900699786EFEF74F
:101CE000E5FA0E900599386EFEF7E0FA0E99FEF7C8
:101CF00084FA0C99FEF781FAB100761C08AFF6B2AF
:101D00007850032EE0D30A990798FEF7CFFA0B908C
:101D100009990698FEF7CAFA064608990598FEF74B
:101D2000C5FA0499FEF769FA314600E088E0FEF74B
:101D300064FA0B99FEF761FA0121C9050C908842FB
:101D40007EDB00F0EBF900287AD00020064601AFD8
:101D50001290B50008A840590C99FEF7E4FA7851A2
:101D60001199FEF7A3FA784980396D188035696DAD
:101D7000FEF743FA761CF6B26865032EE9D30198A4
:101D8000E0610298206203986062FF21606DC905DE
:101D9000C84203D27F21C905884201DD012012908B
:101DA00000F0FCFA00250C210026A800694319AABE
:101DB0008918109101A908580E90B54202D17F20D0
:101DC000C00500E000201099B700C8510D9005A88B
:101DD000C1590E98FEF76AFA0D99FEF763FA109949
:101DE000761CF6B2C851032EE7D36D1CEDB2032D5D
:101DF000D9D3002528460C21484322A94118139124
:101E000019A909581191002619A940184168109183
:101E100080680F904C48B2008038171880370E92B7
:101E2000B96F0F98FEF742FA0D90F96E1098FEF711
:101E30003DFA0C90396E1198FEF738FA0C9900E0D3
:101E40007DE0FEF7DAF90D99FEF7D7F9139B0E9AAC
:101E5000761CF6B29850032EDCD36D1CEDB2032D28
:101E6000C8D3002501A8A9004058002622AF049934
:101E7000FEF71CFA189028460C2148432BA941185C
:101E80000F913958C01914914168139180681190CD
:101E9000B20001A9109218988958FEF707FA0E901F
:101EA00030460C214843074619A94018179081680D
:101EB0001198FEF7FBF90D90179841681398FEF7FB
:101EC000F5F90C9019A8C1591498FEF7EFF90C997F
:101ED000FEF793F90D99FEF790F90E99FEF78DF93B
:101EE000109B0F9A761CF6B2D050032ED0D36D1CE7
:101EF000EDB2032DB6D3144F0020803F0C222BAB44
:101F000042430021D318D2198D005E5955198035EE
:101F1000491CC9B22E660329F6D3401CC0B203285F
:101F2000ECD300F0EFF91298002801D000F0C6FAC7
:101F30000120E070A078002803D00020A07137B005
:101F4000F0BD0120FAE70000B003002000007A4451
:101F500000401C460000C8421C4A1D490260416006
:101F6000002303721E21C1601A490161642141618D
:101F7000032101831849C16118490162184941626E
:101F8000184981621849C1621849016318494163BF
:101F90008163C16317490164014640310B71164BDF
:101FA0008364164BC364FF232D3303654265144BD2
:101FB0000B83144B4B83FA21C1654266826601662E
:101FC000FF218905C1661049016770478813000029
:101FD00000004842C0270900A69B443CA69BC43B86
:101FE0000000FA45A69B443B00606A4777CC2B3241
:101FF00095BFD6330000C8410000A04200009643C0
:1020000068100000B80B00000000204010B5002848
:1020100003D060220149FEF7C5F810BDA4030020DB
:10202000F8B504462448FFF797FF002C04D074222B
:1020300021462148FEF7B6F81F48FFF7FDFC1E4F6A
:102040001E497E683046FEF76EF93D468035002415
:10205000AC65EC65686528468030446084608481A6
:10206000C481046144618461C4612C706C70AC7083
:10207000EC702C716C71AC71EC71BE67AC60EC6093
:102080002C616C61AC61EC612C626C62AC62EC62E4
:102090002C633868FEF79CF9AC63EC636C64AC6449
:1020A0002E64EC64686328464030047400F0AEF996
:1020B00000F034FBF8BD0000300300200000C842EF
:1020C00010B504001AD0207B002817D0608A00F0D9
:1020D00017F8002811D0E189608A81420ED8228A3F
:1020E00090420BD8084600F00BF8002806D0208A52
:1020F00000F006F8002801D0012010BD002010BD1E
:10210000044940180449884201D801207047002042
:10211000704700003CF6FFFF3A070000C00DC043C7
:102120000006000E00D001207047002804DA0121CB
:10213000C907884201D1401E7047404270470000E5
:10214000F0B597B014460E4600287DD0FEF740F952
:10215000694D2946FEF7E7F800903046FEF72DF965
:1021600007462946FEF7DFF8064664492046FEF793
:102170009DF8044638460099FEF798F82146FEF788
:10218000D2F85F4C0146606DFEF737F87F22D2052A
:102190000021FFF72FFD2546803D6065696A286AAA
:1021A000FEF784F8014601220098D2075040074606
:1021B000FEF7B9F805F042FB1290E96AA86AFEF74B
:1021C00075F801463846FEF7AEF805F037FB029089
:1021D0007F20C0051299FEF761F8296AFEF766F8BC
:1021E00007467F20C0050299FEF758F8A96AFEF756
:1021F0005DF8054631463846FEF758F80746A16DAA
:102200001298FEF753F83946FDF7F7FFA0653146FF
:102210002846FEF74BF80546E16D0298FEF746F8B2
:102220002946FDF7EAFFE06500F0B8F800202746F0
:10223000803F0C2242430021D31908AD52198D0072
:102240005E198036366E00E053E0491CC9B2565123
:102250000329F4D3401CC0B20328EAD37F20C00571
:102260000590129806900298002507902449284668
:102270000C2380395843411808AA8018002615916C
:102280000290A80005A9085814900298B700C159F7
:102290001498FEF70BF805A9C959FEF707F8159928
:1022A000761CC9198031F6B20866032EEDD36D1C79
:1022B000EDB2032DDAD3124D0099803D286BFDF766
:1022C000F5FF216EFDF799FF2066A86B0099FDF7D9
:1022D000EDFF216FFDF791FF2067E86B0099FDF797
:1022E000E5FFEC1DF9342168FDF787FF206000F061
:1022F00009F817B0F0BD000000007A440000614505
:10230000B0030020F8B50024601CC5B2009019E0AD
:102310000C20294641431E48A20009188F180C22A0
:1023200062431018AA00861880378036396E306EE6
:10233000FDF763FF0021C943FEF733F830666D1CDB
:10234000EDB23866032DE3D30098C4B2032CDBD37F
:102350000F4810498030026E8A4200DA0166026F2F
:102360008A4200DA01670C4A13688B4200DA116076
:102370007F21036EC9058B4200DD0166036F8B422E
:1023800000DD01671068884200DD1160F8BD0000C3
:102390003003002077CC2B323004002070B5194C6C
:1023A0007F22D2050021606DFFF724FC3F25BF2668
:1023B00060652D0636062A463146A06DFFF71AFCE9
:1023C000A0652A463146E06DFFF714FCE065606DBC
:1023D000FFF7A4FE002806D12046803840680A494D
:1023E000FDF7A1FF6065A06DFFF798FE00250028AE
:1023F00000D1A565E06DFFF791FE002800D1E565ED
:1024000070BD0000B00300200000C84230B50020BD
:102410000D4C03460C220021424312198D00551920
:102420008035491CC9B22B660329F7D3401CC0B2C2
:102430000328EFD304480549803001660449016749
:102440008030016030BD0000300300200BD7233BFB
:1024500017B7D13970B5164C05462078002825D11C
:102460002846FFF74DFE002820D02846FFF710FA37
:10247000FDF7AEFF0F49FDF756FF7F22D205002181
:10248000FFF7B8FB0021A165E16560650A49FDF72A
:102490000DFF21468039886701202070022060707E
:1024A000FFF7B4FFFFF77AFF00F038F970BD0000C6
:1024B000B003002000401C460000C84210B506488A
:1024C0000449016600214166C16681668167FFF7A4
:1024D00019FF10BD17B7D137B0030020F8B50500BC
:1024E0007CD03F4E0024F470347174713046B47166
:1024F00040300474B461F461346228467462FFF7BA
:10250000DFFD002802D0688AFFF7A4FF3448317845
:10251000803000290ED0297900290BD0AF683846C9
:10252000FFF716FA01462E488038C26891420BD850
:1025300000270DE044608460C481848104614461AB
:102540008461C461B47041E0017A012900D17F4205
:102550000068FDF73DFF0446287E00280BD0687E0A
:10256000322808D3FDF734FF1E49FDF7DCFE214673
:10257000FDF79CFE0446287D002808D01621695EE0
:10258000002904DA18492046FDF790FE04467F2012
:10259000C005844200DA044674632246394628683E
:1025A000FFF7CEFD3946286800F046F83946284640
:1025B00000F0EAF83946284600F032F93946284654
:1025C000FFF72AFB39462846FFF7D4F9286800F0C0
:1025D0005BF800F0A3F8284600F008F8F8BD00000A
:1025E000B00300200000C8426666663F114A2821F9
:1025F0001378002B00D03C21002811D00379002B48
:1026000000D00F31037B002B00D00F31037D002B56
:1026100001D0491DC9B2007E002801D0491DC9B2B0
:10262000D078002801D00A31C9B2642900D96421C8
:10263000D1717047B003002070B5114D0C46A969E7
:10264000E217CB17611A9A4103D51346002249427B
:102650009A410026F6430023761A934101DA0021BD
:10266000C943084A126D8A4205D3EA6901461046F9
:10267000FFF778F900E00020AC61E86170BD000070
:102680003004002030030020F1B521482149406D7D
:10269000FDF70CFE1E4D0646803DA96FFDF7FEFDC1
:1026A00004460098002816D0FF20C0050702C44247
:1026B000194E009811D2FDF78BFE3146FDF733FE1F
:1026C000E96EFDF7F3FD064601462046FDF7BAFE2A
:1026D00014D2344612E0AE67F8BDFDF779FE3146FC
:1026E000FDF721FE296FFDF7E1FD06462046784003
:1026F0003146FDF7A7FE01D234467C402146A86F43
:10270000FDF77BFD034A0021FFF774FAA867F8BDC7
:10271000B00300200000C84200007A4470B5174C96
:102720001749656D2846FDF7C1FD2646803E706756
:1027300020642846616BFDF7B9FD3F210906FDF7CE
:102740005CFDFDF74CFE0F4DF0672946A06DFDF7CF
:10275000ADFD20612946E06DFDF7A8FD6061206EAA
:10276000A062206FE06220468030016821634168EA
:1027700061648168A164C069E06470BDB003002039
:102780000000C84200007A44F8B506460846FFF744
:10279000DFF8224F0025FC1D7969F934884213D8EF
:1027A000002E04D031686068FFF7DCF860603046C6
:1027B000FFF786FC00280BD0E089002814D0718A2E
:1027C000814215D3081A14E06560A560E581A581F2
:1027D000A560E581A58161683869814219D3A16846
:1027E000814216D3012115E0708AE081A5600DE0D9
:1027F000401A398B80B2814205D33168A068FFF757
:10280000B1F8A06002E0A560708AE081708AA081C2
:10281000E1E70021014880308170F8BD30030020DD
:10282000F8B5294C0E462546C035803407460028A9
:1028300045D0FFF745FC002841D03046FDF7BDFDEF
:102840002249FDF770FD06462149606DFDF72EFD1A
:10285000FDF7C5FD80B20090788AFDF7B9FDA06351
:10286000012028740098FFF745F8FDF7B1FD0746F1
:10287000E06015483146C069FDF718FD1349FDF7C2
:1028800015FD0546E0631149E06DFDF70FFD009071
:102890000E49A06DFDF70AFD064629463846FDF7AC
:1028A000ACFC3146FDF7A9FC0099FDF7A6FCA06041
:1028B000A26B01461046FDF7F1FCA061F8BD0020B7
:1028C000A0632874F8BD00003003002000007A44A3
:1028D00000401C4670B504460D460068FDF77FFDBC
:1028E000002808D0296809182960FDF771FD2168C2
:1028F000FDF7D8FC206070BD10B5002803D01C2265
:102900000149FDF74FFC10BD5C04002030B51549AE
:10291000134A50230A608B803723CB80FF232D334B
:102920008B6000280AD030C80068886030C1083940
:10293000002C00D10A60002800D18B600020C86004
:10294000086148618861C861064A08844884642334
:10295000203213713C2353718862C862086330BD12
:102960008813000050040020F8B5002870D0017BC7
:10297000384C002904D0C189228C914200D921848D
:10298000017C002907D012212222415EA25E9142E1
:1029900004DD618402E0E169491CE161017D0029F7
:1029A00005D1417D002902D1817D002902D0A16994
:1029B000491CA1610179002948D00168002945D04E
:1029C0008068061E01DA754200E035460846FDF7CC
:1029D000FFFC07462846FDF7FBFC3946FDF766FC81
:1029E0001D49FDF7A0FC0546002E0BDD2946E06AD7
:1029F000FDF703FC1749E0620C3108462030FFF771
:102A000069FF23E0002E21DA2946206BFDF7F5FB54
:102A100010492063103108462030FFF75BFF29463C
:102A2000A06AFDF7EAFBA06209E02068FDF7D0FC90
:102A3000A16AFDF737FCA0626069401C60612068F4
:102A4000FDF7C6FCA16AFDF7F3FCEED900F006F82D
:102A5000F8BD00005004002000BA5B4A10B5174AC8
:102A60006420138C94883C21A34200D35F2022234E
:102A70000624D35E145FA34201DB401FC0B29369FA
:102A8000002B01D00A38C0B294685369A34201D325
:102A9000401FC0B2D469002C00D0282114691268EC
:102AA000944200D31431002B00D01431642900D992
:102AB0006421024A20321071517110BD500400206F
:102AC00010B5102000F0C2F910BD72B6FEE700008C
:102AD00030B51A4C3523026817491B01A24200D1B8
:102AE00017498032016414681F252D04AC43858E7C
:102AF0002D042C4314600A4670324264026880320E
:102B000014680F252D06AC43058F2D062C43146049
:102B10000A46B0328264D832C264132252018A1843
:102B200002654F22D2008A1842650022C81800E0D0
:102B300004C18142FCD330BD00B4004000680040B5
:102B400050B7004070B5044600F054FA0546601CCA
:102B500002D004480078241800F04CFA401BA04230
:102B6000FAD370BD9000002010B55C22125C012ADF
:102B700007D0022A05D0016E02221143016601200E
:102B800010BD0A68002A0ED00A7B0B6952071A434F
:102B90000B7A4C6949689B07406C2343C900401875
:102BA0000CC0002010BD0B7A4A699B071A430B7BAF
:102BB0000C8ADB06240449682343006C1A4389000D
:102BC00040180260EDE730B55C252D5C039C012DBB
:102BD00005D0016E042211430166012030BD0901B8
:102BE000920011435A00114300682143803002686B
:102BF0009209920111430160002030BDF8B5040034
:102C000005D025464035287F002802D006E0012067
:102C1000F8BD00206877204600F0C2F8206881697E
:102C200010229143816100F0E5F90746012604E096
:102C300000F0E0F9C01B0A2810D82068806900075E
:102C4000F6D4206881693143816100F0D3F90746E9
:102C50000AE000F0CFF9C01B0A2805D9206E3043E6
:102C6000206603202877D2E720688069C007F0D06B
:102C700020688169022211438161474821688142AD
:102C800002D1464960680860207C40210128206804
:102C900082693AD00A438261607C0121890301285C
:102CA0002068826933D08A438261A07C01210903B4
:102CB0000128206882692CD00A43826121688869D2
:102CC000032212029043A268104388612068816940
:102CD000A4229143816121680A69102082430A611C
:102CE000E168012917D000291DD02022022916D021
:102CF00021688B6980273B438B6121680B69034303
:102D00000B61E06803280AD00DE08A43C3E70A4359
:102D1000CAE78A43D1E720688169042201E020687C
:102D2000816911438161207E7F2140064906401858
:102D3000E1690902FF3901390843216A491E084344
:102D4000A18A0A0401210904521A10432268D061A1
:102D50000320A2680002824210D1E26AA06A120235
:102D6000FF3A401E013A1043226B1201103A104301
:102D7000A28C1204511A08432168C8602068803070
:102D8000016CE26B114301642046FFF7A1FE0020B5
:102D9000A06520662E77F8BD006400400065004005
:102DA00010B59AB00446142113A8FDF714FA4C216B
:102DB0006846FDF710FA16492068884225D101209F
:102DC0004006002400901294684600F057FD002849
:102DD00001D0FFF77AFE0F48C26B81140A43C26329
:102DE000C26B0A401892426B02210A434263406B55
:102DF00013AA084018900320000213C20320179062
:102E000013A91694044800F037F81AB010BD00005A
:102E100000640040001002400004005001464031B0
:102E20000A7F012A05D0016E0422114301660120A8
:102E3000704702220A7701688A69520852008A6143
:102E400000210166084670477047000070B5084DC4
:102E50000446E868204203D0EC60204600F00AF8FF
:102E60002869204203D02C612046FFF7EDFF70BD9A
:102E70000018024070470000F0B5002303249DE0D5
:102E800001259D402A4072D00E79B607B60F012E5B
:102E900001D0022E16D186682746B4465E00B6469B
:102EA000B7406646BE43B446CF687646B7406646EE
:102EB000374387604668AE430D79ED06ED0F9D40C0
:102EC000354345600D79ED43AD0708D0C5685F0017
:102ED0002646BE40B5438E68BE402E43C6600D797F
:102EE000AD07AD0F022D0ED1DD08AD002D18AC469B
:102EF0002D6A5E07F60E0F27B740BD430F69B74036
:102F00002F4365462F6205685F002646BE40B543E5
:102F10000E79B607B60FBE402E4306604D68AD036E
:102F2000AD0F4AD09E08284DB6007519AC462D6EDF
:102F30009E07F60E0F27B740BD4305273F07B8424F
:102F400001D1002715E0214FB84201D1012710E03F
:102F50001F4FB84201D102270BE01E4FB84201D1EA
:102F6000032706E01C4FB84202D1042701E024E009
:102F70000527B7402F43144D664637662D684E68C7
:102F80009543F60200D515430F4F3D607D684E68AE
:102F90009543B60200D515437D600B4E80367568AB
:102FA0004F689543BF0300D51543756035684F687A
:102FB0009543FF0300D5154335605B1C0A68154631
:102FC000DD4000D05CE7F0BD001802400004005076
:102FD00000080050000C005000100050006908402C
:102FE00000D001207047002A01D0816170478162C2
:102FF0007047000001488068704700009000002082
:1030000070B5024640325378202B1CD11378012B27
:1030100019D00123137024245470046825689D433B
:103020002560046825681E03B5432560046825688B
:103030000D4325600068016819430160202050702D
:103040000020107070BD022070BD70B50246403285
:103050005378202B1BD11378012B18D00124147026
:103060002423537003681D68A5431D6005682B6801
:103070000F263602B343090219432960006801682C
:1030800021430160202050700020107070BD02208C
:1030900070BD406C7047000070B5040006D0254636
:1030A000403568780026002802D005E0012070BD78
:1030B0002E70204600F0BCFA242068702068016859
:1030C0004908490001600F216068090688432168AA
:1030D000086121688A680120C00382438A60E16830
:1030E0000129A1682FD02122920211432268916008
:1030F0000121E268C902022A2268536825D08B4365
:10310000536021684A68124B1A434A602168CA68B2
:103110008243CA60616920690843A16909020843C2
:103120002168C860216AE069084321680860206856
:1031300001680122114301606664202068702663E3
:10314000AE70002070BD0143D0E70B43D8E700000C
:1031500000800002FFB50446002083B025464035BC
:1031600001906A78202A70D122689269D2431204B1
:103170006BD52A78012A68D001222A7024226A702D
:1031800060648F05BF0DE06801280AD03048012136
:1031900038188902884321684860FFF72BFF0646EC
:1031A0000CE02C48F3E70698401C07D0FFF722FFFD
:1031B000811B069881423ED800283CD0216888694E
:1031C00089698006C00FC906C90F0843EBD0206883
:1031D0008169C943C90619D50096002220212046DD
:1031E000069B01F041FE002808D0606C04281BD12A
:1031F00021682020C8610020606415E0216820203B
:10320000C86168700020287007B0F0BD1021C1614E
:103210000096002220212046069B01F025FE002872
:1032200002D121682020C8610198401C014601900C
:1032300005988142A7D320206870616C01436164C6
:10324000002028700120DFE7FFE70220DCE7000014
:103250000028000200200002FFB505460446403564
:10326000687881B0202877D12878012874D001208F
:103270002870FFF7BFFE0746012200901923D103F3
:10328000204601F0F1FD002851D121206870102066
:10329000A87000266664039860620499618566637D
:1032A000628D3949FF2A03D9FF222285CB0206E02D
:1032B000628D228501235B061204120C0FD0226856
:1032C00000789062606A401C6062608D401E60857C
:1032D000208D401E2085401CC2B2009101E00022DA
:1032E00000912046029901F0A9FD16E001F020FEB0
:1032F00000281CD1606A216800788862606A401CDE
:103300006062608D401E6085208D401E80B22085E9
:10331000618D002901D000280CD0608D0A99002809
:103320003A462046E2D101F0D8FD00281DD0012008
:1033300005B0F0BD00970022802120460A9B01F0D5
:1033400093FD0028F3D1608DFF2806D9FF22228546
:1033500001231B060096C4E714E0608D20850096CB
:10336000208D0123C2B25B06BBE721682020C86123
:1033700021684A68054B1A404A606870AE702E702A
:103380000020D5E70220D3E70020008000E800FEFF
:10339000FFB5054604464035687883B0202875D1CE
:1033A0000C98002814D00D98002811D028780128F6
:1033B0006CD001202870FFF71DFE07460122009007
:1033C0001923D103204601F04FFD002874D103E0FA
:1033D0000120400260646FE0222068704020A870E5
:1033E000002666640C9860620D98608566630E988E
:1033F0000090019704A90EC9204601F0BFFC0028E7
:1034000001D02E7058E0618D3448FF2905D9FF2284
:10341000228501231B06009006E0618D2185009026
:10342000208D0123C2B25B062046049901F006FDFF
:1034300000970022042120460E9B01F015FD002874
:103440003AD12068406A616A0870606A401C606214
:10345000208D401E81B22185608D401E6085608D6B
:1034600000281FD000291DD100970022802120466E
:103470000E9B01F0F9FC00281ED1608DFF2806D9B3
:10348000FF22228501231B06009607E024E0608DC1
:1034900020850096208D0123C2B25B062046049948
:1034A00001F0CCFC608D0028C2D13A4620460E992E
:1034B00001F013FD002802D0012007B0F0BD206804
:1034C0002021C16120684268054B1A404260697042
:1034D000AE702E700020F0E70220EEE7002400809E
:1034E00000E800FEFFB5054604464035687883B025
:1034F000202872D10C98002814D00D98002811D0E3
:103500002878012869D001202870FFF773FD07464D
:10351000012200901923D103204601F0A5FC0028C8
:1035200071D103E00120400260646CE021206870EA
:103530004020A870002666640C9860620D98608533
:1035400066630E980090019704A90EC9204601F009
:1035500045FC002801D02E7055E0608DFF2805D96C
:10356000FF22228501231B06009606E0608D208540
:103570000096208D0123C2B25B062046049901F01B
:103580005DFC3A4620460E9901F0D2FC00283AD163
:10359000606A216800788862606A401C6062608DA1
:1035A000401E6085208D401E80B22085618D0029DF
:1035B0001FD000281DD100970022802120460E9B9D
:1035C00001F052FC00281ED1608DFF2806D9FF2291
:1035D000228501231B06009607E024E0608D2085EC
:1035E0000096208D0123C2B25B062046049901F0AB
:1035F00025FC608D0028C4D13A4620460E9901F082
:103600006CFC002802D0012007B0F0BD206820210A
:10361000C16120684268054B1A4042606970AE7013
:103620002E700020F0E70220EEE7000000E800FE28
:10363000F0B599B00446142113A8FCF7CCFD4C2139
:103640006846FCF7C8FD28492068284C1226062742
:10365000002588421ED1202000900695684600F083
:103660000DF9002801D0FFF730FA616B0220014309
:103670006163616B159501401891C02017971695ED
:1036800013A941C11A480839FFF7F6FBE16B012085
:10369000400522E01749884224D140200090079538
:1036A000684600F0EBF8002801D0FFF70EFA606BD7
:1036B000012108436063606B159508401890032052
:1036C000C00213A91797169541C1052000070839B4
:1036D000FFF7D2FBE16B012080050143E163E16B61
:1036E0000140189119B0F0BD005400400010024094
:1036F0000004005000580040024881680278891890
:10370000816070479000002010B5084800240168CF
:10371000821511430160032000F00AF8002801D04F
:10372000012401E000F052F8204610BD00200240C4
:1037300030B505461F4887B002680121C9030A4316
:10374000026000680840009005A901A800F082FA14
:103750000498002815D000F099FA40001649FCF7AB
:10376000C7FC411E1648154A0260164AC2604160F5
:10377000002101618160816100F0E8FD040003D057
:1037800015E000F083FAE9E70D4800F017FE0400A9
:103790000DD1132000F034F8042D07D20022294661
:1037A000132000F039F80848056000E001242046A5
:1037B00007B030BD4010024040420F0000200040E2
:1037C000BC020020E70300009400002008B50B486D
:1037D0000168012211430160006810400090074811
:1037E0004038C26B01040A43C263C06B08400090BA
:1037F0000320400200F05EFD08BD000040100240C2
:10380000002805DBC106C90E012088400149086077
:103810007047000000E100E010B503F06DFB10BD43
:1038200010B50F4C216803225202914301432160DD
:10383000C11FFF39FA390ED10A48062100684843F2
:103840000949FCF755FC401C02E0002805D0401E49
:1038500061694905F9D4002010BD032010BD0000A6
:10386000007000409C00002040420F0002480168A8
:10387000821511430160704700700040FEB5044698
:1038800000680027984D994E800355D50020009080
:10389000F06BC00007D4F16BA8050143F163F16B35
:1038A0000140012000909248016882151143016097
:1038B000FFF7A0FB019005E0FFF79CFB0199401A80
:1038C000022825D88A480068C005F5D5E869032193
:1038D000090208400FD0216C81420CD0E869032115
:1038E0000902EA698843012109040A43EA61EA6995
:1038F0008A43EA61E861C0070FD0FFF77BFB0190C4
:1039000008E0FFF777FB0199411A7A48814201D913
:10391000032709E0E8698007F3D5E8690321090274
:103920008843216C0843E8610098002804D0F16BBB
:10393000012000078143F1632078C00705D0686942
:10394000616880088000084368612078800705D599
:1039500068690C218843A1680843686120784007A2
:1039600005D5686930218843E1680843686120789B
:10397000C00606D568690321890288432169084386
:1039800068612088C00406D568690321090288435C
:103990006169084368612088800506D5686903214C
:1039A00089048843A16A084368612088400506D5D8
:1039B0006869032109058843E16A08436861207842
:1039C000800606D56869032109038843A169084375
:1039D00068612078400606D5686903218903884319
:1039E000E16908436861208840040ED56869216B4D
:1039F00080008008084368610121206B89078842A4
:103A000003D1F06889130843F0602068000305D5EE
:103A1000686940218843616B0843686120688102BE
:103A200035480BD569698210A36B914319436961CD
:103A3000A16B914202D1F1680143F1602168490212
:103A40000AD56969E26B814311436961E16B814287
:103A500002D1F1680143F160218809050DD5A969FA
:103A6000226A890889001143A961216A012904D1C8
:103A7000F168012212041143F160218889040DD5F7
:103A8000A9690C229143626A1143A961616A042900
:103A900004D1F168012212041143F1602168C901C7
:103AA0000ED5A969032212039143626C1143A961E7
:103AB0000122616C5203914202D1F1680143F1602D
:103AC000216889010DD5A969032212029143A26CD4
:103AD0001143A961A26CD11FF93902D1F1680143E8
:103AE000F1603846FEBD0000401002400010024068
:103AF000007000408813000000000001F8B50F4678
:103B0000060043D04D4D28684007400FB84213D2FD
:103B10002868C008C00038432860FFF76BFA0446E5
:103B200005E0FFF767FA011B4548814261D8286824
:103B30004007400FB842F4D13068424C81070DD5A0
:103B4000400704D5A068072109030843A060A068C6
:103B50000F2109028843B1680843A0603078C0078C
:103B600032D0706801280AD002280BD000280FD06C
:103B70003449403103280ED0C969890704E021681F
:103B8000890301E021688901002906DB0120F8BDD5
:103B900021684905F8E7096AEFE7A168C908C90083
:103BA0000143A160FFF726FA009006E0FFF722FA32
:103BB0000099411A224881421BD8A0683821084048
:103BC0007168C9008842F1D128684007400FB842A7
:103BD00017D91A480168C908C90039430160FFF7BD
:103BE00009FA054607E0FFF705FA411B1448814230
:103BF00001D90320F8BD114800684007400FB842C2
:103C0000F1D13078400706D5A06807210903884321
:103C1000F1680843A06000F04DF8A1683C228909D2
:103C20001140094A515CC906C90EC84007490860DD
:103C300007480068FFF77CFDF8BD00000020024047
:103C40008813000000100240C49500089C0000206A
:103C50009400002010B5072202600A4A93685B07AF
:103C60005B0F436093680F242402234083609268B3
:103C700007231B031A40C260034800684007400F37
:103C8000086010BD001002400020024006480749AD
:103C900000688968064A4904490F8900515CC906D1
:103CA000C90EC840704700009C0000200010024070
:103CB0000496000810B5204CA068204A8006400FEA
:103CC00016D0A0688006410F501001290FD0A168BE
:103CD0008906490F022912D0A0688006400F0428E7
:103CE00023D0A0688006400F032821D0002010BDFB
:103CF000206801218004400F8140104612E0E168F5
:103D00008B07E1689B0F4906490F491C032B00D024
:103D10001046FCF7EDF9E1684904490E4843E168B3
:103D2000490F491CFCF7E4F910BD0120C00310BD88
:103D30007D20000210BD0000001002400024F400AD
:103D4000F8B504007ED020783827C007FE4D002843
:103D500046D0A868E96838408907890F102802D042
:103D600008280BD001E0032908D001206268000474
:103D700082420AD129680143296015E0286880033E
:103D80002ED560680028DDD02AE0052301211B0420
:103D900089049A422A6802D10A432A60EAE78243E8
:103DA0002A60286888432860606800280CD0FFF7E4
:103DB00021F9064604E0FFF71DF9801B642873D83B
:103DC00028688003F7D50BE0FFF714F9064604E0F6
:103DD000FFF710F9801B6428F1D828688003F7D416
:103DE0002078800769D5A868E96838408A070721E4
:103DF000920FC902102802D0002813D001E0022A35
:103E000010D0E068002846D028688843216908431C
:103E100028602868FF21013108432860FFF7EAF88D
:103E200006462CE02A68520502D5E268002A89D0AD
:103E30006A687F231B029A4363691B021A436A6004
:103E4000002800E08DE00ED12868884321690843EE
:103E50002860286801218004400F8140BB48FCF79E
:103E600047F9BB490860BB480068FFF761FC0028C0
:103E700077D122E0FFF7BEF8801B02289FD8286880
:103E80004005F7D568687F21090288436169090206
:103E90000843686011E02968FF20013081432960F0
:103EA000FFF7A8F8064605E0B5E0FFF7A3F8801B8A
:103EB000022884D828684005F7D42078A64E000749
:103EC0002ED5A8688006400F03280AD0A0690028D4
:103ED000306A16D0012108433062FFF78BF807469D
:103EE0000BE0306A80071BD5A06900289FD017E03F
:103EF000FFF780F8C01B0228C0D8306A8007F7D5CA
:103F00000EE0400840003062FFF774F8074604E016
:103F1000FFF770F8C01B02287DD8306A8007F7D4FD
:103F2000207840076BD5A86800278006400F04283A
:103F300018D0E86BC00008D4E96B012000070143EA
:103F4000E963E96B01400127009184480168C905D4
:103F500019D40168821511430160FFF74BF80090F6
:103F60000DE083E0F069800749D5A06800287DD086
:103F700045E0FFF73FF80099401A02284BD87748F0
:103F80000068C005F5D5A168012910D004200529D5
:103F9000F16911D049084900F161F1698143F1618A
:103FA000A068002816D0FFF725F800900EE0F06911
:103FB00001210843F061F3E70143F161F7E7FFF7FF
:103FC00019F80099411A6648814224D8F06980079F
:103FD000F5D50DE0FFF70EF8009006E0FFF70AF8C0
:103FE0000099411A5E4881427FD8F0698007F5D474
:103FF000002F04D0E96B012000078143E96320789A
:10400000800624D50120E16980050029296810D0A7
:104010000143296000E068E0FEF7ECFF064604E09B
:10402000FEF7E8FF801B02285FD828680002F7D55A
:104030000DE081432960FEF7DDFF064604E0FEF750
:10404000D9FF801B022850D828680002F7D4206AC4
:10405000002844D0A9688906490F02294FD00126BB
:1040600036060228286807D0B04300E07FE02860C9
:10407000FEF7C0FF04463AE0B0432860FEF7BAFFFF
:10408000074604E0FEF7B6FFC01B02282DD82868BB
:104090008001F7D4A16A606AE26A0843216B1202C8
:1040A00011430843616B0843A16B0843E9682D4A3B
:1040B00011400843E860286830432860E86801211F
:1040C00009070843E860FEF795FF044604E0FEF7A1
:1040D00091FF001B022808D828688001F7D548E026
:1040E000FEF788FF001B022801D90320F8BD2868CD
:1040F0008001F5D4E8681C490840E86039E00128EF
:10410000F4D0E868626A8107890F91422FD170214B
:10411000A26A014091422AD17F21E26A090201404C
:104120001202914223D11F214904226B0140914286
:104130001DD107214906626B0140914217D1400F02
:10414000A16B4007884211E0001002400024F400F7
:104150009C000020940000204010024000700040AD
:10416000881300008C80C111FCFFFEEE01D00120FD
:10417000F8BD0020F8BD000070B504460120002CF9
:104180004BD025462035687A002806D128721120A8
:10419000C0026060204600F047F802206872206884
:1041A000C168C943C90639D5CA2141622168532073
:1041B0004862204602F0F3F8002829D1206881697E
:1041C000184A1140816121688869A268E369104337
:1041D00062691A4310438861216820690861206878
:1041E0000169A289120411430161204602F0FAF824
:1041F00000280DD121688A69D200D2088A6121681D
:104200008A69636AA6691A43236A33431A438A6137
:104210002268FF215162002801D070BD00200121D9
:10422000697270BDBFFF8FFB10B594B004464C217E
:104230006846FBF7D0FF1049206888421AD1012058
:1042400040040090401210906846FFF717FB0028CA
:1042500001D0FEF73AFC0948C1690122D20311439B
:10426000C16106484038C26B01150A43C263C06B86
:104270000840139014B010BD0028004040100240C8
:1042800070B5044621680A48C860FEF7B3FE7D2673
:104290000546F60006E0FEF7ADFE401BB04201D930
:1042A000032070BD2068C0688006F4D5002070BD72
:1042B0005F00010003490A6803235B029A4302433B
:1042C0000A60704700000140704770477047000067
:1042D000F0B5034620331A7F012A2DD001221A7728
:1042E00002225A7705686A68AC68144EB54204D158
:1042F0000F273F05BA434F683A437027BA430F6808
:1043000017436F600068B0420CD0012292079042C0
:1043100008D00B4A904205D00A4A904202D00A4A7D
:10432000904204D180228968944321438160012016
:10433000587700201877F0BD0220F0BD002C014016
:1043400000040040000800400040014070B5040037
:1043500005D025462035687F002802D006E00120E0
:1043600070BD00202877204600F016F802206877FC
:10437000211D206802F0AAF8012240342272AA7797
:10438000EA7722706270A270E27022716271A2718B
:10439000E2716A77002070BD08B50068054988425F
:1043A00007D10548C26B02210A43C263C06B0840B3
:1043B000009008BD0004004000100240014620317A
:1043C0004A7F012A01D00120704702224A77016802
:1043D000CB6801221343CB6000680E4988420BD0A2
:1043E0009107884208D00C49884205D00B49884281
:1043F00002D00B49884207D181680A4B194006292F
:1044000005D0DB1F994202D00168114301600020F2
:1044100070470000002C01400004004000080040EC
:104420000040014007000100F8B50546044620356C
:10443000287F0026012817D001272F7702206877D0
:10444000226890682F4B1840FF231B02984390600E
:104450000868502838D00EDC20284FD006DC002811
:104460004CD010281ED149E00220F8BD302845D09C
:10447000402817D13AE060282ED0702818D00122A9
:104480001203801A0FD090420CD1CB684A68896819
:10449000206802F082F820688168012292031143AB
:1044A000816000E001266F77002028773046F8BD54
:1044B000CB684A688968206802F06FF821688868CC
:1044C000772210438860EEE7CA684968206802F0E6
:1044D000EDF95021206806E0CA684968206802F0BA
:1044E0000FFA6021206802F063F8DCE7CA684968C7
:1044F000206802F0DBF940212068F4E722680146D9
:104500001046F0E788FFCEFF70470000F8B504467C
:104510000068C66805690027A907002913DAB107F2
:1045200011D5F91E0161012020772068806980077C
:10453000204602D0FFF7E8FF04E000F0B3F8204681
:1045400000F06CF92777680716D5700714D504209A
:104550002168C043086102202077206880698005B7
:10456000800F204602D0FFF7CFFF04E000F09AF85A
:10457000204600F053F92777280715D5300713D5C3
:1045800008202168C0430861042020772068C069A2
:104590008007204602D0FFF7B7FF04E000F082F862
:1045A000204600F03BF92777E80616D5F00614D52B
:1045B00010202168C0430861082020772068C06966
:1045C0008005800F204602D0FFF79EFF04E000F038
:1045D00069F8204600F022F92777E80708D0F007AD
:1045E00006D001202168C0430861204600F0DAF9B6
:1045F000280601D4A80407D5300605D5216813483C
:1046000008612046FFF761FEE80507D5300605D5AD
:1046100021680F4808612046FFF756FE680608D556
:10462000700606D540202168C0430861204600F08E
:10463000C3F9A80608D5B00606D520202168C043D6
:1046400008612046FFF742FEF8BD00007FDFFFFF54
:10465000FFFEFFFF10B586B0044614216846FBF745
:10466000BAFD0D492068884213D10C48426B0221E3
:104670000A434263406B019108400590202000905E
:104680000020029003900120049069460448FEF740
:10469000F3FB06B010BD0000000400400010024013
:1046A000000400507047F8B5044600202646203626
:1046B0000090307F0D4601280CD00120082730776C
:1046C0000C2A48D008DC002A10D0042A1ED0082A60
:1046D00006D130E00220F8BD102A52D0142A60D052
:1046E00001200090002030770098F8BD206801F08C
:1046F00069FF2068816939438161206881690422EA
:1047000091438161206881692A6911E0206801F084
:10471000A1FF206881690122D202114381612068D2
:104720008169521091438161206881692A6912026E
:1047300011438161D6E7206801F0D0FF2068C1698C
:104740003943C1612068C16904229143C161206875
:10475000C1692A6912E0206802F004F82068C16982
:104760000122D2021143C1612068C269012189027C
:104770008A43C2612068C1692A6912021143C1617A
:10478000B0E7206802F028F82068416D39434165A0
:104790002068426D04218A4342652068416D2A6980
:1047A00012E0206802F04CF82068416D0122D2022C
:1047B000114341652068426D012189028A434265A7
:1047C0002068416D2A691202114341658AE770B57C
:1047D000040005D025462035687F002802D006E079
:1047E000012070BD00202877204600F016F8022036
:1047F0006877211D206801F069FE01224034227291
:10480000AA77EA7722706270A270E27022716271F8
:10481000A271E2716A77002070BD70477047000096
:1048200030B504460223203000290ED0042911D0CF
:1048300020464030082912D00C2915D0102918D054
:10484000C278012A1AD0012030BD827F012AFAD114
:10485000837714E0C27F012AF5D1C3770FE0027895
:10486000012AF0D103700AE04278012AEBD14370AB
:1048700005E08278012AE6D1837000E0C37001224E
:10488000206801F07DFE174A20681749904207D042
:10489000884205D0154B984202D0154B984204D15E
:1048A000436C0125ED032B434364206801239042B0
:1048B0000AD09A07904207D00E4A904204D00E4A7E
:1048C000904201D0884207D181680C4A11400629E4
:1048D00005D0D21F914202D0016819430160002027
:1048E00030BD0000002C0140004001400044014068
:1048F000004801400004004000080040070001009B
:1049000070B504460D460068002201F039FE2149C9
:104910001F4B20688A12984208D01F4B984205D03E
:104920001E4B984202D01E4B98420AD1036A0B429A
:1049300007D1036A134204D1436C0126F603B34343
:1049400043642068036A0B4206D1016A114203D115
:104950000168490849000160214620310120002DED
:104960000BD0042D0BD04034082D0AD00C2D0AD0CA
:10497000102D0AD0E070002070BD8877FBE7C87763
:10498000F9E72070F7E76070F5E7A070F3E7000043
:10499000002C014011111100004001400044014071
:1049A0000048014010B500680249884201D1FEF775
:1049B000A3FE10BD00200040704710B501468031B5
:1049C0000A79012A15D001220A7124228A6002681C
:1049D000136814686408640014600122520793434A
:1049E0000022426600680360202088600A71104639
:1049F00010BD022010BD70B50446054680342079F4
:104A000001281AD0012020712420A060286806689F
:104A100002685208520002602868826807235B0619
:104A20009A430A438260284601F086FF28680660A0
:104A30002020A0600020207170BD022070BD70B5E4
:104A40000446054680342079012819D001202071C0
:104A50002420A0602868066802685208520002609C
:104A600028688268D200D2080A438260284601F092
:104A700063FF286806602020A0600020207170BDC0
:104A8000022070BD70B5040005D025468035A868A9
:104A9000002802D006E0012070BD002028712046C9
:104AA00000F026F82420A860206801684908490021
:104AB0000160A06A002802D0204601F05FFF204676
:104AC00002F050F80128E7D0206841680922D2029C
:104AD00091434160206881682A2291438160206867
:104AE0000168012211430160204601F0ADFF70BD55
:104AF00030B599B00446142113A8FBF76CFB4C2188
:104B00006846FBF768FB18492068884229D10124D0
:104B10000025684601950094FEF7B0FE002801D0FC
:104B2000FDF7D3FF11480268012189030A4302609F
:104B30000068084018900D484038416B214341639C
:104B4000406B1595C007C00F1890032040021390CA
:104B500002201490052013A9169517940007FEF75C
:104B60008BF919B030BD0000003801404010024000
:104B7000FFB5064604468036B06883B00D4620284F
:104B800002D0022007B0F0BD002D3BD005980028D0
:104B900038D00120A1680003814204D12069002897
:104BA00001D1E8072ED1002030612120B060FEF74E
:104BB00021FA0190274640370598B8820598F88277
:104BC0000120A1680003814202D12069002802D09F
:104BD0000295002522E0002002901FE000228021A3
:104BE000204602F009F9002825D1029800280BD0B0
:104BF0002168007888620298401C0290B1682120E8
:104C0000884308D00120BDE728882168C005C00D71
:104C10008862AD1CF2E7F88A401EF882F88A019B90
:104C2000002806980090D9D100224021204602F0A9
:104C3000E3F8002803D02020B0600320A2E7202062
:104C4000B06000209EE7FEE701688A69D2439207C0
:104C500001D400228A6200688169C943C90703D070
:104C6000816901221143816170470000F7B5044654
:104C7000006882B0816900262746C906403735465C
:104C80000092002945DA1021C16132E00398401CEE
:104C90002FD0FEF7AFF90099411A0398814201D84D
:104CA000002826D120684168012292031140BA7879
:104CB0008369DB431B0417D401239B03994213D060
:104CC000202A11D0416819434160FEF793F9009002
:104CD0000AE0FEF78FF901460098081A192803D94F
:104CE00020200543012604E020688069C043800637
:104CF000EFD420688069C043800602D5002EC5D05D
:104D000004E0002E02D121682020C8610420054360
:104D1000012621688869C20504D5012215431202C3
:104D2000CA610126410508D508210D43CA01216841
:104D3000CA610126800502D40AE0800506D502205A
:104D4000054321680002C861012601E0002E0FD052
:104D50002046FFF779FF20684168074A114041600B
:104D6000606C28436064202078700020B870387030
:104D7000304605B0F0BD000000E800FEF8B504467E
:104D8000164615481D46DAB20090079F00232046BC
:104D900000F054F83A462046069900F0C9F8002879
:104DA00018D12846F5B2012809D02168300A886256
:104DB0003A462046069900F0BBF800280AD1206840
:104DC00085620097002240212046069B00F04CF8A7
:104DD000002800D00120F8BD00200080F8B504466E
:104DE000164615481D46DAB2C3020090079F2046BA
:104DF00000F024F83A462046069900F099F8002879
:104E000018D12846F5B2012809D02168300A8862F5
:104E10003A462046069900F08BF800280AD120680F
:104E200085620097002280212046069B00F01CF836
:104E3000002800D00120F8BD00200080890510B5B1
:104E4000890D12041143029C194302682143490051
:104E500050684908630D034C23439843084350604E
:104E600010BD0000FF63FF03F8B51D4617460E4650
:104E7000044626E029462046069AFFF7F7FE00285A
:104E800001D00120F8BD681C1BD0FEF7B3F80699CD
:104E9000401AA84201D8002D13D1206881693046FC
:104EA00088430CD00020B8420BD1616C2020014314
:104EB0006164403460700020A0702070E1E7012040
:104EC000F1E7206881693046884304D00020B84269
:104ED000D0D00020F8BD0120F9E770B516460D4688
:104EE00004461EE0324629462046FFF7BFFE002852
:104EF00001D0012070BDFEF77DF8801BA84201D8CB
:104F0000002D0ED120688069C043800609D5616CF0
:104F1000202001436164403460700020A070207044
:104F2000E7E720688069C0438006DBD4002070BDBD
:104F300070B516460D46044620E032462946204606
:104F4000FFF794FE002801D0012070BD681C15D029
:104F5000FEF750F8801BA84201D8002D0ED1206822
:104F60008069C043800709D5616C202001436164DA
:104F7000403460700020A0702070E5E720688069F0
:104F8000C0438007D9D4002070BD000010B50921AE
:104F9000C9010348FBF71FF900F094F810BD0000A9
:104FA0008404002010B5902811D240290FD2CB08DC
:104FB0004C07640F0121A140054CC0000019002AD4
:104FC000C25CC9B201D00A4300E08A43C25410BD9A
:104FD0008404002010B519204001FDF7B3FD002125
:104FE000AE2000F02FF90021084600F02BF9002137
:104FF000102000F027F90021402000F023F90021C3
:10500000812000F01FF90021CF2000F01BF90021C2
:10501000A12000F017F90021C82000F013F90021A9
:10502000A62000F00FF90021A82000F00BF90021C4
:105030003F2000F007F90021D32000F003F9002100
:10504000084600F0FFF80021D52000F0FBF8002111
:10505000802000F0F7F80021D92000F0F3F80021BB
:10506000F12000F0EFF80021DA2000F0EBF8002149
:10507000122000F0E7F80021DB2000F0E3F8002127
:10508000402000F0DFF80021202000F0DBF80021B4
:10509000022000F0D7F800218D2000F0D3F8002185
:1050A000142000F0CFF80021A42000F0CBF800215C
:1050B000A62000F0C7F8FFF769FF0021AF2000F03D
:1050C000C1F810BD70B5104E00242046B030C0B2FB
:1050D000002100F0B7F80021084600F0B3F80021E5
:1050E000102000F0AFF80025E8008019005D0121D4
:1050F00000F0A8F86D1CEDB2802DF5D3641CE4B26D
:10510000082CE2D370BD000084040020FFB589B0F4
:105110000998203A1C460E46059107905F2A60D2F6
:1051200060080490082C12D00C2C03D0102C01D055
:10513000182C56D1E008610700D0012140180499CD
:105140004843C0B20190D0B20390002045E0062051
:10515000F8E7082C0FD00C2C12D00398102C14D088
:105160002421484321494118009800270D5CE80795
:105170000ED0129A10E00398062148431C49F2E72A
:1051800003980C2148431B49EDE700011A49EAE75F
:105190001298002827D0002231460998FFF702FF15
:1051A000761C7F1C6D08FFB2F6B2082FDFD309987A
:1051B000401CC0B20990082C0BD00799401AC1B20C
:1051C0000498814205D10798099005980830C0B22B
:1051D00005900098059E401CC0B20199009088423D
:1051E000B7D30DB0F0BD0122D6E700009E870008BE
:1051F000127B00083A7D0008AE810008FFB581B03F
:105200001C46150006461AD0082C07D00C2C03D0DB
:10521000102C01D0182C12D167080BE0062709E0EA
:105220000A980090234630460299FFF76FFFF01965
:10523000C6B26D1C2A78002A01D0802EF0D305B0AA
:10524000F0BD00001CB500290CD0402269460A714F
:10525000487164200090022301AA78210248FDF7DA
:10526000FBFF1CBD0022F1E75C010020C3B2000A75
:1052700010B5C318002004E00C5CE318401C9BB27E
:10528000C0B29042F8D3D843C0B210BD002801D0BC
:10529000202801D9072070470020704770B50546C7
:1052A0000020024607240FE0AB5C584000230606AE
:1052B00002D54000604000E040005B1CDBB2C0B2A1
:1052C000082BF4D3521CD2B28A42EDD370BD38B54C
:1052D000902000F021FA00280AD10024684600F04E
:1052E0003DF8002804D168460078002801D000204D
:1052F00038BD0120FDF726FC641CA4B2642CEDD35C
:10530000062038BD38B5922000F006FA002811D1E9
:105310000024684600F022F800280BD16846007887
:10532000002807D00120FDF70DFC641CA4B2642CFA
:10533000EFD3062038BD00000148406870470000E8
:105340006C00002001490020087070476C000020AC
:1053500001480078704700006C00002038B5040058
:105360000DD002226946122000F026F8002805D14F
:1053700068460088C007C00F2070002038BD02209A
:1053800038BDF8B516460D00044613D068460470C3
:10539000210A4170022269463E2000F001FA0028ED
:1053A00007D10220FDF7CEFB32462946204600F009
:1053B0009FF8F8BD0220F8BDF7B596B016460F006D
:1053C00006D0002E01D0222E04D9072019B0F0BD3E
:1053D0000220FBE7324801786420002911D07100D7
:1053E0001491029003AC01910123009410212D48E7
:1053F000169AFDF7CDFF00280FD000F079F90320B1
:10540000E4E7029001920123009710212548169AA3
:10541000FDF7BEFF0028F0D1D8E70025002E1ED8EA
:105420003CE0002D1BD0680000190121FFF736FF7A
:1054300069000A19527882422AD0149AD6B2082EEC
:1054400000D908266A001219527800920190635C14
:105450002A461548169901F017FD002511E0102184
:10546000684601721699417211218172017BC172E5
:10547000042102A8DAE7615D0CA001F005FD6D1CB6
:10548000EDB2B542F7D30BA001F0FEFC04209DE77E
:10549000605C78556D1CEDB2B542C2D3002095E733
:1054A0006C00002008010020249800082530327884
:1054B000000000000D0A0000F8B516460D00044675
:1054C00013D068460470210A4170022269463E20CA
:1054D00000F066F9002807D10220FDF733FB3246C1
:1054E0002946204600F004F8F8BD0220F8BD00006F
:1054F000F7B506468CB015461046FFF7C7FE0028E4
:105500001DD10024022269463E20FFF755FF0028E6
:1055100004D004460246314639A00DE068460188B1
:10552000B1420ED1012202A96120FFF745FF04001C
:1055300010D0024631463DA001F0A6FC20460FB037
:10554000F0BD0120FDF7FEFA641CA4B2642CD9D38F
:105550000620DEE76846027A042A04D231463EA0DD
:1055600001F092FC0DE0101F0406240E03D0202C45
:1055700001D8A54207D9234631464348009501F09A
:1055800083FC0720DBE7224603A94020FFF714FF36
:10559000070003D0024631463CA009E0012201A9E0
:1055A0006020FFF709FF070006D00246314642A0FF
:1055B00001F06AFC3846C2E7224603A93046FFF7ED
:1055C00055FE6946097988420ED0224603A9304625
:1055D000FFF74CFE03466846009402793146434883
:1055E00001F052FC0520AAE7002003A904E00D9A6F
:1055F0000B5C1354401CC0B2A842F8D300209EE7B5
:105600006271207472616E73666572206563686F83
:10561000206661696C20636D643A30782530347897
:10562000207265743A25640D0A00000062712074CE
:1056300072616E73666572206C656E677468206651
:1056400061696C20636D643A30782530347820725B
:1056500065743A25640D0A006271207472616E737C
:10566000666572206C656E6774682073686F72740B
:1056700020636D643A307825303478206C656E3A5A
:1056800025750D0A00000000E09700086271207483
:1056900072616E73666572206275666665722066F9
:1056A00061696C20636D643A3078253034782072FB
:1056B00065743A25640D0A006271207472616E731C
:1056C00066657220636865636B73756D20726561D2
:1056D00064206661696C20636D643A3078253034EB
:1056E00078207265743A25640D0A00009C970008C2
:1056F00010B50348FDF7CDFC0249486010BD00001D
:10570000080100206C00002010B50A20FDF71AFAED
:10571000122000F001F810BD08B569460870000AB3
:10572000487002223E2000F03BF808BD0149087095
:10573000704700006C00002070B58AB00E0005466E
:1057400014460BD01046FFF7A1FD002807D168468C
:105750000571290A4171002001A907E002200AB061
:1057600070BD325C0B18401C9A70C0B2A042F8D3D6
:10577000A01CC2B23E2000F013F80028EFD1224650
:1057800031462846FFF772FD014668460170241D28
:10579000447002226946602000F002F8DFE7000052
:1057A000F0B595B0074615460E0006D0002D01D085
:1057B000222D04D9072015B0F0BD0220FBE72048B8
:1057C0000078002803D06846077200241AE064209D
:1057D00001920091029001233A4610211948FDF7E9
:1057E00081FE1AE0620002A81018315D009041703D
:1057F000002C18D030190121FFF750FD0099887056
:10580000641CE4B2AC42EDD364206B00009002AAA9
:1058100010210C485B1CFDF71FFD0028CBD0FFF7C3
:1058200067FF0320C7E71020694608714F71307881
:105830008871032101A8FFF731FD69468872DFE70F
:105840006C0000200801002030B587B014216846A4
:10585000FAF7C1FC1048426B08210A434263406BCF
:1058600000910840002505900195029569460B4876
:10587000FDF702FB00F016F8094C20706070A5706F
:10588000E570FDF7B7FB60606178002900D100206A
:10589000A06007B030BD000000100240000C0050B6
:1058A0007800002010B508210348FDF797FB012878
:1058B00000D0002010BD0000000C005010B50446C0
:1058C000FFF7F0FF0C490A78904202D008704C6054
:1058D00010BD4A789042FBD04A68A21A142AF7D326
:1058E00001224870002802D08A708C6010BDCA70F6
:1058F0000020886010BD00007800002010B5044929
:105900000020487001460120C00200F003F810BDDD
:1059100084000020F8B50446144D4842204000267B
:105920002F68002806D021461148FAF7E1FB00282D
:1059300008D008E0BE6304210C48FEF7E1FF0D48E3
:105940000670F8BD0120401EF862E860401C29681E
:10595000400888632868466204210448FEF760FF17
:105960000448012144800170F8BD0000DC010020E2
:1059700040420F008400002010B503480021417010
:105980004088FFF7C7FF10BD8400002010B505490F
:105990004A78002A04D04968401A01D4FFF7ECFF86
:1059A00010BD00008400002030B587B0182101A888
:1059B000FAF711FC1648017F164D0124022924D064
:1059C000007F01281ED100200190029003900590D5
:1059D000114806900E48049401A94038FDF7C4F818
:1059E00000280FD10A4802220123114640380094B2
:1059F000FDF7E9F8002805D105484038FDF70EFA13
:105A0000002802D0012007B030BD2C700020FAE73A
:105A1000E40000208C000020FF07000010B50A20E1
:105A200000F002F810BD000070B50546FDF7E2FA7F
:105A30000B4E044601231A46A0210A48FDF78AFBB3
:105A4000002808D0FDF7D6FA001BA842F2D30020A8
:105A50003070022070BD01203070002070BD000049
:105A60008D0000205C01002030B587B0142168460D
:105A7000FAF7B1FB0D48426B02210A434263406BC7
:105A8000032408400A4D640305900122214628465C
:105A9000FDF7A9FA002101200291039101900094E1
:105AA00069462846FDF7E8F907B030BD001002400E
:105AB0000004005010B500F0F5F800F0DFF800F039
:105AC000FBF800F0E5F810BD10B500F0F5F800F0B7
:105AD000D5F800F0E7F810BD70B5054680242542E2
